:400000000080002011000000E9000000E900000008B5054B1A6803F53F5302331A6000F02BFA00F063F800BFFA46004010B5054C237833B9044B13B10448AFF30080012394
:40004000237010BD2881FF1F000000004022000008B5064B1BB106480649AFF300800648036813B1054B03B1984708BD00000000402200002C81FF1F0881FF1F0000000065
:4000800008B500F01DFD0A2000F018FE00F0C0FC0F4800F0ABFC62B60E4B0F4C1B7813F0010F10D00D4B00251D7000F07BFC0C4800F019FC0120294600F082FC094800F054
:4000C00012FC402300E08023237000F091FBFEE7AD0C000069640040FA4600407B6500404422000055220000FEE7000008B51249124B4A1C1AD053F8106C53F80C0C53F8B6
:40010000085C0022AA4200EB020403D0B45884500432F7E753F8040C0022824203D00025A5500432F9E710330139E2E702F04CF8FFF7A6FFFEE700BF00000000C0260000B0
:4001400008B5114A114B1A609A6842F400729A600023032B98BF0E4A4FEA830094BF52F823100C490C4A0133302B1150F1D10B4B19780B4B19700B4B1A6000F017F80A4B1A
:4001800000221A6008BD00BF0004FA050CED00E000000000E90000000080FF1FBC7600400481FF1F08ED00E00081FF1FF8B572B66A4B61221A70A3F5F0634FF4E1521A80A1
:4001C000192541F61F429D709A8003229D711A81634A182340F65401137051801371614B06221A705222A3F580731A705E4B00241A785E4BD2B21A7040F61802A3F27F4345
:400200001A8041F2512223F8022C594B4FF4F0701B7803F0010343EA440400F061FC013D04F003041BD0032CEFD1524B4FF480721A8007221A70504A0024482114709170C4
:4002400002221C705C7103F8032C93F89E2342F00F0283F89E23012283F8FC2700E0FEE7464B0021234418689A88063401F0DBFF2A2CF5D100231946414C00221859803454
:4002800020F0FF06C0B2450004EB4104AA4208D004EB020CA75C9CF801C0023207F806C0F4E70433802B0144E6D1364B364C1A7842F002021A701A7C42F002021A74334A47
:4002C000137843F040031370314B197841F010011970304B186859681D4603C455F80A0F1989B83424F8B81C696803C429891D4655F8140F21806968283403C429891D4611
:4003000055F81E0F21806968B83C03C429891D4655F8280F21806968083403C429891E48218053F8321FA4F6A854016059681B4B4160197841F008011970194B19491B7847
:40034000DBB203F007001B0908704B70164B442119700FCA07C42380F8BD00BF004800408A400040004300400F010049A146004025420040044000400640004068220000C5
:40038000942200000350014000510040A0430040C24300400C2500006251004022430040CF0100496E58004076580040004710B500232AB1013A4418A45C2344DBB2F8E790
:4003C000184610BD0138092842D8DFE800F0050B11171D232F29353B0902C1F57F3101F570713BE00902C1F57F3101F2C13138E00902C1F57F3101F2C5312AE00902C1F561
:400400007F3101F2C9312CE00902C1F57F3101F5747123E00902C1F57F3101F2D1311DE00902C1F57F3101F2D63112E00902C1F57F3101F2D2310CE00902C1F57F3101F54A
:40044000757106E00902C1F57F3101F5767108E000210B78487843EA002070470878C0B270470B784A788878000440EA02201843CB7840EA0360704710B50B4B1A7802F053
:40048000C002802A0ED100241C7002202146FFF799FF38B121460220FFF794FFBDE81040FFF784BF10BD00BFFA460040F8B5044621460320FFF786FF214607460420FFF72B
:4004C00081FF013700EB072721460320FFF77AFF0025013003022E46BB4209D213F8012B511EC9B2FD29154498BF0126EDB2F3E701202146FFF766FF6D42EDB2854204D127
:40050000002E14BF00200620F8BD0620F8BD000080B5ADF51A7D00F0F7FA10B1002000F0C3FB00F0F9FC62B600273D4604A84FF4967101AAFF2300F01FFD0028F6D1BDF8EC
:400540000420062A40F248819DF81030012B40F043819DF812309DF8134043EA042404F1070E04AB234496455E79197900F232819B79172B40F03081231D9BB233B10DF174
:400580000F02D25C013B104480B2F6E7404241EA062380B2834240F021819DF811309DF81460313B0A2B00F2E780DFE813F00B001B00E500E500E500E500800091003F0011
:4005C000A000D600002F00F00781002C40F004812046FFF76BFFD0F1010038BF00208DF81400B8E0002F00F0F780012C40F0F480032E00F2F1807A4B1B681B68C3F3074268
:40060000964202D1C3F3072303E08CBF00234FF480738DF814301B0A8DF815300024FF238DF816308DF817400421A7E0002F00F0D380022C40F2D080033C4FA828440DF195
:400640001701224601F0E6FDA6F1400325443F2BADB203D800F002FB102301E04FF480739D4240F084809DF816109DF815303F2E43EA01210ED85A4B01EB06221B6892B23E
:400680001B68C3F30F2013F0FF0F1CBF013080B282426ED32B464FAA304600F07DFA00280CBF00240A24002500F024FB65E0002F00F092802E19B6F5967F00F28B804FA84D
:4006C0002844224605A901F0A5FDB5B2002454E0002C40F08180434A02AB92E8030005AA83E8030082E803000127082146E0002F72D0032C70D19DF815309DF8168043EAFE
:400700000828A6F140033F2B07D837484FEA08111022FFF74CFE044619E008EB0621002009024FF48072FFF742FE032E04460ED1B8F1FF0F0BD100210520FFF743FE201A8C
:40074000C4B200210620FFF73DFE201AC4B264428DF814400024012110E00020FFF7A6FE10B9224B80221A7000F0A0FA34E0002530E000250A2400E00524002101238DF811
:40078000103000220B1DADF806108DF811408DF812108DF813209BB20DF10F00C05C013B02449BB292B2002BF6D1524205AB92B25A540DF11503120A5A540DF116031722DE
:4007C0005A54073104A889B20DF10602962300F0B2FBABE60324D0E70424CEE70824CCE70C81FF1F4825000000800040FA46004070B50020FFF75AFE144D00282B684FF05F
:4008000000001C68014622460CBF00260626FFF7CEFD6B681B78181A00F0FF00984200D114B9002000F040FA094B1A7802F0C002402A1A4600D01EB100231370FFF768FE59
:4008400080221A70BDE8704000F030BA0C81FF1FFA46004010B50B4C237803F09F032370237803F0F0032370237843F0100318432070012000F036FA237803F0EF032370DF
:4008800010BD00BF7864004010B50D4C237843F020032370237803F0BF032370237803F0F0032370237843F0100318432070012000F018FA237803F0EF03237010BD00BF69
:4008C0007864004010B504460009FFF7DDFF642000F008FA04F00F00FFF7D6FFBDE81040962000F0FFB938B505460078012428B1FFF7E8FF285D0134E4B2F8E738BD10B5E7
:4009000004460009FFF7A6FF642000F0EBF904F00F00FFF79FFFBDE8104040F6C41000F0E1B908B5282000F0C9F90320FFF792FF052000F0C3F90320FFF78CFF0F2000F05C
:40094000BDF90320FFF786FF012000F0B7F90220FFF780FF052000F0B1F90620FFF7CFFF0E20FFF7CCFF2C20FFF7C9FF0820FFF7C6FF0120FFF7C3FF0C20FFF7C0FF032069
:40098000FFF7BDFFBDE80840052000F097B9000008B50C20FFF7B3FF014B01221A7008BD4481FF1F10B5054C63781BB9FFF7B9FF01236370BDE81040FFF7EABF4481FF1F20
:4009C000032811D8DFE800F00205080B81F0800008E0A1F1400004E0A1F16C0001E0A1F12C00C0B2FFF78BBF70470000064A0423136002F688321268E0219064034A1170A4
:400A0000A2F202321360704780E100E002E400E0014B04221A60704780E200E01E4B1A78A3F65D3342F0020283F85D2B93F85F2B02F08F0242F0300283F85F2B93F8682B5C
:400A400002F0CF0283F8682B93F8682B42F0300283F8682B93F8682B02F0F00283F8682B93F8682B42F00F0283F8682B4FF6FF72A3F8612B0122A3F8632B002283F8602B45
:400A80001A7842F001021A7093F85E2B42F0010283F85E2B704700BF004F0040074B1A7842F001021A701A7C42F001021A7493F85D2B42F0010283F85D2B7047A34300406F
:400AC00010B5054C23781BB9FFF7A8FF01232370BDE81040FFF7E2BF4681FF1F000000000230800800F0058000BF013800467FF4FCAF7047EFF3108072B6704780F310880E
:400B0000704700BFAFF3008038B500F02DF900F0B5F9002838D100F0EBF9072804460FD11B4B1A78900703D4012000F0DBF8F7E71A78910704D51B789B0814BF072400249B
:400B400000F0BCF90CBB00F00FF900F097F9D8B9012000F079F9072805D04FF0FF3410E02B789B07F9D40B48022100F00FF90228074DF5D12B789A0703D4012000F0B2F87D
:400B8000F8E700F09BF900E00424204638BD00BF224700405481FF1F4128F8B505460E4617461C460AD8411F3A298CBF002101213F2804D8B6F5807F29D805E00121812EC9
:400BC00028BF0121102C22D10FB301BB00F056F9F8B92346284631463A4600F0F1F80728044611D11B4B1A781F4612F0020F03D1012000F077F8F5E71A78900702D51B781A
:400C00009B0808D04FF0FF3400F058F91FE001241DE004241BE0104B28461A7831465B7800F0F2F807280446EED13A78094B910703D4012000F056F8F7E71A789207E1D5F8
:400C40001B789B080CBF00246FF00004DCE72046F8BD00BF224700405481FF1F08B5FFF749FF0F4B1A780C3342F0080203F80C2C1A7942F008021A71C82283F855231A7855
:400C800042F010021A701A7C42F010021A74054B1B789B06FBD5BDE80840FFF72FBF00BFA04300400047004001BE7047024B1A7842F001021A707047F646004010B504461A
:400CC000B4F5004F064B05D91868FFF709FFA4F50044F5E758686043BDE81040FFF700BF1481FF1F024B1B7A5843FFF7F9BE00BF1481FF1F08B5FFF7FDFE00BF00BF00BF4F
:400D000000BF00BF00BF00BF00BF00BF00BF00BF00BF00BF00BF00BF00BF064B1A8892B242F004021A801B88BFF36F8FBDE80840FFF7E4BE00480040054B00F01F001B68B5
:400D400000F1100253F8220043F82210704700BF08ED00E000F01F0000F16040490100F56440C9B20170704708B5FFF7C3FE064B1A7842F008021A701A7C42F008021A74A8
:400D8000BDE80840FFF7BABEA043004070B506460D460024E3B2AB420CD2074B1B78DB0703D40120FFF79EFFF7E7044B1B7833550134EFE7284670BD2247004020470040DD
:400DC00030B50F490C78A40716D50E4CB6252570D5252570022525700D7805F0020505F0FF015DB9207088B2984203D2505C01312070F8E7072030BD042030BD092030BDFA
:400E0000224700402047004070B50D4D2C78A60712D50C4CB6262670D8262670052626702D78AD070AD42070080AC9B22070217022702370072070BD042070BD092070BDF7
:400E400022470040204700400A4A137899070CD5094BB6211970E12119700E2119701278920704D4187007207047042070470920704700BF224700402047004038B5FFF7BD
:400E800039FE0C4B197879B901250B4A1D7014682C400AD0146824F00104146000BF00BF00BF5D600C4600E00424FFF727FE204638BD00BF4881FF1F0400084010B5FFF797
:400EC00019FE094B002259681A70012908D107490C6844F001040C6000BF00BF00BF5A60BDE81040FFF70ABE4881FF1F04000840074B1B789B0708D5064BB6221A70E022B8
:400F00001A700D221A70072070470420704700BF224700402047004008B562B60020022100F04EF9014B01221A7008BD5081FF1F012000F0F1B9F8B507460E46154603EB58
:400F400083030220394640225C0000F0A7F9022000F086F930B92CB10120013CFFF7AEFEA4B2F4E7022000F07BF910B12E800020F8BD1020F8BD00002DE9F84303EB830300
:400F80005C00234B16461A7880460F469946AAB1254600F053F930B92DB10120013DFFF78DFEADB2F5E700F049F9A8B100F04CF9FFF7BEFF002389F800300DE000F044F93A
:400FC00050B100F03BF938B1FFF7B2FF04E054B1FFF774FE013CA4B2012000F041F901284FF00100F3D100F03BF901280AD14146402F34BF3A46402200F0A4F93080002090
:40100000BDE8F883002333801020BDE8F88300BF5081FF1FF8B5FFF76DFD394B01251A78022642F001021A701A7C364C42F001021A7403F5E75318331D7003F8946C13F8A1
:401040008D2C074602F07F0203F88D2C0020FFF749FE2378284603F0F90323702A4B1A7802F0DF021A7023782B432370FFF73AFE2820FFF737FE254B30461A7802F07F02CF
:401080001A701A7802F0BF021A70237833432370FFF728FE2378384643F0040323701C4B00241C705C70FFF729FD1A491720FFF743FE17200721FFF74DFE17491520FFF736
:4010C0003BFE15200721FFF745FE14491820FFF733FE18200721FFF73DFE20461049FFF72BFE20460721FFF735FE28460D49FFF723FE28460721BDE8F840FFF72BBE00BF53
:40110000A54300409443004012600040F8510040846000400B180000091800005D160000A1170000D5170000184B012210B51A70174B4FF400041C604FF080741C601A6093
:4011400002221A60134B00241C70134B01B103221A70124B124A187000231370114A01201370114A1370114A1370114A1370114A1370114B03221A70802203F8202CFFF7BC
:40118000AFFC0E4B04221A7010BD00BFE681FF1F00E100E05881FF1F096000406281FF1F6A81FF1F5981FF1F6581FF1F6381FF1F7981FF1F5A81FF1F286000401260004076
:4011C00070B5074C064623780D461BB9FFF722FF0123237030462946BDE87040FFF7A4BF5181FF1F0C4B01221A700C4A002313700B4A13700B4A13700B4A13700B4A1370B8
:401200000B4A13700B4A13700B4B03221A70802203F8202C704700BFE681FF1F5881FF1F6A81FF1F5981FF1F6581FF1F6381FF1F7981FF1F5A81FF1F28600040014B187862
:40124000704700BF6A81FF1F044B1A7802F0FF001AB118780022C0B21A7070476581FF1F024B0C2202FB0030407870477A81FF1F0138C3B2072B0CD8074A1B01DBB2985C07
:4012800001329B5C00F00F0043EA0020023880B270470020704700BF0C600040431EDBB2072BF0B52FD8184E0C2404FB0064E7881B01BFB2154DC7F50077DBB2BA421D4413
:4012C00003D9E288C2F5007292B20C2404FB0064E7780F4C47EA12271F55D7B201341F5549B90C2202FB0060002242704179094AC9B29954F0BD0024A7B29742F1D20F5DD6
:4013000001342F70F8E7F0BD7A81FF1F886000400C6000400E600040431EDBB2072B0BD8064A0C2101FB00200022427041791B01034ADBB2C9B29954704700BF7A81FF1F9B
:401340000E600040F8B5431EDBB2072B07460D46144616D8B9B11B010C4EDBB21E44FFF787FFA04228BF204684B200239AB2A24203D23278EA540133F8E73846FFF7CCFFF8
:4013800002E0002400E00C462046F8BD8860004030B51A4B1A481A8801780A4492B219491A80194BCAB21C88A4B284B1174A91420CD05A681278D2B201F8012B5A68013254
:4013C0005A601A88013A92B21A80EAE7082203780F4C082B0F4B00D042B10F490D7885F080050D700F212170022101E00221217019700A4B02701A7030BD00BF6881FF1FFD
:401400005A81FF1F006000406C81FF1F086000406181FF1F5881FF1F6481FF1F7881FF1F074B02221A70074B80221A70064B0F221A70064A00231370054A01201370704725
:401440005881FF1F6481FF1F6181FF1F5A81FF1F7881FF1F10B5154B1A78154B02F00F021988023AD2B2114489B219801149124B188880B278B172B1586811F8014B013A99
:40148000E4B204705868D2B2013058601888013880B21880EBE7094B1A70094B1A7882F080021A70074B0B221A7010BD296000406881FF1F006000406C81FF1F7881FF1FD6
:4014C0006481FF1F6181FF1F064A06231370064A01201370054B80221A70054B00221A70704700BF5881FF1F6181FF1F6481FF1F7881FF1F054B9A683AB19A6804491070EE
:401500009A680988518000229A6070476C81FF1F6881FF1F08B5124B1A78D2B21A701B78DBB21A0602D50F4A137008BD0220FFF7E1FF0D4B1B7803F06003202B05D0402B2C
:4015400006D043B900F0C4FC04E000F013FE01E000F004FE10B9034B03221A7008BD00BF286000406181FF1F0060004008B50849084B01201A8809780A4492B21A80064B5D
:4015800000221A70FFF7B6FF044B03221A7008BD5A81FF1F6881FF1F5881FF1F6181FF1F08B50C4B1B78DBB2042B07D0062B09D0022B0DD1BDE80840FFF7D8BFBDE8084064
:4015C000FFF748BF0320FFF795FF034B03221A7008BD00BF5881FF1F6181FF1F08B5054B002201201A70FFF785FF034B03221A7008BD00BF5881FF1F6181FF1F08B50A4BEB
:401600001A7832B11978094A41F08001117000221A70074B002201201A70FFF76BFF054B03221A7008BD00BF6381FF1F086000405881FF1F6181FF1F074B1B78DBB2042B2E
:4016400005D0062B05D0022B05D1FFF7A1BEFFF7C5BFFFF7D3BF70475881FF1F10B51D4C2378DBB2DA0633D518060AD503F00F03012B2DD1FFF74EFF174B1B78190609D5E8
:4016800010BD5A0602D5FFF7D7FF03E09B061FD5FFF786FF23781B061AD4104B104A1B78127813430F4A13701278934210D10A4B08491A782078D2B2000605D41A78D2B230
:4016C0000A700A7802F00F021B789A42EFD110BD10BD00BF286000406181FF1F6481FF1F7881FF1F29600040054A00231380054A916819B191680B7092685380704700BFEA
:401700006881FF1F6C81FF1F10B50F4C23889BB213B9FFF785FE14E00C4B02221A700C4B00221A70FFF7E0FF0A4B1A78013B1B7843EA0223228892B29A4288BF2380FFF7B7
:4017400027FE012010BD00BF6C81FF1F5881FF1F6481FF1F0760004008B50C4B04221A700B4B80221A70FFF7BFFF0A4B01201A78013B1B7843EA0222074B198889B29142C8
:4017800088BF1A80054B0B221A7008BD5881FF1F6481FF1F076000406C81FF1F6181FF1F094B1B78094B1A7B02F00302012A03D0DA7B82F08002DA7301225A73044B1A78A4
:4017C00002F0FE021A7070470E6000407A81FF1F0B600040094B1B78094B1A7E02F00302012A03D0DA7E82F08002DA7601225A76044B1A7802F0FD021A7070471E6000401C
:401800007A81FF1F0B6000407047FFF7EBBC000008B50C4B18780138C0B200F07BF90A4B0A491B78DBB200EBC3004269CB5C02EBC3035B685A6A064B1178C9B219805A60B3
:4018400008BD00BF6A81FF1F046000406081FF1F6C81FF1F08B50D4B18780138C0B200F059F90B4B0B491B78DBB200EBC3004269CB5C02EBC3035B68DB69597813F8022B8E
:4018800042EA0121044A1180536008BD6A81FF1F046000406081FF1F6C81FF1F10B5194C00232380184B18780138C0B200F032F9164B174A1B781278DBB2D2B200EBC20086
:4018C0004169EAB9134A127801EBC20251685A1E022A15D8104A03F10053013B127801EBC30011F83330D2B2934209D30C235A4341688B1858688A5A9B6860602280A360DF
:4019000010BD00BF6C81FF1F6A81FF1F03600040046000406081FF1F0260004010B53C4B3C4A1B781178DBB2090634D501321278013A052A6AD8DFE802F010182769690346
:40194000354B1A78212A02D1FFF762FF07E01B78222B5BD1FFF77EFF01E0FFF79FFF2F4B1B889BB2002B51D00AE0002B4ED12C4B1B78002B4AD1294B01221A80294A5A606D
:40198000BDE81040FFF7C0BE002B3FD1234B01221A80254AF3E71278120637D4234A1278D2B20A2A0DD00B2A27D0092A2ED1FFF775FF1A4B1B889BB243B3BDE81040FFF7D8
:4019C000CBBE1BBB164B1B7803F0FF01F3B9124B144A1B78DBB21370154B14781878844201D2197005E01978012902D91278D2B21A70BDE81040FFF767BD3BB9084B1A78FE
:401A0000012A03D81A78084BD2B2F1E7002010BD0460004000600040036000406C81FF1F02600040E781FF1FE681FF1F01600040E881FF1F7FB5144B02466D4603F1100613
:401A4000186859682C4603C40833B3422546F7D1BAB122231370032353700C4B13F8011B04ACC9B204EB111001F00F01214411F8101C10F8100C907002F8041F04498B42BE
:401A8000ECD104B070BD00BF50250000000100490801004930B51C4B01211C4A0C2000FB012483F87200657925B12479240658BF082000E0802018700C2000FB0122108906
:401AC0000131C0F3072003F8020C10890929C0B203F8010CD08803F11003C0B283F86800D088C0F3072083F86900D088C0B283F86600D288C2F3072283F86720CDD1044BF0
:401B0000FF221A7030BD00BF0E6000407A81FF1F0A600040074B1A78074B03EBC2035B6803F108021B7A834286BF02EBC0004068002070476281FF1F64250000F8B5394BAD
:401B40001A78002A6CD018780138C0B2FFF7E2FFC368047A083303EBC404A34260D013F8082C314931488D5C805C854256D0895C13F8070C884251D12D4909788A424DD1F8
:401B800013F8060C13F8056C00F07F02511E10F0800F28484FEA01114FF00C05C9B206F0030605FB020506D00127BE426F7014BF0D26072605E00027012E6F7014BF092665
:401BC00005266E711C4D01266E540C25554333F8046C4219168113F8066C167113F8056C46550020D07015891448C5F30725455415890130EDB24554D5887930EDB24554FC
:401C0000D5880130C5F307254554D5880338EDB24554D2880130C2F30722425408339CE7F8BD00BF6A81FF1F6081FF1F6B81FF1F046000407A81FF1F0E6000400C6000406F
:401C400008B5064B18780138C0B2FFF763FF20B143681B7900EBC300406908BD6A81FF1FF8B500210C254D434C4C0131002362190929635593705370D37053711381937247
:401C8000F0D118B1464A1370464A1370464B1A78002A00F0818018780138C0B2FFF73AFF4368017ADB79C90013F0400F3F4B1A7814BF42F0010202F0FE021A700122C36849
:401CC000083303EB010E73453DD013F8065C05F07F06B24235D10C2606FB0246B6F808C033F8047C1FFA8CFCBC4538BF378113F8086C2B4FBE5D13F8077CB74221D113F881
:401D0000056C15F0800F4FF00C0506F0030605FB024506D00127BE426F7014BF0D26072605E00027012E6F7014BF092605266E710C25554313F8067C6619377113F8056CD9
:401D400066550833BFE70132092AB8D1C36803F10802114408338B420AD013F8062C0C2502F07F0205FB024213F8080C9072F1E7FFF766FF0E4B0022186001230C2101FBBF
:401D80000341CA80098901330A44092B92B2F5D1BDE8F840FFF77EBEF8BD00BF7A81FF1F6081FF1F6B81FF1F6A81FF1F7981FF1F5C81FF1F114B197801F07F014A1ED2B238
:401DC000072A19D80E4B0C2000FB01339978120141F0010199700021D9705978D2B241F0020159701B7913F0800F064B14BF8D218921D154FFF768BB002070470460004096
:401E00007A81FF1F0E60004010B51A4B1B7803F07F035A1ED2B2072A29D817490C2000FB03139978120101F0FE0199700021D9701249D2B2545C04F07F045454597801F0E7
:401E4000FD01597019795B7811F0800F0C4905D0012B01D1505406E00D2303E0012B0CBF082309235354BDE81040FFF72DBB002010BD00BF046000407A81FF1F0C60004004
:401E80000E60004010B50D4B1C780D4BE4B218780138C0B2FFF73EFE43681B79A3420BD954B9084B084A19780120C9B21170074A1278D2B21A7010BD002010BD04600040B9
:401EC0006A81FF1F6081FF1F6B81FF1F0260004038B58D4C002323808C4B1A7812F0800F8B4A127800F08A800A2A00F20A81DFE812F05A00080108010801080108010B0043
:401F000008017A0008017E00824B1A78012A09D1814B1A78814B03EBC2035B685B686360122311E01A78022A13D17D4B1878FFF7F1FD002800F0E580436863606368DA7801
:401F400063689B7843EA02232380BDE83840FFF7DBBB1B78032B22D1724B00227049D0B20D78854202D80A783AB910E0187801320028F8D019780B44F0E7694A6A49127832
:401F8000097C914203D16948FFF754FD674B1A78002A00F0B6801A78D2B2228019E0BDE8384000F0E7B81A7812F0030213D0022A40F0A7805E4B22801B785E4A03F07F0312
:401FC0000C2101FB03239A785B4BD2B21A7000225A706360B9E702232380584B1978564BC9B21970F4E701232380554BF1E7012323804F4B534A1B781344EAE7013A0A2A9A
:402000007FD8DFE802F0367E527E067E7E7E0B7E2200434B1A784C4BD2B260E0404B1B7803F0FF0453B9464B1A78944265D01C70464B01201870FFF713FE5EE0601EC0B21D
:40204000FFF768FD0028EED15BE0FFF71BFF002857D0374B01221C783D4BE4B21C703B4B1A70FFF76BFD374B1A5D3A4BD2B21A5543E01B7803F00303012B32D00CD3022BD9
:402080003FD103F1804303F5C0431B78002B38D1BDE83840FFF7B8BE214B1B78012B30D1264B1A7802F0FD0219E01B7803F00303012B16D00BD3022B23D103F1804303F5A9
:4020C000C0431B78EBB9BDE83840FFF773BE144B1B78012B15D1194B1A7842F002021A700BE0134B1A7862B91B781B4A0C48DBB2D15C007821EA0001D154BDE83840FFF7F0
:40210000E3B9002038BD00BF6C81FF1F0060004001600040036000406281FF1F64250000026000402A260000782600003082FF1F046000407A81FF1F5281FF1F7981FF1F90
:402140006A81FF1F6081FF1F6381FF1F6581FF1F5981FF1F6B81FF1F6681FF1F034B00201B781B0644BF024B1B7870470060004001600040104B1B7803F00303012B0CD05E
:40218000022B0ED10D4B0E4A1B780C2103F07F0301FB032308339B7801E0084B1B78DBB200E00023074A1268D35C032B01D1FFF7B5BB0020704700BF00600040046000402D
:4021C0007A81FF1F5C81FF1F70B50E4B0E4D0024ED1AAD101E46AC4204D056F8242090470134F8E700F052FA084D094B0024ED1AAD101E46AC4204D056F8242090470134D6
:40220000F8E770BD9826000098260000A02600009826000010B50023934203D0CC5CC4540133F9E710BD02440346934202D003F8011BFAE770470000E0260000F100000005
:40224000000000004D6F6E61736820476C6F6D657269646100426F6F746C6F61646572205265616479000000004F00400C001051004030000000014000100014014000080A
:4022800000400140000A004C01400002005001402000000001450040024F0040095200400165004004000140010101400203014001050140040701400808014015090140EA
:4022C000040B0140030D01400215014004170140061901402E1A0140251B0140074001400B4101400E4201400C430140044401400345014001460140044701400D4801402D
:4023000005490140054C01400E4D014002500140015101407E0201200A4B008001C02003210129803110608061847C407B0138083E0458045F011B04AB04E202E609E20195
:40234000E602E804EE045B045F01AE01B401D804DB04DC08DF11100219101A0459506D806E086F8877067A08830487089F02A002A208A540A604A780AA0CC401D60CDE0492
:4023800083028780A002A5408540A002B002E201EC80E408E810EA02EE0A86109D40A208AE04E810EE0A0501070209020B0115022E01330336013920580459045C385F112C
:4023C00080048504860C870888088A048B088C028E019003940195089602970499019B029D019F02A408AD03B203B50CB60CB703B888B980BE04BF40D804D904DB04DC3344
:40240000DF01041505800E601002170819401C011F0420142580270C2E40330435803610370838143C146E407A088001858088028B0499809D40A218B180C0F0C230C42128
:40244000CA10CC72CE66DE04E402EC803381364057085F80CC70D440D6206008642087809F81A280A640A788AA80D8C0E240EE20108050046280800484209C289F01A2807E
:40248000A640A788C410D420D640E6901810814087089F01A640A788A888C610E280E640E820EE2008046080C208D8029C80B004EE019C8008080F409C80C20C21042610D3
:4024C000514086109180AE40AF81B410C860D420E410EA40EE5079808140B104DC80E2809880AC08AF40B480E8080C80608063027404840488808B019880C201D602D8024C
:40250000DE04E001E60110081C08003AC00000C0C000C00000008C00000C8C008C0000000800000808000800C00003000003030003000000200080802000A00000001010DF
:4025400000001000000000006980172E001E01013031323334353637383941424344454600000000010000006C2500000100000078260000010000007C2500000100000087
:402580004F260000020000009E25000001000000B0250000000000009C250000030000000103400003000000820340000300000001000000B825000000000000EC25000049
:4025C00000000000E0250000000000000000000001000000F8250000010000006126000041000000EA81FF1F5282FF1F410000005682FF1F2C82FF1F240005010900A1009D
:402600000900A1000900150025FF7508954091020900150025FF750895408102C0C000000A033000300030003100040309040A03500053006F004300160342006F006F00B5
:4026400074006C006F0061006400650072000009022900010102803209040000020300000209211101000122240007050103400001070582034000011201000200000008AE
:40268000B4041DB70130010280010000F8B500BFF8BC08BC9E4670475100000041010000F8B500BFF8BC08BC9E4670472D000000C02600000881FF1F2000000070010000FD
:4026C00000000000382200003C2200000000007D00FA0000400000000090D00300000000000000000000000000000000000000000000000000000000000000000000000008
:402700000080002011270000FD3E0000FD3E000080B500AF01F01EFC10B5054C237833B9044B13B10448AFF300800123237010BDC081FF1F000000005083000008B5064B7A
:402740001BB106480649AFF300800648036813B1054B03B1984708BD0000000050830000C481FF1F0881FF1F0000000080B500AF00F01EF904F0B0FE80BD00BF80B500AF5F
:4027800000F046FB04F002FF80BD00BF80B582B000AF40F6B83004F08BFC384B01221A8000237B6004F044FD012004F0FBFE62B604F016FF324804F041FE324804F098FEF5
:4027C0000020002104F044FD2F4804F077FD01F007F80020002104F03BFD2C4804F06EFD022001F071F80020022101F099FF00BF02F018F90346002BFAD002F039FA00BF28
:4028000002F07CFA0346002BFAD000F04DF8204B1B881BB2082B01D101F0ACFA1C4B1B881BB2092B29D1012004F082FD194B9A68184B9968174B5B68B1FBF3F3164817496E
:4028400005F08AF9134BDA68124BD968114B5B68B1FBF3F31248134905F07EF90020002104F0F6FC0C4804F029FD0120002104F0EFFC0B4804F022FDC7E7C6E7DE81FF1FDB
:402880006D2700007D2700005483000060830000DC81FF1F684800201082FF1F708300002482FF1F7C83000090B585B002AF01F001F800237B600FE000BF02F037FA034648
:4028C000002BFAD07A68324B13441846402102F0DFF97B6840337B607B68B3F5464FEBD301F09CF800F0CAFB00F06EFE00237B600FE000BF02F01AFA0346002BFAD07A682D
:40290000234B13441846402102F0C2F97B6840337B607B68B3F5464FEBD31E4B1B681E4AD35C1A461B4B5B681B49CB5C194989681948415C08461749C968174C615C0090E0
:4029400001911648164905F007F9164B1A68154B5B68144988681349C968009001911248124905F0F9F8012004F0E2FC0020002104F06EFC094804F0A1FC0120002104F0CC
:4029800067FC094804F09AFC0C37BD4690BD00BF5C82FF1F3882FF1F0C81FF1F1082FF1FA48300004C82FF1F2482FF1FB083000080B500AF984B1B68172B00F20A8201A2A1
:4029C00052F823F0252A0000412A00005D2A0000792A0000952A0000B12A0000CD2A0000E92A0000052B0000212B00003D2B0000592B0000752B0000AB2B0000E12B000008
:402A00005D2C0000932C0000C92C0000FF2C0000352D00006B2D0000852D00009F2D0000B92D00007D4B1B780533DAB27B4B1A707A4B1B787A487B491A4605F08DF8C8E100
:402A4000764B1B78013BDAB2744B1A70734B1B78734874491A4605F07FF8BAE1724B1B780533DAB2704B1A706F4B1B786C486F491A4605F071F8ACE16B4B1B78013BDAB253
:402A8000694B1A70684B1B78654868491A4605F063F89EE1664B1B780533DAB2644B1A70634B1B785E4863491A4605F055F890E15F4B1B78013BDAB25D4B1A705C4B1B78AD
:402AC00057485C491A4605F047F882E15A4B1B780533DAB2584B1A70574B1B78504857491A4605F039F874E1534B1B78013BDAB2514B1A70504B1B78494850491A4605F05E
:402B00002BF866E14E4B1B780533DAB24C4B1A704B4B1B7842484B491A4605F01DF858E1474B1B78013BDAB2454B1A70444B1B783B4844491A4605F00FF84AE1424B1B7850
:402B40000533DAB2404B1A703F4B1B7834483F491A4605F001F83CE13B4B1B78013BDAB2394B1A70384B1B782D4838491A4604F0F3FF2EE1002001F0D1FC03461A46344B9A
:402B80001A70334B1B780533DAB2314B1A70304B1B780020194601F0A5FC2D4B1B7820482C491A4604F0D8FF13E1002001F0B6FC03461A46264B1A70254B1B78013BDAB258
:402BC000234B1A70224B1B780020194601F08AFC1F4B1B7812481F491A4604F0BDFFF8E0012001F09BFC03461A46194B1A70184B1B780533DAB2164B1A70154B1B78012047
:402C0000194601F06FFC124B1B78054812491A4604F0A2FFDDE000BF1481FF1F2081FF1F2482FF1F248400002181FF1F308400002281FF1F3C8400002381FF1F488400006F
:402C40002481FF1F548400002581FF1F608400004A82FF1F6C84000078840000012001F05DFC03461A46604B1A705F4B1B78013BDAB25D4B1A705C4B1B780120194601F010
:402C800031FC594B1B78594859491A4604F064FF9FE0022001F042FC03461A46524B1A70514B1B780533DAB24F4B1A704E4B1B780220194601F016FC4B4B1B784B484D49FD
:402CC0001A4604F049FF84E0022001F027FC03461A46454B1A70444B1B78013BDAB2424B1A70414B1B780220194601F0FBFB3E4B1B783E483F491A4604F02EFF69E010202F
:402D000001F00CFC03461A463B4B1A703A4B1B780533DAB2384B1A70374B1B781020194601F0E0FB344B1B78304834491A4604F013FF4EE0102001F0F1FB03461A462E4BBE
:402D40001A702D4B1B78013BDAB22B4B1A702A4B1B781020194601F0C5FB274B1B78234826491A4604F0F8FE33E0254B1B685A1C234B1A60224B1B681C4822491A4604F00E
:402D8000EBFE26E01E4B1B685A1E1D4B1A601C4B1B6816481B491A4604F0DEFE19E01A4B1B685A1E184B1A60174B1B680F4817491A4604F0D1FE0CE0134B1B685A1C124B6D
:402DC0001A60114B1B68094810491A4604F0C4FE00BF012004F0ACFA0120002104F038FA024804F06BFA80BD4A82FF1F2482FF1F78840000848400004B82FF1F8883000050
:402E00002C81FF1F908400001881FF1F9C84000098B500AF7E4B1B68591C7E4B83FB01239A10CB17D21A13465B001344DB00CA1A774B1A60764B1B68172B00F2DE8001A2BD
:402E400052F823F0A52E0000B12E0000C32E0000CF2E0000E12E0000F32E0000012F0000132F0000212F00002D2F0000392F0000452F0000512F00005F2F00006B2F000083
:402E8000772F0000892F0000952F0000A72F0000B32F0000C12F0000D32F0000E12F0000ED2F00005C4B5D4A07CA03C31A70A4E0594B5B4A07CA03C31A800233120C1A70D0
:402EC0009BE0554B574A07CA03C31A7095E0524B554A07CA03C31A800233120C1A708CE04D4B524A07CA03C31A800233120C1A7083E0494A4E4B14460FCB07C423707CE00B
:402F0000454B4C4A07CA03C31A800233120C1A7073E0414A484B14460FCB07C423706CE03D4B464A07CA03C31A8066E03A4B444A07CA83E8070060E0374B424A07CA03C344
:402F40001A805AE0344B404A07CA83E8070054E0314B3E4A92E8030083E803004DE02E4B3B4A07CA03C31A8047E02B4B394A07CA03C31A7041E0284B374A07CA03C31A802B
:402F80000233120C1A7038E0234B344A07CA03C31A7032E0204B324A07CA03C31A800233120C1A7029E01C4B2E4A07CA83E8070023E0194A2C4B14460FCB07C423801CE062
:402FC000154B2A4A07CA03C31A800233120C1A7013E0114A264B14460FCB07C423700CE00D4B244A07CA83E8070006E00A4A224B14460FCB07C4237000BF012004F098F90B
:403000000020002104F024F9034804F057F998BD1481FF1FABAAAA2A1082FF1FB0840000BC840000C8840000D4840000E0840000EC840000FC840000088500001885000038
:4030400024850000308500003C85000048850000508500005C8500006885000074850000808500008C85000098850000A8850000B4850000C4850000D085000090B5DFB0BD
:4030800000AF0023C7F86C31AC4800214FF47F6204F0E3FB3B4618464FF0FF314FF4B07204F0DBFB0123C7F87031BDE10123C7F87431AFE1D7F87431DAB2D7F87031DBB223
:4030C0001046194600F036FC0346002B07D13B46D7F874214FF0FF3143F822103AE1D7F87431DAB2D7F87031DBB21046194600F021FC03461C46D7F87431DBB2013BDAB29E
:40310000D7F87031DBB21046194600F013FC03469C4240F0ED80D7F87431DAB2D7F87031DBB21046194600F005FC03461C46D7F87431DAB2D7F87031DBB2013BDBB21046B0
:40314000194600F0F7FB03469C4240F0C5803B46D7F8742153F82220D7F87431591E3B4653F821309A4200F0B780D7F874315A1E3B4653F82230C7F864313B46D7F87421B2
:4031800053F82230C7F86031D7F874315A1E3B4653F82230D7F87421511E3A4652F82120664912010A4451683A46D7F8740152F8202062481201024452680A445F491B0154
:4031C0000B445A60D7F874315A1E3B4653F82230D7F87421511E3A4652F82120574912010A44083211683A46D7F8740152F82020524812010244083212680A444F491B0133
:403200000B4408331A60D7F874315A1E3B4653F82230D7F87421511E3A4652F82120474912010A44083251683A46D7F8740152F82020424812010244083252680A443F49C3
:403240001B010B4408335A603B46D7F8742153F822303A4A1B01134400221A603B46D7F8742153F82230354A1B01134400225A603B46D7F8742153F82230304A1B0113441A
:40328000083300221A603B46D7F8742153F822302A4A1B011344083300225A60D7F87431C7F8683114E03B46D7F8682153F82220D7F860319A4206D13B46D7F86821D7F8D6
:4032C000641143F82210D7F868310133C7F86831D7F86831572BE6DDD7F874315A1E3B4653F822103B46D7F8742143F8221031E0D7F87431DAB2D7F87031DBB2104619464C
:4033000000F018FB03461C46D7F87431DAB2D7F87031DBB2013BDBB21046194600F00AFB03469C420CD13B46D7F8742153F822103B46D7F8742143F822100BE068480020FC
:40334000D7F86C315A1CC7F86C213A46D7F8741142F821303B46D7F8742153F82230B3F1FF3F52D03B46D7F8742153F82240D7F87431DAB2D7F87031DBB21046194600F006
:40338000D9FA03461A46304923010B441A603B46D7F8742153F822302B491A010A445268013229491B010B445A603B46D7F8742153F822303A46D7F8741152F821202249FC
:4033C00012010A4408321168D7F874210A441E491B010B4408331A603B46D7F8702153F822303A46D7F8701152F82120164912010A4408325168D7F8702182F002020A44D0
:4034000011491B010B4408335A60D7F874310133C7F87431D7F87431572B7FF74BAED7F870310133C7F87031D7F870318F2B7FF73DAE0548FF211022044B04F050FA07F5AA
:40344000BE77BD4690BD00BF684800209934000080B485B000AF78600023FB810023BB600DE00C4ABB681B0113445A687B689A4202D3FB890133FB81BB680133BB60BB68A6
:40348000FE2BEEDDFB8918461437BD465DF8047B704700BF6848002090B48AB000AF786039607B6807F118040FCB84E80F003B6807F108040FCB84E80F00FA69FB689A4246
:4034C00002D94FF0FF3306E0FA68FB699A4201D9012300E0002318462837BD4690BC704780B489B000AFF860B9607A603B600023FB615AE0324AFB691B0113445A68BB6841
:403500009A4202D24FF0FF3354E02D4AFB691B0113441A68FB689A4244D1294AFB691B01134408331A682649FB691B010B445B68B2FBF3F3BB61224AFB691B0113440833DD
:403540005A681F49FB691B010B445B68B2FBF3F37B611C4B7A69582101FB02F1BA690A44FF2103F82210174A7B69582101FB03F1BB690B449B001344FF229A70BA693B68AC
:40358000D21A7B685B429A4209DBBB69A3F12C023B68D21A7B689A4201DC00230AE0BB692C3B07E0FB690133FB61FB69FE2BA1DD4FF0FF3318462437BD465DF8047B704798
:4035C000684800205C82FF1F80B500AF00F002F880BD00BF80B48DB000AF42F21073BB620023FB6241E07A4AFB6A1B01134408331A687749FB6A1B010B445B68B2FBF3F361
:403600007B62734AFB6A1B01134408335A687049FB6A1B010B445B68B2FBF3F33B626D4B3A6A582101FB02F17A6A0A44FF2103F82210684A3B6A582101FB03F17B6A0B4468
:403640009B001344FF229A70FB6A9B0007F1300213447A6A43F8202C5F4BFA6A4FF47A7143F82210FB6A0133FB62FB6A032BBADD0023FB6218E0FB6A9B0007F1300213447F
:4036800053F8202C544B1B689A420ADAFB6A3B60FB6A9B0007F13002134453F8202C4E4B1A60FB6A0133FB62FB6A032BE3DD0023FB6223E0FB6A9B0007F13002134453F8CE
:4036C000202C454B1B689A4215DDFB6A9B0007F13002134453F8202C3F4B5B689A420ADAFB6A7B60FB6A9B0007F13002134453F8202C394B5A60FB6A0133FB62FB6A032B59
:40370000D8DD0023FB6223E0FB6A9B0007F13002134453F8202C304B5B689A4215DDFB6A9B0007F13002134453F8202C2A4B9B689A420ADAFB6ABB60FB6A9B0007F1300233
:40374000134453F8202C244B9A60FB6A0133FB62FB6A032BD8DD0023FB6218E0FB6A9B0007F13002134453F8202C1B4B9B689A420ADDFB6AFB60FB6A9B0007F130021344B7
:4037800053F8202C144B9A60FB6A0133FB62FB6A032BE3DD0023FB6211E0FB6A9B0007F13002134453F8303C094A1B01134419680A4BFA6A43F82210FB6A0133FB62FB6A5F
:4037C000032BEADD3437BD465DF8047B704700BF684800205C82FF1F4C82FF1F3882FF1F80B500AF00F0D2FE012003F0A1FD0020002103F02DFD274803F060FD1E201021AA
:4038000000F070FE1320E72100F06CFE00F0AEFE0020002103F01CFD1F4803F04FFD00F06FFF0020002103F013FD1C4803F046FD00F09CFE1320E02100F054FE184B1B78D4
:403840000020194600F04EFE164B1B780120194600F048FE144B1B780220194600F042FE124B1B781020194600F03CFE3F202F2100F038FE3E20032100F034FE8C20A021B1
:4038800000F030FE0020002103F0E2FC084803F015FD80BDE0850000F0850000008600002681FF1F2781FF1F2881FF1F2981FF1F1086000080B500AF00F058FE00F020FFFD
:4038C00000F054FE80BD00BF80B582B000AF78607B68012B02D0022B19D020E0114B1B780020194600F0FEFD0F4B1B780120194600F0F8FD0D4B1B780220194600F0F2FDAF
:403900000B4B1B781020194600F0ECFD07E000203C2100F0E7FD1020502100F0E3FD0837BD4680BD2681FF1F2781FF1F2881FF1F2981FF1F80B483B000AF02460B46FA71DA
:40394000BB71B979FA792E4B582000FB01F10A4413F822202B4B1B789A420FD2B979FB79274A582000FB01F10B449B0013449A78254B1B789A4201D301233AE0B979FA79D2
:403980001F4B582000FB01F10A4413F822201F4B1B789A420FD2B979FB79194A582000FB01F10B449B0013449A78194B1B789A4201D202231DE0B979FA79114B582000FBE6
:4039C00001F10A4413F82220124B1B789A420FD3B979FB790A4A582000FB01F10B449B0013449A780C4B1B789A4201D2032300E0002318460C37BD465DF8047B704700BF2A
:403A00005C82FF1F2081FF1F2181FF1F2281FF1F2381FF1F2481FF1F2581FF1F80B588B000AF0023FB619CE10023BB6192E1FB69002B08D0FB698F2B05D0BB69002B02D0BC
:403A4000BB69572B2BD1A24BFA69582101FB02F1BA690A447F2103F822109D4AFB69582101FB03F1BB690B449B0013447F229A70974AFB69582101FB03F1BB690B449B002E
:403A8000134400225A70924AFB69582101FB03F1BB690B449B0013440022DA7057E1BB69DBB2013BDAB2FB69DBB2013BDBB210461946FFF73FFF03463B72BB69DBB2013B12
:403AC000DAB2FB69DBB210461946FFF733FF03467B72BB69DBB2013BDAB2FB69DBB20133DBB210461946FFF725FF0346BB72BB69DAB2FB69DBB2013BDBB210461946FFF7B1
:403B000019FF0346FB72BB69DAB2FB69DBB20133DBB210461946FFF70DFF03463B73BB69DBB20133DAB2FB69DBB2013BDBB210461946FFF7FFFE03467B73BB69DBB20133B8
:403B4000DAB2FB69DBB210461946FFF7F3FE0346BB73BB69DBB20133DAB2FB69DBB20133DBB210461946FFF7E5FE0346FB7300237B613AE03A7907F108017B690B441B78BA
:403B8000002B14BF00230123DBB21344DBB23B717A7907F108017B690B441B78012B14BF00230123DBB21344DBB27B71BA7907F108017B690B441B78022B14BF0023012305
:403BC000DBB21344DBB2BB71FA7907F108017B690B441B78032B14BF00230123DBB21344DBB2FB717B6901337B617B69072BC1DD374AFB69582101FB03F1BB690B449B00C5
:403C000013447F225A70324AFB69582101FB03F1BB690B449B0013447F22DA707B791A462C4B1B689A4217DB01233B61284BFA69582101FB02F1BA690A44002103F8221050
:403C4000234AFB69582101FB03F1BB690B449B001344FF229A706CE0BB791A461D4B1B689A4217DB02233B61194BFA69582101FB02F1BA690A44002103F82210144AFB6970
:403C8000582101FB03F1BB690B449B00134400229A704EE0FB791A460E4B1B689A421BDB03233B610A4BFA69582101FB02F1BA690A44FF2103F82210054AFB69582101FB92
:403CC00003F1BB690B449B00134400229A7030E05C82FF1F2C81FF1F00233B61244BFA69582101FB02F1BA690A447F2103F822101F4AFB69582101FB03F1BB690B449B00ED
:403D000013447F229A701A4AFB69582101FB03F1BB690B449B00134400225A70144AFB69582101FB03F1BB690B449B0013440022DA7000237B6107E03A1D7B691344002269
:403D40001A707B6901337B617B69072BF4DDBB690133BB61BB69572B7FF769AEFB690133FB61FB698F2B7FF75FAE2037BD4680BD5C82FF1FF0B591B002AF5C4A3B4692E8D7
:403D8000030018600433197003201E2101222C23FFF7A6FB38633B6B13F1020F03DA4C2387F8373011E03B6B022B03DD522387F837300AE03B6BB3F1FF3F03D14E2387F8A0
:403DC000373002E0432387F8373001201E210C222C23FFF785FB38633B6B13F1020F03DA4C2387F8363011E03B6B022B03DD522387F836300AE03B6BB3F1FF3F03D14E239F
:403E000087F8363002E0432387F8363002201E210C222C23FFF764FB38633B6B13F1020F03DA4C2387F8353011E03B6B022B03DD522387F835300AE03B6BB3F1FF3F03D174
:403E40004E2387F8353002E0432387F835300020FFF7FEFA03461D460120FFF7F9FA03461C460220FFF7F4FA03461E460320FFF7EFFA03461A4607F108030096019218466A
:403E80001B492A46234603F067FE1A4B1B681B6807F13802134413F8383C1A4697F8363097F8354097F8370007F108011431009401900846104903F04FFE012003F038FA43
:403EC0000020002103F0C4F907F10803184603F0F5F90120002103F0BBF907F108031433184603F0EBF93C37BD46F0BD688600003C860000684800205086000080B400AFCB
:403F0000FEE700BF80B584B000AF78600F4B1A687B6813441A460E4BD31A002B09DC0B4B1B68FB60094B1A687B681A44074B1A6007E003F05DFC03460C221A604FF0FF3375
:403F4000FB60FB6818461037BD4680BD3081FF1F3859002080B586B000AF224B7B61224B3B61204B7B6135E03B691B68FB603B695B68BB603B699B683B6000237B600CE026
:403F8000FB681A68BB681A60BB680433BB60FB680433FB607B6804337B607A683B689A42EED13B69DB683B6000237B6008E0BB6800221A60BB680433BB607B6804337B606F
:403FC0007A683B689A42F2D13B6910333B617B69013B7B617B69002BC6D103F00FFCFEF7D5FBFEE701000000D496000080B582B000AF184B184A1A60184B184A126842F49B
:4040000000721A6000237B600FE07B68032B04D8134B7A6853F8223000E0124B124A796842F821307B6801337B607B682F2BECD90E4B1B78DAB20E4B1A700E4B0A4A1A6062
:4040400000F05EF902F01CFE0B4B00221A600837BD4680BD0CED00E00004FA0514ED00E000270000FD3E00000080FF1FBC7600400481FF1F08ED00E00081FF1F80B582B0CF
:4040800000AF78603960786800213A6803F0E5FB0837BD4680BD00BF80B584B000AFF860B9607A60F868B9687A6803F0CDFB1037BD4680BD80B584B000AFF860B9607A60C1
:4040C000F868B9687A6803F0BFFB1037BD4680BD80B483B000AF0346FB71FEE780B487B000AF7860396000233B6100237B6126E07B699B007A6813441B68BB60BB68FB7343
:40410000BB6823F0FF03BB6013E03B695B003A6813441B781A46BB6813443A69520039680A4452781A703B6901333B61FB7B013BFB73FB7B002BE8D17B6901337B617B69D6
:40414000282BD5D91C37BD465DF8047B704700BF80B582B000AF404B00221A803F4B19221A703F4B01221A803E4B19221A703E4B09221A803D4B18221A703D4B41221A803E
:404180003C4B18221A703C4B40F271621A803B4B18221A703A4B41F6C7121A80394B18221A70394B06221A70384B52221A70384B384A1278D2B21A70374B40F621321A80D4
:4041C000364B41F251221A800023FB7019237B6014E0FB785B00DAB2314B1B78DBB203F00103DBB21343DBB203F00303FB704FF4F07002F031FD7B68013B7B607B68002BD9
:4042000002D0FB78032BE4D17B68002B02D10320FFF75EFF234B4FF480721A80214B07221A70214B00221A70204B48221A701D4B00221A701E4B00221A701E4B02221A70EC
:404240001D4B1D4A1278D2B242F03F02D2B21A700837BD4680BD00BF80400040824000408440004086400040884000408A4000408C4000408E400040904000409240004048
:4042800094400040964000400043004000420040A14600400F0100492242004020420040254200400440004006400040084000400940004001400040A243004080B483B03A
:4042C00000AF0B4B1B78FB710A4BFA7902F00702D2B21A70084BFA791209D2B21A70074B44221A700C37BD465DF8047B704700BFCF0100496E5800406F58004076580040F4
:4043000080B586B000AF72B6574B61221A70FFF71FFF554B01221A700023FB7513E0FA7D13465B0013445B00504A13443B613B691A683B699B889BB210461946FFF79EFEBA
:40434000FB7D0133FB75FB7D072BE8D90023FB751CE0FA7D13469B0013445B00444A1344FB60FB681B68BB60FB685B687B60FB681A7A5B7A1B0213437B807B88B86879688A
:404380001A46FFF797FEFB7D0133FB75FB7D032BDFD938483849FFF7A1FE38480421FFF76DFE374B364A1278D2B242F00202D2B21A70344B334A1278D2B242F00202D2B2E4
:4043C0001A70314B304A1278D2B242F04002D2B21A702E4B2D4A1278D2B242F01002D2B21A702B482B490A22FFF764FE2A482B490A22FFF75FFE2A482A490A22FFF75AFE2E
:4044000029482A490A22FFF755FE294829490A22FFF750FE284829490A22FFF74BFE284828490822FFF746FE274828490822FFF741FE274827490822FFF73CFE264B8422AF
:404440001A70264B254A1278D2B242F00802D2B21A70FFF733FF22480B490E22FFF71CFE1837BD4680BD00BF004800408C860000BC860000E48600008887000000760040FB
:404480000350014013500140A0430040C24300400051004020930000C05100402C930000F05100403893000010510040449300002051004050930000305100405C93000000
:4044C000425100406893000052510040709300006251004078930000DB16014022430040B043004080B582B000AF02460B46FA71BB7100BF3020002102F0A8FA0346002B82
:40450000F8D1FB79184602F029FBBB79184602F025FB02F0F7FA0837BD4680BD80B584B000AF0346FB7100BF3020002102F08EFA0346002BF8D1FB79184602F00FFB02F050
:40454000E1FA00BF3020012102F080FA0346002BF8D1002002F042FB0346FB7302F0D2FAFB7B18461037BD4680BD00BF80B500AF00BF01F0D7FF0346002BFAD100BF01F04F
:40458000D1FF0346002BFAD080BD00BF90B583B000AF042001F0D6FF042001F0EFFF02F06BF812208021FFF79DFF012002F080FD0023FB800FE0FA88394B13F81220FB8840
:4045C00037495B000B445B7810461946FFF78AFFFB880133FB80FA88314B13F81230FF2BE9D10023FB800CE0FB882E4AD25CFB882D49CB5C10461946FFF774FFFB88013381
:40460000FB80FB88274AD35CFF2BEDD1274B3B60012001214FF4804241F6FF7301F052FF03461A46224B1A700023FB802BE0FC8802F09EFC03461A461E4B1A55FB881D4AF0
:40464000D25CFB884FF4466101FB03F339680B449BB2104646F24E411A4602F0EFFCFB88002B0DD0FB88013B124AD25CFB881149CB5C10464FF446611A46022302F0A6FCE5
:40468000FB880133FB80FB880F2BD0D9084B1B781846002102F09AFB0C37BD4690BD00BF34940000A0940000E09400005C82FF1FE481FF1FE881FF1F80B500AF0D4B1B78DF
:4046C0000C4B1B780B4B1B780A4B1B780A4B1B78184602F049FB084B1A78084B1B781046194602F0DFFB044B1B781846012102F0F5FA80BD4E640040E481FF1FE881FF1FBB
:4047000080B500AF054BDB7B18464FF44661FE22022302F05BFCFFF7CFFF80BDE881FF1F80B582B000AF02460B46FA71BB71094B1B78002B04D100F00FF8064B01221A706F
:40474000FA79BB791046194600F0CCF80837BD4680BD00BFF881FF1F80B582B000AF02F085FA0346FB714F4B4E4A1278D2B242F00102D2B21A704C4B4B4A1278D2B242F029
:404780000102D2B21A70494B01221A70484B02221A70484B474A1278D2B202F07F02D2B21A70002002F0A6FC434B434A1278D2B222F00602D2B21A70404B404A1278D2B28B
:4047C00022F02002D2B21A703B4B3B4A1278D2B242F00102D2B21A70012002F08BFC282002F088FC364B364A1278D2B202F07F02D2B21A70324B324A1278D2B222F04002D8
:40480000D2B21A702C4B2C4A1278D2B242F00202D2B21A70022002F06DFC274B264A1278D2B242F00402D2B21A70264B00221A70254B00221A70FB79184602F01BFA17202F
:40484000224902F069FC1720072102F08DFC15201F4902F061FC1520072102F085FC18201C4902F059FC1820072102F07DFC0320194902F051FC0320072102F075FC05209A
:40488000164902F049FC0520072102F06DFC0620134902F041FC0620072102F065FC0837BD4680BDA5430040B54300409D600040096000401060004094430040126000402A
:4048C000F85100408460004085600040995400008D5400005D4D000089530000DD5300003154000080B582B000AF02460B46FA71BB71254B4FF400021A60234B4FF08072C9
:404900001A60214B08221A601F4B20221A601E4B40221A601D4B00221A70BB79002B02D0012B04D007E01A4B02221A7007E0184B03221A7003E0164B03221A7000BF154B38
:40494000FA791A70144B00221A70144B00221A70134B00221A70134B00221A70124B00221A70124B00221A70114B03221A70114B80221A70012002F06FF90F4B04221A70E6
:404980000837BD4680BD00BF00E100E060580020096000406B58002074580020615800206E5800206C580020895800206258002028600040086000401260004080B400AF25
:4049C0000F4B00221A700F4B00221A700E4B00221A700E4B00221A700D4B00221A700D4B00221A700C4B00221A700C4B03221A700B4B80221A70BD465DF8047B704700BFC1
:404A00006058002074580020615800206E5800206C5800208958002062580020286000400860004080B400AF034B1B78DBB21846BD465DF8047B70477458002090B484B023
:404A400000AF396013460246FA71BB80FB79002B69D0FB79082B66D8FB79013BDBB21B017B737A7B324B1344BB60B988FA79314813465B0013449B000344DB889BB2C3F53D
:404A8000007399420BD9FA792A4913465B0013449B000B44DB889BB2C3F50073BB807A7B254B13441946BB881B0A9BB2D8B2FA79204C13465B0013449B002344DB78DBB2AD
:404AC0000343DBB20B707A7B1C4B1344BA88D2B21A703B68002B0FD00023FB8108E0FB893A6813441A78BB681A70FB890133FB81FA89BB889A42F2D3FA790E4913465B005C
:404B000013449B000B4400225A707A7B0C4B13441946FA79074813465B0013449B0003445B79DBB20B701037BD4690BC704700BF886000408C5800200C6000400D6000402A
:404B40000E60004080B485B000AF0346FB71FB79002B1ED0FB79082B1BD8FB79013BDBB21B01FB73FA790D4913465B0013449B000B4400225A70FA7B094B13441946FA7930
:404B8000064813465B0013449B0003445B79DBB20B701437BD465DF8047B70478C5800200E60004080B582B000AF0023FB71294B1B78DBB2DBB25BB2002B11DA264B1B7866
:404BC000DBB2212B00D00AE0244B07221A80234B234A5A6000F03EFA0346FB7100BF34E01C4B1B78DBB2DBB25BB2002B2DDB1A4B1B78DBB2202B02D0222B13D025E0174B1E
:404C000007221A80154B164A5A60164B1B78DBB243F00103DAB2134B1A7000F09BFA0346FB7112E0104B1B78DBB21A460F4B1A800C4B1B78DBB243F00203DAB2094B1A70F7
:404C400000F028FB0346FB7100BFFB7918460837BD4680BD00600040016000407C5800203481FF1F5B580020026000405858002080B500AF044B00221A70044B1B78DBB2C1
:404C80001846FFF75FFF80BD5B5800205A58002080B582B000AF78600B467B80154B1B78DBB21A46144913465B0013449B000B4408331B889BB27A889A420FD90D4B1B7818
:404CC000DBB21A460C4913465B0013449B000B4408331B887B80002002F0DEF9054B1B78DAB27B88104679681A46FFF7A7FE0837BD4680BD5C5800208C58002080B400AFDD
:404D0000084B1B78DBB21A46074913465B0013449B000B445B78DBB21846BD465DF8047B704700BF5A5800208C58002080B400AF084B1B78DBB21A46074913465B00134469
:404D40009B000B445B78DBB21846BD465DF8047B704700BF5C5800208C58002080B582B000AF374B1B78BB71BB7903F01003002B63D00123FB71BB795BB2002B13DABB795A
:404D800003F00F03012B02D00023FB711DE000F061F82C4B1B78DBB2DBB25BB2002B14DA0023FB7111E0BB7903F04003002B02D000F094F809E0BB7903F02003002B02D03E
:404DC00000F0B2F801E00023FB71FB79002B34D01B4B1B78BB71BB795BB2002B2DDB1A4B1B78DAB2194B1B78DBB21343BB71184BBA791A70164B1B78DBB2BA799A421CD146
:404E0000104B1B78FB710E4B1B78DBB223F07F03BB71BB79002B0AD1094B0A4A1278D2B21A70074B1B78DBB203F00F03FB71054B1B78DBB2FA799A42E2D10837BD4680BD90
:404E4000286000406A5800206D580020885800202960004080B582B000AF1D4B1B78FB711B4BFA791A701A4B1B78FB71FB795BB2002B03DA174BFA791A7025E0022000F097
:404E800049FA154B1B78DBB203F06003202B08D0402B0BD0002B0ED100F004FB0346FB710CE002F05FFC0346FB7107E001F0DEFA0346FB7102E00023FB7100BFFB79002BA0
:404EC00002D1044B03221A700837BD4680BD00BF286000406A5800200060004080B500AF104B1B78DBB2062B19D801A252F823F01F4F00001F4F00000D4F00001F4F000032
:404F0000134F00001F4F0000194F000000F0FCF806E000F0AFF903E000F0D8F900E000BF80BD00BF6058002080B500AF124B1B78DBB2062B1DD801A252F823F0734F000077
:404F4000734F0000594F0000734F00005F4F0000734F0000654F000000F0DCF80AE000F02DF907E0032000F0D5F9044B03221A7000E000BF80BD00BF605800206A58002002
:404F800080B483B000AF0023FB712B4B1B78DBB21A462A4B1B889BB213449AB2274B1A8018E0FB7903F1804303F5C043244A52681278D2B21A70224B5B685A1C204B5A6099
:404FC000FB790133FB711E4B1B889BB2013B9AB21B4B1A801A4B1B889BB2002B02D0FB79072BDED9144B1B78DBB2082B02D0FB79002B0FD0134B1B78DBB283F07F03DB437A
:40500000DAB2104B1A70104B0F221A700F4B02221A7005E00C4B02221A700C4B02221A70054BFA791A700A4BFA791A700C37BD465DF8047B704700BF6258002072580020FF
:405040007C5800206D5800206A580020605800208858002080B582B000AF154B1B889BB2002B02D100F02EF81DE0124B02221A70114B00221A7000F06DF9104B1B78DBB242
:405080001B029AB20E4B1B78DBB213439BB2FB80074B1B889BB2FA889A4202D2044BFA881A80FFF76DFF012318460837BD4680BD7C580020605800206D5800200760004056
:4050C0000660004080B400AF0A4B02221A700A4B80221A70094B0F221A70094B00221A70084B00221A7001231846BD465DF8047B704700BF605800206D5800206A58002027
:40510000625800208858002080B500AFFFF738FF80BD00BF80B500AF0A4B1B78DBB21A46094B1B889BB213449AB2074B1A80074B00221A70012000F0EDF8054B03221A7009
:4051400080BD00BF6258002072580020605800206A58002080B582B000AF124B04221A70114B80221A7000F0F5F8104B1B78DBB21B029AB20E4B1B78DBB213439BB2FB80B2
:405180000C4B1B889BB2FA889A4202D2094BFA881A80094B0B221A70012318460837BD4680BD00BF605800206D58002007600040066000407C5800206A58002080B483B0F4
:4051C00000AF0023BB71254B1B78DBB203F00F03DBB2023BFB71FB799AB2214B1B889BB213449AB21E4B1A801BE01E4B5A68BB7903F1804303F5C0431B78DBB21370194B11
:405200005B685A1C174B5A60BB790133BB71FB79013BFB71134B1B889BB2013B9AB2114B1A80104B1B889BB2002B02D0FB79002BDBD10D4BFA791A700C4B1B78DBB283F0CB
:405240007F03DB43DAB2094B1A70094B0B221A700C37BD465DF8047B704700BF29600040725800207C580020885800206D5800206A58002080B500AF044B00221A7001201B
:4052800000F048F8024B03221A7080BD605800206A58002080B400AF084B06221A70084B06221A70074B80221A70074B00221A7001231846BD465DF8047B7047605800207A
:4052C0006A5800206D5800208858002080B500AF0C4B1B78DBB2002B0AD00B4B094A1278D2B262F07F02D2B21A70064B00221A70064B00221A70012000F00CF8044B03226C
:405300001A7080BD6C58002008600040605800206A58002080B483B000AF0346FB710B4B9B68002B0CD0094B9B68FA791A70074B9B68074A128892B25A80044B00229A6018
:405340000C37BD465DF8047B704700BF7C5800207258002080B400AF094B00221A80094B9B68002B07D0074B9B6800221A70054B9B6800225A80BD465DF8047B704700BFD6
:40538000725800207C58002080B400AF104B1B78104B1B7BDBB203F00303012B08D00D4BDB7BDBB283F07F03DB43DAB2094BDA73084B01225A73084B074A1278D2B222F041
:4053C0000102D2B21A70BD465DF8047B704700BF0E6000408C5800200B60004080B400AF104B1B78104B1B7EDBB203F00303012B08D00D4BDB7EDBB283F07F03DB43DAB2C6
:40540000094BDA76084B01225A76084B074A1278D2B222F00202D2B21A70BD465DF8047B704700BF1E6000408C5800200B60004080B400AF124B1B78124B93F82430DBB256
:4054400003F00303012B0AD00E4B93F82730DBB283F07F03DB43DAB20A4B83F82720094B012283F82520084B074A1278D2B222F00402D2B21A70BD465DF8047B704700BF53
:405480002E6000408C5800200B60004080B400AFBD465DF8047B704780B500AFFFF78EFA80BD00BF80B586B000AF0023FB7500233B619D4B00221A809C4B1B78DBB2DBB2FC
:4054C0005BB2002B80F20581994B1B78DBB20A2B00F2FD8001A252F823F000BF23560000CF560000CF560000CF560000CF560000CF56000009550000CF5600009956000071
:40550000CF560000AF5600008A4B1B78DBB2012B0ED100F025FEB860BB685A68824B5A60814B12221A80FFF795FD0346FB7577E0804B1B78DBB2022B23D17F4B1B78DBB282
:40554000184600F0E3FDB860BB68002B68D0BB685A68754B5A60744B5B6803331B78DBB21B029AB2704B5B6802331B78DBB213439BB29AB26C4B1A80FFF76CFD0346FB7594
:40558000A6E06C4B1B78DBB2032B44D10023FB736A4B3B6109E03B691B78FB71FB793A6913443B61FB7B0133FB73634B1B78DBB2FA7B9A4204D23B691B78DBB2002BEAD11C
:4055C0005D4B1B78DBB2EE2B01D15D4B3B615A4B1B78DBB2002B0BD0574B1B78DAB2594B1B7C9A4204D1584800F0ACF9564B3B613B691B78DBB2002B12D03B691B78DBB235
:405600001A46494B1A80484B3A695A60FFF722FD0346FB755CE002F0A5F80346FB7557E056E0424B1B78DBB203F00303002B1FD0022B00D02FE03C4B02221A80434B1B78FB
:40564000DBB203F07F02424913465B0013449B000B449B78DAB23F4B1A703E4B00225A70314B3C4A5A60FFF7F5FC0346FB7512E02D4B02221A80384B1B78DAB2354B1A7051
:40568000344B00225A70284B324A5A60FFF7E2FC0346FB7500BF1BE0234B01221A80224B2E4A5A60FFF7D6FC0346FB7510E01E4B01221A80254B1B78DBB21A46284B1A446D
:4056C000194B5A60FFF7C6FC0346FB7500E000BF1FE1174B1B78DBB2013B0A2B00F2188101A252F823F000BFF9570000115900008558000011590000155700001159000068
:4057000011590000115900006957000011590000BF570000084B1B78DAB2124B1A70FFF7B9FD0346FB75F4E07C580020006000400160004003600040026000404495000070
:405740003C960000EC94000010590020046000408C580020FC81FF1F8958002074580020685800206C5800206C4B1B78BB71BB79002B06D0BB79013BDBB2184600F0C6FCA2
:40578000B860BB79002B02D0BB68002B02D1BB79002B13D1624B1B78DBB2BA799A4208D05F4BBA791A705F4B01221A70012000F0D1F9FFF76FFD0346FB75AAE0A9E000F0D1
:4057C00019FE0346002B16D0574B1B787B71574B7A791A70534B01221A7000F05DFB7B797A7953498A5CD1B2524AD154FFF752FD0346FB758DE08CE04F4B1B78DBB203F034
:405800000303012B22D0012B0DD3022B00D038E0424B1B78DBB2002B04D100F049FD0346FB752EE02DE03D4B1B78DBB2012B0CD1424B1B78DBB223F00203DAB23F4B1A7056
:40584000FFF728FD0346FB751BE01AE0364B1B78DBB2012B14D8344B1B78DBB21A463849CB5CD9B22D4B1B78DBB2DB43DBB20B40D9B2334B9954FFF70DFD0346FB75FFE751
:4058800000BF46E02C4B1B78DBB203F00303012B22D0012B0DD3022B00D038E01F4B1B78DBB2002B04D100F093FC0346FB752EE02DE01A4B1B78DBB2012B0CD11F4B1B78CC
:4058C000DBB243F00203DAB21C4B1A70FFF7E2FC0346FB751BE01AE0134B1B78DBB2012B14D8114B1B78DBB21A461549CB5CD9B20A4B1B78DBB2DB43DBB20B40D9B2104B11
:405900009954FFF7C7FC0346FB75FFE700BF00E000BFFB7D18461837BD4680BD02600040745800206E580020046000406158002068580020785800200060004089580020FD
:405940007058002090B488B000AF78600023BB771F4B07F10C040FCB84E80F007B68002B32D07B6822221A707B68013303221A700223FB7725E0BB7F03F1924303F580730F
:405980001B787B77BB7F0133BB77FB7F7A6813447A7F1209D2B207F120010A4412F8142C1A70FB7F02337A6813447A7F02F00F0207F120010A4412F8142C1A70FB7F04336C
:4059C000FB77FB7F212BD6D92037BD4690BC70472094000080B483B000AF0123FB710023BB7197E0BB7903F1804303F5C1430C221A70FA794E4913465B0013449B000B44A5
:405A00005B79DBB2002B18D0FA79494913465B0013449B000B441B79DBB2DBB25BB2002B05DABA79434B13440C221A700AE0BA79404B134408221A7004E0BA793D4B1344BA
:405A400080221A70BA793C4B13441946FA79384813465B0013449B00034408331B889BB21B0A9BB2DBB20B70BA79344B13441946FA792F4813465B0013449B00034408338B
:405A80001B889BB2DBB20B70BA792D4B13441946FA79274813465B0013449B000344DB889BB2DBB20B70BA79264B13441946FA791F4813465B0013449B000344DB889BB235
:405AC0001B0A9BB2DBB20B70BA791F4B13441946FA79174813465B0013449B000344DB889BB2DBB20B70BA79184B13441946FA790F4813465B0013449B000344DB889BB2AF
:405B00001B0A9BB2DBB20B70FB790133FB71BB791033BB71BB795BB2002BBFF663AF0C4BFF221A700C37BD465DF8047B704700BF8C5800200E6000400C6000400D60004064
:405B4000866000408760004084600040856000400A60004080B588B000AF0346FB7100237B830023FB7743E0FA7FA14913465B0013449B000B4400221A70FA7F9C49134680
:405B80005B0013449B000B4400229A70FA7F984913465B0013449B000B4400225A70FA7F934913465B0013449B000B440022DA70FA7F8F4913465B0013449B000B440022C4
:405BC0005A71FA7F8A4913465B0013449B000B44083300221A80FA7F854913465B0013449B000B44083300229A70FB7F0133FB77FB7F082BB8D9FB79002B10D000237B770D
:405C00000AE07B7F7B4A0021D1547B7F7A4A0021D1547B7F01337B777B7F012BF1D9774B1B78DBB2002B00F03081744B1B78DBB2013BDBB2184600F069FA38613B695B685A
:405C4000FB60FB6807331B7803F04003002B08D06B4B1B78DBB243F00103DAB2684B1A7007E0674B1B78DBB223F00103DAB2644B1A703B6908333B613B691B78FB770123AD
:405C80007B77AAE03B695B687B610023BB779CE07A7F7B699B7803F07F039A4240F08F807A7F534913465B0013449B000B4408331B889AB27B699B889A420BD27A7F7B6983
:405CC00099884B4813465B0013449B00034408330A461A807B691B78464AD35CDAB27B695B789A426BD17B69DB7803F00303FB727B699B78DBB25BB2002B25DA7A7F3C4977
:405D000013465B0013449B000B4401225A70797FFB7A012B01D1072200E00D2234480B465B000B449B0003445A717B699B790A2B03D07B699B79022B2BD1FB7A032B28D0FE
:405D4000304B7A7F1A7024E07A7F294913465B0013449B000B4400225A70797FFB7A012B01D1052200E0092221480B465B000B449B0003445A717B699B790A2B03D07B6943
:405D80009B79022B05D1FB7A032B02D01E4B7A7F1A707A7F7B699978154813465B0013449B0003440A461A717A7F7B69D978104813465B0013449B0003440A461A707B6927
:405DC00008337B61BB7F0133BB77BA7FFB7F9A42FFF45EAF7B7F01337B777B7F082B7FF651AF3B695B687B6100237B7723E000BF8C580020685800207858002074580020C1
:405E0000895800205C5800205A5800207B699B7803F07F027B6919781D4813465B0013449B00034408330A469A707B6908337B617B7F01337B777A7FFB7F9A42E6D300F0E1
:405E4000A1F90246134B1A600123FB7718E0FA7F0F4913465B0013449B000B447A8BDA80FA7F0B4913465B0013449B000B4408331B889AB27B8B13447B83FB7F0133FB774E
:405E8000FB7F082BE3D9FFF7A5FD2037BD4680BD8C5800206458002080B584B000AF8F4B1B78DBB2002B00F015818C4B1B78DBB2013BDBB2184600F029F978607B68083381
:405EC0007B607B681B78FB707B685B68BB600023FB73FAE0BB681B78814AD35CDAB2BB681B788049CB5CDBB29A4200F0E880BB681B787B4AD35CDAB2BB685B789A4240F0DF
:405F0000DE80BB681A78784B1B78DBB29A4240F0D680BB689B7803F07F03BB70BB78013BDBB21B017B70BB68DB7803F003033B70BB689B78DBB25BB2002B17DABA786B4944
:405F400013465B0013449B000B4401225A70B9783B78012B01D1072200E00D2263480B465B000B449B0003445A7116E0BA785F4913465B0013449B000B4400225A70B978F0
:405F80003B78012B01D1052200E0092257480B465B000B449B0003445A717A78544B134401221A70BA78BB689988504813465B0013449B00034408330A461A80BA78BB68AD
:405FC00099784A4813465B0013449B0003440A461A71BA78BB68D978444813465B0013449B0003440A461A70BA78404913465B0013449B000B440022DA707A783D4B134450
:406000001946BA78394813465B0013449B00034408331B889BB21B0A9BB2DBB20B707A78354B13441946BA78304813465B0013449B00034408331B889BB2DBB20B707A78D8
:406040002E4B13441946BA78284813465B0013449B000344DB889BB2DBB20B707A78284B13441946BA78214813465B0013449B000344DB889BB21B0A9BB2DBB20B707A78EB
:40608000204B13441946BA78184813465B0013449B000344DB889BB2DBB20B707A781A4B13441946BA78114813465B0013449B000344DB889BB21B0A9BB2DBB20B70BB68B6
:4060C0000833BB60FB7B0133FB73FA7BFB789A42FFF400AF1037BD4680BD00BF745800206858002078580020046000408C5800200E6000400C6000400D60004086600040F5
:4061000087600040846000408560004080B485B000AF0346FB71104B1B78DBB20F4ADB0013445B68FB60FB680833FB60FB681B78FA799A4202D30023FB6005E0FB79DB0039
:40614000FA6813445B68FB60FB6818461437BD465DF8047B704700BF6B5800203496000080B400AF054B1B78DBB2054ADB0013445B681846BD465DF8047B70476B580020DC
:406180003496000080B584B000AF104B1B78DBB2013BDBB21846FFF7B9FFB860BB68002B0DD0BB685B681B79FB71FB790233DB00BA681344BB60BB685B68FB6001E0002327
:4061C000FB60FB6818461037BD4680BD7458002080B582B000AF0023FB71324B1B78DBB203F07F03BB71BB79013BDBB21B017B71BB79002B51D0BB79082B4ED8BA79B979B6
:4062000029480B465B000B449B0003449B78DBB243F00103D9B2244813465B0013449B0003440A469A70BA791F4913465B0013449B000B440022DA70BA79B9791A480B46E7
:406240005B000B449B0003445B78DBB243F00203D9B2154813465B0013449B0003440A465A70BA79104913465B0013449B000B441B79DBB2DBB25BB2002B05DA7A790B4B7C
:4062800013448D221A7004E07A79084B134489221A70FEF7FFFF0346FB71FB7918460837BD4680BD046000408C5800200E60004080B582B000AF0023FB714A4B1B78DBB2EF
:4062C00003F07F03BB71BB79013BDBB21B017B71BB79002B00F08180BB79082B7DD8BA79B97941480B465B000B449B0003449B78DBB223F00103D9B23B4813465B00134451
:406300009B0003440A469A70BA79374913465B0013449B000B440022DA707A79334B13441A467979314B0B441B78DBB203F07F03DBB21370BA79B9792B480B465B000B44B0
:406340009B0003445B78DBB223F00203D9B2264813465B0013449B0003440A465A70BA79214913465B0013449B000B441B79DBB2DBB25BB2002B16DABA791B4913465B0010
:4063800013449B000B445B78DBB2012B05D17A79174B13440C221A701BE07A79144B13440D221A7015E0BA790F4913465B0013449B000B445B78DBB2012B05D17A790C4B58
:4063C000134408221A7004E07A79094B134409221A70FEF75FFF0346FB71FB7918460837BD4680BD046000408C5800200C6000400E60004080B584B000AF0123FB73164BF5
:406400001B78BB73154B1B78DBB2013BDBB21846FFF77CFEB860BB685B681B79FB71BA7BFB799A4202D2BB7B012B02D90023FB730CE0BB7BBA7B0A498A5CD1B2094AD154D4
:40644000BB7B094A1278D1B2054AD154FB7B18461037BD4680BD00BF046000407458002068580020785800200260004080B582B000AF0023FB710F4B1B78DBB2DBB25BB23D
:40648000002B12DA0C4B1B78DBB2012B00D00CE00A4B0B4A5A600A4B1B781A46074B1A80FEF7D8FD0346FB7100BFFB7918460837BD4680BD00600040016000407C5800200A
:4064C0005096000080B584B002AFF871B971BA807B80134B00221A70114B1978FA79BB790020009000200190084611461A46002300F0F6FC0A4B1978BA887B8808461146FB
:406500001A4600F091FC064B1B781846022100F05DFC034B1B7818460837BD4680BD00BF3C81FF1F80B400AF054B1B78DBB203F004039B08DBB21846BD465DF8047B70470F
:406540002151004080B483B000AF0346FB710A4B094A1278D2B2D2B222F00E02D1B2FA7902F00E02D2B20A43D2B2D2B21A700C37BD465DF8047B70471550004080B483B00A
:4065800000AF0346FB710A4B094A1278D2B2D2B222F00E02D1B2FA7902F00E02D2B20A43D2B2D2B21A700C37BD465DF8047B70471450004080B500AF134B02221A70134BFD
:4065C00081221A70124B08221A70124B0B221A70114B00221A70114B4FF400421A600F20072100F0C1FD0F200D4900F095FD0D4B10221A700C4B00221A700C4B00221A70C0
:406600000B4B00221A7080BDD6490040C8490040CA490040DB490040DC49004080E100E0A5660000F85800200C590020FD5800200459002080B582B000AF00F017FB0346BB
:40664000FB710B4B0A4A1278D2B242F00402D2B21A70084B074A1278D2B242F00402D2B21A70FB79184600F005FB0837BD4680BDA5430040B543004080B500AF074B1B784E
:40668000002B04D1FFF796FF044B01221A70FFF7D1FF034B4FF400421A6080BD0082FF1F00E100E080B582B000AFA84B1B78FB71A74B1B78DBB203F04003DBB2002B00F0AA
:4066C000AB81FB7903F00103002B00F08381A04B1B78DBB2453B052B00F2788101A252F823F000BFFD66000023680000CD690000CD690000FD66000011690000FB7923F0C1
:406700002003FB71FB7903F00A03DBB2082B46D18F4B1B78DBB2452B3AD18E4B1B78DBB2002B0FD08C4B8D4A12681278D2B21A70864B04221A708A4B01221A70844B46220D
:406740001A706DE0874B1B78DBB203F00203002B0FD0854B1B78DBB243F00A03DAB2824B1A707B4B60221A70804B4FF400421A6056E07F4B7E4A1278D2B242F01002D2B201
:406780001A707C4B10221A70704B04221A7047E06E4B00221A706E4B4A221A701AE1FB7903F00A03DBB20A2B36D16F4B1B78DBB263F05F03DAB26C4B1A706A4B1B78DBB2BD
:4067C00003F00203002B18D0614B1B78DBB203F00803002B01D0092300E00A23624A1278D2B21343DAB2604B1A70594B60221A705E4B4FF400421A6012E05D4B5C4A12789C
:40680000D2B242F01002D2B21A705A4B10221A704E4B04221A70DDE0002000F03DFCD9E0D8E0FB7903F00203002B42D14C4B1B78DAB2484B1B78DBB29A4214D2464B474A6A
:406840001168474A1278D2B20A441278D2B21A703E4B04221A70424B1B78DBB20133DAB23F4B1A7053E03F4B1B78DBB203F00203002B0FD03C4B1B78DBB243F00A03DAB20E
:40688000394B1A70324B60221A70384B4FF400421A603CE0364B364A1278D2B242F01002D2B21A70334B10221A70284B04221A7090E02C4B1B78DBB203F00203002B0FD0DC
:4068C000294B1B78DBB263F06503DAB2264B1A701F4B60221A70254B4FF400421A6016E0234B234A1278D2B242F01002D2B21A70204B10221A70154B04221A701A4B1B787D
:40690000DBB263F06F03DAB2174B1A7062E061E0194B1A68194B1B78DBB213440E4A1278D2B21A70154B1B78DBB20133DAB2134B1A70124B1B78DAB2114B1B78DBB29A425D
:4069400020D2024B10221A703FE000BFD7490040F8580020FC580020D84900400059002004590020FF5800200C59002080E100E0D6490040D949004008590020FD580020AF
:40698000FE5800202B4B1B78DBB203F00203002B0FD0294B1B78DBB243F00903DAB2264B1A70264B60221A70254B4FF400421A600BE0244B234A1278D2B242F01002D2B2E6
:4069C0001A70214B00221A7004E003E0002000F063FB00BFFB7903F02003002B27D0174B1B78DBB203F00803002B01D0012300E00223114A1278D2B21343DAB20E4B1A7082
:406A0000104B104A1278D2B222F01002D2B21A700A4B10221A700AE0084B1B78DBB203F01003DBB2002B02D1044B10221A700837BD4680BDFF5800200C590020F85800206C
:406A400080E100E0D6490040D749004080B485B000AF02460B46FA71BB710223FB73244B1B78DBB2102B3CD1224B1B78DBB203F00803002B33D1204B4FF400421A60FB79CC
:406A80005B00FB71BB79002B07D0FB7943F00103FB71174B49221A7002E0154B45221A70164BFA791A70134B01221A7000BF144B1B78DBB203F00103002BF8D0104B1B78B9
:406AC000DBB203F00A03DBB20A2B05D1084B10221A700323FB7304E00023FB7301E00123FB73FB7B18461437BD465DF8047B7047F8580020D949004080E100E0D8490040C5
:406B0000D749004080B483B000AF0223FB71104B1B78DBB203F00403002B12D00C4B10221A700C4B04221A700B4B10221A7000BF084B1B78DBB203F02103002BF8D0002341
:406B4000FB71FB7918460C37BD465DF8047B7047D9490040D7490040F858002080B485B000AF0346FB710223FB73184B1B78DBB203F00403002B22D0154BFA791A70154B1D
:406B800004221A70144B46221A7000BF114B1B78DBB203F00103002BF8D00E4B1B78DBB203F00203002B05D10B4B60221A700023FB7304E0084B60221A700323FB73FB7BFD
:406BC00018461437BD465DF8047B7047D9490040D8490040D7490040F858002080B485B000AF0346FB710023FB73174B1B78DBB203F00403002B20D0144B1B78DBB2492BE3
:406C000006D1134B00221A70104B4A221A70FFE700BF0F4B1B78DBB203F00103002BF8D00C4B1B78FB73FB79002B03D0084B10221A7002E0054B60221A70FB7B18461437E3
:406C4000BD465DF8047B7047D9490040F8580020D7490040D84900400230800800F0058000BF013800467FF4FCAF7047EFF3108072B6704780F31088704700BFAFF30080BD
:406C800080B483B000AF134B7F221A70124B80221A707F23FB710CE0FB79DB0003F1804303F5F043FA79013AD2B21A70FB79013BFB71FB79002BEFD1FB79DB0003F1804344
:406CC00003F5F04300221A700C37BD465DF8047B704700BF4181FF1F4081FF1F80B485B000AF02460B46FA71BB710123FB60FB79172B2FD8BB79002B0ED0FB791A01194BBA
:406D00001344FA791101174A0A441278D2B242F02002D2B21A700DE0FB791A01114B1344FA7911010F4A0A441278D2B222F02002D2B21A70FB791A010A4B1344FA791101ED
:406D4000084A0A441278D2B242F00102D2B21A700023FB60FB6818461437BD465DF8047B704700BF1070004080B485B000AF0346FB710123FB60FB79172B1DD8FB791A0105
:406D8000114B1344FA7911010F4A0A441279D2B242F00402D2B21A71FB791A010A4B1344FA791101084A0A441278D2B242F00102D2B21A700023FB60FB6818461437BD4660
:406DC0005DF8047B704700BF1070004080B485B000AF02460B46FA71BB710123FB60FB79172B18D8FB791A010E4B13441B78DBB223F00E03FB72FB791A010A4B1344BA79BE
:406E000002F00702D2B25200D1B2FA7A0A43D2B21A700023FB60FB6818461437BD465DF8047B70471070004080B485B000AF13460246FA710A46BA807B800123FB60BA88ED
:406E400041F6FF739A4202D14FF40053BB807A8841F6FF739A4202D14FF400537B80FB79172B17D8FB79DB0003F1804303F5EC430433BB60BB68BA881A80FB79DB0003F198
:406E8000804303F5EC430633BB60BB687A881A800023FB60FB6818461437BD465DF8047B704700BF80B485B000AF02460B46FA71BB710123FB60FB79172B07D8FB791A0113
:406EC000064B1344BA795A720023FB60FB6818461437BD465DF8047B704700BF1070004080B485B000AFF871B9717A713B710123FB60FB79172B34D8FB79DB0003F18043CB
:406F000003F5EC43BA7902F07F02D1B27A79D201D2B20A43D2B21A70FB79DB0003F1804303F5EC433A7E1201D1B23A7902F00F02D2B20A43D2B25A70FB79DB0003F1804306
:406F400003F5EC433A7F02F00F02D2B29A70FB79DB0003F1804303F5EC430022DA700023FB60FB6818461437BD465DF8047B704780B582B000AFFF23FB71FFF777FE034697
:406F8000BB71104B1B78182B12D90F4B1B78FB710C4B1B78013BDAB20A4B1A70FB79DB0003F1804303F5F0431B78DAB2064B1A70BB791846FFF75EFEFB7918460837BD467C
:406FC00080BD00BF4081FF1F4181FF1F80B485B000AFF871B980BA71FB700123FB60FB795BB2002B23DBBB8823F47F6323F00F039BB2002B1BD1FB79DB0003F1804303F59A
:40700000F043BB60BB68BA881A80FB79DB0003F1804303F5F043BA799A70FB79DB0003F1804303F5F043FA78DA700023FB60FB6818461437BD465DF8047B704780B485B027
:4070400000AF13460246FA710A46BA807B800123FB60FB795BB2002B17DBFB79DB0003F1804303F5F0430433BB60BB68BA881A80FB79DB0003F1804303F5F0430633BB60AC
:40708000BB687A881A800023FB60FB6818461437BD465DF8047B704780B483B000AF0346FB7101BE0C37BD465DF8047B704700BF80B582B000AF786008E00C4B1B681846D1
:4070C000FFF7CAFD7B68A3F500437B607B68B3F5004FF2D8064B1B687A6802FB03F31846FFF7BAFD0837BD4680BD00BF5481FF1F4C81FF1F80B582B000AF0346FB80FB8869
:40710000044A127802FB03F31846FFF7A5FD0837BD4680BD5081FF1F80B584B000AF03463960FB710F4B1B68FB60FB791F2B02D90020FFF7B1FFFB7903F01F0310339B00BC
:40714000FA6813441B68BB60FB7903F01F0310339B00FA6813443A681A60BB6818461037BD4680BD08ED00E080B582B000AF02460B46FA71BB71BB79072B02D90020FFF702
:407180008BFFFB791F2B02D90020FFF785FFFB7903F01F0303F1604303F56443BA795201D2B21A700837BD4680BD00BF80B500AF2820FFF77DFF032000F010F90520FFF7AC
:4071C00077FF032000F00AF90F20FFF771FF032000F004F90120FFF76BFF022000F0FEF80520FFF765FF062000F0A2F80E2000F09FF82C2000F09CF8082000F099F8012057
:4072000000F096F80C2000F093F8032000F090F80520FFF74DFF80BD80B500AF0C2000F087F8024B01221A7080BD00BF0182FF1F80B500AF054B1B78002B04D1FFF7B6FF62
