:400000000080002011000000E9000000E900000008B5054B1A6803F53F5302331A6000F02BFA00F063F800BFFA46004010B5054C237833B9044B13B10448AFF30080012394
:40004000237010BD2881FF1F000000004022000008B5064B1BB106480649AFF300800648036813B1054B03B1984708BD00000000402200002C81FF1F0881FF1F0000000065
:4000800008B500F01DFD0A2000F018FE00F0C0FC0F4800F0ABFC62B60E4B0F4C1B7813F0010F10D00D4B00251D7000F07BFC0C4800F019FC0120294600F082FC094800F054
:4000C00012FC402300E08023237000F091FBFEE7AD0C000069640040FA4600407B6500404422000055220000FEE7000008B51249124B4A1C1AD053F8106C53F80C0C53F8B6
:40010000085C0022AA4200EB020403D0B45884500432F7E753F8040C0022824203D00025A5500432F9E710330139E2E702F04CF8FFF7A6FFFEE700BF00000000C0260000B0
:4001400008B5114A114B1A609A6842F400729A600023032B98BF0E4A4FEA830094BF52F823100C490C4A0133302B1150F1D10B4B19780B4B19700B4B1A6000F017F80A4B1A
:4001800000221A6008BD00BF0004FA050CED00E000000000E90000000080FF1FBC7600400481FF1F08ED00E00081FF1FF8B572B66A4B61221A70A3F5F0634FF4E1521A80A1
:4001C000192541F61F429D709A8003229D711A81634A182340F65401137051801371614B06221A705222A3F580731A705E4B00241A785E4BD2B21A7040F61802A3F27F4345
:400200001A8041F2512223F8022C594B4FF4F0701B7803F0010343EA440400F061FC013D04F003041BD0032CEFD1524B4FF480721A8007221A70504A0024482114709170C4
:4002400002221C705C7103F8032C93F89E2342F00F0283F89E23012283F8FC2700E0FEE7464B0021234418689A88063401F0DBFF2A2CF5D100231946414C00221859803454
:4002800020F0FF06C0B2450004EB4104AA4208D004EB020CA75C9CF801C0023207F806C0F4E70433802B0144E6D1364B364C1A7842F002021A701A7C42F002021A74334A47
:4002C000137843F040031370314B197841F010011970304B186859681D4603C455F80A0F1989B83424F8B81C696803C429891D4655F8140F21806968283403C429891D4611
:4003000055F81E0F21806968B83C03C429891D4655F8280F21806968083403C429891E48218053F8321FA4F6A854016059681B4B4160197841F008011970194B19491B7847
:40034000DBB203F007001B0908704B70164B442119700FCA07C42380F8BD00BF004800408A400040004300400F010049A146004025420040044000400640004068220000C5
:40038000942200000350014000510040A0430040C24300400C2500006251004022430040CF0100496E58004076580040004710B500232AB1013A4418A45C2344DBB2F8E790
:4003C000184610BD0138092842D8DFE800F0050B11171D232F29353B0902C1F57F3101F570713BE00902C1F57F3101F2C13138E00902C1F57F3101F2C5312AE00902C1F561
:400400007F3101F2C9312CE00902C1F57F3101F5747123E00902C1F57F3101F2D1311DE00902C1F57F3101F2D63112E00902C1F57F3101F2D2310CE00902C1F57F3101F54A
:40044000757106E00902C1F57F3101F5767108E000210B78487843EA002070470878C0B270470B784A788878000440EA02201843CB7840EA0360704710B50B4B1A7802F053
:40048000C002802A0ED100241C7002202146FFF799FF38B121460220FFF794FFBDE81040FFF784BF10BD00BFFA460040F8B5044621460320FFF786FF214607460420FFF72B
:4004C00081FF013700EB072721460320FFF77AFF0025013003022E46BB4209D213F8012B511EC9B2FD29154498BF0126EDB2F3E701202146FFF766FF6D42EDB2854204D127
:40050000002E14BF00200620F8BD0620F8BD000080B5ADF51A7D00F0F7FA10B1002000F0C3FB00F0F9FC62B600273D4604A84FF4967101AAFF2300F01FFD0028F6D1BDF8EC
:400540000420062A40F248819DF81030012B40F043819DF812309DF8134043EA042404F1070E04AB234496455E79197900F232819B79172B40F03081231D9BB233B10DF174
:400580000F02D25C013B104480B2F6E7404241EA062380B2834240F021819DF811309DF81460313B0A2B00F2E780DFE813F00B001B00E500E500E500E500800091003F0011
:4005C000A000D600002F00F00781002C40F004812046FFF76BFFD0F1010038BF00208DF81400B8E0002F00F0F780012C40F0F480032E00F2F1807A4B1B681B68C3F3074268
:40060000964202D1C3F3072303E08CBF00234FF480738DF814301B0A8DF815300024FF238DF816308DF817400421A7E0002F00F0D380022C40F2D080033C4FA828440DF195
:400640001701224601F0E6FDA6F1400325443F2BADB203D800F002FB102301E04FF480739D4240F084809DF816109DF815303F2E43EA01210ED85A4B01EB06221B6892B23E
:400680001B68C3F30F2013F0FF0F1CBF013080B282426ED32B464FAA304600F07DFA00280CBF00240A24002500F024FB65E0002F00F092802E19B6F5967F00F28B804FA84D
:4006C0002844224605A901F0A5FDB5B2002454E0002C40F08180434A02AB92E8030005AA83E8030082E803000127082146E0002F72D0032C70D19DF815309DF8168043EAFE
:400700000828A6F140033F2B07D837484FEA08111022FFF74CFE044619E008EB0621002009024FF48072FFF742FE032E04460ED1B8F1FF0F0BD100210520FFF743FE201A8C
:40074000C4B200210620FFF73DFE201AC4B264428DF814400024012110E00020FFF7A6FE10B9224B80221A7000F0A0FA34E0002530E000250A2400E00524002101238DF811
:40078000103000220B1DADF806108DF811408DF812108DF813209BB20DF10F00C05C013B02449BB292B2002BF6D1524205AB92B25A540DF11503120A5A540DF116031722DE
:4007C0005A54073104A889B20DF10602962300F0B2FBABE60324D0E70424CEE70824CCE70C81FF1F4825000000800040FA46004070B50020FFF75AFE144D00282B684FF05F
:4008000000001C68014622460CBF00260626FFF7CEFD6B681B78181A00F0FF00984200D114B9002000F040FA094B1A7802F0C002402A1A4600D01EB100231370FFF768FE59
:4008400080221A70BDE8704000F030BA0C81FF1FFA46004010B50B4C237803F09F032370237803F0F0032370237843F0100318432070012000F036FA237803F0EF032370DF
:4008800010BD00BF7864004010B50D4C237843F020032370237803F0BF032370237803F0F0032370237843F0100318432070012000F018FA237803F0EF03237010BD00BF69
:4008C0007864004010B504460009FFF7DDFF642000F008FA04F00F00FFF7D6FFBDE81040962000F0FFB938B505460078012428B1FFF7E8FF285D0134E4B2F8E738BD10B5E7
:4009000004460009FFF7A6FF642000F0EBF904F00F00FFF79FFFBDE8104040F6C41000F0E1B908B5282000F0C9F90320FFF792FF052000F0C3F90320FFF78CFF0F2000F05C
:40094000BDF90320FFF786FF012000F0B7F90220FFF780FF052000F0B1F90620FFF7CFFF0E20FFF7CCFF2C20FFF7C9FF0820FFF7C6FF0120FFF7C3FF0C20FFF7C0FF032069
:40098000FFF7BDFFBDE80840052000F097B9000008B50C20FFF7B3FF014B01221A7008BD4481FF1F10B5054C63781BB9FFF7B9FF01236370BDE81040FFF7EABF4481FF1F20
:4009C000032811D8DFE800F00205080B81F0800008E0A1F1400004E0A1F16C0001E0A1F12C00C0B2FFF78BBF70470000064A0423136002F688321268E0219064034A1170A4
:400A0000A2F202321360704780E100E002E400E0014B04221A60704780E200E01E4B1A78A3F65D3342F0020283F85D2B93F85F2B02F08F0242F0300283F85F2B93F8682B5C
:400A400002F0CF0283F8682B93F8682B42F0300283F8682B93F8682B02F0F00283F8682B93F8682B42F00F0283F8682B4FF6FF72A3F8612B0122A3F8632B002283F8602B45
:400A80001A7842F001021A7093F85E2B42F0010283F85E2B704700BF004F0040074B1A7842F001021A701A7C42F001021A7493F85D2B42F0010283F85D2B7047A34300406F
:400AC00010B5054C23781BB9FFF7A8FF01232370BDE81040FFF7E2BF4681FF1F000000000230800800F0058000BF013800467FF4FCAF7047EFF3108072B6704780F310880E
:400B0000704700BFAFF3008038B500F02DF900F0B5F9002838D100F0EBF9072804460FD11B4B1A78900703D4012000F0DBF8F7E71A78910704D51B789B0814BF072400249B
:400B400000F0BCF90CBB00F00FF900F097F9D8B9012000F079F9072805D04FF0FF3410E02B789B07F9D40B48022100F00FF90228074DF5D12B789A0703D4012000F0B2F87D
:400B8000F8E700F09BF900E00424204638BD00BF224700405481FF1F4128F8B505460E4617461C460AD8411F3A298CBF002101213F2804D8B6F5807F29D805E00121812EC9
:400BC00028BF0121102C22D10FB301BB00F056F9F8B92346284631463A4600F0F1F80728044611D11B4B1A781F4612F0020F03D1012000F077F8F5E71A78900702D51B781A
:400C00009B0808D04FF0FF3400F058F91FE001241DE004241BE0104B28461A7831465B7800F0F2F807280446EED13A78094B910703D4012000F056F8F7E71A789207E1D5F8
:400C40001B789B080CBF00246FF00004DCE72046F8BD00BF224700405481FF1F08B5FFF749FF0F4B1A780C3342F0080203F80C2C1A7942F008021A71C82283F855231A7855
:400C800042F010021A701A7C42F010021A74054B1B789B06FBD5BDE80840FFF72FBF00BFA04300400047004001BE7047024B1A7842F001021A707047F646004010B504461A
:400CC000B4F5004F064B05D91868FFF709FFA4F50044F5E758686043BDE81040FFF700BF1481FF1F024B1B7A5843FFF7F9BE00BF1481FF1F08B5FFF7FDFE00BF00BF00BF4F
:400D000000BF00BF00BF00BF00BF00BF00BF00BF00BF00BF00BF00BF00BF064B1A8892B242F004021A801B88BFF36F8FBDE80840FFF7E4BE00480040054B00F01F001B68B5
:400D400000F1100253F8220043F82210704700BF08ED00E000F01F0000F16040490100F56440C9B20170704708B5FFF7C3FE064B1A7842F008021A701A7C42F008021A74A8
:400D8000BDE80840FFF7BABEA043004070B506460D460024E3B2AB420CD2074B1B78DB0703D40120FFF79EFFF7E7044B1B7833550134EFE7284670BD2247004020470040DD
:400DC00030B50F490C78A40716D50E4CB6252570D5252570022525700D7805F0020505F0FF015DB9207088B2984203D2505C01312070F8E7072030BD042030BD092030BDFA
:400E0000224700402047004070B50D4D2C78A60712D50C4CB6262670D8262670052626702D78AD070AD42070080AC9B22070217022702370072070BD042070BD092070BDF7
:400E400022470040204700400A4A137899070CD5094BB6211970E12119700E2119701278920704D4187007207047042070470920704700BF224700402047004038B5FFF7BD
:400E800039FE0C4B197879B901250B4A1D7014682C400AD0146824F00104146000BF00BF00BF5D600C4600E00424FFF727FE204638BD00BF4881FF1F0400084010B5FFF797
:400EC00019FE094B002259681A70012908D107490C6844F001040C6000BF00BF00BF5A60BDE81040FFF70ABE4881FF1F04000840074B1B789B0708D5064BB6221A70E022B8
:400F00001A700D221A70072070470420704700BF224700402047004008B562B60020022100F04EF9014B01221A7008BD5081FF1F012000F0F1B9F8B507460E46154603EB58
:400F400083030220394640225C0000F0A7F9022000F086F930B92CB10120013CFFF7AEFEA4B2F4E7022000F07BF910B12E800020F8BD1020F8BD00002DE9F84303EB830300
:400F80005C00234B16461A7880460F469946AAB1254600F053F930B92DB10120013DFFF78DFEADB2F5E700F049F9A8B100F04CF9FFF7BEFF002389F800300DE000F044F93A
:400FC00050B100F03BF938B1FFF7B2FF04E054B1FFF774FE013CA4B2012000F041F901284FF00100F3D100F03BF901280AD14146402F34BF3A46402200F0A4F93080002090
:40100000BDE8F883002333801020BDE8F88300BF5081FF1FF8B5FFF76DFD394B01251A78022642F001021A701A7C364C42F001021A7403F5E75318331D7003F8946C13F8A1
:401040008D2C074602F07F0203F88D2C0020FFF749FE2378284603F0F90323702A4B1A7802F0DF021A7023782B432370FFF73AFE2820FFF737FE254B30461A7802F07F02CF
:401080001A701A7802F0BF021A70237833432370FFF728FE2378384643F0040323701C4B00241C705C70FFF729FD1A491720FFF743FE17200721FFF74DFE17491520FFF736
:4010C0003BFE15200721FFF745FE14491820FFF733FE18200721FFF73DFE20461049FFF72BFE20460721FFF735FE28460D49FFF723FE28460721BDE8F840FFF72BBE00BF53
:40110000A54300409443004012600040F8510040846000400B180000091800005D160000A1170000D5170000184B012210B51A70174B4FF400041C604FF080741C601A6093
:4011400002221A60134B00241C70134B01B103221A70124B124A187000231370114A01201370114A1370114A1370114A1370114A1370114B03221A70802203F8202CFFF7BC
:40118000AFFC0E4B04221A7010BD00BFE681FF1F00E100E05881FF1F096000406281FF1F6A81FF1F5981FF1F6581FF1F6381FF1F7981FF1F5A81FF1F286000401260004076
:4011C00070B5074C064623780D461BB9FFF722FF0123237030462946BDE87040FFF7A4BF5181FF1F0C4B01221A700C4A002313700B4A13700B4A13700B4A13700B4A1370B8
:401200000B4A13700B4A13700B4B03221A70802203F8202C704700BFE681FF1F5881FF1F6A81FF1F5981FF1F6581FF1F6381FF1F7981FF1F5A81FF1F28600040014B187862
:40124000704700BF6A81FF1F044B1A7802F0FF001AB118780022C0B21A7070476581FF1F024B0C2202FB0030407870477A81FF1F0138C3B2072B0CD8074A1B01DBB2985C07
:4012800001329B5C00F00F0043EA0020023880B270470020704700BF0C600040431EDBB2072BF0B52FD8184E0C2404FB0064E7881B01BFB2154DC7F50077DBB2BA421D4413
:4012C00003D9E288C2F5007292B20C2404FB0064E7780F4C47EA12271F55D7B201341F5549B90C2202FB0060002242704179094AC9B29954F0BD0024A7B29742F1D20F5DD6
:4013000001342F70F8E7F0BD7A81FF1F886000400C6000400E600040431EDBB2072B0BD8064A0C2101FB00200022427041791B01034ADBB2C9B29954704700BF7A81FF1F9B
:401340000E600040F8B5431EDBB2072B07460D46144616D8B9B11B010C4EDBB21E44FFF787FFA04228BF204684B200239AB2A24203D23278EA540133F8E73846FFF7CCFFF8
:4013800002E0002400E00C462046F8BD8860004030B51A4B1A481A8801780A4492B219491A80194BCAB21C88A4B284B1174A91420CD05A681278D2B201F8012B5A68013254
:4013C0005A601A88013A92B21A80EAE7082203780F4C082B0F4B00D042B10F490D7885F080050D700F212170022101E00221217019700A4B02701A7030BD00BF6881FF1FFD
:401400005A81FF1F006000406C81FF1F086000406181FF1F5881FF1F6481FF1F7881FF1F074B02221A70074B80221A70064B0F221A70064A00231370054A01201370704725
:401440005881FF1F6481FF1F6181FF1F5A81FF1F7881FF1F10B5154B1A78154B02F00F021988023AD2B2114489B219801149124B188880B278B172B1586811F8014B013A99
:40148000E4B204705868D2B2013058601888013880B21880EBE7094B1A70094B1A7882F080021A70074B0B221A7010BD296000406881FF1F006000406C81FF1F7881FF1FD6
:4014C0006481FF1F6181FF1F064A06231370064A01201370054B80221A70054B00221A70704700BF5881FF1F6181FF1F6481FF1F7881FF1F054B9A683AB19A6804491070EE
:401500009A680988518000229A6070476C81FF1F6881FF1F08B5124B1A78D2B21A701B78DBB21A0602D50F4A137008BD0220FFF7E1FF0D4B1B7803F06003202B05D0402B2C
:4015400006D043B900F0C4FC04E000F013FE01E000F004FE10B9034B03221A7008BD00BF286000406181FF1F0060004008B50849084B01201A8809780A4492B21A80064B5D
:4015800000221A70FFF7B6FF044B03221A7008BD5A81FF1F6881FF1F5881FF1F6181FF1F08B50C4B1B78DBB2042B07D0062B09D0022B0DD1BDE80840FFF7D8BFBDE8084064
:4015C000FFF748BF0320FFF795FF034B03221A7008BD00BF5881FF1F6181FF1F08B5054B002201201A70FFF785FF034B03221A7008BD00BF5881FF1F6181FF1F08B50A4BEB
:401600001A7832B11978094A41F08001117000221A70074B002201201A70FFF76BFF054B03221A7008BD00BF6381FF1F086000405881FF1F6181FF1F074B1B78DBB2042B2E
:4016400005D0062B05D0022B05D1FFF7A1BEFFF7C5BFFFF7D3BF70475881FF1F10B51D4C2378DBB2DA0633D518060AD503F00F03012B2DD1FFF74EFF174B1B78190609D5E8
:4016800010BD5A0602D5FFF7D7FF03E09B061FD5FFF786FF23781B061AD4104B104A1B78127813430F4A13701278934210D10A4B08491A782078D2B2000605D41A78D2B230
:4016C0000A700A7802F00F021B789A42EFD110BD10BD00BF286000406181FF1F6481FF1F7881FF1F29600040054A00231380054A916819B191680B7092685380704700BFEA
:401700006881FF1F6C81FF1F10B50F4C23889BB213B9FFF785FE14E00C4B02221A700C4B00221A70FFF7E0FF0A4B1A78013B1B7843EA0223228892B29A4288BF2380FFF7B7
:4017400027FE012010BD00BF6C81FF1F5881FF1F6481FF1F0760004008B50C4B04221A700B4B80221A70FFF7BFFF0A4B01201A78013B1B7843EA0222074B198889B29142C8
:4017800088BF1A80054B0B221A7008BD5881FF1F6481FF1F076000406C81FF1F6181FF1F094B1B78094B1A7B02F00302012A03D0DA7B82F08002DA7301225A73044B1A78A4
:4017C00002F0FE021A7070470E6000407A81FF1F0B600040094B1B78094B1A7E02F00302012A03D0DA7E82F08002DA7601225A76044B1A7802F0FD021A7070471E6000401C
:401800007A81FF1F0B6000407047FFF7EBBC000008B50C4B18780138C0B200F07BF90A4B0A491B78DBB200EBC3004269CB5C02EBC3035B685A6A064B1178C9B219805A60B3
:4018400008BD00BF6A81FF1F046000406081FF1F6C81FF1F08B50D4B18780138C0B200F059F90B4B0B491B78DBB200EBC3004269CB5C02EBC3035B68DB69597813F8022B8E
:4018800042EA0121044A1180536008BD6A81FF1F046000406081FF1F6C81FF1F10B5194C00232380184B18780138C0B200F032F9164B174A1B781278DBB2D2B200EBC20086
:4018C0004169EAB9134A127801EBC20251685A1E022A15D8104A03F10053013B127801EBC30011F83330D2B2934209D30C235A4341688B1858688A5A9B6860602280A360DF
:4019000010BD00BF6C81FF1F6A81FF1F03600040046000406081FF1F0260004010B53C4B3C4A1B781178DBB2090634D501321278013A052A6AD8DFE802F010182769690346
:40194000354B1A78212A02D1FFF762FF07E01B78222B5BD1FFF77EFF01E0FFF79FFF2F4B1B889BB2002B51D00AE0002B4ED12C4B1B78002B4AD1294B01221A80294A5A606D
:40198000BDE81040FFF7C0BE002B3FD1234B01221A80254AF3E71278120637D4234A1278D2B20A2A0DD00B2A27D0092A2ED1FFF775FF1A4B1B889BB243B3BDE81040FFF7D8
:4019C000CBBE1BBB164B1B7803F0FF01F3B9124B144A1B78DBB21370154B14781878844201D2197005E01978012902D91278D2B21A70BDE81040FFF767BD3BB9084B1A78FE
:401A0000012A03D81A78084BD2B2F1E7002010BD0460004000600040036000406C81FF1F02600040E781FF1FE681FF1F01600040E881FF1F7FB5144B02466D4603F1100613
:401A4000186859682C4603C40833B3422546F7D1BAB122231370032353700C4B13F8011B04ACC9B204EB111001F00F01214411F8101C10F8100C907002F8041F04498B42BE
:401A8000ECD104B070BD00BF50250000000100490801004930B51C4B01211C4A0C2000FB012483F87200657925B12479240658BF082000E0802018700C2000FB0122108906
:401AC0000131C0F3072003F8020C10890929C0B203F8010CD08803F11003C0B283F86800D088C0F3072083F86900D088C0B283F86600D288C2F3072283F86720CDD1044BF0
:401B0000FF221A7030BD00BF0E6000407A81FF1F0A600040074B1A78074B03EBC2035B6803F108021B7A834286BF02EBC0004068002070476281FF1F64250000F8B5394BAD
:401B40001A78002A6CD018780138C0B2FFF7E2FFC368047A083303EBC404A34260D013F8082C314931488D5C805C854256D0895C13F8070C884251D12D4909788A424DD1F8
:401B800013F8060C13F8056C00F07F02511E10F0800F28484FEA01114FF00C05C9B206F0030605FB020506D00127BE426F7014BF0D26072605E00027012E6F7014BF092665
:401BC00005266E711C4D01266E540C25554333F8046C4219168113F8066C167113F8056C46550020D07015891448C5F30725455415890130EDB24554D5887930EDB24554FC
:401C0000D5880130C5F307254554D5880338EDB24554D2880130C2F30722425408339CE7F8BD00BF6A81FF1F6081FF1F6B81FF1F046000407A81FF1F0E6000400C6000406F
:401C400008B5064B18780138C0B2FFF763FF20B143681B7900EBC300406908BD6A81FF1FF8B500210C254D434C4C0131002362190929635593705370D37053711381937247
:401C8000F0D118B1464A1370464A1370464B1A78002A00F0818018780138C0B2FFF73AFF4368017ADB79C90013F0400F3F4B1A7814BF42F0010202F0FE021A700122C36849
:401CC000083303EB010E73453DD013F8065C05F07F06B24235D10C2606FB0246B6F808C033F8047C1FFA8CFCBC4538BF378113F8086C2B4FBE5D13F8077CB74221D113F881
:401D0000056C15F0800F4FF00C0506F0030605FB024506D00127BE426F7014BF0D26072605E00027012E6F7014BF092605266E710C25554313F8067C6619377113F8056CD9
:401D400066550833BFE70132092AB8D1C36803F10802114408338B420AD013F8062C0C2502F07F0205FB024213F8080C9072F1E7FFF766FF0E4B0022186001230C2101FBBF
:401D80000341CA80098901330A44092B92B2F5D1BDE8F840FFF77EBEF8BD00BF7A81FF1F6081FF1F6B81FF1F6A81FF1F7981FF1F5C81FF1F114B197801F07F014A1ED2B238
:401DC000072A19D80E4B0C2000FB01339978120141F0010199700021D9705978D2B241F0020159701B7913F0800F064B14BF8D218921D154FFF768BB002070470460004096
:401E00007A81FF1F0E60004010B51A4B1B7803F07F035A1ED2B2072A29D817490C2000FB03139978120101F0FE0199700021D9701249D2B2545C04F07F045454597801F0E7
:401E4000FD01597019795B7811F0800F0C4905D0012B01D1505406E00D2303E0012B0CBF082309235354BDE81040FFF72DBB002010BD00BF046000407A81FF1F0C60004004
:401E80000E60004010B50D4B1C780D4BE4B218780138C0B2FFF73EFE43681B79A3420BD954B9084B084A19780120C9B21170074A1278D2B21A7010BD002010BD04600040B9
:401EC0006A81FF1F6081FF1F6B81FF1F0260004038B58D4C002323808C4B1A7812F0800F8B4A127800F08A800A2A00F20A81DFE812F05A00080108010801080108010B0043
:401F000008017A0008017E00824B1A78012A09D1814B1A78814B03EBC2035B685B686360122311E01A78022A13D17D4B1878FFF7F1FD002800F0E580436863606368DA7801
:401F400063689B7843EA02232380BDE83840FFF7DBBB1B78032B22D1724B00227049D0B20D78854202D80A783AB910E0187801320028F8D019780B44F0E7694A6A49127832
:401F8000097C914203D16948FFF754FD674B1A78002A00F0B6801A78D2B2228019E0BDE8384000F0E7B81A7812F0030213D0022A40F0A7805E4B22801B785E4A03F07F0312
:401FC0000C2101FB03239A785B4BD2B21A7000225A706360B9E702232380584B1978564BC9B21970F4E701232380554BF1E7012323804F4B534A1B781344EAE7013A0A2A9A
:402000007FD8DFE802F0367E527E067E7E7E0B7E2200434B1A784C4BD2B260E0404B1B7803F0FF0453B9464B1A78944265D01C70464B01201870FFF713FE5EE0601EC0B21D
:40204000FFF768FD0028EED15BE0FFF71BFF002857D0374B01221C783D4BE4B21C703B4B1A70FFF76BFD374B1A5D3A4BD2B21A5543E01B7803F00303012B32D00CD3022BD9
:402080003FD103F1804303F5C0431B78002B38D1BDE83840FFF7B8BE214B1B78012B30D1264B1A7802F0FD0219E01B7803F00303012B16D00BD3022B23D103F1804303F5A9
:4020C000C0431B78EBB9BDE83840FFF773BE144B1B78012B15D1194B1A7842F002021A700BE0134B1A7862B91B781B4A0C48DBB2D15C007821EA0001D154BDE83840FFF7F0
:40210000E3B9002038BD00BF6C81FF1F0060004001600040036000406281FF1F64250000026000402A260000782600003082FF1F046000407A81FF1F5281FF1F7981FF1F90
:402140006A81FF1F6081FF1F6381FF1F6581FF1F5981FF1F6B81FF1F6681FF1F034B00201B781B0644BF024B1B7870470060004001600040104B1B7803F00303012B0CD05E
:40218000022B0ED10D4B0E4A1B780C2103F07F0301FB032308339B7801E0084B1B78DBB200E00023074A1268D35C032B01D1FFF7B5BB0020704700BF00600040046000402D
:4021C0007A81FF1F5C81FF1F70B50E4B0E4D0024ED1AAD101E46AC4204D056F8242090470134F8E700F052FA084D094B0024ED1AAD101E46AC4204D056F8242090470134D6
:40220000F8E770BD9826000098260000A02600009826000010B50023934203D0CC5CC4540133F9E710BD02440346934202D003F8011BFAE770470000E0260000F100000005
:40224000000000004D6F6E61736820476C6F6D657269646100426F6F746C6F61646572205265616479000000004F00400C001051004030000000014000100014014000080A
:4022800000400140000A004C01400002005001402000000001450040024F0040095200400165004004000140010101400203014001050140040701400808014015090140EA
:4022C000040B0140030D01400215014004170140061901402E1A0140251B0140074001400B4101400E4201400C430140044401400345014001460140044701400D4801402D
:4023000005490140054C01400E4D014002500140015101407E0201200A4B008001C02003210129803110608061847C407B0138083E0458045F011B04AB04E202E609E20195
:40234000E602E804EE045B045F01AE01B401D804DB04DC08DF11100219101A0459506D806E086F8877067A08830487089F02A002A208A540A604A780AA0CC401D60CDE0492
:4023800083028780A002A5408540A002B002E201EC80E408E810EA02EE0A86109D40A208AE04E810EE0A0501070209020B0115022E01330336013920580459045C385F112C
:4023C00080048504860C870888088A048B088C028E019003940195089602970499019B029D019F02A408AD03B203B50CB60CB703B888B980BE04BF40D804D904DB04DC3344
:40240000DF01041505800E601002170819401C011F0420142580270C2E40330435803610370838143C146E407A088001858088028B0499809D40A218B180C0F0C230C42128
:40244000CA10CC72CE66DE04E402EC803381364057085F80CC70D440D6206008642087809F81A280A640A788AA80D8C0E240EE20108050046280800484209C289F01A2807E
:40248000A640A788C410D420D640E6901810814087089F01A640A788A888C610E280E640E820EE2008046080C208D8029C80B004EE019C8008080F409C80C20C21042610D3
:4024C000514086109180AE40AF81B410C860D420E410EA40EE5079808140B104DC80E2809880AC08AF40B480E8080C80608063027404840488808B019880C201D602D8024C
:40250000DE04E001E60110081C08003AC00000C0C000C00000008C00000C8C008C0000000800000808000800C00003000003030003000000200080802000A00000001010DF
:4025400000001000000000006980172E001E01013031323334353637383941424344454600000000010000006C2500000100000078260000010000007C2500000100000087
:402580004F260000020000009E25000001000000B0250000000000009C250000030000000103400003000000820340000300000001000000B825000000000000EC25000049
:4025C00000000000E0250000000000000000000001000000F8250000010000006126000041000000EA81FF1F5282FF1F410000005682FF1F2C82FF1F240005010900A1009D
:402600000900A1000900150025FF7508954091020900150025FF750895408102C0C000000A033000300030003100040309040A03500053006F004300160342006F006F00B5
:4026400074006C006F0061006400650072000009022900010102803209040000020300000209211101000122240007050103400001070582034000011201000200000008AE
:40268000B4041DB70130010280010000F8B500BFF8BC08BC9E4670475100000041010000F8B500BFF8BC08BC9E4670472D000000C02600000881FF1F2000000070010000FD
:4026C00000000000382200003C2200000000007D00FA0000400000000090D00300000000000000000000000000000000000000000000000000000000000000000000000008
:402700000080002011270000A5500000A550000080B500AF02F0F2FC10B5054C237833B9044B13B10448AFF300800123237010BDA881FF1F0000000064A8000008B5064B10
:402740001BB106480649AFF300800648036813B1054B03B1984708BD0000000064A80000AC81FF1F0881FF1F0000000080B485B000AFF860B9607A60BA68FB689A4205DB07
:40278000BA687B689A4201DC012300E0002318461437BD465DF8047B704700BFB0B596B002AF012003F086FA62B603F0BBF803F0D1FA01F0CDFE01F0EFFE00BFD54B1B78C6
:4027C000DBB2002BFAD001F033FFD34B1A88D34B1A8002F0A3F901F0FBFF02F00BF801F09BFE002001F05AFE02F0D2FA02F044FC02F08CFB02F0E2FA0023BB6446233B61DD
:4028000001237B640023BB630023A7F84E3000E000BFB7F84E300E2BFAD801A252F823F05D2800004F2900007B290000C7290000ED2C0000CB2C0000F93500001128000035
:40284000552D0000F12E00009D300000333100007732000015300000BF35000001F0D4FF4FF4FA7005F08CFB062001F017FE4FF47A7005F085FB4FF4C860C82102F06EF83D
:402880004FF4967005F07CFB01F0AAFF4FF4FA7005F076FB01F0AEFF4FF4FA7005F070FB0A20B42102F0B2F89D4A9E4B14460FCB07C4238002341B0C23700020002103F0DA
:4028C00041F8974803F074F8012001F0E7FD4FF4FA7005F055FB0020002103F033F8924803F066F801F01EFA0020002103F02AF88E4803F05DF80020012101F0DFFD4FF420
:40290000FA7005F03DFB022001F094FA01F074FA01F00EF9012001F08DFA854BDA68844B9B688349486882490968009001917C48804907F09BFB0120002103F003F87848A7
:4029400003F036F80123A7F84E3000F065BE002001F0A4FD3C20FF2102F058F80223A7F84E30BB6CC3F10302714B53F822307B64714B8C221A7000F04FBE5A2002F096F82D
:40298000002002F065F84FF4FA7005F0F9FA4FF4AF60FF2102F00EF84FF4FA7005F0F0FAB42002F083F8002002F052F84FF4FA7005F0E6FA03F024FA0346FB630323A7F881
:4029C0004E3000F029BE56485C497A6CBB6C07F04DFB0120002102F0B5FF514802F0E8FFFC6B03F00DFA0346E21A554B9A420BD9B42002F05BF84FF47A60FF2101F0DAFF73
:402A000003F0FEF90346FB634FF4967005F0B8FA01F0F2F9786C1E210A2201F017F838633B6B002B40F091804FF47A70FF2101F095FF02F0C3F90346002B00F085804FF411
:402A40009670FF2101F08AFF01F0CAFE642005F097FA314B1B881BB2FB6001F04BFD5A2002F024F8002001F0F3FF002001F016FD4FF4967005F084FA01F0BEF901F0B6FCBD
:402A8000B86027482F49BA6807F0F0FA0020002102F058FF224802F08BFF40F6B83005F06FFABA687B6C9A421BD04FF4FA70FF2101F054FF01F09EFE4FF4FA70FF2101F0FC
:402AC00079FF002001F0EAFC642005F059FAFB689BB21BB2184601F0E9FF002001F0B8FF32E003F08DF90346FB6301F003FDB42001F0DCFF002001F0ABFF40F2DC50FF2123
:402B000001F058FFBB6C0133BB640523A7F84E3000F082BDB06E0020B26E00202A5800201482FF1F68A8000078A8000088A800000482FF1F9CA800002181FF1FA8A8000033
:402B400030570500B8A80000BDE03B6B002B04DA6FF0050001F07CFFB5E03B6B002B03DD062001F075FFAEE03B6BB3F1FF3F40F0AA80BB6B012B00F09E80022B50D0002B34
:402B800001D000F049BD01237B6338E07B6B9BB21A465203D21A9200D31A5B009BB2B4339BB29BB21BB2184601F080FF002001F04FFF7B6B6FF0090202FB03F3B433AD489F
:402BC000AD491A4607F052FA0020002102F0BAFEA84802F0EDFE4FF4FA7005F0D1F901F00BF9786C1E210A2200F030FF38633B6BB3F1FF3F00D005E07B6B01337B637B6BFF
:402C0000072BC3DD3B6BB3F1FF3F00D05BE0B42001F04CFF002001F01BFF0223BB6352E001237B6336E07B6B9BB21A46920013445B009BB2B4339BB29BB21BB2184601F0A6
:402C400035FF002001F004FF7B6B6FF0090202FB03F3B433874889491A4607F007FA0020002102F06FFE834802F0A2FE4FF4FA7005F086F901F0C0F8786C1E210A2200F0E3
:402C8000E5FE38633B6BB3F1FF3F00D005E07B6B01337B637B6B052BC5DD3B6BB3F1FF3F00D010E0B42001F001FF002001F0D0FE0123BB6307E04FF47A70FF2101F04EFE0A
:402CC0000023BB6300BF00F0A7BC5A2001F0EEFE002001F0BDFE002001F0E8FE002001F0B7FE0423A7F84E3000F096BC02F0F6F84FF4967005F044F902F0E4F80346FB802E
:402D0000012002F08FFEFC8801F098FF034659485B49224607F0AAF90020002102F012FE544802F045FE01F089FF03461A463B699A4204DA0923A7F84E3000F06DBC082336
:402D4000A7F84E30002001F0B1FE002001F080FE00F062BC474A4B4B14461D460FCD0FC42B6823600020002102F0ECFD414802F01FFE02F0B3F802F0A5F80346FB80FB8809
:402D80003C4841491A4607F071F90120002102F0D9FD384802F00CFEFB88092B05D84FF4FA70FF2101F0DAFD8EE0FB88392019463C22FFF7DBFC0346002B1AD02D4B334A6E
:402DC00092E8030018600433198002330A0C1A700120052102F0B6FD264802F0E9FD002001F064FE4FF4FA70FF2101F0B7FD00F013BCFB885F2019466922FFF7B7FC034685
:402E0000002B16D01B4B224A92E803001860043319700120052102F095FD164802F0C8FD002001F043FE4FF4FA70FF2101F096FDF2E3FB88192019462322FFF797FC034670
:402E4000002B29D00B4B134A92E803001860043319800120052102F075FD064802F0A8FD002001F023FE4FF4FA70FF2101F076FDD2E300BF1482FF1FC4A80000D0A80000B7
:402E8000E0A80000F4A8000008A9000010A9000018A9000020A90000BC4ABD4B14460FCB07C4238002341B0C23700020002102F049FDB64802F07CFD002001F0F7FD4FF430
:402EC000FA70FF2101F04AFD4FF4FA7005F058F801F0B4FE03461A463B699A4207DC0923A7F84E3002F08CFF03463B6494E393E33C6C02F085FF0346E21AA64B9A4208D9C3
:402F00004FF47A60FF2101F055FD02F079FF03463B649E4AA04B14461D460FCD0FC42B681A46228002341B0C23700020002102F009FD964802F03CFD5A2001F0B7FD00207A
:402F400001F086FD4FF4967005F01AF801F0D2FF01F0B8FF0346FB80FB888C488F491A4607F084F80120002102F0ECFC874802F01FFD02F045FF0346844889491A4607F0F0
:402F800075F80120052102F0DDFC804802F010FDFB88602019466922FFF7E8FB0346002B24D00123BB620023FB6214E04FF4967004F0E6FF01F086FF03466020194669229D
:402FC000FFF7D4FB0346002B02D10023BB6205E0FB6A0133FB62FB6A022BE7DDBB6A002B03D00A23A7F84E3016E315E3FB88192019462322FFF7BAFB0346002B04D04FF460
:403000007A70FF2101F0AAFC4FF4C870FF2101F0A5FC01E35D4A634B14461D460FCD0FC42B6823700020002102F08CFC574802F0BFFC4FF4967004F0A3FF01F05BFF01F0D5
:4030400041FF0346FB80FB88504857491A4607F00DF80120002102F075FC4C4802F0A8FCFB88392019464122FFF780FB0346002B0ED040F2DC50FF2101F070FC002001F019
:4030800015FD002001F0E4FC0B23A7F84E30C3E24FF4C870FF2101F061FCBDE23B4A434B14461D460FCD0FC42B6823800020002102F048FC354802F07BFC4FF4FA7004F0E2
:4030C0005FFF01F017FF01F0FDFE0346FB80FB882E4835491A4606F0C9FF0120002102F031FC2A4802F064FCFB88392019464122FFF73CFB0346002B09D0002001F0D6FC06
:40310000002001F0A5FC0B23A7F84E3084E2FB881B2019462122FFF729FB0346002B03D00D23A7F84E3077E2FA20FF2101F042FC72E2164A1E4B14461D460FCD0FC42B6840
:4031400023700020002102F0FDFB104802F030FC0020012101F0B2F9C82004F011FF002001F09CF9C82004F00BFF01F043FB4FF49670FF2101F0F2FB01F032FBC82004F055
:40318000FFFE042001F08AF91DE000BF1482FF1F28A90000400D030038A900004CA9000054A900005CA9000070A9000078A900008CA900004FF4FA70FF2101F0CFFB4FF4D7
:4031C000967004F0DDFE01F039FD0346182BF1D801F034FD03467B6200233B6232E001F02DFD03467B62B448B4497A6A06F03EFF0120002102F0A6FBAF4802F0D9FB7B6A9C
:403200000F2B0BDDFA20C82101F0A8FB002001F01FFC4FF4967004F0B3FE13E07B6A0D2B0BDCC820C82101F0C5FB002001F010FC4FF4967004F0A4FE04E07B6A0E2B01D172
:4032400001233B620E20796A0F22FFF78FFA0346002B02D13B6A002BC1D0994BB4221A704FF4877001F022FC002001F0F1FB0C23A7F84E30D0E1934B02221A70BB6C012BBE
:403280002FD100237B630BE04FF4FA70C82101F065FB4FF4167004F073FE7B6B01337B637B6B022BF0DD4FF4967004F069FE4FF4877001F0FBFB002001F0CAFB0020012158
:4032C00001F0FCF84FF4967004F05AFE01F092FAC82004F055FE4FF4FA60FF2101F06AFB54E1BB6C0133184601F0D8F84FF4FA70C82101F033FB0023FB6147E06E4B724A16
:4033000007CA03C31A800020002102F01BFB6A4802F04EFB01F052FD03461C4601F002FE034665486949224606F0A0FE0120002102F008FB604802F03BFB01F03FFD034629
:40334000002B02D00123FB6120E001F0EBFD0346092B06D8C820FF2101F02CFB0123FB6114E001F0DFFD0346112B08D94FF49670FF2101F0F3FA002001F06AFB06E0C8204A
:40338000FF2101F0EBFA002001F062FBFB69002BB4D001F0C7FD0346BB6100237B61BB6C032B7CD0042B00F0C880022B35D0D1E001F0B8FD0346BB613F484049BA6906F05E
:4033C00055FE0120002102F0BDFA3B4802F0F0FABB690F2B0CDD4FF496708C2101F0BEFA002001F035FB4FF4967004F0C9FD15E0BB690D2B0BDC8C208C2101F0DBFA00208F
:4034000001F026FB4FF4967004F0BAFD06E0BB690E2B03D101237B6100E000BF0E20B9690F22FFF7A3F90346002B02D17B69002BBED08FE001F076FD0346BB611E481F49D3
:40344000BA6906F013FE0120002102F07BFA1A4802F0AEFABB69102B0CDD4FF496708C2101F07CFA002001F0F3FA4FF4967004F087FD15E0BB690E2B0BDC8C208C2101F096
:4034800099FA002001F0E4FA4FF4967004F078FD06E0BB690F2B03D101237B6100E000BF0F20B9691022FFF761F90346002B02D17B69002BBED04DE01482FF1FA0A9000040
:4034C0002181FF1F2081FF1FACA90000B8A9000001F028FD0346BB6150485149BA6906F0C5FD0120002102F02DFA4C4802F060FABB69112B0CDD4FF496708C2101F02EFA7C
:40350000002001F0A5FA4FF4967004F039FD15E0BB690F2B0BDC8C208C2101F04BFA002001F096FA4FF4967004F02AFD06E0BB69102B03D101237B6100E000BF1020B96990
:403540001A22FFF713F90346002B02D17B69002BBED000BFBB6C013B1846B96C00F0AEFF4FF4487004F00CFD01F044F9C82004F007FD4FF4AF60FF2101F01CFA00F0BAFFBF
:40358000002000F08BFFC82004F0FAFC254B03221A70002001F08AFA002001F059FA40F2DC50FF2101F006FABB6C042B03D10E23A7F84E3030E00123A7F84E302CE0174BE1
:4035C000194A07CA03C31A700020002102F0BAF9124802F0EDF9002001F068FA002001F037FA062000F05AFF4FF4FA70FF2101F0B5F901F009F90FE0084B0C4A07CA03C37D
:403600001A800233120C1A700020002102F09AF9024802F0CDF900BFFFF7FAB81482FF1FA0A900002081FF1FC4A90000D0A9000090B5DFB000AF0023C7F86C31AD4800212A
:403640004FF47F6206F093FB3B4618464FF0FF314FF4B07206F08BFB0123C7F87031BEE10123C7F87431B0E1D7F87431DAB2D7F87031DBB21046194600F010FC0346002B15
:4036800007D13B46D7F874214FF0FF3143F822103CE1D7F87431DAB2D7F87031DBB21046194600F0FBFB03461C46D7F87431DBB2013BDAB2D7F87031DBB21046194600F0A6
:4036C000EDFB03469C4240F0EE80D7F87431DAB2D7F87031DBB21046194600F0DFFB03461C46D7F87431DAB2D7F87031DBB2013BDBB21046194600F0D1FB03469C4240F068
:40370000C6803B46D7F8742153F82220D7F87431591E3B4653F821309A4200F0B880D7F874315A1E3B4653F82230C7F864313B46D7F8742153F82230C7F86031D7F8743121
:403740005A1E3B4653F82230D7F87421511E3A4652F82120674912010A4491883A46D7F8740152F8202063481201024492880A4492B260491B010B449A80D7F874315A1E93
:403780003B4653F82230D7F87421511E3A4652F82120584912010A44083211683A46D7F8740152F82020534812010244083212680A4450491B010B4408331A60D7F87431E7
:4037C0005A1E3B4653F82230D7F87421511E3A4652F82120474912010A44083251683A46D7F8740152F82020424812010244083252680A443F491B010B4408335A603B4695
:40380000D7F8742153F822303A4A1B01134400221A603B46D7F8742153F82230354A1B01134400229A803B46D7F8742153F82230304A1B011344083300221A603B46D7F8AE
:40384000742153F822302B4A1B011344083300225A60D7F87431C7F8683114E03B46D7F8682153F82220D7F860319A4206D13B46D7F86821D7F8641143F82210D7F86831EC
:403880000133C7F86831D7F86831572BE6DDD7F874315A1E3B4653F822103B46D7F8742143F8221032E0D7F87431DAB2D7F87031DBB21046194600F0F1FA03461C46D7F87A
:4038C0007431DAB2D7F87031DBB2013BDBB21046194600F0E3FA03469C420DD13B46D7F8742153F822103B46D7F8742143F822100CE000BF30480020D7F86C315A1CC7F8B2
:403900006C213A46D7F8741142F821303B46D7F8742153F82230B3F1FF3F51D03B46D7F8742153F82240D7F87431DAB2D7F87031DBB21046194600F0B1FA03461A462F4916
:4039400023010B441A603B46D7F8742153F822302A491A010A449288013292B227491B010B449A803B46D7F8742153F822303A46D7F8741152F82120204912010A44083291
:403980001168D7F874210A441C491B010B4408331A603B46D7F8702153F822303A46D7F8701152F82120154912010A4408325168D7F870210A4411491B010B4408335A6064
:4039C000D7F874310133C7F87431D7F87431572B7FF74AAED7F870310133C7F87031D7F870318F2B7FF73CAE0448FF211022044B06F0FFF907F5BE77BD4690BD30480020D5
:403A0000053A000090B48AB000AF786039607B6807F118040FCB84E80F003B6807F108040FCB84E80F00BA8BBB899A4202D94FF0FF3306E0BA89BB8B9A4201D9012300E087
:403A4000002318462837BD4690BC704780B489B000AFF860B9607A600023FB6159E0324AFB691B0113449B881A46BB689A4202DA4FF0FF3352E02C4AFB691B0113441A681E
:403A8000FB689A4242D1284AFB691B01134408331A682549FB691B010B449B88B2FBF3F3BB61214AFB691B01134408335A681E49FB691B010B449B88B2FBF3F37B611B4B32
:403AC0007A69582101FB02F1BA690A44FF2103F82210164A7B69582101FB03F1BB690B449B001344FF229A70BB69A3F12C027B685B429A4207DBBB69A3F12C027B689A42B7
:403B000001DC00230AE0BB692C3B07E0FB690133FB61FB69FE2BA2DD4FF0FF3318462437BD465DF8047B7047304800203082FF1F80B491B000AF0023FB6344E0764AFB6B1A
:403B40001B01134408331A687349FB6B1B010B449B88B2FBF3F3BB636F4AFB6B1B01134408335A686C49FB6B1B010B449B88B2FBF3F37B63694B7A6B582101FB02F1BA6BE5
:403B80000A44FF2103F82210644A7B6B582101FB03F1BB6B0B449B001344FF229A70FB6B9B0007F140021344BA6B43F81C2CFB6B9B0007F1400213444FF47A7243F82C2C4D
:403BC000FB6B0133FB63FB6B032BB7DD0023FB6316E0FB6B9B0007F14002134453F81C2C7B699A4209DAFB6B7B60FB6B9B0007F14002134453F81C3C7B61FB6B0133FB631C
:403C0000FB6B032BE5DD0023FB6320E0FB6B9B0007F14002134453F81C2C7B699A4213DDFB6B9B0007F14002134453F81C2CBB699A4209DAFB6BBB60FB6B9B0007F1400214
:403C4000134453F81C3CBB61FB6B0133FB63FB6B032BDBDD0023FB6320E0FB6B9B0007F14002134453F81C2CBB699A4213DDFB6B9B0007F14002134453F81C2CFB699A42EF
:403C800009DAFB6BFB60FB6B9B0007F14002134453F81C3CFB61FB6B0133FB63FB6B032BDBDD0023FB6316E0FB6B9B0007F14002134453F81C2CFB699A4209DDFB6B3B61C7
:403CC000FB6B9B0007F14002134453F81C3CFB61FB6B0133FB63FB6B032BE5DD0023FB6311E0FB6B9B0007F14002134453F83C3C094A1B0113441968094BFA6B43F82210B1
:403D0000FB6B0133FB63FB6B032BEADD4437BD465DF8047B704700BF304800203082FF1F0482FF1F80B500AF01F0F0FC012001F079FE0020002101F005FE274801F038FE47
:403D40001E20102101F0B6FC1320E72101F0B2FC01F0CCFC0020002101F0F4FD1F4801F027FE01F08DFD0020002101F0EBFD1C4801F01EFE01F0BAFC1320E02101F09AFC96
:403D8000184B1B780020194601F094FC164B1B780120194601F08EFC144B1B780220194601F088FC124B1B781020194601F082FC3F202F2101F07EFC3E20032101F07AFC45
:403DC0008C20A02101F076FC0020002101F0BAFD084801F0EDFD80BD00AA000010AA000020AA00001281FF1F1381FF1F1481FF1F1581FF1F30AA000080B500AF01F076FC89
:403E000001F03EFD01F072FC00F0BCF801200849142200F059FA02200549142200F054FA03200349142200F04FFAFFF701FC80BDCDCC4C3E80B582B000AF78607B68012B56
:403E400018D1124B1B780020194601F033FC104B1B780120194601F02DFC0E4B1B780220194601F027FC0C4B1B781020194601F021FC08E000203C2101F01CFC102050212B
:403E800001F018FC00BF0837BD4680BD1281FF1F1381FF1F1481FF1F1581FF1F80B483B000AF02460B46FA71BB71B979FA792E4B582000FB01F10A4413F822202B4B1B7888
:403EC0009A420FD2B979FB79274A582000FB01F10B449B0013449A78254B1B789A4201D301233AE0B979FA791F4B582000FB01F10A4413F822201F4B1B789A420FD2B9794A
:403F0000FB79194A582000FB01F10B449B0013449A78194B1B789A4201D202231DE0B979FA79114B582000FB01F10A4413F82220124B1B789A420FD3B979FB790A4A582009
:403F400000FB01F10B449B0013449A780C4B1B789A4201D2032300E0002318460C37BD465DF8047B704700BF3082FF1F0C81FF1F0D81FF1F0E81FF1F0F81FF1F1081FF1F20
:403F80001181FF1F80B588B000AF0023FB6192E10023BB6188E1FB69002B08D0FB698F2B05D0BB69002B02D0BB69572B2BD19E4BFA69582101FB02F1BA690A447F2103F8BE
:403FC0002210994AFB69582101FB03F1BB690B449B0013447F229A70934AFB69582101FB03F1BB690B449B00134400225A708E4AFB69582101FB03F1BB690B449B001344CA
:404000000022DA704DE1BB69DBB2013BDAB2FB69DBB2013BDBB210461946FFF73FFF03463B72BB69DBB2013BDAB2FB69DBB210461946FFF733FF03467B72BB69DBB2013B6A
:40404000DAB2FB69DBB20133DBB210461946FFF725FF0346BB72BB69DAB2FB69DBB2013BDBB210461946FFF719FF0346FB72BB69DAB2FB69DBB20133DBB210461946FFF7CD
:404080000DFF03463B73BB69DBB20133DAB2FB69DBB2013BDBB210461946FFF7FFFE03467B73BB69DBB20133DAB2FB69DBB210461946FFF7F3FE0346BB73BB69DBB2013399
:4040C000DAB2FB69DBB20133DBB210461946FFF7E5FE0346FB7300237B613AE03A7907F108017B690B441B78002B14BF00230123DBB21344DBB23B717A7907F108017B6970
:404100000B441B78012B14BF00230123DBB21344DBB27B71BA7907F108017B690B441B78022B14BF00230123DBB21344DBB2BB71FA7907F108017B690B441B78032B14BFE1
:4041400000230123DBB21344DBB2FB717B6901337B617B69072BC1DD334AFB69582101FB03F1BB690B449B0013447F225A702E4AFB69582101FB03F1BB690B449B001344AF
:404180007F22DA707B79032B17D901233B61264BFA69582101FB02F1BA690A44002103F82210214AFB69582101FB03F1BB690B449B001344FF229A7065E0BB79032B17D9E8
:4041C00002233B61184BFA69582101FB02F1BA690A44002103F82210134AFB69582101FB03F1BB690B449B00134400229A704AE0FB79032B1AD903233B610B4BFA695821A3
:4042000001FB02F1BA690A44FF2103F82210064AFB69582101FB03F1BB690B449B00134400229A702FE000BF3082FF1F00233B61244BFA69582101FB02F1BA690A447F217B
:4042400003F822101F4AFB69582101FB03F1BB690B449B0013447F229A701A4AFB69582101FB03F1BB690B449B00134400225A70144AFB69582101FB03F1BB690B449B0010
:4042800013440022DA7000237B6107E03A1D7B69134400221A707B6901337B617B69072BF4DDBB690133BB61BB69572B7FF773AEFB690133FB61FB698F2B7FF769AE203795
:4042C000BD4680BD3082FF1F90B589B000AFF860B9607A6000233B610023FB612FE000237B610023BB6112E0BB69DAB2FB69DBB210461946FFF7D2FD03461A46FB689A42B6
:4043000002D17B6901337B61BB690133BB61BB69572BE9DD786905F0DBFA0446B868314905F02AFB03462046194605F0D7FC0346002B01D0FB693B61FB690133FB61FA69BB
:404340007B689A42CBDD0023FB6143E00023BB613AE0BB69DAB2FB69DBB210461946FFF79DFD03461A46FB689A422AD11E4BFA69582101FB02F1BA690A447F2103F82210A0
:40438000194AFB69582101FB03F1BB690B449B0013447F229A70144AFB69582101FB03F1BB690B449B00134400225A700E4AFB69582101FB03F1BB690B449B001344002295
:4043C000DA70BB690133BB61BB69572BC1DDFB690133FB61FA693B699A42B7DD2437BD4690BD00BF0000B0423082FF1F80B586B000AF3B4600221A60043300221A600433E3
:4044000000221A60043300221A60043300237B6128E000233B611FE03B69DBB22233DAB27B69D9B26FF070035B1ADBB210461946FFF734FD03461A46930007F118010B4444
:4044400053F8183C591C930007F11802134443F8181C3B6901333B613B69092BDCDD7B6901337B617B69092BD3DD3B68322B01DD00230EE07B68502B01DD012309E0FB6861
:40448000502B01DD032304E0BB68502B01DD0223FFE718461837BD4680BD00BF80B582B000AF7860044A7B6813441B78184602F0B1FD0837BD4680BD1881FF1F80B582B0C2
:4044C00000AF786039600A4A7B6813441B781A4607493B680B441B781344DA0F13445B109BB2184602F096FD0837BD4680BD00BF1881FF1F80B500AF064B1B781A46054BA7
:404500005B781344DA0F13445B109BB2184602F081FD80BD1881FF1F80B500AF02F0E4FC0020FFF7BBFF80BD80B500AF024B01221A7001F0C9FE80BD2058002080B500AF85
:40454000024B01221A7001F019FF80BD2158002080B500AF03F024FA064801F067FE064801F0BEFE054B00221A70054B00221A7080BD00BF294500003D4500002158002051
:404580002058002080B500AF024B01221A7002F0C7FD80BDB06E002080B500AF1D4B00221A701D4B00221A801C4B00221A801C4B00221A801B4B00221A801B4B00221A80AE
:4045C00001F048FF1E20002102F05CF9002002F0FFF9702002F0FCF902F0C0F91E20002102F050F9012002F0F3F9202002F0F0F902F0B4F91E20002102F044F9022002F0BC
:40460000E7F9002002F0E4F902F0A8F9074802F039FD80BDB06E0020B46E00202C58002028580020B26E00202A58002085450000B0B582B000AF00233B7000237B700023AF
:40464000BB700023FB7000233B7100237B711E20002102F017F9032002F0BAF902F07EF91E20012102F00EF9012002F001FA03463B70012002F0FCF903467B70012002F067
:40468000F7F90346BB70012002F0F2F90346FB70012002F0EDF903463B71002002F0E8F903467B7102F05AF93B781B029AB27B7813439AB23E4B1A80BB781B029AB2FB78A6
:4046C00013439AB23B4B1A803B791B029AB27B7913439AB2384B1A80374B1B881BB2283B184604F0F3FC04460D46314B1B881BB23033184604F0EAFC02460B462046294600
:4047000004F0ECF802460B461046194626A3D3E9002304F041FD02460B46104619464FF00002264B04F086FB02460B4614461D46234B1B881BB2184604F0C8FC02460B4621
:404740002046294604F074FB02460B461046194604F0BCFF03469AB21A4B1A80194B1B881BB2B3F5B47F09DD164B1B889BB2A3F5B4739BB29AB2134B1A800DE0114B1B884E
:404780001BB2002B08DA0F4B1B889BB203F5B4739BB29AB20B4B1A800B4B00221A700837BD46B0BDAFF30080F8C1631ADCA54C40B46E0020285800202C580020008066406B
:4047C0002A580020B26E0020B06E0020AFF3008080B500AF01F0ACF9322001F04BFA80BD80B500AF1F2001F045FA322003F0C8FB80BD00BF80B500AF322001F03BFA322033
:4048000003F0BEFB80BD00BF80B500AF1B2001F031FA322003F0B4FB80BD00BF80B483B000AF78607B68002B02DA7B685B4200E07B6818460C37BD465DF8047B704700BF9C
:4048400080B485B000AFF860B9607A60BA687B689A4202DD7B68DBB208E0BA68FB689A4202DAFB68DBB201E0BB68DBB218461437BD465DF8047B704790B583B000AF00BFE2
:404880002F4B1B78DBB2002BFAD0FFF7D1FE00233B602C4B1B881AB22B4B1B881BB2D31A7B607868FFF7BAFF0346B42B09DD264B1B881BB2C3F5B472224B1B881BB2D31A2C
:4048C0007B607868FFF7AAFF0246204B1B789A422EDD1F4B01221A707B68002B13DA1D4B1B781C467868FFF799FF03465A001A4B1B78204611461A46FFF7A2FF034618465E
:4049000000F0E4F812E0134B1B781C467868FFF785FF03465A00104B1B78204611461A46FFF78EFF0346184600F0E4F8012303E0032000F029F9002318460C37BD4690BD18
:40494000B06E0020D06E0020B26E00202081FF1FBD6E00202181FF1F2281FF1F80B584B000AF78600B46FB707A6813469B0013445B007B6001F044FAF8600CE0032000F03B
:4049800021F9FB780320194600F0E2F8FFF774FF192003F0F5FA01F033FA0346FA68D21A7B689A42EAD3032000F0EEF81037BD4680BD00BF80B584B000AF78600B46FB707E
:4049C0007A6813469B0013445B007B6001F018FAF8600CE0032000F013F9FB780320194600F0B6F8FFF748FF192003F0C9FA01F007FA0346FA68D21A7B689A42EAD3032007
:404A000000F0C2F81037BD4680BD00BF80B582B000AF02460B46FA807B710CE0032000F0EFF87B790320194600F092F8FFF724FF192003F0A5FA00F001F90346FA889A4226
:404A4000ECD8032000F0A0F80837BD4680BD00BF80B582B000AF0346FB80124B1B889AB2FB8813449BB29AB20E4B1A800D4B1B881BB20D4A83FB02015A181112DA178A1A33
:404A80004FF4B47101FB02F29B1A9AB2054B1A8000BFFFF7F1FE0346002BFAD10837BD4680BD00BFD06E0020B7600BB680B483B000AF0346FB80044BFA881A800C37BD46D1
:404AC0005DF8047B704700BFD06E002080B582B000AF7860022000F075F8012000F090F87B68DBB20320194600F032F80837BD4680BD00BF80B582B000AF7860012000F0BF
:404B000061F8022000F07CF87B68DBB20320194600F01EF80837BD4680BD00BF80B500AF01F08EF9002001F04DFA002001F068FA002001F027FA01F081FA002001F040FB4F
:404B4000002001F057FB002001F01AFB80BD00BF80B582B000AF02460B46FA71BB71FB7903F00203002B03D0BB79184601F008FBFB7903F00103002B03D0BB79184601F08E
:404B800001FA0837BD4680BD80B582B000AF0346FB71FB7903F00103002B05D0002001F011FA002001F02CFAFB7903F00203002B05D0002001F004FB002001F01BFB083710
:404BC000BD4680BD80B582B000AF0346FB71FB7903F00103002B05D0012001F0F3F9002001F00EFAFB7903F00203002B05D0012001F0E6FA002001F0FDFA0837BD4680BD43
:404C000080B582B000AF0346FB71FB7903F00103002B05D0002001F0D5F9012001F0F0F9FB7903F00203002B05D0002001F0C8FA012001F0DFFA0837BD4680BD80B400AFD8
:404C4000034B1B889BB21846BD465DF8047B7047DC6E002080B483B000AF78607B68002B02DA7B685B4200E07B6818460C37BD465DF8047B704700BF80B582B000AF02F08F
:404C8000BBF80346C3F543435033184604F00EFA02460B46104619464FF00002354B04F0A5FB02460B461046194604F037FD03469AB2314B1A80314B1A682F4B1B8899B2B3
:404CC0002F4B23F812102D4B1B68591C2D4B83FB01239A10CB17D21A13469B0013445B00CA1A264B1A6000237B600EE0244B7A6833F812309AB2204B1B889BB213449AB292
:404D00001D4B1A807B6801337B607B68092BEDDD194B1B889AB21C4BA3FB0213DB089AB2154B1A80194B00221A8000237B6018E0114B1B889BB21A46114B796833F811309D
:404D40009BB2D31A1846FFF785FF03469AB20F4B1B889BB213449AB20C4B1A807B6801337B607B68092BE3DD02F0B2F80837BD4680BD00BF00004D40DC6E0020C481FF1FB1
:404D8000E06E002067666666CDCCCCCCC881FF1F80B500AF064B00221A60064B00221A8001F0D2FF01F0BEFE034802F043F880BDC481FF1FDC6E0020794C000080B582B059
:404DC00000AF02F0E5F94FF6FF7002F02FFA03F071F94FF4AF7003F0D3F803F085F902F035FA03461A4649F26F439A428CBF00230123DBB2FB7102F0DBF94FF4967003F057
:404E0000BFF8FB7918460837BD4680BD80B582B000AF03F0EDFA0346C3F57F43FF33234A82FB03025211DB17D31A9AB2204B1A80204B1A681E4B1B8899B21F4B23F8121018
:404E40001C4B1B68591C1D4B83FB0102CB17D21A13465B001344CA1A164B1A60184B00221A8000237B6013E0134B7A6833F812309AB2134B1B889BB29A4206D90E4B7A6805
:404E800033F812309AB20E4B1A807B6801337B607B68022BE8DD0A4B1B889AB2044B1A8003F0F8FB0837BD4680BD00BF1F85EB51F46E0020F86E0020006F00205655555562
:404EC000FC6E002080B400AF034B1B889BB21846BD465DF8047B7047F46E002080B500AF03F0F4FB0346002B02D0002003F0DEFB80BD00BF80B500AF03F0E8FB0346002B77
:404F000002D1FF2003F0D2FB80BD00BF80B500AF03F08CFA03F014FA014803F06DFB80BD0D4E000080B400AF034B1B889BB21846BD465DF8047B7047086F002080B483B01E
:404F400000AF78607B68002B02DA7B685B4200E07B6818460C37BD465DF8047B704700BF80B582B000AF03F09BFC0346C3F543435033184604F09AF802460B4610461946B3
:404F80004FF00002354B04F031FA02460B461046194604F0C3FB03469AB2314B1A80314B1A682F4B1B8899B22F4B23F812102D4B1B68591C2D4B83FB01239A10CB17D21A47
:404FC00013469B0013445B00CA1A264B1A6000237B600EE0244B7A6833F812309AB2204B1B889BB213449AB21D4B1A807B6801337B607B68092BEDDD194B1B889AB21C4BB9
:40500000A3FB0213DB089AB2154B1A80194B00221A8000237B6018E0114B1B889BB21A46114B796833F811309BB2D31A1846FFF785FF03469AB20F4B1B889BB213449AB295
:405040000C4B1A807B6801337B607B68092BE3DD03F096FB0837BD4680BD00BF00004D40086F0020CC81FF1F0C6F002067666666CDCCCCCCD081FF1F80B500AF064B0022FA
:405080001A60064B00221A8003F0B2FB03F046F8034803F027FB80BDCC81FF1F086F0020614F000080B400AFFEE700BF80B584B000AF78600F4B1A687B6813441A460E4B03
:4050C000D31A002B09DC0B4B1B68FB60094B1A687B681A44074B1A6007E004F013FE03460C221A604FF0FF33FB60FB6818461037BD4680BD2481FF1F506F002080B586B09E
:4051000000AF224B7B61224B3B61204B7B6135E03B691B68FB603B695B68BB603B699B683B6000237B600CE0FB681A68BB681A60BB680433BB60FB680433FB607B680433DC
:405140007B607A683B689A42EED13B69DB683B6000237B6008E0BB6800221A60BB680433BB607B6804337B607A683B689A42F2D13B6910333B617B69013B7B617B69002BF1
:40518000C6D104F0C5FDFDF709FBFEE7010000006CBE000080B582B000AF184B184A1A60184B184A126842F400721A6000237B600FE07B68032B04D8134B7A6853F822302D
:4051C00000E0124B124A796842F821307B6801337B607B682F2BECD90E4B1B78DAB20E4B1A700E4B0A4A1A6000F068F902F0B0FC0B4B00221A600837BD4680BD0CED00E0FB
:405200000004FA0514ED00E000270000A55000000080FF1FBC7600400481FF1F08ED00E00081FF1F80B582B000AF78603960786800213A6804F09BFD0837BD4680BD00BF53
:4052400080B584B000AFF860B9607A60F868B9687A6804F083FD1037BD4680BD80B584B000AFF860B9607A60F868B9687A6804F075FD1037BD4680BD80B483B000AF03465B
:40528000FB71FEE780B487B000AF7860396000233B6100237B6126E07B699B007A6813441B68BB60BB68FB73BB6823F0FF03BB6013E03B695B003A6813441B781A46BB6813
:4052C00013443A69520039680A4452781A703B6901333B61FB7B013BFB73FB7B002BE8D17B6901337B617B692A2BD5D91C37BD465DF8047B704700BF80B582B000AF434B12
:4053000000221A80424B19221A70424B01221A80414B19221A70414B09221A80404B18221A70404B41221A803F4B18221A703F4B40F271621A803E4B18221A703D4B4FF40D
:40534000D9621A803C4B18221A703C4B41F6C7121A803B4B18221A703A4B06221A703A4B52221A70394B3A4A1278D2B21A70394B40F621321A80384B41F251221A800023AB
:40538000FB7019237B6014E0FB785B00DAB2334B1B78DBB203F00103DBB21343DBB203F00303FB704FF4F07002F0BEFB7B68013B7B607B68002B02D0FB78032BE4D17B6853
:4053C000002B02D10320FFF757FF254B4FF480721A80234B07221A70224B00221A70224B48221A701E4B00221A70204B00221A701F4B02221A701F4B1E4A1278D2B242F010
:405400007F02D2B21A700837BD4680BD80400040824000408440004086400040884000408A4000408C4000408E4000409040004092400040944000409640004098400040C2
:405440009A4000400043004000420040A14600400F0100492242004020420040254200400440004006400040084000400940004001400040A243004080B483B000AF0B4B73
:405480001B78FB710A4BFA7902F00702D2B21A70084BFA791209D2B21A70074B44221A700C37BD465DF8047B704700BFCF0100496E5800406F5800407658004080B586B0BC
:4054C00000AF72B65A4B61221A70FFF715FF584B01221A700023FB7513E0FA7D13465B0013445B00534A13443B613B691A683B699B889BB210461946FFF794FEFB7D0133B3
:40550000FB75FB7D062BE8D90023FB751CE0FA7D13469B0013445B00474A1344FB60FB681B68BB60FB685B687B60FB681A7A5B7A1B0213437B807B88B86879681A46FFF70C
:405540008DFEFB7D0133FB75FB7D012BDFD93B483B49FFF797FE3B480421FFF763FE3A4B394A1278D2B242F00202D2B21A70374B364A1278D2B242F00202D2B21A70344B6A
:40558000334A1278D2B242F04002D2B21A70314B304A1278D2B242F01002D2B21A702E482E490822FFF75AFE2D482E490822FFF755FE2D482D490A22FFF750FE2C482D497F
:4055C0000A22FFF74BFE2C482C490A22FFF746FE2B482C490A22FFF741FE2B482B490822FFF73CFE2A482B490822FFF737FE2A482A490822FFF732FE294B44221A70294B1F
:405600004B221A70284B84221A70284B274A1278D2B242F00802D2B21A70FFF72DFF24480B490E22FFF70CFE1837BD4680BD00BF0048004090AA0000BCAA0000D0AA000092
:405640007CAB0000007600400350014013500140A0430040C243004002510040A4BC0000C2510040ACBC0000F0510040B4BC000010510040C0BC000020510040CCBC0000B8
:4056800030510040D8BC000042510040E4BC000052510040ECBC000062510040F4BC0000DB0801405B160140DB18014022430040B043004080B582B000AF02460B46FA71F8
:4056C000BB7100BF3020002102F0A2F80346002BF8D1FB79184602F023F9BB79184602F01FF902F0F1F80837BD4680BD80B500AF00BF01F0F9FD0346002BFAD100BF01F036
:40570000F3FD0346002BFAD080BD00BF90B583B000AF042001F0F8FD042001F011FE01F08DFE12208021FFF7C5FF012002F028FC0023FB800FE0FA88394B13F81220FB8857
:4057400037495B000B445B7810461946FFF7B2FFFB880133FB80FA88314B13F81230FF2BE9D10023FB800CE0FB882E4AD25CFB882D49CB5C10461946FFF79CFFFB8801339F
:40578000FB80FB88274AD35CFF2BEDD1274B3B60012001214FF4804241F6FF7301F074FD03461A46224B1A700023FB802BE0FC8802F046FB03461A461E4B1A55FB881D4A98
:4057C000D25CFB884FF4466101FB03F339680B449BB2104646F24E411A4602F097FBFB88002B0DD0FB88013B124AD25CFB881149CB5C10464FF446611A46022302F04EFB06
:40580000FB880133FB80FB880F2BD0D9084B1B781846002102F042FA0C37BD4690BD00BF14BD000080BD0000C0BD00003082FF1FD481FF1FD881FF1F80B500AF0D4B1B78D7
:405840000C4B1B780B4B1B780A4B1B780A4B1B78184602F0F1F9084B1A78084B1B781046194602F087FA044B1B781846012102F09DF980BD4E640040D481FF1FD881FF1F55
:4058800080B500AF054BDB7B18464FF44661FE22022302F003FBFFF7CFFF80BDD881FF1F80B500AF282002F06BFB032000F010F9052002F065FB032000F00AF90F2002F01B
:4058C0005FFB032000F004F9012002F059FB022000F0FEF8052002F053FB062000F0A2F80E2000F09FF82C2000F09CF8082000F099F8012000F096F80C2000F093F8032023
:4059000000F090F8052002F03BFB80BD80B500AF0C2000F087F8024B01221A7080BD00BFE881FF1F80B500AF054B1B78002B04D1FFF7B6FF024B01221A70FFF7E7FF80BDE4
:40594000E981FF1F80B582B000AF02460B46FA71BB71FB79032B27D801A252F823F000BF715900007F5900008D5900009B590000BB79803BDBB2184600F054F815E0BB793E
:40598000403BDBB2184600F04DF80EE0BB796C3BDBB2184600F046F807E0BB792C3BDBB2184600F03FF800E000BF0837BD4680BD80B584B000AF78600123FB737B681B78C0
:4059C000BB730BE0BB7B184600F00EF8FB7B7A6813441B78BB73FB7B0133FB73BB7B002BF0D11037BD4680BD80B584B000AF0346FB71FB791B09FB73FB7B184600F030F814
:405A0000642002F0DFFAFB7903F00F03FB73FB7B184600F025F8962002F0D4FA1037BD4680BD00BF80B584B000AF0346FB71FB791B09FB73FB7B184600F04AF8642002F044
:405A4000C1FAFB7903F00F03FB73FB7B184600F03FF840F6C41002F0B5FA1037BD4680BD80B582B000AF0346FB71184B174A1278D2B242F02002D2B21A70144B134A127812
:405A8000D2B222F04002D2B21A70104B0F4A1278D2B222F00F02D2B21A700C4B0B4A1278D1B2FA790A43D2B242F01002D2B21A70012002F087FA054B044A1278D2B222F06C
:405AC0001002D2B21A700837BD4680BD7264004080B582B000AF0346FB71144B134A1278D2B222F06002D2B21A70104B0F4A1278D2B222F00F02D2B21A700C4B0B4A1278B1
:405B0000D1B2FA790A43D2B242F01002D2B21A70012002F057FA054B044A1278D2B222F01002D2B21A700837BD4680BD7264004080B500AF054B1B78002B04D100F008F8BE
:405B4000024B01221A7000F061F880BDEA81FF1F80B582B000AF284B274A1278D2B242F00202D2B21A70254B1B78DBB223F07003FB71224BFA7942F01002D2B21A70204BB1
:405B80001F4A1278D2B222F03002D2B21A701C4B1B4A1278D2B242F03002D2B21A70184B174A1278D2B222F00F02D2B21A70144B134A1278D2B242F00F02D2B21A7040F280
:405BC0001F3000F047F8122000F054F8002000F061F80C4B0B4A1278D2B242F00202D2B21A70094B084A1278D2B242F00102D2B21A700837BD4680BD0C4F00400E4F0040A4
:405C0000174F0040A34300400D4F004080B400AF0D4B0D4A1278D2B242F00202D2B21A700A4B0A4A1278D2B242F00202D2B21A70074B074A1278D2B242F00102D2B21A7029
:405C4000BD465DF8047B7047A3430040B34300400C4F004080B483B000AF0346FB80044BFA881A800C37BD465DF8047B704700BF104F004080B483B000AF0346FB80044B02
:405C8000FA881A800C37BD465DF8047B704700BF124F004080B483B000AF0346FB71044BFA791A700C37BD465DF8047B704700BF0F4F004080B485B000AF0346FB71094B31
:405CC0001B78DBB203F07F03FB73064BFA79D201D1B2FA7B0A43D2B21A701437BD465DF8047B7047C051004080B582B000AF6FF07F4000F05BF86FF07F4000F073F801F0AC
:405D00001DFF0346FB710A4B094A1278D2B242F01002D2B21A70FB79184601F013FF00F081F8002000F026F80837BD4680BD00BF9C64004080B400AF054B054A1278D2B210
:405D400062F07F02D2B21A70BD465DF8047B70477C64004080B500AF054B1B78002B04D1FFF7C2FF024B01221A70FFF7E3FF80BDEB81FF1F80B483B000AF0346FB71044B63
:405D8000FA791A700C37BD465DF8047B704700BF8C64004080B400AF034B1B78DBB21846BD465DF8047B70476C64004080B582B000AF78600348796802F060F90837BD4632
:405DC00080BD00BF2A64004080B400AF044B1B6823F07F431846BD465DF8047B704700BF4A64004080B582B000AF78600348796802F044F90837BD4680BD00BF0A64004081
:405E000080B400AF054B1B78054B1B6823F07F431846BD465DF8047B704700BF0A6400404A64004080B500AF01E0FFF7CDFFFFF7B1FF034603F00803002BF6D180BD00BF4B
:405E400080B500AF054B1B78002B04D100F008F8024B01221A7000F061F880BDEC81FF1F80B582B000AF284B274A1278D2B242F00202D2B21A70254B1B78DBB223F07003FE
:405E8000FB71224BFA7942F01002D2B21A70204B1F4A1278D2B222F03002D2B21A701C4B1B4A1278D2B242F03002D2B21A70184B174A1278D2B222F00F02D2B21A70144B62
:405EC000134A1278D2B242F00F02D2B21A70FF2000F048F87F2000F055F8002000F062F80C4B0C4A1278D2B242F00402D2B21A70094B094A1278D2B242F00102D2B21A7058
:405F00000837BD4680BD00BF184F00401A4F0040234F0040A3430040194F004080B400AF0D4B0D4A1278D2B242F00402D2B21A700A4B0A4A1278D2B242F00402D2B21A7070
:405F4000074B074A1278D2B242F00102D2B21A70BD465DF8047B7047A3430040B3430040184F004080B483B000AF0346FB71044BFA7992B21A800C37BD465DF8047B704760
:405F80001C4F004080B483B000AF0346FB71044BFA7992B21A800C37BD465DF8047B70471E4F004080B483B000AF0346FB71044BFA791A700C37BD465DF8047B704700BFA6
:405FC0001B4F004080B485B000AF0346FB710B4B1B78DBB223F02003FB73084BFA795201D2B202F02002D1B2FA7B0A43D2B21A701437BD465DF8047B704700BF6051004083
:4060000080B485B000AF0346FB710B4B1B78DBB223F04003FB73084BFA799201D2B202F04002D1B2FA7B0A43D2B21A701437BD465DF8047B704700BF6051004080B500AF88
:40604000054B1B78002B04D100F008F8024B01221A7000F061F880BDED81FF1F80B582B000AF284B274A1278D2B242F00202D2B21A70254B1B78DBB223F07003FB71224B06
:40608000FA7942F01002D2B21A70204B1F4A1278D2B222F03002D2B21A701C4B1B4A1278D2B242F03002D2B21A70184B174A1278D2B222F00F02D2B21A70144B134A127852
:4060C000D2B242F00F02D2B21A70FF2000F048F87F2000F055F8002000F062F80C4B0C4A1278D2B242F00802D2B21A70094B094A1278D2B242F00102D2B21A700837BD46F7
:4061000080BD00BF244F0040264F00402F4F0040A3430040254F004080B400AF0D4B0D4A1278D2B242F00802D2B21A700A4B0A4A1278D2B242F00802D2B21A70074B074AD5
:406140001278D2B242F00102D2B21A70BD465DF8047B7047A3430040B3430040244F004080B483B000AF0346FB71044BFA7992B21A800C37BD465DF8047B7047284F00403E
:4061800080B483B000AF0346FB71044BFA7992B21A800C37BD465DF8047B70472A4F004080B483B000AF0346FB71044BFA791A700C37BD465DF8047B704700BF274F00408D
:4061C00080B485B000AF0346FB71094B1B78DBB203F07F03FB73064BFA79D201D1B2FA7B0A43D2B21A701437BD465DF8047B70476051004080B485B000AF0346FB710A4BA5
:406200001B78DBB223F00103FB73074BFA7902F00102D1B2FA7B0A43D2B21A701437BD465DF8047B704700BF5051004080B582B000AF786000F03CF8786800F009F8072029
:4062400000F018F800F028F80837BD4680BD00BF80B485B000AF7860054B1B68FB60FB6860337A681A601437BD465DF8047B704708ED00E080B483B000AF0346FB71054B97
:40628000FA795201D2B21A700C37BD465DF8047B704700BF08E400E080B400AF034B4FF480721A60BD465DF8047B704700E100E080B400AF034B4FF480721A60BD465DF847
:4062C000047B704780E100E080B400AF034B4FF480721A60BD465DF8047B704780E200E080B582B000AF786000F03CF8786800F009F8072000F018F800F028F80837BD461B
:4063000080BD00BF80B485B000AF7860054B1B68FB60FB6864337A681A601437BD465DF8047B704708ED00E080B483B000AF0346FB71054BFA795201D2B21A700C37BD460A
:406340005DF8047B704700BF09E400E080B400AF034B4FF400721A60BD465DF8047B704700E100E080B400AF034B4FF400721A60BD465DF8047B704780E100E080B400AF45
:40638000034B4FF400721A60BD465DF8047B704780E200E080B582B000AF1B4B00221A701A4B01221A7001F0C9FB0346FB71184B174A1278D2B242F01002D2B21A70FB7954
:4063C000184601F0BFFB134B0F221A70124B08221A70124B10221A600420072101F02CFE04200F4901F000FE0E4B10221A700E4B00221A700D4B00221A700D4B00221A706D
:406400000837BD4680BD00BF7D6400408D6400409D640040216400403164004080E100E081640000206F0020266F00202E6F0020246F002080B400AF054B054A1278D2B267
:4064400042F00202D2B21A70BD465DF8047B70477D64004080B500AF074B1B78002B04D1FFF798FF044B01221A70FFF7E3FF034B10221A6080BD00BFEE81FF1F00E100E0BB
:4064800080B582B000AFA64B1B78FB71A54B1B78DBB203F04003DBB2002B00F0CD81FB7903F00103002B00F0A5819E4B1B78DBB2453B052B00F29A8101A252F823F000BF69
:4064C000D96400001F660000ED670000ED670000D964000055670000FB7923F02003FB71FB7903F00A03DBB2082B54D18D4B1B78DBB2452B42D18C4B1B78DBB2002B15D048
:406500008A4B8B4A12681278D2B21A70894B06221A70894BFF221A70884B00221A70884B01221A707F4B46221A7077E0854B1B78DBB203F00203002B0ED0834B1B78DBB2A9
:4065400043F00A03DAB2804B1A70764B60221A707E4B10221A6061E07D4B7D4A1278D2B242F02002D2B21A70724B52221A70724BFF221A70714B00221A704FE06D4B0222E2
:406580001A706D4BFF221A706C4B00221A70654B4A221A702EE1FB7903F00A03DBB20A2B38D1694B1B78DBB263F05F03DAB2664B1A70644B1B78DBB203F00203002B17D06E
:4065C000584B1B78DBB203F00803002B01D0092300E00A235C4A1278D2B21343DAB25A4B1A70504B60221A70584B10221A6015E0574B574A1278D2B242F02002D2B21A7042
:406600004C4B52221A704C4BFF221A704B4B00221A70EFE0002001F0A7FCEBE0EAE0FB7903F00203002B4AD1454B1B78DAB23E4B1B78DBB29A421AD23C4B3D4A1168404A46
:406640001278D2B20A441278D2B21A70394B06221A70394BFF221A70384B00221A70384B1B78DBB20133DAB2354B1A7057E0354B1B78DBB203F00203002B0ED0324B1B783D
:40668000DBB243F00A03DAB22F4B1A70254B60221A702E4B10221A6041E02D4B2C4A1278D2B242F02002D2B21A70224B52221A70214BFF221A70214B00221A709AE0214BDD
:4066C0001B78DBB203F00203002B0ED01E4B1B78DBB263F06503DAB21B4B1A70114B60221A701A4B10221A6019E0194B184A1278D2B242F02002D2B21A700E4B52221A70BA
:406700000D4BFF221A700D4B00221A700E4B1B78DBB263F06F03DAB20B4B1A706AE069E06D640040206F0020256F002000640040306F00207D640040106400405064004075
:40674000246F00202C6F0020266F002080E100E08D6400403F4B1A683F4B1B78DBB213443E4A1278D2B21A703B4B1B78DBB20133DAB2394B1A70384B1B78DAB2384B1B782B
:40678000DBB29A4209D2374B02221A70364BFF221A70364B00221A7027E0354B1B78DBB203F00203002B0ED0324B1B78DBB243F00903DAB22F4B1A702F4B60221A702F4BF8
:4067C00010221A6011E02E4B2D4A1278D2B242F02002D2B21A70234B12221A70224BFF221A70224B00221A7004E003E0002001F0BBFB00BFFB7903F02003002B27D01E4BDD
:406800001B78DBB203F00803002B01D0012300E00223184A1278D2B21343DAB2154B1A70174B174A1278D2B222F02002D2B21A70114B10221A700AE00F4B1B78DBB203F057
:406840001003DBB2002B02D10B4B10221A700837BD4680BD286F00202E6F0020006400402D6F00207D64004010640040506400402C6F0020266F0020206F002080E100E0EC
:406880008D64004080B485B000AF02460B46FA71BB710223FB732A4B1B78DBB2102B47D1284B1B78DBB203F01003002B3ED1264B10221A60FB795B00FB71BB79002B07D083
:4068C000FB7943F00103FB711D4B49221A7002E01B4B45221A701D4BFA791A701C4B82221A701C4BFF221A701B4B00221A7000BF184B1B78DBB2002BFAD100BF114B1B78E7
:40690000DBB203F00103002BF8D00E4B1B78DBB203F00A03DBB20A2B05D1094B10221A700323FB7304E00023FB7301E00123FB73FB7B18461437BD465DF8047B704700BFD7
:40694000206F00206D64004080E100E0006400407D640040106400405064004080B483B000AF0223FB71154B1B78DBB203F00403002B1BD0124B52221A70124BFF221A700F
:40698000114B00221A7000BF0E4B1B78DBB2002BFAD10E4B10221A7000BF084B1B78DBB203F02103002BF8D00023FB71FB7918460C37BD465DF8047B704700BF6D6400404E
:4069C0007D6400401064004050640040206F002080B485B000AF0346FB710223FB731E4B1B78DBB203F00403002B2ED01B4BFA791A701B4B06221A701A4BFF221A701A4B23
:406A000000221A7000BF174B1B78DBB2002BFAD1164B46221A7000BF0F4B1B78DBB203F00103002BF8D00C4B1B78DBB203F00203002B05D10D4B60221A700023FB7304E0B4
:406A40000A4B60221A700323FB73FB7B18461437BD465DF8047B70476D640040006400407D6400401064004050640040206F002080B485B000AF0346FB710023FB73234B7B
:406A80001B78DBB203F00403002B38D0204B1B78DBB2492B12D11F4B02221A701E4BFF221A701E4B00221A7000BF1B4B1B78DBB2002BFAD1164B4A221A70FFE700BF134BD1
:406AC0001B78DBB203F00103002BF8D0144B1B78FB73FB79002B0FD00E4B02221A700E4BFF221A700D4B00221A7000BF0A4B1B78DBB2002BFAD102E0054B60221A70FB7BC1
:406B000018461437BD465DF8047B70476D640040206F00207D64004010640040506400400064004080B500AF054B1B78002B04D100F008F8024B01221A7000F053F880BDC8
:406B4000EF81FF1F80B582B000AF224B1B78DBB223F03F03FB711F4BFA7942F00C02D2B21A701D4B1C4A1278D2B242F00102D2B21A701A4B194A1278D2B242F00102D2B24A
:406B80001A704CF24F3000F03DF84CF24F3000F057F84AF6B37000F063F842F2107000F06FF8002000F07CF800F0C8FF0346BB710B4B0B4A1278D2B242F01002D2B21A70F9
:406BC000BB79184600F0BEFF00F02CF80837BD4680BD00BF786500409A6500409B6500409865004080B400AF054B054A1278D2B262F07F02D2B21A70BD465DF8047B70472C
:406C00007865004080B483B000AF0346FB80044BFA881A800C37BD465DF8047B704700BF146A004080B500AF01E000F055F800F047F8034603F01003002BF6D180BD00BF36
:406C400080B483B000AF0346FB80044BFA881A800C37BD465DF8047B704700BF946A004080B483B000AF0346FB80044BFA881A800C37BD465DF8047B704700BF546A00402E
:406C800080B483B000AF0346FB80044BFA881A800C37BD465DF8047B704700BF746A004080B483B000AF0346FB71044BFA791A700C37BD465DF8047B704700BF886500400D
:406CC00080B400AF034B1B78DBB21846BD465DF8047B70476865004080B400AF034B1B889BB21846BD465DF8047B7047B46A004080B582B000AF4CF24F3000F051F84CF295
:406D00004F3000F069F800F019FF0346FB710A4B094A1278D2B242F01002D2B21A70FB79184600F00FFF00F077F8002000F01CF80837BD4680BD00BF9965004080B400AF0C
:406D4000BD465DF8047B704780B500AF054B1B78002B04D1FFF7CCFF024B01221A70FFF7EDFF80BDF081FF1F80B483B000AF0346FB71044BFA791A700C37BD465DF8047B24
:406D8000704700BF8965004080B400AF034B1B78DBB21846BD465DF8047B70476965004080B483B000AF0346FB80044BFA881A800C37BD465DF8047B704700BF506A004015
:406DC00080B400AF034B1B889BB21846BD465DF8047B7047906A004080B483B000AF0346FB80044BFA881A800C37BD465DF8047B704700BF106A004080B400AF044B1B78F8
:406E0000044B1B889BB21846BD465DF8047B704708650040906A004080B500AF01E0FFF7CFFFFFF7B1FF034603F00803002BF6D180BD00BF80B582B000AF786000F03CF8CA
:406E4000786800F009F8072000F018F800F028F80837BD4680BD00BF80B485B000AF7860054B1B68FB60FB6844337A681A601437BD465DF8047B704708ED00E080B483B063
:406E800000AF0346FB71054BFA795201D2B21A700C37BD465DF8047B704700BF01E400E080B400AF034B02221A60BD465DF8047B704700BF00E100E080B400AF034B0222C3
:406EC0001A60BD465DF8047B704700BF80E100E080B400AF034B02221A60BD465DF8047B704700BF80E200E080B500AF054B1B78002B04D100F008F8024B01221A7000F08B
:406F00004BF880BDF181FF1F80B582B000AF1F4B1B78DBB223F03F03FB711C4BFA7942F00902D2B21A701A4B194A1278D2B242F00102D2B21A70174B164A1278D2B242F0A0
:406F40000102D2B21A7040F21F3000F035F840F21F3000F04FF8322000F05CF8002000F069F800F0EBFD0346BB71094B084A1278D2B242F01002D2B21A70BB79184600F0CE
:406F8000E1FD00F029F80837BD4680BD71640040926400409364004080B400AF054B054A1278D2B262F07F02D2B21A70BD465DF8047B70477164004080B483B000AF03466E
:406FC000FB80044BFA881A800C37BD465DF8047B704700BF0468004080B500AF01E000F045F800F037F8034603F01003002BF6D180BD00BF80B483B000AF0346FB80044BF8
:40700000FA881A800C37BD465DF8047B704700BF8468004080B483B000AF0346FB80044BFA881A800C37BD465DF8047B704700BF4468004080B483B000AF0346FB71044B9D
:40704000FA791A700C37BD465DF8047B704700BF8264004080B400AF034B1B78DBB21846BD465DF8047B70476264004080B400AF034B1B889BB21846BD465DF8047B70470D
:40708000A468004080B582B000AF786000F03CF8786800F009F8072000F018F800F028F80837BD4680BD00BF80B485B000AF7860054B1B68FB60FB6840337A681A60143791
:4070C000BD465DF8047B704708ED00E080B483B000AF0346FB71054BFA795201D2B21A700C37BD465DF8047B704700BF00E400E080B400AF034B01221A60BD465DF8047B45
:40710000704700BF00E100E080B400AF034B01221A60BD465DF8047B704700BF80E100E080B400AF034B01221A60BD465DF8047B704700BF80E200E080B582B000AF4FF604
:40714000FF7000F057F84FF6FF7000F06FF800F0F5FC0346FB710A4B094A1278D2B242F01002D2B21A70FB79184600F0EBFC00F07DF8002000F022F80837BD4680BD00BF42
:407180009464004080B400AFBD465DF8047B704780B500AF054B1B78002B04D1FFF7CCFF024B01221A70FFF7EDFF80BDF281FF1F80B400AFBD465DF8047B704780B483B01C
:4071C00000AF0346FB71044BFA791A700C37BD465DF8047B704700BF8464004080B400AF034B1B78DBB21846BD465DF8047B70476464004080B483B000AF0346FB80044BB9
:40720000FA881A800C37BD465DF8047B704700BF4868004080B400AF034B1B889BB21846BD465DF8047B70478868004080B483B000AF0346FB80044BFA881A800C37BD46EA
