:400000000080002011000000E9000000E900000008B5054B1A6803F53F5302331A6000F02BFA00F063F800BFFA46004010B5054C237833B9044B13B10448AFF30080012394
:40004000237010BD2881FF1F000000004022000008B5064B1BB106480649AFF300800648036813B1054B03B1984708BD00000000402200002C81FF1F0881FF1F0000000065
:4000800008B500F01DFD0A2000F018FE00F0C0FC0F4800F0ABFC62B60E4B0F4C1B7813F0010F10D00D4B00251D7000F07BFC0C4800F019FC0120294600F082FC094800F054
:4000C00012FC402300E08023237000F091FBFEE7AD0C000069640040FA4600407B6500404422000055220000FEE7000008B51249124B4A1C1AD053F8106C53F80C0C53F8B6
:40010000085C0022AA4200EB020403D0B45884500432F7E753F8040C0022824203D00025A5500432F9E710330139E2E702F04CF8FFF7A6FFFEE700BF00000000C0260000B0
:4001400008B5114A114B1A609A6842F400729A600023032B98BF0E4A4FEA830094BF52F823100C490C4A0133302B1150F1D10B4B19780B4B19700B4B1A6000F017F80A4B1A
:4001800000221A6008BD00BF0004FA050CED00E000000000E90000000080FF1FBC7600400481FF1F08ED00E00081FF1FF8B572B66A4B61221A70A3F5F0634FF4E1521A80A1
:4001C000192541F61F429D709A8003229D711A81634A182340F65401137051801371614B06221A705222A3F580731A705E4B00241A785E4BD2B21A7040F61802A3F27F4345
:400200001A8041F2512223F8022C594B4FF4F0701B7803F0010343EA440400F061FC013D04F003041BD0032CEFD1524B4FF480721A8007221A70504A0024482114709170C4
:4002400002221C705C7103F8032C93F89E2342F00F0283F89E23012283F8FC2700E0FEE7464B0021234418689A88063401F0DBFF2A2CF5D100231946414C00221859803454
:4002800020F0FF06C0B2450004EB4104AA4208D004EB020CA75C9CF801C0023207F806C0F4E70433802B0144E6D1364B364C1A7842F002021A701A7C42F002021A74334A47
:4002C000137843F040031370314B197841F010011970304B186859681D4603C455F80A0F1989B83424F8B81C696803C429891D4655F8140F21806968283403C429891D4611
:4003000055F81E0F21806968B83C03C429891D4655F8280F21806968083403C429891E48218053F8321FA4F6A854016059681B4B4160197841F008011970194B19491B7847
:40034000DBB203F007001B0908704B70164B442119700FCA07C42380F8BD00BF004800408A400040004300400F010049A146004025420040044000400640004068220000C5
:40038000942200000350014000510040A0430040C24300400C2500006251004022430040CF0100496E58004076580040004710B500232AB1013A4418A45C2344DBB2F8E790
:4003C000184610BD0138092842D8DFE800F0050B11171D232F29353B0902C1F57F3101F570713BE00902C1F57F3101F2C13138E00902C1F57F3101F2C5312AE00902C1F561
:400400007F3101F2C9312CE00902C1F57F3101F5747123E00902C1F57F3101F2D1311DE00902C1F57F3101F2D63112E00902C1F57F3101F2D2310CE00902C1F57F3101F54A
:40044000757106E00902C1F57F3101F5767108E000210B78487843EA002070470878C0B270470B784A788878000440EA02201843CB7840EA0360704710B50B4B1A7802F053
:40048000C002802A0ED100241C7002202146FFF799FF38B121460220FFF794FFBDE81040FFF784BF10BD00BFFA460040F8B5044621460320FFF786FF214607460420FFF72B
:4004C00081FF013700EB072721460320FFF77AFF0025013003022E46BB4209D213F8012B511EC9B2FD29154498BF0126EDB2F3E701202146FFF766FF6D42EDB2854204D127
:40050000002E14BF00200620F8BD0620F8BD000080B5ADF51A7D00F0F7FA10B1002000F0C3FB00F0F9FC62B600273D4604A84FF4967101AAFF2300F01FFD0028F6D1BDF8EC
:400540000420062A40F248819DF81030012B40F043819DF812309DF8134043EA042404F1070E04AB234496455E79197900F232819B79172B40F03081231D9BB233B10DF174
:400580000F02D25C013B104480B2F6E7404241EA062380B2834240F021819DF811309DF81460313B0A2B00F2E780DFE813F00B001B00E500E500E500E500800091003F0011
:4005C000A000D600002F00F00781002C40F004812046FFF76BFFD0F1010038BF00208DF81400B8E0002F00F0F780012C40F0F480032E00F2F1807A4B1B681B68C3F3074268
:40060000964202D1C3F3072303E08CBF00234FF480738DF814301B0A8DF815300024FF238DF816308DF817400421A7E0002F00F0D380022C40F2D080033C4FA828440DF195
:400640001701224601F0E6FDA6F1400325443F2BADB203D800F002FB102301E04FF480739D4240F084809DF816109DF815303F2E43EA01210ED85A4B01EB06221B6892B23E
:400680001B68C3F30F2013F0FF0F1CBF013080B282426ED32B464FAA304600F07DFA00280CBF00240A24002500F024FB65E0002F00F092802E19B6F5967F00F28B804FA84D
:4006C0002844224605A901F0A5FDB5B2002454E0002C40F08180434A02AB92E8030005AA83E8030082E803000127082146E0002F72D0032C70D19DF815309DF8168043EAFE
:400700000828A6F140033F2B07D837484FEA08111022FFF74CFE044619E008EB0621002009024FF48072FFF742FE032E04460ED1B8F1FF0F0BD100210520FFF743FE201A8C
:40074000C4B200210620FFF73DFE201AC4B264428DF814400024012110E00020FFF7A6FE10B9224B80221A7000F0A0FA34E0002530E000250A2400E00524002101238DF811
:40078000103000220B1DADF806108DF811408DF812108DF813209BB20DF10F00C05C013B02449BB292B2002BF6D1524205AB92B25A540DF11503120A5A540DF116031722DE
:4007C0005A54073104A889B20DF10602962300F0B2FBABE60324D0E70424CEE70824CCE70C81FF1F4825000000800040FA46004070B50020FFF75AFE144D00282B684FF05F
:4008000000001C68014622460CBF00260626FFF7CEFD6B681B78181A00F0FF00984200D114B9002000F040FA094B1A7802F0C002402A1A4600D01EB100231370FFF768FE59
:4008400080221A70BDE8704000F030BA0C81FF1FFA46004010B50B4C237803F09F032370237803F0F0032370237843F0100318432070012000F036FA237803F0EF032370DF
:4008800010BD00BF7864004010B50D4C237843F020032370237803F0BF032370237803F0F0032370237843F0100318432070012000F018FA237803F0EF03237010BD00BF69
:4008C0007864004010B504460009FFF7DDFF642000F008FA04F00F00FFF7D6FFBDE81040962000F0FFB938B505460078012428B1FFF7E8FF285D0134E4B2F8E738BD10B5E7
:4009000004460009FFF7A6FF642000F0EBF904F00F00FFF79FFFBDE8104040F6C41000F0E1B908B5282000F0C9F90320FFF792FF052000F0C3F90320FFF78CFF0F2000F05C
:40094000BDF90320FFF786FF012000F0B7F90220FFF780FF052000F0B1F90620FFF7CFFF0E20FFF7CCFF2C20FFF7C9FF0820FFF7C6FF0120FFF7C3FF0C20FFF7C0FF032069
:40098000FFF7BDFFBDE80840052000F097B9000008B50C20FFF7B3FF014B01221A7008BD4481FF1F10B5054C63781BB9FFF7B9FF01236370BDE81040FFF7EABF4481FF1F20
:4009C000032811D8DFE800F00205080B81F0800008E0A1F1400004E0A1F16C0001E0A1F12C00C0B2FFF78BBF70470000064A0423136002F688321268E0219064034A1170A4
:400A0000A2F202321360704780E100E002E400E0014B04221A60704780E200E01E4B1A78A3F65D3342F0020283F85D2B93F85F2B02F08F0242F0300283F85F2B93F8682B5C
:400A400002F0CF0283F8682B93F8682B42F0300283F8682B93F8682B02F0F00283F8682B93F8682B42F00F0283F8682B4FF6FF72A3F8612B0122A3F8632B002283F8602B45
:400A80001A7842F001021A7093F85E2B42F0010283F85E2B704700BF004F0040074B1A7842F001021A701A7C42F001021A7493F85D2B42F0010283F85D2B7047A34300406F
:400AC00010B5054C23781BB9FFF7A8FF01232370BDE81040FFF7E2BF4681FF1F000000000230800800F0058000BF013800467FF4FCAF7047EFF3108072B6704780F310880E
:400B0000704700BFAFF3008038B500F02DF900F0B5F9002838D100F0EBF9072804460FD11B4B1A78900703D4012000F0DBF8F7E71A78910704D51B789B0814BF072400249B
:400B400000F0BCF90CBB00F00FF900F097F9D8B9012000F079F9072805D04FF0FF3410E02B789B07F9D40B48022100F00FF90228074DF5D12B789A0703D4012000F0B2F87D
:400B8000F8E700F09BF900E00424204638BD00BF224700405481FF1F4128F8B505460E4617461C460AD8411F3A298CBF002101213F2804D8B6F5807F29D805E00121812EC9
:400BC00028BF0121102C22D10FB301BB00F056F9F8B92346284631463A4600F0F1F80728044611D11B4B1A781F4612F0020F03D1012000F077F8F5E71A78900702D51B781A
:400C00009B0808D04FF0FF3400F058F91FE001241DE004241BE0104B28461A7831465B7800F0F2F807280446EED13A78094B910703D4012000F056F8F7E71A789207E1D5F8
:400C40001B789B080CBF00246FF00004DCE72046F8BD00BF224700405481FF1F08B5FFF749FF0F4B1A780C3342F0080203F80C2C1A7942F008021A71C82283F855231A7855
:400C800042F010021A701A7C42F010021A74054B1B789B06FBD5BDE80840FFF72FBF00BFA04300400047004001BE7047024B1A7842F001021A707047F646004010B504461A
:400CC000B4F5004F064B05D91868FFF709FFA4F50044F5E758686043BDE81040FFF700BF1481FF1F024B1B7A5843FFF7F9BE00BF1481FF1F08B5FFF7FDFE00BF00BF00BF4F
:400D000000BF00BF00BF00BF00BF00BF00BF00BF00BF00BF00BF00BF00BF064B1A8892B242F004021A801B88BFF36F8FBDE80840FFF7E4BE00480040054B00F01F001B68B5
:400D400000F1100253F8220043F82210704700BF08ED00E000F01F0000F16040490100F56440C9B20170704708B5FFF7C3FE064B1A7842F008021A701A7C42F008021A74A8
:400D8000BDE80840FFF7BABEA043004070B506460D460024E3B2AB420CD2074B1B78DB0703D40120FFF79EFFF7E7044B1B7833550134EFE7284670BD2247004020470040DD
:400DC00030B50F490C78A40716D50E4CB6252570D5252570022525700D7805F0020505F0FF015DB9207088B2984203D2505C01312070F8E7072030BD042030BD092030BDFA
:400E0000224700402047004070B50D4D2C78A60712D50C4CB6262670D8262670052626702D78AD070AD42070080AC9B22070217022702370072070BD042070BD092070BDF7
:400E400022470040204700400A4A137899070CD5094BB6211970E12119700E2119701278920704D4187007207047042070470920704700BF224700402047004038B5FFF7BD
:400E800039FE0C4B197879B901250B4A1D7014682C400AD0146824F00104146000BF00BF00BF5D600C4600E00424FFF727FE204638BD00BF4881FF1F0400084010B5FFF797
:400EC00019FE094B002259681A70012908D107490C6844F001040C6000BF00BF00BF5A60BDE81040FFF70ABE4881FF1F04000840074B1B789B0708D5064BB6221A70E022B8
:400F00001A700D221A70072070470420704700BF224700402047004008B562B60020022100F04EF9014B01221A7008BD5081FF1F012000F0F1B9F8B507460E46154603EB58
:400F400083030220394640225C0000F0A7F9022000F086F930B92CB10120013CFFF7AEFEA4B2F4E7022000F07BF910B12E800020F8BD1020F8BD00002DE9F84303EB830300
:400F80005C00234B16461A7880460F469946AAB1254600F053F930B92DB10120013DFFF78DFEADB2F5E700F049F9A8B100F04CF9FFF7BEFF002389F800300DE000F044F93A
:400FC00050B100F03BF938B1FFF7B2FF04E054B1FFF774FE013CA4B2012000F041F901284FF00100F3D100F03BF901280AD14146402F34BF3A46402200F0A4F93080002090
:40100000BDE8F883002333801020BDE8F88300BF5081FF1FF8B5FFF76DFD394B01251A78022642F001021A701A7C364C42F001021A7403F5E75318331D7003F8946C13F8A1
:401040008D2C074602F07F0203F88D2C0020FFF749FE2378284603F0F90323702A4B1A7802F0DF021A7023782B432370FFF73AFE2820FFF737FE254B30461A7802F07F02CF
:401080001A701A7802F0BF021A70237833432370FFF728FE2378384643F0040323701C4B00241C705C70FFF729FD1A491720FFF743FE17200721FFF74DFE17491520FFF736
:4010C0003BFE15200721FFF745FE14491820FFF733FE18200721FFF73DFE20461049FFF72BFE20460721FFF735FE28460D49FFF723FE28460721BDE8F840FFF72BBE00BF53
:40110000A54300409443004012600040F8510040846000400B180000091800005D160000A1170000D5170000184B012210B51A70174B4FF400041C604FF080741C601A6093
:4011400002221A60134B00241C70134B01B103221A70124B124A187000231370114A01201370114A1370114A1370114A1370114A1370114B03221A70802203F8202CFFF7BC
:40118000AFFC0E4B04221A7010BD00BFE681FF1F00E100E05881FF1F096000406281FF1F6A81FF1F5981FF1F6581FF1F6381FF1F7981FF1F5A81FF1F286000401260004076
:4011C00070B5074C064623780D461BB9FFF722FF0123237030462946BDE87040FFF7A4BF5181FF1F0C4B01221A700C4A002313700B4A13700B4A13700B4A13700B4A1370B8
:401200000B4A13700B4A13700B4B03221A70802203F8202C704700BFE681FF1F5881FF1F6A81FF1F5981FF1F6581FF1F6381FF1F7981FF1F5A81FF1F28600040014B187862
:40124000704700BF6A81FF1F044B1A7802F0FF001AB118780022C0B21A7070476581FF1F024B0C2202FB0030407870477A81FF1F0138C3B2072B0CD8074A1B01DBB2985C07
:4012800001329B5C00F00F0043EA0020023880B270470020704700BF0C600040431EDBB2072BF0B52FD8184E0C2404FB0064E7881B01BFB2154DC7F50077DBB2BA421D4413
:4012C00003D9E288C2F5007292B20C2404FB0064E7780F4C47EA12271F55D7B201341F5549B90C2202FB0060002242704179094AC9B29954F0BD0024A7B29742F1D20F5DD6
:4013000001342F70F8E7F0BD7A81FF1F886000400C6000400E600040431EDBB2072B0BD8064A0C2101FB00200022427041791B01034ADBB2C9B29954704700BF7A81FF1F9B
:401340000E600040F8B5431EDBB2072B07460D46144616D8B9B11B010C4EDBB21E44FFF787FFA04228BF204684B200239AB2A24203D23278EA540133F8E73846FFF7CCFFF8
:4013800002E0002400E00C462046F8BD8860004030B51A4B1A481A8801780A4492B219491A80194BCAB21C88A4B284B1174A91420CD05A681278D2B201F8012B5A68013254
:4013C0005A601A88013A92B21A80EAE7082203780F4C082B0F4B00D042B10F490D7885F080050D700F212170022101E00221217019700A4B02701A7030BD00BF6881FF1FFD
:401400005A81FF1F006000406C81FF1F086000406181FF1F5881FF1F6481FF1F7881FF1F074B02221A70074B80221A70064B0F221A70064A00231370054A01201370704725
:401440005881FF1F6481FF1F6181FF1F5A81FF1F7881FF1F10B5154B1A78154B02F00F021988023AD2B2114489B219801149124B188880B278B172B1586811F8014B013A99
:40148000E4B204705868D2B2013058601888013880B21880EBE7094B1A70094B1A7882F080021A70074B0B221A7010BD296000406881FF1F006000406C81FF1F7881FF1FD6
:4014C0006481FF1F6181FF1F064A06231370064A01201370054B80221A70054B00221A70704700BF5881FF1F6181FF1F6481FF1F7881FF1F054B9A683AB19A6804491070EE
:401500009A680988518000229A6070476C81FF1F6881FF1F08B5124B1A78D2B21A701B78DBB21A0602D50F4A137008BD0220FFF7E1FF0D4B1B7803F06003202B05D0402B2C
:4015400006D043B900F0C4FC04E000F013FE01E000F004FE10B9034B03221A7008BD00BF286000406181FF1F0060004008B50849084B01201A8809780A4492B21A80064B5D
:4015800000221A70FFF7B6FF044B03221A7008BD5A81FF1F6881FF1F5881FF1F6181FF1F08B50C4B1B78DBB2042B07D0062B09D0022B0DD1BDE80840FFF7D8BFBDE8084064
:4015C000FFF748BF0320FFF795FF034B03221A7008BD00BF5881FF1F6181FF1F08B5054B002201201A70FFF785FF034B03221A7008BD00BF5881FF1F6181FF1F08B50A4BEB
:401600001A7832B11978094A41F08001117000221A70074B002201201A70FFF76BFF054B03221A7008BD00BF6381FF1F086000405881FF1F6181FF1F074B1B78DBB2042B2E
:4016400005D0062B05D0022B05D1FFF7A1BEFFF7C5BFFFF7D3BF70475881FF1F10B51D4C2378DBB2DA0633D518060AD503F00F03012B2DD1FFF74EFF174B1B78190609D5E8
:4016800010BD5A0602D5FFF7D7FF03E09B061FD5FFF786FF23781B061AD4104B104A1B78127813430F4A13701278934210D10A4B08491A782078D2B2000605D41A78D2B230
:4016C0000A700A7802F00F021B789A42EFD110BD10BD00BF286000406181FF1F6481FF1F7881FF1F29600040054A00231380054A916819B191680B7092685380704700BFEA
:401700006881FF1F6C81FF1F10B50F4C23889BB213B9FFF785FE14E00C4B02221A700C4B00221A70FFF7E0FF0A4B1A78013B1B7843EA0223228892B29A4288BF2380FFF7B7
:4017400027FE012010BD00BF6C81FF1F5881FF1F6481FF1F0760004008B50C4B04221A700B4B80221A70FFF7BFFF0A4B01201A78013B1B7843EA0222074B198889B29142C8
:4017800088BF1A80054B0B221A7008BD5881FF1F6481FF1F076000406C81FF1F6181FF1F094B1B78094B1A7B02F00302012A03D0DA7B82F08002DA7301225A73044B1A78A4
:4017C00002F0FE021A7070470E6000407A81FF1F0B600040094B1B78094B1A7E02F00302012A03D0DA7E82F08002DA7601225A76044B1A7802F0FD021A7070471E6000401C
:401800007A81FF1F0B6000407047FFF7EBBC000008B50C4B18780138C0B200F07BF90A4B0A491B78DBB200EBC3004269CB5C02EBC3035B685A6A064B1178C9B219805A60B3
:4018400008BD00BF6A81FF1F046000406081FF1F6C81FF1F08B50D4B18780138C0B200F059F90B4B0B491B78DBB200EBC3004269CB5C02EBC3035B68DB69597813F8022B8E
:4018800042EA0121044A1180536008BD6A81FF1F046000406081FF1F6C81FF1F10B5194C00232380184B18780138C0B200F032F9164B174A1B781278DBB2D2B200EBC20086
:4018C0004169EAB9134A127801EBC20251685A1E022A15D8104A03F10053013B127801EBC30011F83330D2B2934209D30C235A4341688B1858688A5A9B6860602280A360DF
:4019000010BD00BF6C81FF1F6A81FF1F03600040046000406081FF1F0260004010B53C4B3C4A1B781178DBB2090634D501321278013A052A6AD8DFE802F010182769690346
:40194000354B1A78212A02D1FFF762FF07E01B78222B5BD1FFF77EFF01E0FFF79FFF2F4B1B889BB2002B51D00AE0002B4ED12C4B1B78002B4AD1294B01221A80294A5A606D
:40198000BDE81040FFF7C0BE002B3FD1234B01221A80254AF3E71278120637D4234A1278D2B20A2A0DD00B2A27D0092A2ED1FFF775FF1A4B1B889BB243B3BDE81040FFF7D8
:4019C000CBBE1BBB164B1B7803F0FF01F3B9124B144A1B78DBB21370154B14781878844201D2197005E01978012902D91278D2B21A70BDE81040FFF767BD3BB9084B1A78FE
:401A0000012A03D81A78084BD2B2F1E7002010BD0460004000600040036000406C81FF1F02600040E781FF1FE681FF1F01600040E881FF1F7FB5144B02466D4603F1100613
:401A4000186859682C4603C40833B3422546F7D1BAB122231370032353700C4B13F8011B04ACC9B204EB111001F00F01214411F8101C10F8100C907002F8041F04498B42BE
:401A8000ECD104B070BD00BF50250000000100490801004930B51C4B01211C4A0C2000FB012483F87200657925B12479240658BF082000E0802018700C2000FB0122108906
:401AC0000131C0F3072003F8020C10890929C0B203F8010CD08803F11003C0B283F86800D088C0F3072083F86900D088C0B283F86600D288C2F3072283F86720CDD1044BF0
:401B0000FF221A7030BD00BF0E6000407A81FF1F0A600040074B1A78074B03EBC2035B6803F108021B7A834286BF02EBC0004068002070476281FF1F64250000F8B5394BAD
:401B40001A78002A6CD018780138C0B2FFF7E2FFC368047A083303EBC404A34260D013F8082C314931488D5C805C854256D0895C13F8070C884251D12D4909788A424DD1F8
:401B800013F8060C13F8056C00F07F02511E10F0800F28484FEA01114FF00C05C9B206F0030605FB020506D00127BE426F7014BF0D26072605E00027012E6F7014BF092665
:401BC00005266E711C4D01266E540C25554333F8046C4219168113F8066C167113F8056C46550020D07015891448C5F30725455415890130EDB24554D5887930EDB24554FC
:401C0000D5880130C5F307254554D5880338EDB24554D2880130C2F30722425408339CE7F8BD00BF6A81FF1F6081FF1F6B81FF1F046000407A81FF1F0E6000400C6000406F
:401C400008B5064B18780138C0B2FFF763FF20B143681B7900EBC300406908BD6A81FF1FF8B500210C254D434C4C0131002362190929635593705370D37053711381937247
:401C8000F0D118B1464A1370464A1370464B1A78002A00F0818018780138C0B2FFF73AFF4368017ADB79C90013F0400F3F4B1A7814BF42F0010202F0FE021A700122C36849
:401CC000083303EB010E73453DD013F8065C05F07F06B24235D10C2606FB0246B6F808C033F8047C1FFA8CFCBC4538BF378113F8086C2B4FBE5D13F8077CB74221D113F881
:401D0000056C15F0800F4FF00C0506F0030605FB024506D00127BE426F7014BF0D26072605E00027012E6F7014BF092605266E710C25554313F8067C6619377113F8056CD9
:401D400066550833BFE70132092AB8D1C36803F10802114408338B420AD013F8062C0C2502F07F0205FB024213F8080C9072F1E7FFF766FF0E4B0022186001230C2101FBBF
:401D80000341CA80098901330A44092B92B2F5D1BDE8F840FFF77EBEF8BD00BF7A81FF1F6081FF1F6B81FF1F6A81FF1F7981FF1F5C81FF1F114B197801F07F014A1ED2B238
:401DC000072A19D80E4B0C2000FB01339978120141F0010199700021D9705978D2B241F0020159701B7913F0800F064B14BF8D218921D154FFF768BB002070470460004096
:401E00007A81FF1F0E60004010B51A4B1B7803F07F035A1ED2B2072A29D817490C2000FB03139978120101F0FE0199700021D9701249D2B2545C04F07F045454597801F0E7
:401E4000FD01597019795B7811F0800F0C4905D0012B01D1505406E00D2303E0012B0CBF082309235354BDE81040FFF72DBB002010BD00BF046000407A81FF1F0C60004004
:401E80000E60004010B50D4B1C780D4BE4B218780138C0B2FFF73EFE43681B79A3420BD954B9084B084A19780120C9B21170074A1278D2B21A7010BD002010BD04600040B9
:401EC0006A81FF1F6081FF1F6B81FF1F0260004038B58D4C002323808C4B1A7812F0800F8B4A127800F08A800A2A00F20A81DFE812F05A00080108010801080108010B0043
:401F000008017A0008017E00824B1A78012A09D1814B1A78814B03EBC2035B685B686360122311E01A78022A13D17D4B1878FFF7F1FD002800F0E580436863606368DA7801
:401F400063689B7843EA02232380BDE83840FFF7DBBB1B78032B22D1724B00227049D0B20D78854202D80A783AB910E0187801320028F8D019780B44F0E7694A6A49127832
:401F8000097C914203D16948FFF754FD674B1A78002A00F0B6801A78D2B2228019E0BDE8384000F0E7B81A7812F0030213D0022A40F0A7805E4B22801B785E4A03F07F0312
:401FC0000C2101FB03239A785B4BD2B21A7000225A706360B9E702232380584B1978564BC9B21970F4E701232380554BF1E7012323804F4B534A1B781344EAE7013A0A2A9A
:402000007FD8DFE802F0367E527E067E7E7E0B7E2200434B1A784C4BD2B260E0404B1B7803F0FF0453B9464B1A78944265D01C70464B01201870FFF713FE5EE0601EC0B21D
:40204000FFF768FD0028EED15BE0FFF71BFF002857D0374B01221C783D4BE4B21C703B4B1A70FFF76BFD374B1A5D3A4BD2B21A5543E01B7803F00303012B32D00CD3022BD9
:402080003FD103F1804303F5C0431B78002B38D1BDE83840FFF7B8BE214B1B78012B30D1264B1A7802F0FD0219E01B7803F00303012B16D00BD3022B23D103F1804303F5A9
:4020C000C0431B78EBB9BDE83840FFF773BE144B1B78012B15D1194B1A7842F002021A700BE0134B1A7862B91B781B4A0C48DBB2D15C007821EA0001D154BDE83840FFF7F0
:40210000E3B9002038BD00BF6C81FF1F0060004001600040036000406281FF1F64250000026000402A260000782600003082FF1F046000407A81FF1F5281FF1F7981FF1F90
:402140006A81FF1F6081FF1F6381FF1F6581FF1F5981FF1F6B81FF1F6681FF1F034B00201B781B0644BF024B1B7870470060004001600040104B1B7803F00303012B0CD05E
:40218000022B0ED10D4B0E4A1B780C2103F07F0301FB032308339B7801E0084B1B78DBB200E00023074A1268D35C032B01D1FFF7B5BB0020704700BF00600040046000402D
:4021C0007A81FF1F5C81FF1F70B50E4B0E4D0024ED1AAD101E46AC4204D056F8242090470134F8E700F052FA084D094B0024ED1AAD101E46AC4204D056F8242090470134D6
:40220000F8E770BD9826000098260000A02600009826000010B50023934203D0CC5CC4540133F9E710BD02440346934202D003F8011BFAE770470000E0260000F100000005
:40224000000000004D6F6E61736820476C6F6D657269646100426F6F746C6F61646572205265616479000000004F00400C001051004030000000014000100014014000080A
:4022800000400140000A004C01400002005001402000000001450040024F0040095200400165004004000140010101400203014001050140040701400808014015090140EA
:4022C000040B0140030D01400215014004170140061901402E1A0140251B0140074001400B4101400E4201400C430140044401400345014001460140044701400D4801402D
:4023000005490140054C01400E4D014002500140015101407E0201200A4B008001C02003210129803110608061847C407B0138083E0458045F011B04AB04E202E609E20195
:40234000E602E804EE045B045F01AE01B401D804DB04DC08DF11100219101A0459506D806E086F8877067A08830487089F02A002A208A540A604A780AA0CC401D60CDE0492
:4023800083028780A002A5408540A002B002E201EC80E408E810EA02EE0A86109D40A208AE04E810EE0A0501070209020B0115022E01330336013920580459045C385F112C
:4023C00080048504860C870888088A048B088C028E019003940195089602970499019B029D019F02A408AD03B203B50CB60CB703B888B980BE04BF40D804D904DB04DC3344
:40240000DF01041505800E601002170819401C011F0420142580270C2E40330435803610370838143C146E407A088001858088028B0499809D40A218B180C0F0C230C42128
:40244000CA10CC72CE66DE04E402EC803381364057085F80CC70D440D6206008642087809F81A280A640A788AA80D8C0E240EE20108050046280800484209C289F01A2807E
:40248000A640A788C410D420D640E6901810814087089F01A640A788A888C610E280E640E820EE2008046080C208D8029C80B004EE019C8008080F409C80C20C21042610D3
:4024C000514086109180AE40AF81B410C860D420E410EA40EE5079808140B104DC80E2809880AC08AF40B480E8080C80608063027404840488808B019880C201D602D8024C
:40250000DE04E001E60110081C08003AC00000C0C000C00000008C00000C8C008C0000000800000808000800C00003000003030003000000200080802000A00000001010DF
:4025400000001000000000006980172E001E01013031323334353637383941424344454600000000010000006C2500000100000078260000010000007C2500000100000087
:402580004F260000020000009E25000001000000B0250000000000009C250000030000000103400003000000820340000300000001000000B825000000000000EC25000049
:4025C00000000000E0250000000000000000000001000000F8250000010000006126000041000000EA81FF1F5282FF1F410000005682FF1F2C82FF1F240005010900A1009D
:402600000900A1000900150025FF7508954091020900150025FF750895408102C0C000000A033000300030003100040309040A03500053006F004300160342006F006F00B5
:4026400074006C006F0061006400650072000009022900010102803209040000020300000209211101000122240007050103400001070582034000011201000200000008AE
:40268000B4041DB70130010280010000F8B500BFF8BC08BC9E4670475100000041010000F8B500BFF8BC08BC9E4670472D000000C02600000881FF1F2000000070010000FD
:4026C00000000000382200003C2200000000007D00FA0000400000000090D00300000000000000000000000000000000000000000000000000000000000000000000000008
:402700000080002011270000A5510000A551000080B500AF02F072FD10B5054C237833B9044B13B10448AFF300800123237010BDB081FF1F000000002CC5000008B5064BA0
:402740001BB106480649AFF300800648036813B1054B03B1984708BD000000002CC50000B481FF1F0881FF1F0000000080B485B000AFF860B9607A60BA68FB689A4205DB1A
:40278000BA687B689A4201DC012300E0002318461437BD465DF8047B704700BFB0B596B002AF012005F0A2F862B604F0D7FE0020022103F0F5F805F0E9F801F02FFF01F048
:4027C00051FF00BFCE4B1B78DBB2002BFAD001F097FFCC4B1A88CC4B1A8002F01FFA02F05FF802F06FF801F0FDFE002001F0BCFE02F04EFB02F0C0FC02F008FC02F05EFB1D
:402800000023BB6446233B6101237B640023FB630023BB630023A7F84E3000E000BFB7F84E300E2BFAD801A252F823F0692800005B29000087290000D32900000F2D000078
:40284000ED2C0000C53600001D280000772D0000152F0000C130000057310000A9320000393000008B36000002F036F84FF4FA7007F0A2F9062001F077FE4FF47A7007F08A
:402880009BF94FF4C860C82102F0E8F84FF4967007F092F902F00CF84FF4FA7007F08CF902F010F84FF4FA7007F086F90A20B42102F02CF9954A964B14460FCB07C42380DF
:4028C00002341B0C23700020002104F057FE8F4804F08AFE012001F047FE4FF4FA7007F06BF90020002104F049FE8A4804F07CFE01F07EFA0020002104F040FE864804F052
:4029000073FE0020012101F03FFE4FF4FA7007F053F9022001F0F4FA01F0D4FA01F06EF9012001F0EDFA7D4BDA687C4B9B687B4948687A490968009001917448784909F0A1
:40294000F9F90120002104F019FE704804F04CFE0123A7F84E3000F0C5BE002001F004FE3C20FF2102F0D2F80223A7F84E30BB6CC3F10302694B53F822307B64694B8C226F
:402980001A7000F0AFBE5A2002F010F9002002F0DFF84FF4FA7007F00FF94FF4AF60FF2102F088F84FF4FA7007F006F9B42002F0FDF8002002F0CCF84FF4FA7007F0FCF876
:4029C00005F03AF80346FB600323A7F84E3000F089BE4E4854497A6CBB6C09F0ABF90120002104F0CBFD494804F0FEFD4FF4967007F0E2F801F066FA786C1E210A2201F08C
:402A00008BF838633B6B002B40F092800023BB634FF47A70FF2102F021F802F04FFA0346002B6CD04FF49670FF2102F017F801F03FFF642007F0C0F8324B1B881BB2BB600D
:402A400001F0BEFD5A2002F0B1F8002002F080F8002001F089FD4FF4967007F0ADF8022001F04EFA01F02EFA01F026FD7860012001F046FA25482D497A6809F05BF90020AB
:402A8000002104F07BFD214804F0AEFD7A687B6C9A421BD04FF4FA70FF2101F0DFFF01F011FF4FF4FA70FF2102F004F8002001F05BFD642007F080F8BB689BB21BB21846A2
:402AC00002F074F8002002F043F818E001F078FDB42002F06BF8002002F03AF840F2DC50FF2101F0E7FFBB6C0133BB6404F0A4FF0346FB600523A7F84E3000F0F3BDF3E09E
:402B0000C06E0020C26E00203A5800202482FF1F30C5000040C5000050C500001482FF1F64C500002181FF1F70C5000080C500003B6B002B13DABB6B052B07DD0023BB6322
:402B40004FF4FA70FF2101F089FFCDE06FF0020001F0FEFFBB6B0133BB6300F0C3BD3B6B002B12DDBB6B052B07DD0023BB634FF4FA70FF2101F072FFB6E0032001F0E8FF30
:402B8000BB6B0133BB6300F0ADBD3B6BB3F1FF3F40F0AA80FB6B012B00F09E80022B50D0002B01D000F09EBD01237B6338E07B6B9BB21A465203D21A9200D31A5B009BB218
:402BC000B4339BB29BB21BB2184601F0EFFF002001F0BEFF7B6B6FF0090202FB03F3B433AD48AE491A4609F0A5F80020002104F0C5FCA94804F0F8FC4FF4FA7006F0DCFF23
:402C000001F060F9786C1E210A2200F085FF38633B6BB3F1FF3F00D005E07B6B01337B637B6B072BC3DD3B6BB3F1FF3F00D05BE0B42001F0BBFF002001F08AFF0223FB63D0
:402C400052E001237B6336E07B6B9BB21A46920013445B009BB2B4339BB29BB21BB2184601F0A4FF002001F073FF7B6B6FF0090202FB03F3B433884889491A4609F05AF8AC
:402C80000020002104F07AFC834804F0ADFC4FF4FA7006F091FF01F015F9786C1E210A2200F03AFF38633B6BB3F1FF3F00D005E07B6B01337B637B6B052BC5DD3B6BB3F185
:402CC000FF3F00D010E0B42001F070FF002001F03FFF0123FB6307E04FF47A70FF2101F0BDFE0023FB6300BF00F0FCBC5A2001F05DFF002001F02CFF002001F057FF00207F
:402D000001F026FF0423A7F84E3000F0EBBC02F065F94FF4967006F04FFF02F053F903467B80012004F09AFC7C8802F007F8034659485C49224608F0FDFF0020002104F083
:402D40001DFC554804F050FC01F0F8FF03461A463B699A4204DA0923A7F84E3000F0C2BC0823A7F84E30002001F020FF002001F0EFFE00F0B7BC484A4B4B14461D460FCD1D
:402D80000FC42B6823600020002104F0F7FB424804F02AFC02F022F902F014F903467B807B883D4841491A4608F0C4FF0120002104F0E4FB384804F017FC7B88092B05D832
:402DC0004FF4FA70FF2101F049FE8FE07B88392019463C22FFF7CAFC0346002B1AD02E4B334A92E8030018600433198002330A0C1A700120052104F0C1FB274804F0F4FB53
:402E0000002001F0D3FE4FF4FA70FF2101F026FE00F068BC7B885F2019466922FFF7A6FC0346002B17D01C4B224A92E803001860043319700120052104F0A0FB164804F0AB
:402E4000D3FB002001F0B2FE4FF4FA70FF2101F005FE00F047BC7B88192019462322FFF785FC0346002B29D00B4B134A92E803001860043319800120052104F07FFB0648D0
:402E800004F0B2FB002001F091FE4FF4FA70FF2101F0E4FD00F026BC2482FF1F8CC5000098C50000A8C50000BCC50000D0C50000D8C50000E0C50000E8C50000BC4ABD4B6E
:402EC00014460FCB07C4238002341B0C23700020002104F053FBB64804F086FB002001F065FE4FF4FA70FF2101F0B8FD4FF4FA7006F062FE01F022FF03461A463B699A4225
:402F000007DC0923A7F84E3004F096FD03463B64E8E3E7E33C6C04F08FFD0346E21AA64B9A4208D94FF47A60FF2101F0C3FD04F083FD03463B649E4AA04B14461D460FCD90
:402F40000FC42B681A46228002341B0C23700020002104F013FB964804F046FB5A2001F025FE002001F0F4FD4FF4967006F024FE02F040F802F026F803467B807B888C485D
:402F80008F491A4608F0D6FE0120002104F0F6FA874804F029FB04F04FFD0346844889491A4608F0C7FE0120052104F0E7FA804804F01AFB7B88602019466922FFF7D6FB9B
:402FC0000346002B24D00123BB620023FB6214E04FF4967006F0F0FD01F0F4FF0346602019466922FFF7C2FB0346002B02D10023BB6205E0FB6A0133FB62FB6A022BE7DD86
:40300000BB6A002B03D00A23A7F84E306AE369E37B88192019462322FFF7A8FB0346002B04D04FF47A70FF2101F018FD4FF4C870FF2101F013FD55E35D4A634B14461D4690
:403040000FCD0FC42B6823700020002104F096FA574804F0C9FA4FF4967006F0ADFD01F0C9FF01F0AFFF03467B807B88504857491A4608F05FFE0120002104F07FFA4C48A8
:4030800004F0B2FA7B88392019464122FFF76EFB0346002B0ED040F2DC50FF2101F0DEFC002001F083FD002001F052FD0B23A7F84E3017E34FF4C870FF2101F0CFFC11E3D7
:4030C0003B4A434B14461D460FCD0FC42B6823800020002104F052FA354804F085FA4FF4FA7006F069FD01F085FF01F06BFF03467B807B882E4835491A4608F01BFE012004
:40310000002104F03BFA2A4804F06EFA7B88392019464122FFF72AFB0346002B09D0002001F044FD002001F013FD0B23A7F84E30D8E27B881B2019462122FFF717FB034648
:40314000002B03D00D23A7F84E30CBE2FA20FF2101F0B0FCC6E2164A1E4B14461D460FCD0FC42B6823700020002104F007FA104804F03AFA0020012101F006FAC82006F0B6
:403180001BFD002001F0F0F9C82006F015FD01F099FB4FF49670FF2101F060FC01F088FBC82006F009FD042001F0DEF91DE000BF2482FF1FF0C50000400D030000C6000043
:4031C00014C600001CC6000024C6000038C6000040C6000054C600004FF4FA70FF2101F03DFC4FF4967006F0E7FC01F0A7FD0346182BF1D801F0A2FD03467B6200233B6292
:4032000032E001F09BFD03467B62B848B8497A6A08F090FD0120002104F0B0F9B34804F0E3F97B6A0F2B0BDDFA20C82101F016FC002001F08DFC4FF4967006F0BDFC13E027
:403240007B6A0D2B0BDCC820C82101F033FC002001F07EFC4FF4967006F0AEFC04E07B6A0E2B01D101233B620E20796A0F22FFF77DFA0346002B02D13B6A002BC1D09D4B11
:40328000B4221A70C82001F0A1FC4FF4C87006F093FC4FF4877001F089FC002001F058FC0C23A7F84E301DE2904A934B14460FCB07C423700020002104F060F98B4804F039
:4032C00093F98E4B01221A70BB6C012B2FD100237B630BE04FF4FA70C82101F0BFFB4FF4167006F069FC7B6B01337B637B6B022BF0DD4FF4967006F05FFC4FF4877001F07B
:4033000055FC002001F024FC0020012101F03CF94FF4967006F050FC01F0D4FAC82006F04BFC4FF4AF60FF2101F0C4FB94E1BB6C0133184601F018F90023FB6180E06B4B4D
:403340006F4A07CA03C31A800020002104F016F9664804F049F901F0B1FD03461C4601F061FE034661486749224608F0E3FC0120002104F003F95D4804F036F901F09EFD3A
:403380000346002B0ED0594B5F4A07CA83E807000020002104F0F2F8544804F025F90123FB6149E001F03EFE03460B2B16D84F4A564B14460FCB07C4238002341B0C23704F
:4033C0000020002104F0DAF8484804F00DF9C820FF2101F06FFB0123FB612DE001F022FE0346112B15D9414A494B14460FCB07C4238002341B0C23700020002104F0BEF82C
:403400003A4804F0F1F84FF49670FF2101F026FB12E0364A3F4B14461D460FCD0FC42B6823800020002104F0A9F8304804F0DCF8C820FF2101F012FB4FF4967006F0BCFB02
:40344000FB69002B3FF47BAF01F0ECFD0346BB6100237B61BB6C032B00F09380042B00F0D280022B35D0DBE001F0DCFD0346BB611E481F49BA6908F05DFC0120002104F0C5
:403480007DF81A4804F0B0F8BB690F2B0CDD4FF496708C2101F0E2FA002001F059FB4FF4967006F089FB15E0BB690D2B0BDC8C208C2101F0FFFA002001F04AFB4FF496704D
:4034C00006F07AFB06E0BB690E2B03D101237B6100E000BF0E20B9690F22FFF747F90346002B02D17B69002BBED099E02482FF1F68C600002181FF1F74C600002081FF1FEC
:4035000084C6000090C600009CC60000A8C60000B8C60000C8C6000001F084FD0346BB6171487249BA6908F005FC0120002104F025F86D4804F058F8BB69102B0CDD4FF4D1
:4035400096708C2101F08AFA002001F001FB4FF4967006F031FB15E0BB690E2B0BDC8C208C2101F0A7FA002001F0F2FA4FF4967006F022FB06E0BB690F2B03D101237B6116
:4035800000E000BF0F20B9691022FFF7EFF80346002B02D17B69002BBED041E001F042FD0346BB6150485149BA6908F0C3FB0120002103F0E3FF4C4804F016F8BB69112B5A
:4035C0000CDD4FF496708C2101F048FA002001F0BFFA4FF4967006F0EFFA15E0BB690F2B0BDC8C208C2101F065FA002001F0B0FA4FF4967006F0E0FA06E0BB69102B03D1F7
:4036000001237B6100E000BF1020B9691A22FFF7ADF80346002B02D17B69002BBED000BFBB6C013B1846B96C00F0AEFF4FF4487006F0C2FA01F046F9C82006F0BDFA4FF4E7
:40364000AF60FF2101F036FA00F0BAFF002000F08BFFC82006F0B0FA254B03221A70002001F0A4FA002001F073FA40F2DC50FF2101F020FABB6C042B03D10E23A7F84E30E2
:4036800030E00123A7F84E302CE0174B194A07CA03C31A700020002103F070FF124803F0A3FF002001F082FA002001F051FA062000F05AFF4FF4FA70FF2101F0CFF901F066
:4036C0000BF90FE0084B0C4A07CA03C31A800233120C1A700020002103F050FF024803F083FF00BFFFF79AB82482FF1F68C600002081FF1FDCC60000E8C6000090B5DFB002
:4037000000AF0023C7F86C31AD4800214FF47F6208F091F93B4618464FF0FF314FF4B07208F089F90123C7F87031BEE10123C7F87431B0E1D7F87431DAB2D7F87031DBB239
:403740001046194600F010FC0346002B07D13B46D7F874214FF0FF3143F822103CE1D7F87431DAB2D7F87031DBB21046194600F0FBFB03461C46D7F87431DBB2013BDAB262
:40378000D7F87031DBB21046194600F0EDFB03469C4240F0EE80D7F87431DAB2D7F87031DBB21046194600F0DFFB03461C46D7F87431DAB2D7F87031DBB2013BDBB2104677
:4037C000194600F0D1FB03469C4240F0C6803B46D7F8742153F82220D7F87431591E3B4653F821309A4200F0B880D7F874315A1E3B4653F82230C7F864313B46D7F8742150
:4038000053F82230C7F86031D7F874315A1E3B4653F82230D7F87421511E3A4652F82120674912010A4491883A46D7F8740152F8202063481201024492880A4492B26049E2
:403840001B010B449A80D7F874315A1E3B4653F82230D7F87421511E3A4652F82120584912010A44083211683A46D7F8740152F82020534812010244083212680A44504949
:403880001B010B4408331A60D7F874315A1E3B4653F82230D7F87421511E3A4652F82120474912010A44083251683A46D7F8740152F82020424812010244083252680A44A9
:4038C0003F491B010B4408335A603B46D7F8742153F822303A4A1B01134400221A603B46D7F8742153F82230354A1B01134400229A803B46D7F8742153F82230304A1B0103
:403900001344083300221A603B46D7F8742153F822302B4A1B011344083300225A60D7F87431C7F8683114E03B46D7F8682153F82220D7F860319A4206D13B46D7F86821C6
:40394000D7F8641143F82210D7F868310133C7F86831D7F86831572BE6DDD7F874315A1E3B4653F822103B46D7F8742143F8221032E0D7F87431DAB2D7F87031DBB2104654
:40398000194600F0F1FA03461C46D7F87431DAB2D7F87031DBB2013BDBB21046194600F0E3FA03469C420DD13B46D7F8742153F822103B46D7F8742143F822100CE000BF76
:4039C00040480020D7F86C315A1CC7F86C213A46D7F8741142F821303B46D7F8742153F82230B3F1FF3F51D03B46D7F8742153F82240D7F87431DAB2D7F87031DBB2104628
:403A0000194600F0B1FA03461A462F4923010B441A603B46D7F8742153F822302A491A010A449288013292B227491B010B449A803B46D7F8742153F822303A46D7F8741144
:403A400052F82120204912010A4408321168D7F874210A441C491B010B4408331A603B46D7F8702153F822303A46D7F8701152F82120154912010A4408325168D7F870211C
:403A80000A4411491B010B4408335A60D7F874310133C7F87431D7F87431572B7FF74AAED7F870310133C7F87031D7F870318F2B7FF73CAE0448FF211022044B07F0FDFF20
:403AC00007F5BE77BD4690BD40480020D13A000090B48AB000AF786039607B6807F118040FCB84E80F003B6807F108040FCB84E80F00BA8BBB899A4202D94FF0FF3306E015
:403B0000BA89BB8B9A4201D9012300E0002318462837BD4690BC704780B489B000AFF860B9607A600023FB6159E0324AFB691B0113449B881A46BB689A4202DA4FF0FF331B
:403B400052E02C4AFB691B0113441A68FB689A4242D1284AFB691B01134408331A682549FB691B010B449B88B2FBF3F3BB61214AFB691B01134408335A681E49FB691B01B7
:403B80000B449B88B2FBF3F37B611B4B7A69582101FB02F1BA690A44FF2103F82210164A7B69582101FB03F1BB690B449B001344FF229A70BB69A3F12C027B685B429A4236
:403BC00007DBBB69A3F12C027B689A4201DC00230AE0BB692C3B07E0FB690133FB61FB69FE2BA2DD4FF0FF3318462437BD465DF8047B7047404800204082FF1F80B491B02D
:403C000000AF0023FB6344E0764AFB6B1B01134408331A687349FB6B1B010B449B88B2FBF3F3BB636F4AFB6B1B01134408335A686C49FB6B1B010B449B88B2FBF3F37B63D0
:403C4000694B7A6B582101FB02F1BA6B0A44FF2103F82210644A7B6B582101FB03F1BB6B0B449B001344FF229A70FB6B9B0007F140021344BA6B43F81C2CFB6B9B0007F1C1
:403C8000400213444FF47A7243F82C2CFB6B0133FB63FB6B032BB7DD0023FB6316E0FB6B9B0007F14002134453F81C2C7B699A4209DAFB6B7B60FB6B9B0007F14002134477
:403CC00053F81C3C7B61FB6B0133FB63FB6B032BE5DD0023FB6320E0FB6B9B0007F14002134453F81C2C7B699A4213DDFB6B9B0007F14002134453F81C2CBB699A4209DA99
:403D0000FB6BBB60FB6B9B0007F14002134453F81C3CBB61FB6B0133FB63FB6B032BDBDD0023FB6320E0FB6B9B0007F14002134453F81C2CBB699A4213DDFB6B9B0007F1DE
:403D40004002134453F81C2CFB699A4209DAFB6BFB60FB6B9B0007F14002134453F81C3CFB61FB6B0133FB63FB6B032BDBDD0023FB6316E0FB6B9B0007F14002134453F80A
:403D80001C2CFB699A4209DDFB6B3B61FB6B9B0007F14002134453F81C3CFB61FB6B0133FB63FB6B032BE5DD0023FB6311E0FB6B9B0007F14002134453F83C3C094A1B017E
:403DC00013441968094BFA6B43F82210FB6B0133FB63FB6B032BEADD4437BD465DF8047B704700BF404800204082FF1F1482FF1F80B500AF01F00AFD012003F02FFC002033
:403E0000002103F0BBFB274803F0EEFB1E20102101F0D0FC1320E72101F0CCFC01F0E6FC0020002103F0AAFB1F4803F0DDFB01F0A7FD0020002103F0A1FB1C4803F0D4FBE4
:403E400001F0D4FC1320E02101F0B4FC184B1B780020194601F0AEFC164B1B780120194601F0A8FC144B1B780220194601F0A2FC124B1B781020194601F09CFC3F202F21DA
:403E800001F098FC3E20032101F094FC8C20A02101F090FC0020002103F070FB084803F0A3FB80BD18C7000028C7000038C700001281FF1F1381FF1F1481FF1F1581FF1F3C
:403EC00048C7000080B500AF01F090FC01F058FD01F08CFC00F0BCF801200849142200F059FA02200549142200F054FA03200349142200F04FFAFFF701FC80BDCDCC4C3EEF
:403F000080B582B000AF78607B68012B18D1124B1B780020194601F04DFC104B1B780120194601F047FC0E4B1B780220194601F041FC0C4B1B781020194601F03BFC08E02C
:403F400000203C2101F036FC1020502101F032FC00BF0837BD4680BD1281FF1F1381FF1F1481FF1F1581FF1F80B483B000AF02460B46FA71BB71B979FA792E4B582000FB02
:403F800001F10A4413F822202B4B1B789A420FD2B979FB79274A582000FB01F10B449B0013449A78254B1B789A4201D301233AE0B979FA791F4B582000FB01F10A4413F821
:403FC00022201F4B1B789A420FD2B979FB79194A582000FB01F10B449B0013449A78194B1B789A4201D202231DE0B979FA79114B582000FB01F10A4413F82220124B1B784B
:404000009A420FD3B979FB790A4A582000FB01F10B449B0013449A780C4B1B789A4201D2032300E0002318460C37BD465DF8047B704700BF4082FF1F0C81FF1F0D81FF1F29
:404040000E81FF1F0F81FF1F1081FF1F1181FF1F80B588B000AF0023FB6192E10023BB6188E1FB69002B08D0FB698F2B05D0BB69002B02D0BB69572B2BD19E4BFA695821EE
:4040800001FB02F1BA690A447F2103F82210994AFB69582101FB03F1BB690B449B0013447F229A70934AFB69582101FB03F1BB690B449B00134400225A708E4AFB69582163
:4040C00001FB03F1BB690B449B0013440022DA704DE1BB69DBB2013BDAB2FB69DBB2013BDBB210461946FFF73FFF03463B72BB69DBB2013BDAB2FB69DBB210461946FFF7AA
:4041000033FF03467B72BB69DBB2013BDAB2FB69DBB20133DBB210461946FFF725FF0346BB72BB69DAB2FB69DBB2013BDBB210461946FFF719FF0346FB72BB69DAB2FB69B0
:40414000DBB20133DBB210461946FFF70DFF03463B73BB69DBB20133DAB2FB69DBB2013BDBB210461946FFF7FFFE03467B73BB69DBB20133DAB2FB69DBB210461946FFF72C
:40418000F3FE0346BB73BB69DBB20133DAB2FB69DBB20133DBB210461946FFF7E5FE0346FB7300237B613AE03A7907F108017B690B441B78002B14BF00230123DBB2134473
:4041C000DBB23B717A7907F108017B690B441B78012B14BF00230123DBB21344DBB27B71BA7907F108017B690B441B78022B14BF00230123DBB21344DBB2BB71FA7907F1E0
:4042000008017B690B441B78032B14BF00230123DBB21344DBB2FB717B6901337B617B69072BC1DD334AFB69582101FB03F1BB690B449B0013447F225A702E4AFB69582173
:4042400001FB03F1BB690B449B0013447F22DA707B79032B17D901233B61264BFA69582101FB02F1BA690A44002103F82210214AFB69582101FB03F1BB690B449B00134494
:40428000FF229A7065E0BB79032B17D902233B61184BFA69582101FB02F1BA690A44002103F82210134AFB69582101FB03F1BB690B449B00134400229A704AE0FB79032B07
:4042C0001AD903233B610B4BFA69582101FB02F1BA690A44FF2103F82210064AFB69582101FB03F1BB690B449B00134400229A702FE000BF4082FF1F00233B61244BFA693D
:40430000582101FB02F1BA690A447F2103F822101F4AFB69582101FB03F1BB690B449B0013447F229A701A4AFB69582101FB03F1BB690B449B00134400225A70144AFB694D
:40434000582101FB03F1BB690B449B0013440022DA7000237B6107E03A1D7B69134400221A707B6901337B617B69072BF4DDBB690133BB61BB69572B7FF773AEFB690133BB
:40438000FB61FB698F2B7FF769AE2037BD4680BD4082FF1F90B589B000AFF860B9607A6000233B610023FB612FE000237B610023BB6112E0BB69DAB2FB69DBB21046194634
:4043C000FFF7D2FD03461A46FB689A4202D17B6901337B61BB690133BB61BB69572BE9DD786907F0D9F80446B868314907F028F903462046194607F0D5FA0346002B01D0AB
:40440000FB693B61FB690133FB61FA697B689A42CBDD0023FB6143E00023BB613AE0BB69DAB2FB69DBB210461946FFF79DFD03461A46FB689A422AD11E4BFA69582101FBB9
:4044400002F1BA690A447F2103F82210194AFB69582101FB03F1BB690B449B0013447F229A70144AFB69582101FB03F1BB690B449B00134400225A700E4AFB69582101FB1E
:4044800003F1BB690B449B0013440022DA70BB690133BB61BB69572BC1DDFB690133FB61FA693B699A42B7DD2437BD4690BD00BF0000B0424082FF1F80B586B000AF3B463D
:4044C00000221A60043300221A60043300221A60043300221A60043300237B6128E000233B611FE03B69DBB22233DAB27B69D9B26FF070035B1ADBB210461946FFF734FD7A
:4045000003461A46930007F118010B4453F8183C591C930007F11802134443F8181C3B6901333B613B69092BDCDD7B6901337B617B69092BD3DD3B68322B01DD00230EE0B0
:404540007B68502B01DD012309E0FB68502B01DD032304E0BB68502B01DD0223FFE718461837BD4680BD00BF80B582B000AF7860044A7B6813441B78184604F067FB0837FD
:40458000BD4680BD1881FF1F80B582B000AF786039600A4A7B6813441B781A4607493B680B441B781344DA0F13445B109BB2184604F04CFB0837BD4680BD00BF1881FF1F4A
:4045C00080B500AF064B1B781A46054B5B781344DA0F13445B109BB2184604F037FB80BD1881FF1F80B500AF04F09AFA0020FFF7BBFF80BD80B500AF024B01221A7003F05F
:404600007FFC80BD3058002080B500AF024B01221A7003F0CFFC80BD3158002080B500AF04F0DAFF064803F01DFC064803F074FC054B00221A70054B00221A7080BD00BFE8
:40464000F545000009460000315800203058002080B500AF024B01221A7004F07DFB80BDC06E002080B500AF1D4B00221A701D4B00221A801C4B00221A801C4B00221A8029
:404680001B4B00221A801B4B00221A8003F0FEFC1E20002103F012FF002003F0B5FF702003F0B2FF03F076FF1E20002103F006FF012003F0A9FF202003F0A6FF03F06AFFBC
:4046C0001E20002103F0FAFE022003F09DFF002003F09AFF03F05EFF074804F0EFFA80BDC06E0020C46E00203C58002038580020C26E00203A5800205146000000000000BD
:40470000B0B582B000AF00233B7000237B700023BB700023FB7000233B7100237B711E20002103F0CBFE032003F06EFF03F032FF1E20012103F0C2FE012003F0B5FF0346B7
:404740003B70012003F0B0FF03467B70012003F0ABFF0346BB70012003F0A6FF0346FB70012003F0A1FF03463B71002003F09CFF03467B7103F00EFF3B781B029AB27B785D
:4047800013439AB23E4B1A80BB781B029AB2FB7813439AB23B4B1A803B791B029AB27B7913439AB2384B1A80374B1B881BB21E3B184606F0EFFA04460D46314B1B881BB282
:4047C0002833184606F0E6FA02460B462046294605F0E6FE02460B461046194626A3D3E9002306F03DFB02460B46104619464FF00002264B06F082F902460B4614461D46F8
:40480000234B1B881BB2184606F0C4FA02460B462046294606F070F902460B461046194606F0B8FD03469AB21A4B1A80194B1B881BB2B3F5B47F09DD164B1B889BB2A3F5B0
:40484000B4739BB29AB2134B1A800DE0114B1B881BB2002B08DA0F4B1B889BB203F5B4739BB29AB20B4B1A800B4B00221A700837BD46B0BDAFF30080F8C1631ADCA54C40B2
:40488000C46E0020385800203C580020008066403A580020C26E0020C06E0020AFF3008080B500AF02F060FF322002F0FFFF80BD80B500AF1F2002F0F9FF322005F07CF92D
:4048C00080BD00BF80B500AF322002F0EFFF322005F072F980BD00BF80B500AF1B2002F0E5FF322005F068F980BD00BF80B483B000AF78607B68002B02DA7B685B4200E027
:404900007B6818460C37BD465DF8047B704700BF80B485B000AFF860B9607A60BA687B689A4202DD7B68DBB208E0BA68FB689A4202DAFB68DBB201E0BB68DBB218461437C4
:40494000BD465DF8047B704790B583B000AF00BF3B4B1B78DBB2002BFAD0FFF7D1FE394B1B889AB2384B1B889BB2D31A9BB2FB80B7F90630354A83FB02015A181112DA175C
:404980008A1A4FF4B47101FB02F29B1AFB80B7F906301846FFF7AAFF0346B42B0DDD2A4B1B889BB25B429AB2264B1B889BB2D31A9BB203F5B4739BB2FB80B7F906301846C2
:4049C000FFF794FF0246224B1B789A4230DDB7F90630002B15DA1F4B1B781C46B7F906301846FFF783FF03465A001B4B1B78204611461A46FFF78CFF0346184600F0E6F833
:404A000014E0144B1B781C46B7F906301846FFF76DFF03465A00104B1B78204611461A46FFF776FF0346184600F0E4F8012303E0032000F029F9002318460C37BD4690BDAC
:404A4000C06E0020E06E0020C26E0020B7600BB62081FF1F2181FF1F2281FF1F80B584B000AF78600B46FB707A6813469B0013445B007B6002F0E0FFF8600CE0032000F0DB
:404A800021F9FB780320194600F0E2F8FFF75CFF192005F091F802F0CFFF0346FA68D21A7B689A42EAD3032000F0EEF81037BD4680BD00BF80B584B000AF78600B46FB7057
:404AC0007A6813469B0013445B007B6002F0B4FFF8600CE0032000F013F9FB780320194600F0B6F8FFF730FF192005F065F802F0A3FF0346FA68D21A7B689A42EAD303203E
:404B000000F0C2F81037BD4680BD00BF80B582B000AF02460B46FA807B710CE0032000F0EFF87B790320194600F092F8FFF70CFF192005F041F800F001F90346FA889A42A1
:404B4000ECD8032000F0A0F80837BD4680BD00BF80B582B000AF0346FB80124B1B889AB2FB8813449BB29AB20E4B1A800D4B1B881BB20D4A83FB02015A181112DA178A1A32
:404B80004FF4B47101FB02F29B1A9AB2054B1A8000BFFFF7D9FE0346002BFAD10837BD4680BD00BFE06E0020B7600BB680B483B000AF0346FB80044BFA881A800C37BD46D8
:404BC0005DF8047B704700BFE06E002080B582B000AF7860022000F075F8012000F090F87B68DBB20320194600F032F80837BD4680BD00BF80B582B000AF7860012000F0AE
:404C000061F8022000F07CF87B68DBB20320194600F01EF80837BD4680BD00BF80B500AF02F02AFF002002F0E9FF002003F004F8002002F0C3FF03F01DF8002003F0DCF894
:404C4000002003F0F3F8002003F0B6F880BD00BF80B582B000AF02460B46FA71BB71FB7903F00203002B03D0BB79184603F0A4F8FB7903F00103002B03D0BB79184602F0BB
:404C80009DFF0837BD4680BD80B582B000AF0346FB71FB7903F00103002B05D0002002F0ADFF002002F0C8FFFB7903F00203002B05D0002003F0A0F8002003F0B7F80837F4
:404CC000BD4680BD80B582B000AF0346FB71FB7903F00103002B05D0012002F08FFF002002F0AAFFFB7903F00203002B05D0012003F082F8002003F099F80837BD4680BDC5
:404D000080B582B000AF0346FB71FB7903F00103002B05D0002002F071FF012002F08CFFFB7903F00203002B05D0002003F064F8012003F07BF80837BD4680BD80B400AF59
:404D4000034B1B889BB21846BD465DF8047B7047EC6E002080B483B000AF78607B68002B02DA7B685B4200E07B6818460C37BD465DF8047B704700BF80B582B000AF03F07D
:404D800057FE0346C3F543435033184605F0F2FF02460B46104619464FF00002354B06F089F902460B461046194606F01BFB03469AB2314B1A80314B1A682F4B1B8899B25E
:404DC0002F4B23F812102D4B1B68591C2D4B83FB01239A10CB17D21A13469B0013445B00CA1A264B1A6000237B600EE0244B7A6833F812309AB2204B1B889BB213449AB291
:404E00001D4B1A807B6801337B607B68092BEDDD194B1B889AB21C4BA3FB0213DB089AB2154B1A80194B00221A8000237B6018E0114B1B889BB21A46114B796833F811309C
:404E40009BB2D31A1846FFF785FF03469AB20F4B1B889BB213449AB20C4B1A807B6801337B607B68092BE3DD03F04EFE0837BD4680BD00BF00004D40EC6E0020CC81FF1FF5
:404E8000F06E002067666666CDCCCCCCD081FF1F80B500AF064B00221A60064B00221A8003F06EFD03F05AFC034803F0DFFD80BDCC81FF1FEC6E0020794D000080B582B04D
:404EC00000AF03F081FF4FF6FF7003F0CBFF04F00DFF4FF4AF7004F06FFE04F021FF03F0D1FF03461A4649F26F439A428CBF00230123DBB2FB7103F077FF4FF4967004F0E2
:404F00005BFEFB7918460837BD4680BD80B582B000AF05F089F80346C3F57F43FF33234A82FB03025211DB17D31A9AB2204B1A80204B1A681E4B1B8899B21F4B23F81210D9
:404F40001C4B1B68591C1D4B83FB0102CB17D21A13465B001344CA1A164B1A60184B00221A8000237B6013E0134B7A6833F812309AB2134B1B889BB29A4206D90E4B7A6804
:404F800033F812309AB20E4B1A807B6801337B607B68022BE8DD0A4B1B889AB2044B1A8005F094F90837BD4680BD00BF1F85EB51046F0020086F0020106F00205655555593
:404FC0000C6F002080B400AF034B1B889BB21846BD465DF8047B7047046F002080B500AF05F090F90346002B02D0002005F07AF980BD00BF80B500AF05F084F90346002B80
:4050000002D1FF2005F06EF980BD00BF80B500AF05F028F804F0B0FF014805F009F980BD0D4F000080B400AF034B1B889BB21846BD465DF8047B7047186F002080B483B096
:4050400000AF78607B68002B02DA7B685B4200E07B6818460C37BD465DF8047B704700BF80B582B000AF05F037FA0346C3F543435033184605F07EFE02460B46104619462B
:405080004FF00002354B06F015F802460B461046194606F0A7F903469AB2314B1A80314B1A682F4B1B8899B22F4B23F812102D4B1B68591C2D4B83FB01239A10CB17D21A7E
:4050C00013469B0013445B00CA1A264B1A6000237B600EE0244B7A6833F812309AB2204B1B889BB213449AB21D4B1A807B6801337B607B68092BEDDD194B1B889AB21C4BB8
:40510000A3FB0213DB089AB2154B1A80194B00221A8000237B6018E0114B1B889BB21A46114B796833F811309BB2D31A1846FFF785FF03469AB20F4B1B889BB213449AB294
:405140000C4B1A807B6801337B607B68092BE3DD05F032F90837BD4680BD00BF00004D40186F0020D481FF1F1C6F002067666666CDCCCCCCD881FF1F80B500AF064B00222D
:405180001A60064B00221A8005F04EF904F0E2FD034805F0C3F880BDD481FF1F186F00206150000080B400AFFEE700BF80B584B000AF78600F4B1A687B6813441A460E4B10
:4051C000D31A002B09DC0B4B1B68FB60094B1A687B681A44074B1A6007E006F0F7FB03460C221A604FF0FF33FB60FB6818461037BD4680BD2481FF1F2870002080B586B0E1
:4052000000AF224B7B61224B3B61204B7B6135E03B691B68FB603B695B68BB603B699B683B6000237B600CE0FB681A68BB681A60BB680433BB60FB680433FB607B680433DB
:405240007B607A683B689A42EED13B69DB683B6000237B6008E0BB6800221A60BB680433BB607B6804337B607A683B689A42F2D13B6910333B617B69013B7B617B69002BF0
:40528000C6D106F0A9FBFDF789FAFEE70100000024DD000080B582B000AF184B184A1A60184B184A126842F400721A6000237B600FE07B68032B04D8134B7A6853F82230F2
:4052C00000E0124B124A796842F821307B6801337B607B682F2BECD90E4B1B78DAB20E4B1A700E4B0A4A1A6000F068F904F04CFA0B4B00221A600837BD4680BD0CED00E05E
:405300000004FA0514ED00E000270000A55100000080FF1FBC7600400481FF1F08ED00E00081FF1F80B582B000AF78603960786800213A6806F07FFB0837BD4680BD00BF6D
:4053400080B584B000AFF860B9607A60F868B9687A6806F067FB1037BD4680BD80B584B000AFF860B9607A60F868B9687A6806F059FB1037BD4680BD80B483B000AF034692
:40538000FB71FEE780B487B000AF7860396000233B6100237B6126E07B699B007A6813441B68BB60BB68FB73BB6823F0FF03BB6013E03B695B003A6813441B781A46BB6812
:4053C00013443A69520039680A4452781A703B6901333B61FB7B013BFB73FB7B002BE8D17B6901337B617B692A2BD5D91C37BD465DF8047B704700BF80B582B000AF434B11
:4054000000221A80424B19221A70424B01221A80414B19221A70414B09221A80404B18221A70404B41221A803F4B18221A703F4B40F271621A803E4B18221A703D4B4FF40C
:40544000D9621A803C4B18221A703C4B41F6C7121A803B4B18221A703A4B06221A703A4B52221A70394B3A4A1278D2B21A70394B40F621321A80384B41F251221A800023AA
:40548000FB7019237B6014E0FB785B00DAB2334B1B78DBB203F00103DBB21343DBB203F00303FB704FF4F07004F05AF97B68013B7B607B68002B02D0FB78032BE4D17B68B6
:4054C000002B02D10320FFF757FF254B4FF480721A80234B07221A70224B00221A70224B48221A701E4B00221A70204B00221A701F4B02221A701F4B1E4A1278D2B242F00F
:405500007F02D2B21A700837BD4680BD80400040824000408440004086400040884000408A4000408C4000408E4000409040004092400040944000409640004098400040C1
:405540009A4000400043004000420040A14600400F0100492242004020420040254200400440004006400040084000400940004001400040A243004080B483B000AF0B4B72
:405580001B78FB710A4BFA7902F00702D2B21A70084BFA791209D2B21A70074B44221A700C37BD465DF8047B704700BFCF0100496E5800406F5800407658004080B586B0BB
:4055C00000AF72B65A4B61221A70FFF715FF584B01221A700023FB7513E0FA7D13465B0013445B00534A13443B613B691A683B699B889BB210461946FFF794FEFB7D0133B2
:40560000FB75FB7D062BE8D90023FB751CE0FA7D13469B0013445B00474A1344FB60FB681B68BB60FB685B687B60FB681A7A5B7A1B0213437B807B88B86879681A46FFF70B
:405640008DFEFB7D0133FB75FB7D012BDFD93B483B49FFF797FE3B480421FFF763FE3A4B394A1278D2B242F00202D2B21A70374B364A1278D2B242F00202D2B21A70344B69
:40568000334A1278D2B242F04002D2B21A70314B304A1278D2B242F01002D2B21A702E482E490822FFF75AFE2D482E490822FFF755FE2D482D490A22FFF750FE2C482D497E
:4056C0000A22FFF74BFE2C482C490A22FFF746FE2B482C490A22FFF741FE2B482B490822FFF73CFE2A482B490822FFF737FE2A482A490822FFF732FE294B44221A70294B1E
:405700004B221A70284B84221A70284B274A1278D2B242F00802D2B21A70FFF72DFF24480B490E22FFF70CFE1837BD4680BD00BF00480040A8C70000D4C70000E8C70000F2
:4057400094C80000007600400350014013500140A0430040C243004002510040BCD90000C2510040C4D90000F0510040CCD9000010510040D8D9000020510040E4D9000079
:4057800030510040F0D9000042510040FCD900005251004004DA0000625100400CDA0000DB0801405B160140DB18014022430040B043004080B582B000AF02460B46FA7121
:4057C000BB7100BF3020002103F03EFE0346002BF8D1FB79184603F0BFFEBB79184603F0BBFE03F08DFE0837BD4680BD80B500AF00BF03F095FB0346002BFAD100BF03F00D
:405800008FFB0346002BFAD080BD00BF90B583B000AF042003F094FB042003F0ADFB03F029FC12208021FFF7C5FF012004F0C4F90023FB800FE0FA88394B13F81220FB884E
:4058400037495B000B445B7810461946FFF7B2FFFB880133FB80FA88314B13F81230FF2BE9D10023FB800CE0FB882E4AD25CFB882D49CB5C10461946FFF79CFFFB8801339E
:40588000FB80FB88274AD35CFF2BEDD1274B3B60012001214FF4804241F6FF7303F010FB03461A46224B1A700023FB802BE0FC8804F0E2F803461A461E4B1A55FB881D4A60
:4058C000D25CFB884FF4466101FB03F339680B449BB2104646F24E411A4604F033F9FB88002B0DD0FB88013B124AD25CFB881149CB5C10464FF446611A46022304F0EAF8CE
:40590000FB880133FB80FB880F2BD0D9084B1B781846002103F0DEFF0C37BD4690BD00BF40DA0000ACDA0000ECDA00004082FF1FDC81FF1FE081FF1F80B500AF0D4B1B7839
:405940000C4B1B780B4B1B780A4B1B780A4B1B78184603F08DFF084B1A78084B1B781046194604F023F8044B1B781846012103F039FF80BD4E640040DC81FF1FE081FF1F62
:4059800080B500AF054BDB7B18464FF44661FE22022304F09FF8FFF7CFFF80BDE081FF1F80B582B000AF02460B46FA71BB71094B1B78002B04D100F00FF8064B01221A70A3
:4059C000FA79BB791046194600F0CCF80837BD4680BD00BFF081FF1F80B582B000AF03F0C9FE0346FB714F4B4E4A1278D2B242F00102D2B21A704C4B4B4A1278D2B242F056
:405A00000102D2B21A70494B01221A70484B02221A70484B474A1278D2B202F07F02D2B21A70002004F0EAF8434B434A1278D2B222F00602D2B21A70404B404A1278D2B2B6
:405A400022F02002D2B21A703B4B3B4A1278D2B242F00102D2B21A70012004F0CFF8282004F0CCF8364B364A1278D2B202F07F02D2B21A70324B324A1278D2B222F04002C1
:405A8000D2B21A702C4B2C4A1278D2B242F00202D2B21A70022004F0B1F8274B264A1278D2B242F00402D2B21A70264B00221A70254B00221A70FB79184603F05FFE172012
:405AC000224904F0ADF81720072104F0D1F815201F4904F0A5F81520072104F0C9F818201C4904F09DF81820072104F0C1F80520194904F095F80520072104F0B9F80620F3
:405B0000164904F08DF80620072104F0B1F80720134904F085F80720072104F0A9F80837BD4680BDA5430040B54300409D600040096000401060004094430040126000408C
:405B4000F85100408460004085600040AD640000A1640000715D00009D630000F16300004564000080B582B000AF02460B46FA71BB71254B4FF400021A60234B4FF080725E
:405B80001A60214B20221A601F4B40221A601E4B80221A601D4B00221A70BB79002B02D0012B04D007E01A4B02221A7007E0184B03221A7003E0164B03221A7000BF154B2E
:405BC000FA791A70144B00221A70144B00221A70134B00221A70134B00221A70124B00221A70124B00221A70114B03221A70114B80221A70012003F0B3FD0F4B04221A700B
:405C00000837BD4680BD00BF00E100E0386F002009600040436F00204C6F0020396F0020466F0020446F0020616F00203A6F002028600040086000401260004080B400AF1A
:405C40000F4B00221A700F4B00221A700E4B00221A700E4B00221A700D4B00221A700D4B00221A700C4B00221A700C4B03221A700B4B80221A70BD465DF8047B704700BF2E
:405C8000386F00204C6F0020396F0020466F0020446F0020616F00203A6F0020286000400860004080B582B000AF0023FB71294B1B78DBB2DBB25BB2002B11DA264B1B78BC
:405CC000DBB2212B00D00AE0244B07221A80234B234A5A6000F0C8F90346FB7100BF34E01C4B1B78DBB2DBB25BB2002B2DDB1A4B1B78DBB2202B02D0222B13D025E0174B84
:405D000007221A80154B164A5A60164B1B78DBB243F00103DAB2134B1A7000F025FA0346FB7112E0104B1B78DBB21A460F4B1A800C4B1B78DBB243F00203DAB2094B1A705C
:405D400000F0B2FA0346FB7100BFFB7918460837BD4680BD0060004001600040546F00202881FF1F336F002002600040306F002080B582B000AF374B1B78BB71BB7903F036
:405D80001003002B63D00123FB71BB795BB2002B13DABB7903F00F03012B02D00023FB711DE000F061F82C4B1B78DBB2DBB25BB2002B14DA0023FB7111E0BB7903F0400349
:405DC000002B02D000F094F809E0BB7903F02003002B02D000F0B2F801E00023FB71FB79002B34D01B4B1B78BB71BB795BB2002B2DDB1A4B1B78DAB2194B1B78DBB2134356
:405E0000BB71184BBA791A70164B1B78DBB2BA799A421CD1104B1B78FB710E4B1B78DBB223F07F03BB71BB79002B0AD1094B0A4A1278D2B21A70074B1B78DBB203F00F0314
:405E4000FB71054B1B78DBB2FA799A42E2D10837BD4680BD28600040426F0020456F0020606F00202960004080B582B000AF1D4B1B78FB711B4BFA791A701A4B1B78FB715C
:405E8000FB795BB2002B03DA174BFA791A7025E0022000F049FA154B1B78DBB203F06003202B08D0402B0BD0002B0ED100F004FB0346FB710CE004F02DFB0346FB7107E00F
:405EC00001F0DEFA0346FB7102E00023FB7100BFFB79002B02D1044B03221A700837BD4680BD00BF28600040426F00200060004080B500AF104B1B78DBB2062B19D801A2E9
:405F000052F823F0335F0000335F0000215F0000335F0000275F0000335F00002D5F000000F0FCF806E000F0AFF903E000F0D8F900E000BF80BD00BF386F002080B500AFDE
:405F4000124B1B78DBB2062B1DD801A252F823F0875F0000875F00006D5F0000875F0000735F0000875F0000795F000000F0DCF80AE000F02DF907E0032000F0D5F9044B95
:405F800003221A7000E000BF80BD00BF386F0020426F002080B483B000AF0023FB712B4B1B78DBB21A462A4B1B889BB213449AB2274B1A8018E0FB7903F1804303F5C04332
:405FC000244A52681278D2B21A70224B5B685A1C204B5A60FB790133FB711E4B1B889BB2013B9AB21B4B1A801A4B1B889BB2002B02D0FB79072BDED9144B1B78DBB2082BC0
:4060000002D0FB79002B0FD0134B1B78DBB283F07F03DB43DAB2104B1A70104B0F221A700F4B02221A7005E00C4B02221A700C4B02221A70054BFA791A700A4BFA791A7062
:406040000C37BD465DF8047B704700BF3A6F00204A6F0020546F0020456F0020426F0020386F0020606F002080B582B000AF154B1B889BB2002B02D100F02EF81DE0124BDC
:4060800002221A70114B00221A7000F06DF9104B1B78DBB21B029AB20E4B1B78DBB213439BB2FB80074B1B889BB2FA889A4202D2044BFA881A80FFF76DFF01231846083757
:4060C000BD4680BD546F0020386F0020456F0020076000400660004080B400AF0A4B02221A700A4B80221A70094B0F221A70094B00221A70084B00221A7001231846BD469B
:406100005DF8047B704700BF386F0020456F0020426F00203A6F0020606F002080B500AFFFF738FF80BD00BF80B500AF0A4B1B78DBB21A46094B1B889BB213449AB2074BF2
:406140001A80074B00221A70012000F0EDF8054B03221A7080BD00BF3A6F00204A6F0020386F0020426F002080B582B000AF124B04221A70114B80221A7000F0F5F8104B79
:406180001B78DBB21B029AB20E4B1B78DBB213439BB2FB800C4B1B889BB2FA889A4202D2094BFA881A80094B0B221A70012318460837BD4680BD00BF386F0020456F002070
:4061C0000760004006600040546F0020426F002080B483B000AF0023BB71254B1B78DBB203F00F03DBB2023BFB71FB799AB2214B1B889BB213449AB21E4B1A801BE01E4B48
:406200005A68BB7903F1804303F5C0431B78DBB21370194B5B685A1C174B5A60BB790133BB71FB79013BFB71134B1B889BB2013B9AB2114B1A80104B1B889BB2002B02D096
:40624000FB79002BDBD10D4BFA791A700C4B1B78DBB283F07F03DB43DAB2094B1A70094B0B221A700C37BD465DF8047B704700BF296000404A6F0020546F0020606F00207B
:40628000456F0020426F002080B500AF044B00221A70012000F048F8024B03221A7080BD386F0020426F002080B400AF084B06221A70084B06221A70074B80221A70074B7B
:4062C00000221A7001231846BD465DF8047B7047386F0020426F0020456F0020606F002080B500AF0C4B1B78DBB2002B0AD00B4B094A1278D2B262F07F02D2B21A70064B3E
:4063000000221A70064B00221A70012000F00CF8044B03221A7080BD446F002008600040386F0020426F002080B483B000AF0346FB710B4B9B68002B0CD0094B9B68FA795C
:406340001A70074B9B68074A128892B25A80044B00229A600C37BD465DF8047B704700BF546F00204A6F002080B400AF094B00221A80094B9B68002B07D0074B9B680022BB
:406380001A70054B9B6800225A80BD465DF8047B704700BF4A6F0020546F002080B400AF104B1B78104B1B7BDBB203F00303012B08D00D4BDB7BDBB283F07F03DB43DAB2D5
:4063C000094BDA73084B01225A73084B074A1278D2B222F00102D2B21A70BD465DF8047B704700BF0E600040646F00200B60004080B400AF104B1B78104B1B7EDBB203F006
:406400000303012B08D00D4BDB7EDBB283F07F03DB43DAB2094BDA76084B01225A76084B074A1278D2B222F00202D2B21A70BD465DF8047B704700BF1E600040646F0020B7
:406440000B60004080B400AF124B1B78124B93F82430DBB203F00303012B0AD00E4B93F82730DBB283F07F03DB43DAB20A4B83F82720094B012283F82520084B074A1278F3
:40648000D2B222F00402D2B21A70BD465DF8047B704700BF2E600040646F00200B60004080B400AFBD465DF8047B704780B500AFFFF7C4FB80BD00BF80B586B000AF002336
:4064C000FB7500233B619D4B00221A809C4B1B78DBB2DBB25BB2002B80F20581994B1B78DBB20A2B00F2FD8001A252F823F000BF37660000E3660000E3660000E366000026
:40650000E3660000E36600001D650000E3660000AD660000E3660000C36600008A4B1B78DBB2012B0ED100F025FEB860BB685A68824B5A60814B12221A80FFF795FD034677
:40654000FB7577E0804B1B78DBB2022B23D17F4B1B78DBB2184600F0E3FDB860BB68002B68D0BB685A68754B5A60744B5B6803331B78DBB21B029AB2704B5B6802331B78AC
:40658000DBB213439BB29AB26C4B1A80FFF76CFD0346FB75A6E06C4B1B78DBB2032B44D10023FB736A4B3B6109E03B691B78FB71FB793A6913443B61FB7B0133FB73634B18
:4065C0001B78DBB2FA7B9A4204D23B691B78DBB2002BEAD15D4B1B78DBB2EE2B01D15D4B3B615A4B1B78DBB2002B0BD0574B1B78DAB2594B1B7C9A4204D1584800F0ACF906
:40660000564B3B613B691B78DBB2002B12D03B691B78DBB21A46494B1A80484B3A695A60FFF722FD0346FB755CE003F073FF0346FB7557E056E0424B1B78DBB203F00303CF
:40664000002B1FD0022B00D02FE03C4B02221A80434B1B78DBB203F07F02424913465B0013449B000B449B78DAB23F4B1A703E4B00225A70314B3C4A5A60FFF7F5FC0346F9
:40668000FB7512E02D4B02221A80384B1B78DAB2354B1A70344B00225A70284B324A5A60FFF7E2FC0346FB7500BF1BE0234B01221A80224B2E4A5A60FFF7D6FC0346FB75F0
:4066C00010E01E4B01221A80254B1B78DBB21A46284B1A44194B5A60FFF7C6FC0346FB7500E000BF1FE1174B1B78DBB2013B0A2B00F2188101A252F823F000BF0D680000E3
:40670000256900009968000025690000296700002569000025690000256900007D67000025690000D3670000084B1B78DAB2124B1A70FFF7B9FD0346FB75F4E0546F0020E1
:406740000060004001600040036000400260004050DB000048DC0000F8DA0000FC6F002004600040646F0020F481FF1F616F00204C6F0020406F0020446F00206C4B1B7806
:40678000BB71BB79002B06D0BB79013BDBB2184600F0C6FCB860BB79002B02D0BB68002B02D1BB79002B13D1624B1B78DBB2BA799A4208D05F4BBA791A705F4B01221A704C
:4067C000012000F0D1F9FFF76FFD0346FB75AAE0A9E000F019FE0346002B16D0574B1B787B71574B7A791A70534B01221A7000F05DFB7B797A7953498A5CD1B2524AD154AF
:40680000FFF752FD0346FB758DE08CE04F4B1B78DBB203F00303012B22D0012B0DD3022B00D038E0424B1B78DBB2002B04D100F049FD0346FB752EE02DE03D4B1B78DBB230
:40684000012B0CD1424B1B78DBB223F00203DAB23F4B1A70FFF728FD0346FB751BE01AE0364B1B78DBB2012B14D8344B1B78DBB21A463849CB5CD9B22D4B1B78DBB2DB4340
:40688000DBB20B40D9B2334B9954FFF70DFD0346FB75FFE700BF46E02C4B1B78DBB203F00303012B22D0012B0DD3022B00D038E01F4B1B78DBB2002B04D100F093FC034665
:4068C000FB752EE02DE01A4B1B78DBB2012B0CD11F4B1B78DBB243F00203DAB21C4B1A70FFF7E2FC0346FB751BE01AE0134B1B78DBB2012B14D8114B1B78DBB21A461549EE
:40690000CB5CD9B20A4B1B78DBB2DB43DBB20B40D9B2104B9954FFF7C7FC0346FB75FFE700BF00E000BFFB7D18461837BD4680BD026000404C6F0020466F00200460004056
:40694000396F0020406F0020506F002000600040616F0020486F002090B488B000AF78600023BB771F4B07F10C040FCB84E80F007B68002B32D07B6822221A707B68013343
:4069800003221A700223FB7725E0BB7F03F1924303F580731B787B77BB7F0133BB77FB7F7A6813447A7F1209D2B207F120010A4412F8142C1A70FB7F02337A6813447A7F12
:4069C00002F00F0207F120010A4412F8142C1A70FB7F0433FB77FB7F212BD6D92037BD4690BC70472CDA000080B483B000AF0123FB710023BB7197E0BB7903F1804303F50F
:406A0000C1430C221A70FA794E4913465B0013449B000B445B79DBB2002B18D0FA79494913465B0013449B000B441B79DBB2DBB25BB2002B05DABA79434B13440C221A7098
:406A40000AE0BA79404B134408221A7004E0BA793D4B134480221A70BA793C4B13441946FA79384813465B0013449B00034408331B889BB21B0A9BB2DBB20B70BA79344B9A
:406A800013441946FA792F4813465B0013449B00034408331B889BB2DBB20B70BA792D4B13441946FA79274813465B0013449B000344DB889BB2DBB20B70BA79264B134433
:406AC0001946FA791F4813465B0013449B000344DB889BB21B0A9BB2DBB20B70BA791F4B13441946FA79174813465B0013449B000344DB889BB2DBB20B70BA79184B13448F
:406B00001946FA790F4813465B0013449B000344DB889BB21B0A9BB2DBB20B70FB790133FB71BB791033BB71BB795BB2002BBFF663AF0C4BFF221A700C37BD465DF8047B0F
:406B4000704700BF646F00200E6000400C6000400D600040866000408760004084600040856000400A60004080B588B000AF0346FB7100237B830023FB7743E0FA7FA14958
:406B800013465B0013449B000B4400221A70FA7F9C4913465B0013449B000B4400229A70FA7F984913465B0013449B000B4400225A70FA7F934913465B0013449B000B4430
:406BC0000022DA70FA7F8F4913465B0013449B000B4400225A71FA7F8A4913465B0013449B000B44083300221A80FA7F854913465B0013449B000B44083300229A70FB7FA1
:406C00000133FB77FB7F082BB8D9FB79002B10D000237B770AE07B7F7B4A0021D1547B7F7A4A0021D1547B7F01337B777B7F012BF1D9774B1B78DBB2002B00F03081744B6C
:406C40001B78DBB2013BDBB2184600F069FA38613B695B68FB60FB6807331B7803F04003002B08D06B4B1B78DBB243F00103DAB2684B1A7007E0674B1B78DBB223F0010310
:406C8000DAB2644B1A703B6908333B613B691B78FB7701237B77AAE03B695B687B610023BB779CE07A7F7B699B7803F07F039A4240F08F807A7F534913465B0013449B007C
:406CC0000B4408331B889AB27B699B889A420BD27A7F7B6999884B4813465B0013449B00034408330A461A807B691B78464AD35CDAB27B695B789A426BD17B69DB7803F0FD
:406D00000303FB727B699B78DBB25BB2002B25DA7A7F3C4913465B0013449B000B4401225A70797FFB7A012B01D1072200E00D2234480B465B000B449B0003445A717B691A
:406D40009B790A2B03D07B699B79022B2BD1FB7A032B28D0304B7A7F1A7024E07A7F294913465B0013449B000B4400225A70797FFB7A012B01D1052200E0092221480B4696
:406D80005B000B449B0003445A717B699B790A2B03D07B699B79022B05D1FB7A032B02D01E4B7A7F1A707A7F7B699978154813465B0013449B0003440A461A717A7F7B6930
:406DC000D978104813465B0013449B0003440A461A707B6908337B61BB7F0133BB77BA7FFB7F9A42FFF45EAF7B7F01337B777B7F082B7FF651AF3B695B687B6100237B77DF
:406E000023E000BF646F0020406F0020506F00204C6F0020616F0020346F0020326F00207B699B7803F07F027B6919781D4813465B0013449B00034408330A469A707B69F5
:406E400008337B617B7F01337B777A7FFB7F9A42E6D300F0A1F90246134B1A600123FB7718E0FA7F0F4913465B0013449B000B447A8BDA80FA7F0B4913465B0013449B0003
:406E80000B4408331B889AB27B8B13447B83FB7F0133FB77FB7F082BE3D9FFF7A5FD2037BD4680BD646F00203C6F002080B584B000AF8F4B1B78DBB2002B00F015818C4BEE
:406EC0001B78DBB2013BDBB2184600F029F978607B6808337B607B681B78FB707B685B68BB600023FB73FAE0BB681B78814AD35CDAB2BB681B788049CB5CDBB29A4200F020
:406F0000E880BB681B787B4AD35CDAB2BB685B789A4240F0DE80BB681A78784B1B78DBB29A4240F0D680BB689B7803F07F03BB70BB78013BDBB21B017B70BB68DB7803F017
:406F400003033B70BB689B78DBB25BB2002B17DABA786B4913465B0013449B000B4401225A70B9783B78012B01D1072200E00D2263480B465B000B449B0003445A7116E049
:406F8000BA785F4913465B0013449B000B4400225A70B9783B78012B01D1052200E0092257480B465B000B449B0003445A717A78544B134401221A70BA78BB689988504818
:406FC00013465B0013449B00034408330A461A80BA78BB6899784A4813465B0013449B0003440A461A71BA78BB68D978444813465B0013449B0003440A461A70BA7840490B
:4070000013465B0013449B000B440022DA707A783D4B13441946BA78394813465B0013449B00034408331B889BB21B0A9BB2DBB20B707A78354B13441946BA78304813464F
:407040005B0013449B00034408331B889BB2DBB20B707A782E4B13441946BA78284813465B0013449B000344DB889BB2DBB20B707A78284B13441946BA78214813465B0077
:4070800013449B000344DB889BB21B0A9BB2DBB20B707A78204B13441946BA78184813465B0013449B000344DB889BB2DBB20B707A781A4B13441946BA78114813465B00D7
:4070C00013449B000344DB889BB21B0A9BB2DBB20B70BB680833BB60FB7B0133FB73FA7BFB789A42FFF400AF1037BD4680BD00BF4C6F0020406F0020506F002004600040C3
:40710000646F00200E6000400C6000400D6000408660004087600040846000408560004080B485B000AF0346FB71104B1B78DBB20F4ADB0013445B68FB60FB680833FB60D5
:40714000FB681B78FA799A4202D30023FB6005E0FB79DB00FA6813445B68FB60FB6818461437BD465DF8047B704700BF436F002040DC000080B400AF054B1B78DBB2054A83
:40718000DB0013445B681846BD465DF8047B7047436F002040DC000080B584B000AF104B1B78DBB2013BDBB21846FFF7B9FFB860BB68002B0DD0BB685B681B79FB71FB79FB
:4071C0000233DB00BA681344BB60BB685B68FB6001E00023FB60FB6818461037BD4680BD4C6F002080B582B000AF0023FB71324B1B78DBB203F07F03BB71BB79013BDBB248
:407200001B017B71BB79002B51D0BB79082B4ED8BA79B97929480B465B000B449B0003449B78DBB243F00103D9B2244813465B0013449B0003440A469A70BA791F4913467D
