:400000000080002011000000E9000000E900000008B5054B1A6803F53F5302331A6000F02BFA00F063F800BFFA46004010B5054C237833B9044B13B10448AFF30080012394
:40004000237010BD2881FF1F000000004022000008B5064B1BB106480649AFF300800648036813B1054B03B1984708BD00000000402200002C81FF1F0881FF1F0000000065
:4000800008B500F01DFD0A2000F018FE00F0C0FC0F4800F0ABFC62B60E4B0F4C1B7813F0010F10D00D4B00251D7000F07BFC0C4800F019FC0120294600F082FC094800F054
:4000C00012FC402300E08023237000F091FBFEE7AD0C000069640040FA4600407B6500404422000055220000FEE7000008B51249124B4A1C1AD053F8106C53F80C0C53F8B6
:40010000085C0022AA4200EB020403D0B45884500432F7E753F8040C0022824203D00025A5500432F9E710330139E2E702F04CF8FFF7A6FFFEE700BF00000000C0260000B0
:4001400008B5114A114B1A609A6842F400729A600023032B98BF0E4A4FEA830094BF52F823100C490C4A0133302B1150F1D10B4B19780B4B19700B4B1A6000F017F80A4B1A
:4001800000221A6008BD00BF0004FA050CED00E000000000E90000000080FF1FBC7600400481FF1F08ED00E00081FF1FF8B572B66A4B61221A70A3F5F0634FF4E1521A80A1
:4001C000192541F61F429D709A8003229D711A81634A182340F65401137051801371614B06221A705222A3F580731A705E4B00241A785E4BD2B21A7040F61802A3F27F4345
:400200001A8041F2512223F8022C594B4FF4F0701B7803F0010343EA440400F061FC013D04F003041BD0032CEFD1524B4FF480721A8007221A70504A0024482114709170C4
:4002400002221C705C7103F8032C93F89E2342F00F0283F89E23012283F8FC2700E0FEE7464B0021234418689A88063401F0DBFF2A2CF5D100231946414C00221859803454
:4002800020F0FF06C0B2450004EB4104AA4208D004EB020CA75C9CF801C0023207F806C0F4E70433802B0144E6D1364B364C1A7842F002021A701A7C42F002021A74334A47
:4002C000137843F040031370314B197841F010011970304B186859681D4603C455F80A0F1989B83424F8B81C696803C429891D4655F8140F21806968283403C429891D4611
:4003000055F81E0F21806968B83C03C429891D4655F8280F21806968083403C429891E48218053F8321FA4F6A854016059681B4B4160197841F008011970194B19491B7847
:40034000DBB203F007001B0908704B70164B442119700FCA07C42380F8BD00BF004800408A400040004300400F010049A146004025420040044000400640004068220000C5
:40038000942200000350014000510040A0430040C24300400C2500006251004022430040CF0100496E58004076580040004710B500232AB1013A4418A45C2344DBB2F8E790
:4003C000184610BD0138092842D8DFE800F0050B11171D232F29353B0902C1F57F3101F570713BE00902C1F57F3101F2C13138E00902C1F57F3101F2C5312AE00902C1F561
:400400007F3101F2C9312CE00902C1F57F3101F5747123E00902C1F57F3101F2D1311DE00902C1F57F3101F2D63112E00902C1F57F3101F2D2310CE00902C1F57F3101F54A
:40044000757106E00902C1F57F3101F5767108E000210B78487843EA002070470878C0B270470B784A788878000440EA02201843CB7840EA0360704710B50B4B1A7802F053
:40048000C002802A0ED100241C7002202146FFF799FF38B121460220FFF794FFBDE81040FFF784BF10BD00BFFA460040F8B5044621460320FFF786FF214607460420FFF72B
:4004C00081FF013700EB072721460320FFF77AFF0025013003022E46BB4209D213F8012B511EC9B2FD29154498BF0126EDB2F3E701202146FFF766FF6D42EDB2854204D127
:40050000002E14BF00200620F8BD0620F8BD000080B5ADF51A7D00F0F7FA10B1002000F0C3FB00F0F9FC62B600273D4604A84FF4967101AAFF2300F01FFD0028F6D1BDF8EC
:400540000420062A40F248819DF81030012B40F043819DF812309DF8134043EA042404F1070E04AB234496455E79197900F232819B79172B40F03081231D9BB233B10DF174
:400580000F02D25C013B104480B2F6E7404241EA062380B2834240F021819DF811309DF81460313B0A2B00F2E780DFE813F00B001B00E500E500E500E500800091003F0011
:4005C000A000D600002F00F00781002C40F004812046FFF76BFFD0F1010038BF00208DF81400B8E0002F00F0F780012C40F0F480032E00F2F1807A4B1B681B68C3F3074268
:40060000964202D1C3F3072303E08CBF00234FF480738DF814301B0A8DF815300024FF238DF816308DF817400421A7E0002F00F0D380022C40F2D080033C4FA828440DF195
:400640001701224601F0E6FDA6F1400325443F2BADB203D800F002FB102301E04FF480739D4240F084809DF816109DF815303F2E43EA01210ED85A4B01EB06221B6892B23E
:400680001B68C3F30F2013F0FF0F1CBF013080B282426ED32B464FAA304600F07DFA00280CBF00240A24002500F024FB65E0002F00F092802E19B6F5967F00F28B804FA84D
:4006C0002844224605A901F0A5FDB5B2002454E0002C40F08180434A02AB92E8030005AA83E8030082E803000127082146E0002F72D0032C70D19DF815309DF8168043EAFE
:400700000828A6F140033F2B07D837484FEA08111022FFF74CFE044619E008EB0621002009024FF48072FFF742FE032E04460ED1B8F1FF0F0BD100210520FFF743FE201A8C
:40074000C4B200210620FFF73DFE201AC4B264428DF814400024012110E00020FFF7A6FE10B9224B80221A7000F0A0FA34E0002530E000250A2400E00524002101238DF811
:40078000103000220B1DADF806108DF811408DF812108DF813209BB20DF10F00C05C013B02449BB292B2002BF6D1524205AB92B25A540DF11503120A5A540DF116031722DE
:4007C0005A54073104A889B20DF10602962300F0B2FBABE60324D0E70424CEE70824CCE70C81FF1F4825000000800040FA46004070B50020FFF75AFE144D00282B684FF05F
:4008000000001C68014622460CBF00260626FFF7CEFD6B681B78181A00F0FF00984200D114B9002000F040FA094B1A7802F0C002402A1A4600D01EB100231370FFF768FE59
:4008400080221A70BDE8704000F030BA0C81FF1FFA46004010B50B4C237803F09F032370237803F0F0032370237843F0100318432070012000F036FA237803F0EF032370DF
:4008800010BD00BF7864004010B50D4C237843F020032370237803F0BF032370237803F0F0032370237843F0100318432070012000F018FA237803F0EF03237010BD00BF69
:4008C0007864004010B504460009FFF7DDFF642000F008FA04F00F00FFF7D6FFBDE81040962000F0FFB938B505460078012428B1FFF7E8FF285D0134E4B2F8E738BD10B5E7
:4009000004460009FFF7A6FF642000F0EBF904F00F00FFF79FFFBDE8104040F6C41000F0E1B908B5282000F0C9F90320FFF792FF052000F0C3F90320FFF78CFF0F2000F05C
:40094000BDF90320FFF786FF012000F0B7F90220FFF780FF052000F0B1F90620FFF7CFFF0E20FFF7CCFF2C20FFF7C9FF0820FFF7C6FF0120FFF7C3FF0C20FFF7C0FF032069
:40098000FFF7BDFFBDE80840052000F097B9000008B50C20FFF7B3FF014B01221A7008BD4481FF1F10B5054C63781BB9FFF7B9FF01236370BDE81040FFF7EABF4481FF1F20
:4009C000032811D8DFE800F00205080B81F0800008E0A1F1400004E0A1F16C0001E0A1F12C00C0B2FFF78BBF70470000064A0423136002F688321268E0219064034A1170A4
:400A0000A2F202321360704780E100E002E400E0014B04221A60704780E200E01E4B1A78A3F65D3342F0020283F85D2B93F85F2B02F08F0242F0300283F85F2B93F8682B5C
:400A400002F0CF0283F8682B93F8682B42F0300283F8682B93F8682B02F0F00283F8682B93F8682B42F00F0283F8682B4FF6FF72A3F8612B0122A3F8632B002283F8602B45
:400A80001A7842F001021A7093F85E2B42F0010283F85E2B704700BF004F0040074B1A7842F001021A701A7C42F001021A7493F85D2B42F0010283F85D2B7047A34300406F
:400AC00010B5054C23781BB9FFF7A8FF01232370BDE81040FFF7E2BF4681FF1F000000000230800800F0058000BF013800467FF4FCAF7047EFF3108072B6704780F310880E
:400B0000704700BFAFF3008038B500F02DF900F0B5F9002838D100F0EBF9072804460FD11B4B1A78900703D4012000F0DBF8F7E71A78910704D51B789B0814BF072400249B
:400B400000F0BCF90CBB00F00FF900F097F9D8B9012000F079F9072805D04FF0FF3410E02B789B07F9D40B48022100F00FF90228074DF5D12B789A0703D4012000F0B2F87D
:400B8000F8E700F09BF900E00424204638BD00BF224700405481FF1F4128F8B505460E4617461C460AD8411F3A298CBF002101213F2804D8B6F5807F29D805E00121812EC9
:400BC00028BF0121102C22D10FB301BB00F056F9F8B92346284631463A4600F0F1F80728044611D11B4B1A781F4612F0020F03D1012000F077F8F5E71A78900702D51B781A
:400C00009B0808D04FF0FF3400F058F91FE001241DE004241BE0104B28461A7831465B7800F0F2F807280446EED13A78094B910703D4012000F056F8F7E71A789207E1D5F8
:400C40001B789B080CBF00246FF00004DCE72046F8BD00BF224700405481FF1F08B5FFF749FF0F4B1A780C3342F0080203F80C2C1A7942F008021A71C82283F855231A7855
:400C800042F010021A701A7C42F010021A74054B1B789B06FBD5BDE80840FFF72FBF00BFA04300400047004001BE7047024B1A7842F001021A707047F646004010B504461A
:400CC000B4F5004F064B05D91868FFF709FFA4F50044F5E758686043BDE81040FFF700BF1481FF1F024B1B7A5843FFF7F9BE00BF1481FF1F08B5FFF7FDFE00BF00BF00BF4F
:400D000000BF00BF00BF00BF00BF00BF00BF00BF00BF00BF00BF00BF00BF064B1A8892B242F004021A801B88BFF36F8FBDE80840FFF7E4BE00480040054B00F01F001B68B5
:400D400000F1100253F8220043F82210704700BF08ED00E000F01F0000F16040490100F56440C9B20170704708B5FFF7C3FE064B1A7842F008021A701A7C42F008021A74A8
:400D8000BDE80840FFF7BABEA043004070B506460D460024E3B2AB420CD2074B1B78DB0703D40120FFF79EFFF7E7044B1B7833550134EFE7284670BD2247004020470040DD
:400DC00030B50F490C78A40716D50E4CB6252570D5252570022525700D7805F0020505F0FF015DB9207088B2984203D2505C01312070F8E7072030BD042030BD092030BDFA
:400E0000224700402047004070B50D4D2C78A60712D50C4CB6262670D8262670052626702D78AD070AD42070080AC9B22070217022702370072070BD042070BD092070BDF7
:400E400022470040204700400A4A137899070CD5094BB6211970E12119700E2119701278920704D4187007207047042070470920704700BF224700402047004038B5FFF7BD
:400E800039FE0C4B197879B901250B4A1D7014682C400AD0146824F00104146000BF00BF00BF5D600C4600E00424FFF727FE204638BD00BF4881FF1F0400084010B5FFF797
:400EC00019FE094B002259681A70012908D107490C6844F001040C6000BF00BF00BF5A60BDE81040FFF70ABE4881FF1F04000840074B1B789B0708D5064BB6221A70E022B8
:400F00001A700D221A70072070470420704700BF224700402047004008B562B60020022100F04EF9014B01221A7008BD5081FF1F012000F0F1B9F8B507460E46154603EB58
:400F400083030220394640225C0000F0A7F9022000F086F930B92CB10120013CFFF7AEFEA4B2F4E7022000F07BF910B12E800020F8BD1020F8BD00002DE9F84303EB830300
:400F80005C00234B16461A7880460F469946AAB1254600F053F930B92DB10120013DFFF78DFEADB2F5E700F049F9A8B100F04CF9FFF7BEFF002389F800300DE000F044F93A
:400FC00050B100F03BF938B1FFF7B2FF04E054B1FFF774FE013CA4B2012000F041F901284FF00100F3D100F03BF901280AD14146402F34BF3A46402200F0A4F93080002090
:40100000BDE8F883002333801020BDE8F88300BF5081FF1FF8B5FFF76DFD394B01251A78022642F001021A701A7C364C42F001021A7403F5E75318331D7003F8946C13F8A1
:401040008D2C074602F07F0203F88D2C0020FFF749FE2378284603F0F90323702A4B1A7802F0DF021A7023782B432370FFF73AFE2820FFF737FE254B30461A7802F07F02CF
:401080001A701A7802F0BF021A70237833432370FFF728FE2378384643F0040323701C4B00241C705C70FFF729FD1A491720FFF743FE17200721FFF74DFE17491520FFF736
:4010C0003BFE15200721FFF745FE14491820FFF733FE18200721FFF73DFE20461049FFF72BFE20460721FFF735FE28460D49FFF723FE28460721BDE8F840FFF72BBE00BF53
:40110000A54300409443004012600040F8510040846000400B180000091800005D160000A1170000D5170000184B012210B51A70174B4FF400041C604FF080741C601A6093
:4011400002221A60134B00241C70134B01B103221A70124B124A187000231370114A01201370114A1370114A1370114A1370114A1370114B03221A70802203F8202CFFF7BC
:40118000AFFC0E4B04221A7010BD00BFE681FF1F00E100E05881FF1F096000406281FF1F6A81FF1F5981FF1F6581FF1F6381FF1F7981FF1F5A81FF1F286000401260004076
:4011C00070B5074C064623780D461BB9FFF722FF0123237030462946BDE87040FFF7A4BF5181FF1F0C4B01221A700C4A002313700B4A13700B4A13700B4A13700B4A1370B8
:401200000B4A13700B4A13700B4B03221A70802203F8202C704700BFE681FF1F5881FF1F6A81FF1F5981FF1F6581FF1F6381FF1F7981FF1F5A81FF1F28600040014B187862
:40124000704700BF6A81FF1F044B1A7802F0FF001AB118780022C0B21A7070476581FF1F024B0C2202FB0030407870477A81FF1F0138C3B2072B0CD8074A1B01DBB2985C07
:4012800001329B5C00F00F0043EA0020023880B270470020704700BF0C600040431EDBB2072BF0B52FD8184E0C2404FB0064E7881B01BFB2154DC7F50077DBB2BA421D4413
:4012C00003D9E288C2F5007292B20C2404FB0064E7780F4C47EA12271F55D7B201341F5549B90C2202FB0060002242704179094AC9B29954F0BD0024A7B29742F1D20F5DD6
:4013000001342F70F8E7F0BD7A81FF1F886000400C6000400E600040431EDBB2072B0BD8064A0C2101FB00200022427041791B01034ADBB2C9B29954704700BF7A81FF1F9B
:401340000E600040F8B5431EDBB2072B07460D46144616D8B9B11B010C4EDBB21E44FFF787FFA04228BF204684B200239AB2A24203D23278EA540133F8E73846FFF7CCFFF8
:4013800002E0002400E00C462046F8BD8860004030B51A4B1A481A8801780A4492B219491A80194BCAB21C88A4B284B1174A91420CD05A681278D2B201F8012B5A68013254
:4013C0005A601A88013A92B21A80EAE7082203780F4C082B0F4B00D042B10F490D7885F080050D700F212170022101E00221217019700A4B02701A7030BD00BF6881FF1FFD
:401400005A81FF1F006000406C81FF1F086000406181FF1F5881FF1F6481FF1F7881FF1F074B02221A70074B80221A70064B0F221A70064A00231370054A01201370704725
:401440005881FF1F6481FF1F6181FF1F5A81FF1F7881FF1F10B5154B1A78154B02F00F021988023AD2B2114489B219801149124B188880B278B172B1586811F8014B013A99
:40148000E4B204705868D2B2013058601888013880B21880EBE7094B1A70094B1A7882F080021A70074B0B221A7010BD296000406881FF1F006000406C81FF1F7881FF1FD6
:4014C0006481FF1F6181FF1F064A06231370064A01201370054B80221A70054B00221A70704700BF5881FF1F6181FF1F6481FF1F7881FF1F054B9A683AB19A6804491070EE
:401500009A680988518000229A6070476C81FF1F6881FF1F08B5124B1A78D2B21A701B78DBB21A0602D50F4A137008BD0220FFF7E1FF0D4B1B7803F06003202B05D0402B2C
:4015400006D043B900F0C4FC04E000F013FE01E000F004FE10B9034B03221A7008BD00BF286000406181FF1F0060004008B50849084B01201A8809780A4492B21A80064B5D
:4015800000221A70FFF7B6FF044B03221A7008BD5A81FF1F6881FF1F5881FF1F6181FF1F08B50C4B1B78DBB2042B07D0062B09D0022B0DD1BDE80840FFF7D8BFBDE8084064
:4015C000FFF748BF0320FFF795FF034B03221A7008BD00BF5881FF1F6181FF1F08B5054B002201201A70FFF785FF034B03221A7008BD00BF5881FF1F6181FF1F08B50A4BEB
:401600001A7832B11978094A41F08001117000221A70074B002201201A70FFF76BFF054B03221A7008BD00BF6381FF1F086000405881FF1F6181FF1F074B1B78DBB2042B2E
:4016400005D0062B05D0022B05D1FFF7A1BEFFF7C5BFFFF7D3BF70475881FF1F10B51D4C2378DBB2DA0633D518060AD503F00F03012B2DD1FFF74EFF174B1B78190609D5E8
:4016800010BD5A0602D5FFF7D7FF03E09B061FD5FFF786FF23781B061AD4104B104A1B78127813430F4A13701278934210D10A4B08491A782078D2B2000605D41A78D2B230
:4016C0000A700A7802F00F021B789A42EFD110BD10BD00BF286000406181FF1F6481FF1F7881FF1F29600040054A00231380054A916819B191680B7092685380704700BFEA
:401700006881FF1F6C81FF1F10B50F4C23889BB213B9FFF785FE14E00C4B02221A700C4B00221A70FFF7E0FF0A4B1A78013B1B7843EA0223228892B29A4288BF2380FFF7B7
:4017400027FE012010BD00BF6C81FF1F5881FF1F6481FF1F0760004008B50C4B04221A700B4B80221A70FFF7BFFF0A4B01201A78013B1B7843EA0222074B198889B29142C8
:4017800088BF1A80054B0B221A7008BD5881FF1F6481FF1F076000406C81FF1F6181FF1F094B1B78094B1A7B02F00302012A03D0DA7B82F08002DA7301225A73044B1A78A4
:4017C00002F0FE021A7070470E6000407A81FF1F0B600040094B1B78094B1A7E02F00302012A03D0DA7E82F08002DA7601225A76044B1A7802F0FD021A7070471E6000401C
:401800007A81FF1F0B6000407047FFF7EBBC000008B50C4B18780138C0B200F07BF90A4B0A491B78DBB200EBC3004269CB5C02EBC3035B685A6A064B1178C9B219805A60B3
:4018400008BD00BF6A81FF1F046000406081FF1F6C81FF1F08B50D4B18780138C0B200F059F90B4B0B491B78DBB200EBC3004269CB5C02EBC3035B68DB69597813F8022B8E
:4018800042EA0121044A1180536008BD6A81FF1F046000406081FF1F6C81FF1F10B5194C00232380184B18780138C0B200F032F9164B174A1B781278DBB2D2B200EBC20086
:4018C0004169EAB9134A127801EBC20251685A1E022A15D8104A03F10053013B127801EBC30011F83330D2B2934209D30C235A4341688B1858688A5A9B6860602280A360DF
:4019000010BD00BF6C81FF1F6A81FF1F03600040046000406081FF1F0260004010B53C4B3C4A1B781178DBB2090634D501321278013A052A6AD8DFE802F010182769690346
:40194000354B1A78212A02D1FFF762FF07E01B78222B5BD1FFF77EFF01E0FFF79FFF2F4B1B889BB2002B51D00AE0002B4ED12C4B1B78002B4AD1294B01221A80294A5A606D
:40198000BDE81040FFF7C0BE002B3FD1234B01221A80254AF3E71278120637D4234A1278D2B20A2A0DD00B2A27D0092A2ED1FFF775FF1A4B1B889BB243B3BDE81040FFF7D8
:4019C000CBBE1BBB164B1B7803F0FF01F3B9124B144A1B78DBB21370154B14781878844201D2197005E01978012902D91278D2B21A70BDE81040FFF767BD3BB9084B1A78FE
:401A0000012A03D81A78084BD2B2F1E7002010BD0460004000600040036000406C81FF1F02600040E781FF1FE681FF1F01600040E881FF1F7FB5144B02466D4603F1100613
:401A4000186859682C4603C40833B3422546F7D1BAB122231370032353700C4B13F8011B04ACC9B204EB111001F00F01214411F8101C10F8100C907002F8041F04498B42BE
:401A8000ECD104B070BD00BF50250000000100490801004930B51C4B01211C4A0C2000FB012483F87200657925B12479240658BF082000E0802018700C2000FB0122108906
:401AC0000131C0F3072003F8020C10890929C0B203F8010CD08803F11003C0B283F86800D088C0F3072083F86900D088C0B283F86600D288C2F3072283F86720CDD1044BF0
:401B0000FF221A7030BD00BF0E6000407A81FF1F0A600040074B1A78074B03EBC2035B6803F108021B7A834286BF02EBC0004068002070476281FF1F64250000F8B5394BAD
:401B40001A78002A6CD018780138C0B2FFF7E2FFC368047A083303EBC404A34260D013F8082C314931488D5C805C854256D0895C13F8070C884251D12D4909788A424DD1F8
:401B800013F8060C13F8056C00F07F02511E10F0800F28484FEA01114FF00C05C9B206F0030605FB020506D00127BE426F7014BF0D26072605E00027012E6F7014BF092665
:401BC00005266E711C4D01266E540C25554333F8046C4219168113F8066C167113F8056C46550020D07015891448C5F30725455415890130EDB24554D5887930EDB24554FC
:401C0000D5880130C5F307254554D5880338EDB24554D2880130C2F30722425408339CE7F8BD00BF6A81FF1F6081FF1F6B81FF1F046000407A81FF1F0E6000400C6000406F
:401C400008B5064B18780138C0B2FFF763FF20B143681B7900EBC300406908BD6A81FF1FF8B500210C254D434C4C0131002362190929635593705370D37053711381937247
:401C8000F0D118B1464A1370464A1370464B1A78002A00F0818018780138C0B2FFF73AFF4368017ADB79C90013F0400F3F4B1A7814BF42F0010202F0FE021A700122C36849
:401CC000083303EB010E73453DD013F8065C05F07F06B24235D10C2606FB0246B6F808C033F8047C1FFA8CFCBC4538BF378113F8086C2B4FBE5D13F8077CB74221D113F881
:401D0000056C15F0800F4FF00C0506F0030605FB024506D00127BE426F7014BF0D26072605E00027012E6F7014BF092605266E710C25554313F8067C6619377113F8056CD9
:401D400066550833BFE70132092AB8D1C36803F10802114408338B420AD013F8062C0C2502F07F0205FB024213F8080C9072F1E7FFF766FF0E4B0022186001230C2101FBBF
:401D80000341CA80098901330A44092B92B2F5D1BDE8F840FFF77EBEF8BD00BF7A81FF1F6081FF1F6B81FF1F6A81FF1F7981FF1F5C81FF1F114B197801F07F014A1ED2B238
:401DC000072A19D80E4B0C2000FB01339978120141F0010199700021D9705978D2B241F0020159701B7913F0800F064B14BF8D218921D154FFF768BB002070470460004096
:401E00007A81FF1F0E60004010B51A4B1B7803F07F035A1ED2B2072A29D817490C2000FB03139978120101F0FE0199700021D9701249D2B2545C04F07F045454597801F0E7
:401E4000FD01597019795B7811F0800F0C4905D0012B01D1505406E00D2303E0012B0CBF082309235354BDE81040FFF72DBB002010BD00BF046000407A81FF1F0C60004004
:401E80000E60004010B50D4B1C780D4BE4B218780138C0B2FFF73EFE43681B79A3420BD954B9084B084A19780120C9B21170074A1278D2B21A7010BD002010BD04600040B9
:401EC0006A81FF1F6081FF1F6B81FF1F0260004038B58D4C002323808C4B1A7812F0800F8B4A127800F08A800A2A00F20A81DFE812F05A00080108010801080108010B0043
:401F000008017A0008017E00824B1A78012A09D1814B1A78814B03EBC2035B685B686360122311E01A78022A13D17D4B1878FFF7F1FD002800F0E580436863606368DA7801
:401F400063689B7843EA02232380BDE83840FFF7DBBB1B78032B22D1724B00227049D0B20D78854202D80A783AB910E0187801320028F8D019780B44F0E7694A6A49127832
:401F8000097C914203D16948FFF754FD674B1A78002A00F0B6801A78D2B2228019E0BDE8384000F0E7B81A7812F0030213D0022A40F0A7805E4B22801B785E4A03F07F0312
:401FC0000C2101FB03239A785B4BD2B21A7000225A706360B9E702232380584B1978564BC9B21970F4E701232380554BF1E7012323804F4B534A1B781344EAE7013A0A2A9A
:402000007FD8DFE802F0367E527E067E7E7E0B7E2200434B1A784C4BD2B260E0404B1B7803F0FF0453B9464B1A78944265D01C70464B01201870FFF713FE5EE0601EC0B21D
:40204000FFF768FD0028EED15BE0FFF71BFF002857D0374B01221C783D4BE4B21C703B4B1A70FFF76BFD374B1A5D3A4BD2B21A5543E01B7803F00303012B32D00CD3022BD9
:402080003FD103F1804303F5C0431B78002B38D1BDE83840FFF7B8BE214B1B78012B30D1264B1A7802F0FD0219E01B7803F00303012B16D00BD3022B23D103F1804303F5A9
:4020C000C0431B78EBB9BDE83840FFF773BE144B1B78012B15D1194B1A7842F002021A700BE0134B1A7862B91B781B4A0C48DBB2D15C007821EA0001D154BDE83840FFF7F0
:40210000E3B9002038BD00BF6C81FF1F0060004001600040036000406281FF1F64250000026000402A260000782600003082FF1F046000407A81FF1F5281FF1F7981FF1F90
:402140006A81FF1F6081FF1F6381FF1F6581FF1F5981FF1F6B81FF1F6681FF1F034B00201B781B0644BF024B1B7870470060004001600040104B1B7803F00303012B0CD05E
:40218000022B0ED10D4B0E4A1B780C2103F07F0301FB032308339B7801E0084B1B78DBB200E00023074A1268D35C032B01D1FFF7B5BB0020704700BF00600040046000402D
:4021C0007A81FF1F5C81FF1F70B50E4B0E4D0024ED1AAD101E46AC4204D056F8242090470134F8E700F052FA084D094B0024ED1AAD101E46AC4204D056F8242090470134D6
:40220000F8E770BD9826000098260000A02600009826000010B50023934203D0CC5CC4540133F9E710BD02440346934202D003F8011BFAE770470000E0260000F100000005
:40224000000000004D6F6E61736820476C6F6D657269646100426F6F746C6F61646572205265616479000000004F00400C001051004030000000014000100014014000080A
:4022800000400140000A004C01400002005001402000000001450040024F0040095200400165004004000140010101400203014001050140040701400808014015090140EA
:4022C000040B0140030D01400215014004170140061901402E1A0140251B0140074001400B4101400E4201400C430140044401400345014001460140044701400D4801402D
:4023000005490140054C01400E4D014002500140015101407E0201200A4B008001C02003210129803110608061847C407B0138083E0458045F011B04AB04E202E609E20195
:40234000E602E804EE045B045F01AE01B401D804DB04DC08DF11100219101A0459506D806E086F8877067A08830487089F02A002A208A540A604A780AA0CC401D60CDE0492
:4023800083028780A002A5408540A002B002E201EC80E408E810EA02EE0A86109D40A208AE04E810EE0A0501070209020B0115022E01330336013920580459045C385F112C
:4023C00080048504860C870888088A048B088C028E019003940195089602970499019B029D019F02A408AD03B203B50CB60CB703B888B980BE04BF40D804D904DB04DC3344
:40240000DF01041505800E601002170819401C011F0420142580270C2E40330435803610370838143C146E407A088001858088028B0499809D40A218B180C0F0C230C42128
:40244000CA10CC72CE66DE04E402EC803381364057085F80CC70D440D6206008642087809F81A280A640A788AA80D8C0E240EE20108050046280800484209C289F01A2807E
:40248000A640A788C410D420D640E6901810814087089F01A640A788A888C610E280E640E820EE2008046080C208D8029C80B004EE019C8008080F409C80C20C21042610D3
:4024C000514086109180AE40AF81B410C860D420E410EA40EE5079808140B104DC80E2809880AC08AF40B480E8080C80608063027404840488808B019880C201D602D8024C
:40250000DE04E001E60110081C08003AC00000C0C000C00000008C00000C8C008C0000000800000808000800C00003000003030003000000200080802000A00000001010DF
:4025400000001000000000006980172E001E01013031323334353637383941424344454600000000010000006C2500000100000078260000010000007C2500000100000087
:402580004F260000020000009E25000001000000B0250000000000009C250000030000000103400003000000820340000300000001000000B825000000000000EC25000049
:4025C00000000000E0250000000000000000000001000000F8250000010000006126000041000000EA81FF1F5282FF1F410000005682FF1F2C82FF1F240005010900A1009D
:402600000900A1000900150025FF7508954091020900150025FF750895408102C0C000000A033000300030003100040309040A03500053006F004300160342006F006F00B5
:4026400074006C006F0061006400650072000009022900010102803209040000020300000209211101000122240007050103400001070582034000011201000200000008AE
:40268000B4041DB70130010280010000F8B500BFF8BC08BC9E4670475100000041010000F8B500BFF8BC08BC9E4670472D000000C02600000881FF1F2000000070010000FD
:4026C00000000000382200003C2200000000007D00FA0000400000000090D00300000000000000000000000000000000000000000000000000000000000000000000000008
:402700000080002011270000B12F0000B12F000080B500AF00F078FC10B5054C237833B9044B13B10448AFF300800123237010BDA081FF1F000000007490000008B5064BC6
:402740001BB106480649AFF300800648036813B1054B03B1984708BD0000000074900000A481FF1F0881FF1F000000000FB480B592B000AF01F0B0F80346002B15D007F1E8
:4027800054037B6007F10803184640213A6D7B6806F056FB00BF01F023FA0346002BFAD007F10803184601F0A5F94837BD46BDE8804004B0704700BF80B582B002AF01200F
:4027C00002F0E4FF62B602F019FE0020022100F001FF03F02BF800F087F800F0A9F800BF234B1B78DBB2002BFAD000F0EDF8214B1A88214B1A8000F0C9F900F0B5F900F02F
:40280000BBF900F055F8002000F042F800F076FA00F0B8FB00F00CFB00F086FA144B1B78DBB2002B22D000F0CFF8144B1B881AB2134B1B881BB2134811461A46FFF796FF67
:402840000C4B1B881AB20D4B1B881BB20C49098809B200910C480D4905F0D6FF0020002102F0DCFD084802F00FFED7E7D6E700BFA85E0020AA5E002022480020AC5E00208D
:402880002448002078900000FC81FF1F8090000080B582B000AF7860044A7B6813441B78184604F011F90837BD4680BD0C81FF1F80B500AF04F070F80020FFF7E9FF80BDCF
:4028C00080B500AF024B01221A7003F057FA80BD1848002080B500AF024B01221A7003F0A7FA80BD1948002080B500AF04F026FA064803F0F5F9064803F04CFA054B0022A9
:402900001A70054B00221A7080BD00BFC1280000D5280000194800201848002080B500AF024B01221A7004F055F980BDA85E002080B500AF1D4B00221A701D4B00221A808F
:402940001C4B00221A801C4B00221A801B4B00221A801B4B00221A8003F0D6FA1E20002103F0EAFC002003F08DFD702003F08AFD03F04EFD1E20002103F0DEFC012003F0AD
:4029800081FD202003F07EFD03F042FD1E20002103F0D2FC022003F075FD002003F072FD03F036FD074804F0C7F880BDA85E0020AC5E00202448002020480020AA5E00209F
:4029C000224800201D290000B0B582B000AF00233B7000237B700023BB700023FB7000233B7100237B711E20002103F0A5FC032003F048FD03F00CFD1E20012103F09CFCF6
:402A0000012003F08FFD03463B70012003F08AFD03467B70012003F085FD0346BB70012003F080FD0346FB70012003F07BFD03463B71002003F076FD03467B7103F0E8FCD1
:402A40003B781B029AB27B7813439AB23E4B1A80BB781B029AB2FB7813439AB23B4B1A803B791B029AB27B7913439AB2384B1A80374B1B881BB21E3B184605F03FFB0446BF
:402A80000D46314B1B881BB22833184605F036FB02460B462046294604F038FF02460B461046194626A3D3E9002305F08DFB02460B46104619464FF00002264B05F0D2F92C
:402AC00002460B4614461D46234B1B881BB2184605F014FB02460B462046294605F0C0F902460B461046194605F008FE03469AB21A4B1A80194B1B881BB2B3F5B47F09DDB2
:402B0000164B1B889BB2A3F5B4739BB29AB2134B1A800DE0114B1B881BB2002B08DA0F4B1B889BB203F5B4739BB29AB20B4B1A800B4B00221A700837BD46B0BDAFF3008069
:402B4000F8C1631ADCA54C40AC5E002020480020244800200080664022480020AA5E0020A85E0020AFF3008080B500AF02F04CFD322002F0EBFD80BD80B500AF322002F004
:402B8000E5FD322004F0EAF980BD00BF80B500AF02F0B0FE002002F06FFF002002F08AFF002002F049FF02F0A3FF002003F062F8002003F079F8002003F03CF880BD00BF4D
:402BC00080B483B000AF78607B68002B02DA7B685B4200E07B6818460C37BD465DF8047B704700BF80B582B000AF03F05DFE0346C3F543435033184605F070FA02460B4608
:402C0000104619464FF00002354B05F007FC02460B461046194605F099FD03469AB2314B1A80314B1A682F4B1B8899B22F4B23F812102D4B1B68591C2D4B83FB01239A1051
:402C4000CB17D21A13469B0013445B00CA1A264B1A6000237B600EE0244B7A6833F812309AB2204B1B889BB213449AB21D4B1A807B6801337B607B68092BEDDD194B1B8841
:402C80009AB21C4BA3FB0213DB089AB2154B1A80194B00221A8000237B6018E0114B1B889BB21A46114B796833F811309BB2D31A1846FFF785FF03469AB20F4B1B889BB229
:402CC00013449AB20C4B1A807B6801337B607B68092BE3DD03F054FE0837BD4680BD00BF00004D40B05E0020BC81FF1FB45E002067666666CDCCCCCCC081FF1F80B500AF9F
:402D0000064B00221A60064B00221A8003F074FD03F062FC034803F0E5FD80BDBC81FF1FB05E0020E52B000080B582B000AF03F089FF4FF6FF7003F0D3FF04F0A9F94FF40B
:402D4000AF7004F00BF904F0BDF903F0D9FF03461A4649F26F439A428CBF00230123DBB2FB7103F07FFF4FF4967004F0F7F8FB7918460837BD4680BD80B582B000AF04F0D2
:402D800025FB0346C3F57F43FF33234A82FB03025211DB17D31A9AB2204B1A80204B1A681E4B1B8899B21F4B23F812101C4B1B68591C1D4B83FB0102CB17D21A13465B00C7
:402DC0001344CA1A164B1A60184B00221A8000237B6013E0134B7A6833F812309AB2134B1B889BB29A4206D90E4B7A6833F812309AB20E4B1A807B6801337B607B68022BC2
:402E0000E8DD0A4B1B889AB2044B1A8004F030FC0837BD4680BD00BF1F85EB51C85E0020CC5E0020D45E002056555555D05E002080B500AF04F0E8FA04F070FA014804F088
:402E4000C9FB80BD792D000080B483B000AF78607B68002B02DA7B685B4200E07B6818460C37BD465DF8047B704700BF80B582B000AF04F0E7FC0346C3F54343503318464D
:402E800005F02CF902460B46104619464FF00002354B05F0C3FA02460B461046194605F055FC03469AB2314B1A80314B1A682F4B1B8899B22F4B23F812102D4B1B68591C6B
:402EC0002D4B83FB01239A10CB17D21A13469B0013445B00CA1A264B1A6000237B600EE0244B7A6833F812309AB2204B1B889BB213449AB21D4B1A807B6801337B607B6800
:402F0000092BEDDD194B1B889AB21C4BA3FB0213DB089AB2154B1A80194B00221A8000237B6018E0114B1B889BB21A46114B796833F811309BB2D31A1846FFF785FF034637
:402F40009AB20F4B1B889BB213449AB20C4B1A807B6801337B607B68092BE3DD04F0E2FB0837BD4680BD00BF00004D40DC5E0020C481FF1FE05E002067666666CDCCCCCCDD
:402F8000C881FF1F80B500AF064B00221A60064B00221A8004F0FEFB04F0AEF8034804F073FB80BDC481FF1FDC5E00206D2E000080B400AFFEE700BF80B584B000AF78608C
:402FC0000F4B1A687B6813441A460E4BD31A002B09DC0B4B1B68FB60094B1A687B681A44074B1A6007E005F0D1FB03460C221A604FF0FF33FB60FB6818461037BD4680BD41
:403000001481FF1FD05F002080B586B000AF224B7B61224B3B61204B7B6135E03B691B68FB603B695B68BB603B699B683B6000237B600CE0FB681A68BB681A60BB680433BA
:40304000BB60FB680433FB607B6804337B607A683B689A42EED13B69DB683B6000237B6008E0BB6800221A60BB680433BB607B6804337B607A683B689A42F2D13B6910338F
:403080003B617B69013B7B617B69002BC6D105F083FBFFF791FBFEE7010000009CA5000080B582B000AF184B184A1A60184B184A126842F400721A6000237B600FE07B6830
:4030C000032B04D8134B7A6853F8223000E0124B124A796842F821307B6801337B607B682F2BECD90E4B1B78DAB20E4B1A700E4B0A4A1A6000F068F903F0F6FE0B4B0022BE
:403100001A600837BD4680BD0CED00E00004FA0514ED00E000270000B12F00000080FF1FBC7600400481FF1F08ED00E00081FF1F80B582B000AF78603960786800213A6881
:4031400005F059FB0837BD4680BD00BF80B584B000AFF860B9607A60F868B9687A6805F041FB1037BD4680BD80B584B000AFF860B9607A60F868B9687A6805F033FB10371A
:40318000BD4680BD80B483B000AF0346FB71FEE780B487B000AF7860396000233B6100237B6126E07B699B007A6813441B68BB60BB68FB73BB6823F0FF03BB6013E03B69FF
:4031C0005B003A6813441B781A46BB6813443A69520039680A4452781A703B6901333B61FB7B013BFB73FB7B002BE8D17B6901337B617B692A2BD5D91C37BD465DF8047BE3
:40320000704700BF80B582B000AF434B00221A80424B19221A70424B01221A80414B19221A70414B09221A80404B18221A70404B41221A803F4B18221A703F4B40F27162C6
:403240001A803E4B18221A703D4B4FF4D9621A803C4B18221A703C4B41F6C7121A803B4B18221A703A4B06221A703A4B52221A70394B3A4A1278D2B21A70394B40F621329A
:403280001A80384B41F251221A800023FB7019237B6014E0FB785B00DAB2334B1B78DBB203F00103DBB21343DBB203F00303FB704FF4F07003F004FE7B68013B7B607B68E0
:4032C000002B02D0FB78032BE4D17B68002B02D10320FFF757FF254B4FF480721A80234B07221A70224B00221A70224B48221A701E4B00221A70204B00221A701F4B022297
:403300001A701F4B1E4A1278D2B242F07F02D2B21A700837BD4680BD80400040824000408440004086400040884000408A4000408C4000408E400040904000409240004089
:403340009440004096400040984000409A4000400043004000420040A14600400F0100492242004020420040254200400440004006400040084000400940004001400040E3
:40338000A243004080B483B000AF0B4B1B78FB710A4BFA7902F00702D2B21A70084BFA791209D2B21A70074B44221A700C37BD465DF8047B704700BFCF0100496E580040CC
:4033C0006F5800407658004080B586B000AF72B65D4B61221A70FFF715FF5B4B01221A700023FB7513E0FA7D13465B0013445B00564A13443B613B691A683B699B889BB234
:4034000010461946FFF794FEFB7D0133FB75FB7D072BE8D90023FB751CE0FA7D13469B0013445B004A4A1344FB60FB681B68BB60FB685B687B60FB681A7A5B7A1B02134395
:403440007B807B88B86879681A46FFF78DFEFB7D0133FB75FB7D022BDFD93E483E49FFF797FE3E480421FFF763FE3D4B3C4A1278D2B242F00202D2B21A703A4B394A127867
:40348000D2B242F00202D2B21A70374B364A1278D2B242F04002D2B21A70344B334A1278D2B242F01002D2B21A70314831490822FFF75AFE304831490A22FFF755FE30480C
:4034C00030490A22FFF750FE2F4830490A22FFF74BFE2F482F490A22FFF746FE2E482F490A22FFF741FE2E482E490822FFF73CFE2D482E490822FFF737FE2D482D49082247
:40350000FFF732FE2C4B48221A702C4B4A221A702B4B44221A702B4B48221A702A4B44221A702A4B294A1278D2B242F00802D2B21A70FFF727FF26480B490E22FFF706FE10
:403540001837BD4680BD00BF00480040B0900000E090000000910000AC910000007600400350014013500140A0430040C2430040025100406CA20000C051004074A2000099
:40358000F051004080A20000105100408CA200002051004098A2000030510040A4A2000042510040B0A2000052510040B8A2000062510040C0A200005B140140DB14014010
:4035C00058160140D8160140DB18014022430040B043004080B582B000AF02460B46FA71BB71094B1B78002B04D100F00FF8064B01221A70FA79BB791046194600F0CCF8AF
:403600000837BD4680BD00BFCC81FF1F80B582B000AF03F05FFC0346FB714F4B4E4A1278D2B242F00102D2B21A704C4B4B4A1278D2B242F00102D2B21A70494B01221A7087
:40364000484B02221A70484B474A1278D2B202F07F02D2B21A70002003F0A2FC434B434A1278D2B222F00602D2B21A70404B404A1278D2B222F02002D2B21A703B4B3B4AE4
:403680001278D2B242F00102D2B21A70012003F087FC282003F084FC364B364A1278D2B202F07F02D2B21A70324B324A1278D2B222F04002D2B21A702C4B2C4A1278D2B273
:4036C00042F00202D2B21A70022003F069FC274B264A1278D2B242F00402D2B21A70264B00221A70254B00221A70FB79184603F0F5FB1720224903F065FC1720072103F0A0
:4037000089FC15201F4903F05DFC1520072103F081FC18201C4903F055FC1820072103F079FC0520194903F04DFC0520072103F071FC0620164903F045FC0620072103F03B
:4037400069FC0720134903F03DFC0720072103F061FC0837BD4680BDA5430040B54300409D60004009600040106000409443004012600040F8510040846000408560004086
:403780004D43000041430000113C00003D42000091420000E542000080B582B000AF02460B46FA71BB71254B4FF400021A60234B4FF080721A60214B20221A601F4B4022AD
:4037C0001A601E4B80221A601D4B00221A70BB79002B02D0012B04D007E01A4B02221A7007E0184B03221A7003E0164B03221A7000BF154BFA791A70144B00221A70144B19
:4038000000221A70134B00221A70134B00221A70124B00221A70124B00221A70114B03221A70114B80221A70012003F049FB0F4B04221A700837BD4680BD00BF00E100E0C2
:40384000FC5E002009600040075F0020105F0020FD5E00200A5F0020085F0020255F0020FE5E002028600040086000401260004080B400AF0F4B00221A700F4B00221A7054
:403880000E4B00221A700E4B00221A700D4B00221A700D4B00221A700C4B00221A700C4B03221A700B4B80221A70BD465DF8047B704700BFFC5E0020105F0020FD5E00209A
:4038C0000A5F0020085F0020255F0020FE5E0020286000400860004080B400AF034B1B78DBB21846BD465DF8047B7047105F002090B484B000AF396013460246FA71BB8055
:40390000FB79002B69D0FB79082B66D8FB79013BDBB21B017B737A7B324B1344BB60B988FA79314813465B0013449B000344DB889BB2C3F5007399420BD9FA792A491346AC
:403940005B0013449B000B44DB889BB2C3F50073BB807A7B254B13441946BB881B0A9BB2D8B2FA79204C13465B0013449B002344DB78DBB20343DBB20B707A7B1C4B13446E
:40398000BA88D2B21A703B68002B0FD00023FB8108E0FB893A6813441A78BB681A70FB890133FB81FA89BB889A42F2D3FA790E4913465B0013449B000B4400225A707A7B8C
:4039C0000C4B13441946FA79074813465B0013449B0003445B79DBB20B701037BD4690BC704700BF88600040285F00200C6000400D6000400E60004080B582B000AF002314
:403A0000FB71294B1B78DBB2DBB25BB2002B11DA264B1B78DBB2212B00D00AE0244B07221A80234B234A5A6000F06EFA0346FB7100BF34E01C4B1B78DBB2DBB25BB2002B4C
:403A40002DDB1A4B1B78DBB2202B02D0222B13D025E0174B07221A80154B164A5A60164B1B78DBB243F00103DAB2134B1A7000F0CBFA0346FB7112E0104B1B78DBB21A4665
:403A80000F4B1A800C4B1B78DBB243F00203DAB2094B1A7000F058FB0346FB7100BFFB7918460837BD4680BD0060004001600040185F00201881FF1FF75E0020026000404B
:403AC000F45E002080B485B000AF78600023FB8102E0FB890133FB81FB897A6813441B78002BF6D1FB8918461437BD465DF8047B704700BF80B584B000AF78600023BB81A4
:403B00007868FFF7DFFF0346FB81334B1B78DBB21A46324913465B0013449B000B4408331B889BB2FA899A420DD92B4B1B78DBB21A462A4913465B0013449B000B44083395
:403B40001B889BB200E0FB897B81234B1B78D9B2BB897A681A447B89084611461A46FFF7C7FEFA897B89D31AFB81FB89002B0FD1194B1B78DBB21A46184913465B00134452
:403B80009B000B4408331B889BB27A899A421DD1BA897B891344BB8100BF0F4B1B78DBB21A460E4913465B0013449B000B445B78DBB2002BF1D0FB89002B07D1064B1B78AD
:403BC000DBB2184600210022FFF792FEFB89002B9BD11037BD4680BDF85E0020285F002080B400AF084B1B78DBB21A46074913465B0013449B000B445B78DBB21846BD4696
:403C00005DF8047B704700BFF85E0020285F002080B582B000AF374B1B78BB71BB7903F01003002B63D00123FB71BB795BB2002B13DABB7903F00F03012B02D00023FB717F
:403C40001DE000F061F82C4B1B78DBB2DBB25BB2002B14DA0023FB7111E0BB7903F04003002B02D000F094F809E0BB7903F02003002B02D000F0B2F801E00023FB71FB79A3
:403C8000002B34D01B4B1B78BB71BB795BB2002B2DDB1A4B1B78DAB2194B1B78DBB21343BB71184BBA791A70164B1B78DBB2BA799A421CD1104B1B78FB710E4B1B78DBB242
:403CC00023F07F03BB71BB79002B0AD1094B0A4A1278D2B21A70074B1B78DBB203F00F03FB71054B1B78DBB2FA799A42E2D10837BD4680BD28600040065F0020095F0020E0
:403D0000245F00202960004080B582B000AF1D4B1B78FB711B4BFA791A701A4B1B78FB71FB795BB2002B03DA174BFA791A7025E0022000F049FA154B1B78DBB203F06003BB
:403D4000202B08D0402B0BD0002B0ED100F004FB0346FB710CE003F093FD0346FB7107E001F0DEFA0346FB7102E00023FB7100BFFB79002B02D1044B03221A700837BD46C1
:403D800080BD00BF28600040065F00200060004080B500AF104B1B78DBB2062B19D801A252F823F0D33D0000D33D0000C13D0000D33D0000C73D0000D33D0000CD3D00004D
:403DC00000F0FCF806E000F0AFF903E000F0D8F900E000BF80BD00BFFC5E002080B500AF124B1B78DBB2062B1DD801A252F823F0273E0000273E00000D3E0000273E0000A7
:403E0000133E0000273E0000193E000000F0DCF80AE000F02DF907E0032000F0D5F9044B03221A7000E000BF80BD00BFFC5E0020065F002080B483B000AF0023FB712B4B36
:403E40001B78DBB21A462A4B1B889BB213449AB2274B1A8018E0FB7903F1804303F5C043244A52681278D2B21A70224B5B685A1C204B5A60FB790133FB711E4B1B889BB298
:403E8000013B9AB21B4B1A801A4B1B889BB2002B02D0FB79072BDED9144B1B78DBB2082B02D0FB79002B0FD0134B1B78DBB283F07F03DB43DAB2104B1A70104B0F221A70B1
:403EC0000F4B02221A7005E00C4B02221A700C4B02221A70054BFA791A700A4BFA791A700C37BD465DF8047B704700BFFE5E00200E5F0020185F0020095F0020065F0020EF
:403F0000FC5E0020245F002080B582B000AF154B1B889BB2002B02D100F02EF81DE0124B02221A70114B00221A7000F06DF9104B1B78DBB21B029AB20E4B1B78DBB21343D1
:403F40009BB2FB80074B1B889BB2FA889A4202D2044BFA881A80FFF76DFF012318460837BD4680BD185F0020FC5E0020095F0020076000400660004080B400AF0A4B0222F5
:403F80001A700A4B80221A70094B0F221A70094B00221A70084B00221A7001231846BD465DF8047B704700BFFC5E0020095F0020065F0020FE5E0020245F002080B500AF8F
:403FC000FFF738FF80BD00BF80B500AF0A4B1B78DBB21A46094B1B889BB213449AB2074B1A80074B00221A70012000F0EDF8054B03221A7080BD00BFFE5E00200E5F002014
:40400000FC5E0020065F002080B582B000AF124B04221A70114B80221A7000F0F5F8104B1B78DBB21B029AB20E4B1B78DBB213439BB2FB800C4B1B889BB2FA889A4202D205
:40404000094BFA881A80094B0B221A70012318460837BD4680BD00BFFC5E0020095F00200760004006600040185F0020065F002080B483B000AF0023BB71254B1B78DBB2A5
:4040800003F00F03DBB2023BFB71FB799AB2214B1B889BB213449AB21E4B1A801BE01E4B5A68BB7903F1804303F5C0431B78DBB21370194B5B685A1C174B5A60BB79013333
:4040C000BB71FB79013BFB71134B1B889BB2013B9AB2114B1A80104B1B889BB2002B02D0FB79002BDBD10D4BFA791A700C4B1B78DBB283F07F03DB43DAB2094B1A70094B7C
:404100000B221A700C37BD465DF8047B704700BF296000400E5F0020185F0020245F0020095F0020065F002080B500AF044B00221A70012000F048F8024B03221A7080BD32
:40414000FC5E0020065F002080B400AF084B06221A70084B06221A70074B80221A70074B00221A7001231846BD465DF8047B7047FC5E0020065F0020095F0020245F00209D
:4041800080B500AF0C4B1B78DBB2002B0AD00B4B094A1278D2B262F07F02D2B21A70064B00221A70064B00221A70012000F00CF8044B03221A7080BD085F0020086000408E
:4041C000FC5E0020065F002080B483B000AF0346FB710B4B9B68002B0CD0094B9B68FA791A70074B9B68074A128892B25A80044B00229A600C37BD465DF8047B704700BFE8
:40420000185F00200E5F002080B400AF094B00221A80094B9B68002B07D0074B9B6800221A70054B9B6800225A80BD465DF8047B704700BF0E5F0020185F002080B400AF6A
:40424000104B1B78104B1B7BDBB203F00303012B08D00D4BDB7BDBB283F07F03DB43DAB2094BDA73084B01225A73084B074A1278D2B222F00102D2B21A70BD465DF8047B6B
:40428000704700BF0E600040285F00200B60004080B400AF104B1B78104B1B7EDBB203F00303012B08D00D4BDB7EDBB283F07F03DB43DAB2094BDA76084B01225A76084B1F
:4042C000074A1278D2B222F00202D2B21A70BD465DF8047B704700BF1E600040285F00200B60004080B400AF124B1B78124B93F82430DBB203F00303012B0AD00E4B93F85F
:404300002730DBB283F07F03DB43DAB20A4B83F82720094B012283F82520084B074A1278D2B222F00402D2B21A70BD465DF8047B704700BF2E600040285F00200B60004067
:4043400080B400AFBD465DF8047B704780B500AFFFF78EFA80BD00BF80B586B000AF0023FB7500233B619D4B00221A809C4B1B78DBB2DBB25BB2002B80F20581994B1B7823
:40438000DBB20A2B00F2FD8001A252F823F000BFD74400008345000083450000834500008345000083450000BD430000834500004D45000083450000634500008A4B1B78D8
:4043C000DBB2012B0ED100F025FEB860BB685A68824B5A60814B12221A80FFF795FD0346FB7577E0804B1B78DBB2022B23D17F4B1B78DBB2184600F0E3FDB860BB68002BD2
:4044000068D0BB685A68754B5A60744B5B6803331B78DBB21B029AB2704B5B6802331B78DBB213439BB29AB26C4B1A80FFF76CFD0346FB75A6E06C4B1B78DBB2032B44D1D9
:404440000023FB736A4B3B6109E03B691B78FB71FB793A6913443B61FB7B0133FB73634B1B78DBB2FA7B9A4204D23B691B78DBB2002BEAD15D4B1B78DBB2EE2B01D15D4BB2
:404480003B615A4B1B78DBB2002B0BD0574B1B78DAB2594B1B7C9A4204D1584800F0ACF9564B3B613B691B78DBB2002B12D03B691B78DBB21A46494B1A80484B3A695A6063
:4044C000FFF722FD0346FB755CE003F0D9F90346FB7557E056E0424B1B78DBB203F00303002B1FD0022B00D02FE03C4B02221A80434B1B78DBB203F07F02424913465B0055
:4045000013449B000B449B78DAB23F4B1A703E4B00225A70314B3C4A5A60FFF7F5FC0346FB7512E02D4B02221A80384B1B78DAB2354B1A70344B00225A70284B324A5A60CE
:40454000FFF7E2FC0346FB7500BF1BE0234B01221A80224B2E4A5A60FFF7D6FC0346FB7510E01E4B01221A80254B1B78DBB21A46284B1A44194B5A60FFF7C6FC0346FB7543
:4045800000E000BF1FE1174B1B78DBB2013B0A2B00F2188101A252F823F000BFAD460000C547000039470000C5470000C9450000C5470000C5470000C54700001D460000FF
:4045C000C547000073460000084B1B78DAB2124B1A70FFF7B9FD0346FB75F4E0185F002000600040016000400360004002600040CCA30000C4A4000074A30000A85F002032
:4046000004600040285F0020D081FF1F255F0020105F0020045F0020085F00206C4B1B78BB71BB79002B06D0BB79013BDBB2184600F0C6FCB860BB79002B02D0BB68002B34
:4046400002D1BB79002B13D1624B1B78DBB2BA799A4208D05F4BBA791A705F4B01221A70012000F0D1F9FFF76FFD0346FB75AAE0A9E000F019FE0346002B16D0574B1B7813
:404680007B71574B7A791A70534B01221A7000F05DFB7B797A7953498A5CD1B2524AD154FFF752FD0346FB758DE08CE04F4B1B78DBB203F00303012B22D0012B0DD3022BCE
:4046C00000D038E0424B1B78DBB2002B04D100F049FD0346FB752EE02DE03D4B1B78DBB2012B0CD1424B1B78DBB223F00203DAB23F4B1A70FFF728FD0346FB751BE01AE03C
:40470000364B1B78DBB2012B14D8344B1B78DBB21A463849CB5CD9B22D4B1B78DBB2DB43DBB20B40D9B2334B9954FFF70DFD0346FB75FFE700BF46E02C4B1B78DBB203F0FC
:404740000303012B22D0012B0DD3022B00D038E01F4B1B78DBB2002B04D100F093FC0346FB752EE02DE01A4B1B78DBB2012B0CD11F4B1B78DBB243F00203DAB21C4B1A704A
:40478000FFF7E2FC0346FB751BE01AE0134B1B78DBB2012B14D8114B1B78DBB21A461549CB5CD9B20A4B1B78DBB2DB43DBB20B40D9B2104B9954FFF7C7FC0346FB75FFE75F
:4047C00000BF00E000BFFB7D18461837BD4680BD02600040105F00200A5F002004600040FD5E0020045F0020145F002000600040255F00200C5F002090B488B000AF786035
:404800000023BB771F4B07F10C040FCB84E80F007B68002B32D07B6822221A707B68013303221A700223FB7725E0BB7F03F1924303F580731B787B77BB7F0133BB77FB7FAC
:404840007A6813447A7F1209D2B207F120010A4412F8142C1A70FB7F02337A6813447A7F02F00F0207F120010A4412F8142C1A70FB7F0433FB77FB7F212BD6D92037BD461B
:4048800090BC704760A3000080B483B000AF0123FB710023BB7197E0BB7903F1804303F5C1430C221A70FA794E4913465B0013449B000B445B79DBB2002B18D0FA7949496F
:4048C00013465B0013449B000B441B79DBB2DBB25BB2002B05DABA79434B13440C221A700AE0BA79404B134408221A7004E0BA793D4B134480221A70BA793C4B13441946E9
:40490000FA79384813465B0013449B00034408331B889BB21B0A9BB2DBB20B70BA79344B13441946FA792F4813465B0013449B00034408331B889BB2DBB20B70BA792D4BD5
:4049400013441946FA79274813465B0013449B000344DB889BB2DBB20B70BA79264B13441946FA791F4813465B0013449B000344DB889BB21B0A9BB2DBB20B70BA791F4B12
:4049800013441946FA79174813465B0013449B000344DB889BB2DBB20B70BA79184B13441946FA790F4813465B0013449B000344DB889BB21B0A9BB2DBB20B70FB790133F5
:4049C000FB71BB791033BB71BB795BB2002BBFF663AF0C4BFF221A700C37BD465DF8047B704700BF285F00200E6000400C6000400D600040866000408760004084600040C4
:404A0000856000400A60004080B588B000AF0346FB7100237B830023FB7743E0FA7FA14913465B0013449B000B4400221A70FA7F9C4913465B0013449B000B4400229A707A
:404A4000FA7F984913465B0013449B000B4400225A70FA7F934913465B0013449B000B440022DA70FA7F8F4913465B0013449B000B4400225A71FA7F8A4913465B001344BB
:404A80009B000B44083300221A80FA7F854913465B0013449B000B44083300229A70FB7F0133FB77FB7F082BB8D9FB79002B10D000237B770AE07B7F7B4A0021D1547B7F97
:404AC0007A4A0021D1547B7F01337B777B7F012BF1D9774B1B78DBB2002B00F03081744B1B78DBB2013BDBB2184600F069FA38613B695B68FB60FB6807331B7803F04003D4
:404B0000002B08D06B4B1B78DBB243F00103DAB2684B1A7007E0674B1B78DBB223F00103DAB2644B1A703B6908333B613B691B78FB7701237B77AAE03B695B687B610023DD
:404B4000BB779CE07A7F7B699B7803F07F039A4240F08F807A7F534913465B0013449B000B4408331B889AB27B699B889A420BD27A7F7B6999884B4813465B0013449B005C
:404B8000034408330A461A807B691B78464AD35CDAB27B695B789A426BD17B69DB7803F00303FB727B699B78DBB25BB2002B25DA7A7F3C4913465B0013449B000B4401220A
:404BC0005A70797FFB7A012B01D1072200E00D2234480B465B000B449B0003445A717B699B790A2B03D07B699B79022B2BD1FB7A032B28D0304B7A7F1A7024E07A7F2949FB
:404C000013465B0013449B000B4400225A70797FFB7A012B01D1052200E0092221480B465B000B449B0003445A717B699B790A2B03D07B699B79022B05D1FB7A032B02D075
:404C40001E4B7A7F1A707A7F7B699978154813465B0013449B0003440A461A717A7F7B69D978104813465B0013449B0003440A461A707B6908337B61BB7F0133BB77BA7F14
:404C8000FB7F9A42FFF45EAF7B7F01337B777B7F082B7FF651AF3B695B687B6100237B7723E000BF285F0020045F0020145F0020105F0020255F0020F85E0020F65E0020E8
:404CC0007B699B7803F07F027B6919781D4813465B0013449B00034408330A469A707B6908337B617B7F01337B777A7FFB7F9A42E6D300F0A1F90246134B1A600123FB778A
:404D000018E0FA7F0F4913465B0013449B000B447A8BDA80FA7F0B4913465B0013449B000B4408331B889AB27B8B13447B83FB7F0133FB77FB7F082BE3D9FFF7A5FD203797
:404D4000BD4680BD285F0020005F002080B584B000AF8F4B1B78DBB2002B00F015818C4B1B78DBB2013BDBB2184600F029F978607B6808337B607B681B78FB707B685B6882
:404D8000BB600023FB73FAE0BB681B78814AD35CDAB2BB681B788049CB5CDBB29A4200F0E880BB681B787B4AD35CDAB2BB685B789A4240F0DE80BB681A78784B1B78DBB29C
:404DC0009A4240F0D680BB689B7803F07F03BB70BB78013BDBB21B017B70BB68DB7803F003033B70BB689B78DBB25BB2002B17DABA786B4913465B0013449B000B44012274
:404E00005A70B9783B78012B01D1072200E00D2263480B465B000B449B0003445A7116E0BA785F4913465B0013449B000B4400225A70B9783B78012B01D1052200E0092276
:404E400057480B465B000B449B0003445A717A78544B134401221A70BA78BB689988504813465B0013449B00034408330A461A80BA78BB6899784A4813465B0013449B0098
:404E800003440A461A71BA78BB68D978444813465B0013449B0003440A461A70BA78404913465B0013449B000B440022DA707A783D4B13441946BA78394813465B001344CD
:404EC0009B00034408331B889BB21B0A9BB2DBB20B707A78354B13441946BA78304813465B0013449B00034408331B889BB2DBB20B707A782E4B13441946BA78284813461D
:404F00005B0013449B000344DB889BB2DBB20B707A78284B13441946BA78214813465B0013449B000344DB889BB21B0A9BB2DBB20B707A78204B13441946BA78184813465A
:404F40005B0013449B000344DB889BB2DBB20B707A781A4B13441946BA78114813465B0013449B000344DB889BB21B0A9BB2DBB20B70BB680833BB60FB7B0133FB73FA7B30
:404F8000FB789A42FFF400AF1037BD4680BD00BF105F0020045F0020145F002004600040285F00200E6000400C6000400D600040866000408760004084600040856000402D
:404FC00080B485B000AF0346FB71104B1B78DBB20F4ADB0013445B68FB60FB680833FB60FB681B78FA799A4202D30023FB6005E0FB79DB00FA6813445B68FB60FB68184663
:405000001437BD465DF8047B704700BF075F0020BCA4000080B400AF054B1B78DBB2054ADB0013445B681846BD465DF8047B7047075F0020BCA4000080B584B000AF104B16
:405040001B78DBB2013BDBB21846FFF7B9FFB860BB68002B0DD0BB685B681B79FB71FB790233DB00BA681344BB60BB685B68FB6001E00023FB60FB6818461037BD4680BD12
:40508000105F002080B582B000AF0023FB71324B1B78DBB203F07F03BB71BB79013BDBB21B017B71BB79002B51D0BB79082B4ED8BA79B97929480B465B000B449B000344B9
:4050C0009B78DBB243F00103D9B2244813465B0013449B0003440A469A70BA791F4913465B0013449B000B440022DA70BA79B9791A480B465B000B449B0003445B78DBB29B
:4051000043F00203D9B2154813465B0013449B0003440A465A70BA79104913465B0013449B000B441B79DBB2DBB25BB2002B05DA7A790B4B13448D221A7004E07A79084BFF
:40514000134489221A70FEF7FFFF0346FB71FB7918460837BD4680BD04600040285F00200E60004080B582B000AF0023FB714A4B1B78DBB203F07F03BB71BB79013BDBB2B9
:405180001B017B71BB79002B00F08180BB79082B7DD8BA79B97941480B465B000B449B0003449B78DBB223F00103D9B23B4813465B0013449B0003440A469A70BA79374951
:4051C00013465B0013449B000B440022DA707A79334B13441A467979314B0B441B78DBB203F07F03DBB21370BA79B9792B480B465B000B449B0003445B78DBB223F0020397
:40520000D9B2264813465B0013449B0003440A465A70BA79214913465B0013449B000B441B79DBB2DBB25BB2002B16DABA791B4913465B0013449B000B445B78DBB2012BEE
:4052400005D17A79174B13440C221A701BE07A79144B13440D221A7015E0BA790F4913465B0013449B000B445B78DBB2012B05D17A790C4B134408221A7004E07A79094B40
:40528000134409221A70FEF75FFF0346FB71FB7918460837BD4680BD04600040285F00200C6000400E60004080B584B000AF0123FB73164B1B78BB73154B1B78DBB2013B5C
:4052C000DBB21846FFF77CFEB860BB685B681B79FB71BA7BFB799A4202D2BB7B012B02D90023FB730CE0BB7BBA7B0A498A5CD1B2094AD154BB7B094A1278D1B2054AD15499
:40530000FB7B18461037BD4680BD00BF04600040105F0020045F0020145F00200260004080B582B000AF0023FB710F4B1B78DBB2DBB25BB2002B12DA0C4B1B78DBB2012BF5
:4053400000D00CE00A4B0B4A5A600A4B1B781A46074B1A80FEF7D8FD0346FB7100BFFB7918460837BD4680BD0060004001600040185F0020D8A4000080B500AF282001F0D9
:40538000EDFD032000F010F9052001F0E7FD032000F00AF90F2001F0E1FD032000F004F9012001F0DBFD022000F0FEF8052001F0D5FD062000F0A2F80E2000F09FF82C203E
:4053C00000F09CF8082000F099F8012000F096F80C2000F093F8032000F090F8052001F0BDFD80BD80B500AF0C2000F087F8024B01221A7080BD00BFD481FF1F80B500AFC6
:40540000054B1B78002B04D1FFF7B6FF024B01221A70FFF7E7FF80BDD581FF1F80B582B000AF02460B46FA71BB71FB79032B27D801A252F823F000BF495400005754000069
:405440006554000073540000BB79803BDBB2184600F054F815E0BB79403BDBB2184600F04DF80EE0BB796C3BDBB2184600F046F807E0BB792C3BDBB2184600F03FF800E07C
:4054800000BF0837BD4680BD80B584B000AF78600123FB737B681B78BB730BE0BB7B184600F00EF8FB7B7A6813441B78BB73FB7B0133FB73BB7B002BF0D11037BD4680BDE2
:4054C00080B584B000AF0346FB71FB791B09FB73FB7B184600F030F8642001F061FDFB7903F00F03FB73FB7B184600F025F8962001F056FD1037BD4680BD00BF80B584B0A9
:4055000000AF0346FB71FB791B09FB73FB7B184600F04AF8642001F043FDFB7903F00F03FB73FB7B184600F03FF840F6C41001F037FD1037BD4680BD80B582B000AF03464F
:40554000FB71184B174A1278D2B242F02002D2B21A70144B134A1278D2B222F04002D2B21A70104B0F4A1278D2B222F00F02D2B21A700C4B0B4A1278D1B2FA790A43D2B26F
:4055800042F01002D2B21A70012001F009FD054B044A1278D2B222F01002D2B21A700837BD4680BD7664004080B582B000AF0346FB71144B134A1278D2B222F06002D2B27D
:4055C0001A70104B0F4A1278D2B222F00F02D2B21A700C4B0B4A1278D1B2FA790A43D2B242F01002D2B21A70012001F0D9FC054B044A1278D2B222F01002D2B21A700837DB
:40560000BD4680BD7664004080B500AF054B1B78002B04D100F008F8024B01221A7000F061F880BDD681FF1F80B582B000AF284B274A1278D2B242F00202D2B21A70254BA8
:405640001B78DBB223F07003FB71224BFA7942F01002D2B21A70204B1F4A1278D2B222F03002D2B21A701C4B1B4A1278D2B242F03002D2B21A70184B174A1278D2B222F082
:405680000F02D2B21A70144B134A1278D2B242F00F02D2B21A7040F21F3000F047F8122000F054F8002000F061F80C4B0B4A1278D2B242F00202D2B21A70094B084A1278FB
:4056C000D2B242F00102D2B21A700837BD4680BD0C4F00400E4F0040174F0040A34300400D4F004080B400AF0D4B0D4A1278D2B242F00202D2B21A700A4B0A4A1278D2B229
:4057000042F00202D2B21A70074B074A1278D2B242F00102D2B21A70BD465DF8047B7047A3430040B34300400C4F004080B483B000AF0346FB80044BFA881A800C37BD4621
:405740005DF8047B704700BF104F004080B483B000AF0346FB80044BFA881A800C37BD465DF8047B704700BF124F004080B483B000AF0346FB71044BFA791A700C37BD466D
:405780005DF8047B704700BF0F4F004080B485B000AF0346FB71094B1B78DBB203F07F03FB73064BFA79D201D1B2FA7B0A43D2B21A701437BD465DF8047B7047C0510040C9
:4057C00080B582B000AF6FF07F4000F05BF86FF07F4000F073F801F07DFB0346FB710A4B094A1278D2B242F01002D2B21A70FB79184601F073FB00F06FF8002000F026F8DD
:405800000837BD4680BD00BF9C64004080B400AF054B054A1278D2B262F07F02D2B21A70BD465DF8047B70477B64004080B500AF054B1B78002B04D1FFF7C2FF024B0122DE
:405840001A70FFF7E3FF80BDD781FF1F80B483B000AF0346FB71044BFA791A700C37BD465DF8047B704700BF8C64004080B400AF034B1B78DBB21846BD465DF8047B7047FF
:405880006C64004080B582B000AF78600348796801F0E2FB0837BD4680BD00BF2A64004080B400AF044B1B6823F07F431846BD465DF8047B704700BF4A64004080B582B05A
:4058C00000AF78600348796801F0C6FB0837BD4680BD00BF0A64004080B500AF01E0FFF7DFFFFFF7C3FF034603F00803002BF6D180BD00BF80B500AF054B1B78002B04D10A
:4059000000F008F8024B01221A7000F061F880BDD881FF1F80B582B000AF284B274A1278D2B242F00202D2B21A70254B1B78DBB223F07003FB71224BFA7942F01002D2B20A
:405940001A70204B1F4A1278D2B222F03002D2B21A701C4B1B4A1278D2B242F03002D2B21A70184B174A1278D2B222F00F02D2B21A70144B134A1278D2B242F00F02D2B289
:405980001A70FF2000F048F87F2000F055F8002000F062F80C4B0C4A1278D2B242F00402D2B21A70094B094A1278D2B242F00102D2B21A700837BD4680BD00BF184F0040EA
:4059C0001A4F0040234F0040A3430040194F004080B400AF0D4B0D4A1278D2B242F00402D2B21A700A4B0A4A1278D2B242F00402D2B21A70074B074A1278D2B242F00102B5
:405A0000D2B21A70BD465DF8047B7047A3430040B3430040184F004080B483B000AF0346FB71044BFA7992B21A800C37BD465DF8047B70471C4F004080B483B000AF034681
:405A4000FB71044BFA7992B21A800C37BD465DF8047B70471E4F004080B483B000AF0346FB71044BFA791A700C37BD465DF8047B704700BF1B4F004080B485B000AF0346EA
:405A8000FB710B4B1B78DBB223F02003FB73084BFA795201D2B202F02002D1B2FA7B0A43D2B21A701437BD465DF8047B704700BF6051004080B485B000AF0346FB710B4BB0
:405AC0001B78DBB223F04003FB73084BFA799201D2B202F04002D1B2FA7B0A43D2B21A701437BD465DF8047B704700BF6051004080B500AF054B1B78002B04D100F008F81E
:405B0000024B01221A7000F061F880BDD981FF1F80B582B000AF284B274A1278D2B242F00202D2B21A70254B1B78DBB223F07003FB71224BFA7942F01002D2B21A70204B02
:405B40001F4A1278D2B222F03002D2B21A701C4B1B4A1278D2B242F03002D2B21A70184B174A1278D2B222F00F02D2B21A70144B134A1278D2B242F00F02D2B21A70FF20D3
:405B800000F048F87F2000F055F8002000F062F80C4B0C4A1278D2B242F00802D2B21A70094B094A1278D2B242F00102D2B21A700837BD4680BD00BF244F0040264F0040CC
:405BC0002F4F0040A3430040254F004080B400AF0D4B0D4A1278D2B242F00802D2B21A700A4B0A4A1278D2B242F00802D2B21A70074B074A1278D2B242F00102D2B21A702E
:405C0000BD465DF8047B7047A3430040B3430040244F004080B483B000AF0346FB71044BFA7992B21A800C37BD465DF8047B7047284F004080B483B000AF0346FB71044BBA
:405C4000FA7992B21A800C37BD465DF8047B70472A4F004080B483B000AF0346FB71044BFA791A700C37BD465DF8047B704700BF274F004080B485B000AF0346FB71094BCB
:405C80001B78DBB203F07F03FB73064BFA79D201D1B2FA7B0A43D2B21A701437BD465DF8047B70476051004080B485B000AF0346FB710A4B1B78DBB223F00103FB73074B14
:405CC000FA7902F00102D1B2FA7B0A43D2B21A701437BD465DF8047B704700BF5051004080B582B000AF786000F03CF8786800F009F8072000F018F800F028F80837BD4614
:405D000080BD00BF80B485B000AF7860054B1B68FB60FB6860337A681A601437BD465DF8047B704708ED00E080B483B000AF0346FB71054BFA795201D2B21A700C37BD4614
:405D40005DF8047B704700BF08E400E080B400AF034B4FF480721A60BD465DF8047B704700E100E080B400AF034B4FF480721A60BD465DF8047B704780E100E080B400AF4C
:405D8000034B4FF480721A60BD465DF8047B704780E200E080B582B000AF786000F03CF8786800F009F8072000F018F800F028F80837BD4680BD00BF80B485B000AF7860CE
:405DC000054B1B68FB60FB6864337A681A601437BD465DF8047B704708ED00E080B483B000AF0346FB71054BFA795201D2B21A700C37BD465DF8047B704700BF09E400E025
:405E000080B400AF034B4FF400721A60BD465DF8047B704700E100E080B400AF034B4FF400721A60BD465DF8047B704780E100E080B400AF034B4FF400721A60BD465DF8CC
:405E4000047B704780E200E080B582B000AF1B4B00221A701A4B01221A7001F03BF80346FB71184B174A1278D2B242F01002D2B21A70FB79184601F031F8134B0F221A706E
:405E8000124B08221A70124B10221A600420072101F0C0F804200F4901F094F80E4B10221A700E4B00221A700D4B00221A700D4B00221A700837BD4680BD00BF7364004063
:405EC00083640040936400402D6400403D64004080E100E0355F0000945F00209A5F0020A25F0020985F002080B400AF054B054A1278D2B242F00202D2B21A70BD465DF82D
:405F0000047B70477364004080B500AF074B1B78002B04D1FFF798FF044B01221A70FFF7E3FF034B10221A6080BD00BFDA81FF1F00E100E080B582B000AFA64B1B78FB71B4
:405F4000A54B1B78DBB203F04003DBB2002B00F0CD81FB7903F00103002B00F0A5819E4B1B78DBB2453B052B00F29A8101A252F823F000BF8D5F0000D3600000A162000092
:405F8000A16200008D5F000009620000FB7923F02003FB71FB7903F00A03DBB2082B54D18D4B1B78DBB2452B42D18C4B1B78DBB2002B15D08A4B8B4A12681278D2B21A70DA
:405FC000894B06221A70894BFF221A70884B00221A70884B01221A707F4B46221A7077E0854B1B78DBB203F00203002B0ED0834B1B78DBB243F00A03DAB2804B1A70764BC9
:4060000060221A707E4B10221A6061E07D4B7D4A1278D2B242F02002D2B21A70724B52221A70724BFF221A70714B00221A704FE06D4B02221A706D4BFF221A706C4B002243
:406040001A70654B4A221A702EE1FB7903F00A03DBB20A2B38D1694B1B78DBB263F05F03DAB2664B1A70644B1B78DBB203F00203002B17D0584B1B78DBB203F00803002B8D
:4060800001D0092300E00A235C4A1278D2B21343DAB25A4B1A70504B60221A70584B10221A6015E0574B574A1278D2B242F02002D2B21A704C4B52221A704C4BFF221A709C
:4060C0004B4B00221A70EFE0002000F03BFFEBE0EAE0FB7903F00203002B4AD1454B1B78DAB23E4B1B78DBB29A421AD23C4B3D4A1168404A1278D2B20A441278D2B21A70D9
:40610000394B06221A70394BFF221A70384B00221A70384B1B78DBB20133DAB2354B1A7057E0354B1B78DBB203F00203002B0ED0324B1B78DBB243F00A03DAB22F4B1A7019
:40614000254B60221A702E4B10221A6041E02D4B2C4A1278D2B242F02002D2B21A70224B52221A70214BFF221A70214B00221A709AE0214B1B78DBB203F00203002B0ED05E
:406180001E4B1B78DBB263F06503DAB21B4B1A70114B60221A701A4B10221A6019E0194B184A1278D2B242F02002D2B21A700E4B52221A700D4BFF221A700D4B00221A7019
:4061C0000E4B1B78DBB263F06F03DAB20B4B1A706AE069E063640040945F0020995F00200F640040A45F0020736400401F6400405F640040985F0020A05F00209A5F00202E
:4062000080E100E0836400403F4B1A683F4B1B78DBB213443E4A1278D2B21A703B4B1B78DBB20133DAB2394B1A70384B1B78DAB2384B1B78DBB29A4209D2374B02221A7029
:40624000364BFF221A70364B00221A7027E0354B1B78DBB203F00203002B0ED0324B1B78DBB243F00903DAB22F4B1A702F4B60221A702F4B10221A6011E02E4B2D4A12789A
:40628000D2B242F02002D2B21A70234B12221A70224BFF221A70224B00221A7004E003E0002000F04FFE00BFFB7903F02003002B27D01E4B1B78DBB203F00803002B01D089
:4062C000012300E00223184A1278D2B21343DAB2154B1A70174B174A1278D2B222F02002D2B21A70114B10221A700AE00F4B1B78DBB203F01003DBB2002B02D10B4B102291
:406300001A700837BD4680BD9C5F0020A25F00200F640040A15F0020736400401F6400405F640040A05F00209A5F0020945F002080E100E08364004080B485B000AF024655
:406340000B46FA71BB710223FB732A4B1B78DBB2102B47D1284B1B78DBB203F01003002B3ED1264B10221A60FB795B00FB71BB79002B07D0FB7943F00103FB711D4B49226F
:406380001A7002E01B4B45221A701D4BFA791A701C4B82221A701C4BFF221A701B4B00221A7000BF184B1B78DBB2002BFAD100BF114B1B78DBB203F00103002BF8D00E4B46
:4063C0001B78DBB203F00A03DBB20A2B05D1094B10221A700323FB7304E00023FB7301E00123FB73FB7B18461437BD465DF8047B704700BF945F00206364004080E100E092
:406400000F640040736400401F6400405F64004080B483B000AF0223FB71154B1B78DBB203F00403002B1BD0124B52221A70124BFF221A70114B00221A7000BF0E4B1B787F
:40644000DBB2002BFAD10E4B10221A7000BF084B1B78DBB203F02103002BF8D00023FB71FB7918460C37BD465DF8047B704700BF63640040736400401F6400405F64004073
:40648000945F002080B485B000AF0346FB710223FB731E4B1B78DBB203F00403002B2ED01B4BFA791A701B4B06221A701A4BFF221A701A4B00221A7000BF174B1B78DBB2E0
:4064C000002BFAD1164B46221A7000BF0F4B1B78DBB203F00103002BF8D00C4B1B78DBB203F00203002B05D10D4B60221A700023FB7304E00A4B60221A700323FB73FB7B7C
:4065000018461437BD465DF8047B7047636400400F640040736400401F6400405F640040945F002080B485B000AF0346FB710023FB73234B1B78DBB203F00403002B38D061
:40654000204B1B78DBB2492B12D11F4B02221A701E4BFF221A701E4B00221A7000BF1B4B1B78DBB2002BFAD1164B4A221A70FFE700BF134B1B78DBB203F00103002BF8D059
:40658000144B1B78FB73FB79002B0FD00E4B02221A700E4BFF221A700D4B00221A7000BF0A4B1B78DBB2002BFAD102E0054B60221A70FB7B18461437BD465DF8047B7047D9
:4065C00063640040945F0020736400401F6400405F6400400F64004080B500AF054B1B78002B04D100F008F8024B01221A7000F051F880BDDB81FF1F80B582B000AF224BCD
:406600001B78DBB223F03F03FB711F4BFA7942F00C02D2B21A701D4B1C4A1278D2B242F00102D2B21A701A4B194A1278D2B242F00102D2B21A704CF24F3000F03BF84CF2F8
:406640004F3000F055F84AF6B37000F061F842F2107000F06DF8002000F07AF800F03AFC0346BB710A4B0A4A1278D2B242F01002D2B21A70BB79184600F030FC00F02AF8C3
:406680000837BD4680BD00BF7B6500409A6500409B65004080B400AF054B054A1278D2B262F07F02D2B21A70BD465DF8047B70477B65004080B483B000AF0346FB80044BB5
:4066C000FA881A800C37BD465DF8047B704700BF146A004080B500AF01E000F055F800F047F8034603F01003002BF6D180BD00BF80B483B000AF0346FB80044BFA881A807D
:406700000C37BD465DF8047B704700BF946A004080B483B000AF0346FB80044BFA881A800C37BD465DF8047B704700BF546A004080B483B000AF0346FB80044BFA881A8073
:406740000C37BD465DF8047B704700BF746A004080B483B000AF0346FB71044BFA791A700C37BD465DF8047B704700BF8B65004080B400AF034B1B78DBB21846BD465DF88D
:40678000047B70476B65004080B400AF034B1B889BB21846BD465DF8047B7047B46A004080B582B000AF4CF24F3000F051F84CF24F3000F069F800F08DFB0346FB710A4B8C
:4067C000094A1278D2B242F01002D2B21A70FB79184600F083FB00F077F8002000F01CF80837BD4680BD00BF9965004080B400AFBD465DF8047B704780B500AF054B1B786F
:40680000002B04D1FFF7CCFF024B01221A70FFF7EDFF80BDDC81FF1F80B483B000AF0346FB71044BFA791A700C37BD465DF8047B704700BF8965004080B400AF034B1B786A
:40684000DBB21846BD465DF8047B70476965004080B483B000AF0346FB80044BFA881A800C37BD465DF8047B704700BF506A004080B400AF034B1B889BB21846BD465DF8EB
:40688000047B7047906A004080B483B000AF0346FB80044BFA881A800C37BD465DF8047B704700BF106A004080B400AF044B1B78044B1B889BB21846BD465DF8047B7047E9
:4068C00008650040906A004080B500AF01E0FFF7CFFFFFF7B1FF034603F00803002BF6D180BD00BF80B582B000AF786000F03CF8786800F009F8072000F018F800F028F833
:406900000837BD4680BD00BF80B485B000AF7860054B1B68FB60FB6844337A681A601437BD465DF8047B704708ED00E080B483B000AF0346FB71054BFA795201D2B21A7028
:406940000C37BD465DF8047B704700BF01E400E080B400AF034B02221A60BD465DF8047B704700BF00E100E080B400AF034B02221A60BD465DF8047B704700BF80E100E088
:4069800080B400AF034B02221A60BD465DF8047B704700BF80E200E080B500AF054B1B78002B04D100F008F8024B01221A7000F04DF880BDDD81FF1F80B582B000AF1F4B5A
:4069C0001B78DBB223F03F03FB711C4BFA7942F00902D2B21A701A4B194A1278D2B242F00102D2B21A70174B164A1278D2B242F00102D2B21A7040F21F3000F037F840F293
:406A00001F3000F051F8322000F05EF8002000F06BF800F05FFA0346BB710B4B0A4A1278D2B242F01002D2B21A70BB79184600F055FA00F02BF80837BD4680BD7D64004077
:406A400092640040936400409764004080B400AF054B054A1278D2B262F07F02D2B21A70BD465DF8047B70477D64004080B483B000AF0346FB80044BFA881A800C37BD46C3
:406A80005DF8047B704700BF0468004080B500AF01E000F045F800F037F8034603F01003002BF6D180BD00BF80B483B000AF0346FB80044BFA881A800C37BD465DF8047B33
:406AC000704700BF8468004080B483B000AF0346FB80044BFA881A800C37BD465DF8047B704700BF4468004080B483B000AF0346FB71044BFA791A700C37BD465DF8047B02
:406B0000704700BF8764004080B400AF034B1B78DBB21846BD465DF8047B70476764004080B400AF034B1B889BB21846BD465DF8047B7047A468004080B582B000AF786025
:406B400000F03CF8786800F009F8072000F018F800F028F80837BD4680BD00BF80B485B000AF7860054B1B68FB60FB6840337A681A601437BD465DF8047B704708ED00E0AD
:406B800080B483B000AF0346FB71054BFA795201D2B21A700C37BD465DF8047B704700BF00E400E080B400AF034B01221A60BD465DF8047B704700BF00E100E080B400AFD3
:406BC000034B01221A60BD465DF8047B704700BF80E100E080B400AF034B01221A60BD465DF8047B704700BF80E200E080B582B000AF4FF6FF7000F057F84FF6FF7000F012
:406C00006FF800F067F90346FB710A4B094A1278D2B242F01002D2B21A70FB79184600F05DF900F07DF8002000F022F80837BD4680BD00BF9264004080B400AFBD465DF88A
:406C4000047B704780B500AF054B1B78002B04D1FFF7CCFF024B01221A70FFF7EDFF80BDDE81FF1F80B400AFBD465DF8047B704780B483B000AF0346FB71044BFA791A7038
:406C80000C37BD465DF8047B704700BF8264004080B400AF034B1B78DBB21846BD465DF8047B70476264004080B483B000AF0346FB80044BFA881A800C37BD465DF8047B7C
:406CC000704700BF4868004080B400AF034B1B889BB21846BD465DF8047B70478868004080B483B000AF0346FB80044BFA881A800C37BD465DF8047B704700BF086800406C
:406D000080B400AF044B1B78044B1B889BB21846BD465DF8047B7047046400408868004080B500AF01E0FFF7CFFFFFF7B1FF034603F00803002BF6D180BD00BF80B500AF43
:406D4000054B1B78002B04D100F008F8024B01221A7000F061F880BDDF81FF1F80B582B000AF284B274A1278D2B242F00202D2B21A70254B1B78DBB223F07003FB71224B07
:406D8000FA7942F03002D2B21A70204B1F4A1278D2B222F03002D2B21A701C4B1B4A1278D2B242F03002D2B21A70184B174A1278D2B222F00F02D2B21A70144B134A127825
:406DC000D2B242F00F02D2B21A704FF6FF7000F047F8012000F054F8002000F061F80C4B0B4A1278D2B242F00102D2B21A70094B084A1278D2B242F00102D2B21A700837E2
:406E0000BD4680BD004F0040024F00400B4F0040A3430040014F004080B400AF0D4B0D4A1278D2B242F00102D2B21A700A4B0A4A1278D2B242F00102D2B21A70074B074A22
:406E40001278D2B242F00102D2B21A70BD465DF8047B7047A3430040B3430040004F004080B483B000AF0346FB80044BFA881A800C37BD465DF8047B704700BF044F0040E0
:406E800080B483B000AF0346FB80044BFA881A800C37BD465DF8047B704700BF064F004080B483B000AF0346FB71044BFA791A700C37BD465DF8047B704700BF034F00402F
:406EC0000230800800F0058000BF013800467FF4FCAF7047EFF3108072B6704780F31088704700BFAFF3008080B483B000AF134B7F221A70124B80221A707F23FB710CE03A
:406F0000FB79DB0003F1804303F5F043FA79013AD2B21A70FB79013BFB71FB79002BEFD1FB79DB0003F1804303F5F04300221A700C37BD465DF8047B704700BF2181FF1FBC
:406F40002081FF1F80B483B000AF0346FB7101BE0C37BD465DF8047B704700BF80B582B000AF786008E00C4B1B681846FFF7A8FF7B68A3F500437B607B68B3F5004FF2D850
:406F8000064B1B687A6802FB03F31846FFF798FF0837BD4680BD00BF3481FF1F2C81FF1F80B582B000AF0346FB80FB88044A127802FB03F31846FFF783FF0837BD4680BDE4
:406FC0003081FF1F80B584B000AF03463960FB710F4B1B68FB60FB791F2B02D90020FFF7B1FFFB7903F01F0310339B00FA6813441B68BB60FB7903F01F0310339B00FA683E
:4070000013443A681A60BB6818461037BD4680BD08ED00E080B582B000AF02460B46FA71BB71BB79072B02D90020FFF78BFFFB791F2B02D90020FFF785FFFB7903F01F031D
:4070400003F1604303F56443BA795201D2B21A700837BD4680BD00BF80B485B000AF786039607B68FB603B68DAB2FB681A70FB6801333A68120AD2B21A70FB6802333A6888
:40708000120CD2B21A701437BD465DF8047B704780B400AF094B094A1278D2B242F02002D2B21A70064B064A1278D2B242F02002D2B21A70BD465DF8047B7047A24300400D
:4070C000B243004080B400AF094B094A1278D2B222F02002D2B21A70064B064A1278D2B222F02002D2B21A70BD465DF8047B7047A2430040B243004080B500AF054B1B78E1
:40710000002B04D100F008F8024B01221A7000F053F880BDE081FF1F80B582B000AF224B1B78DBB223F03F03FB711F4BFA7942F00C02D2B21A701D4B1C4A1278D2B242F0D1
:407140000102D2B21A701A4B194A1278D2B242F00102D2B21A704CF24F3000F03DF84CF24F3000F057F84AF6B37000F063F842F2107000F06FF8002000F07CF8FFF7AAFE2C
:407180000346BB710B4B0B4A1278D2B242F01002D2B21A70BB791846FFF7A0FE00F02CF80837BD4680BD00BF7464004096640040976400409464004080B400AF054B054A90
:4071C0001278D2B262F07F02D2B21A70BD465DF8047B70477464004080B483B000AF0346FB80044BFA881A800C37BD465DF8047B704700BF0C68004080B500AF01E000F0BC
:4072000055F800F047F8034603F01003002BF6D180BD00BF80B483B000AF0346FB80044BFA881A800C37BD465DF8047B704700BF8C68004080B483B000AF0346FB80044B63
