:400000000080002011000000E9000000E900000008B5054B1A6803F53F5302331A6000F02BFA00F063F800BFFA46004010B5054C237833B9044B13B10448AFF30080012394
:40004000237010BD2881FF1F000000004022000008B5064B1BB106480649AFF300800648036813B1054B03B1984708BD00000000402200002C81FF1F0881FF1F0000000065
:4000800008B500F01DFD0A2000F018FE00F0C0FC0F4800F0ABFC62B60E4B0F4C1B7813F0010F10D00D4B00251D7000F07BFC0C4800F019FC0120294600F082FC094800F054
:4000C00012FC402300E08023237000F091FBFEE7AD0C000069640040FA4600407B6500404422000055220000FEE7000008B51249124B4A1C1AD053F8106C53F80C0C53F8B6
:40010000085C0022AA4200EB020403D0B45884500432F7E753F8040C0022824203D00025A5500432F9E710330139E2E702F04CF8FFF7A6FFFEE700BF00000000C0260000B0
:4001400008B5114A114B1A609A6842F400729A600023032B98BF0E4A4FEA830094BF52F823100C490C4A0133302B1150F1D10B4B19780B4B19700B4B1A6000F017F80A4B1A
:4001800000221A6008BD00BF0004FA050CED00E000000000E90000000080FF1FBC7600400481FF1F08ED00E00081FF1FF8B572B66A4B61221A70A3F5F0634FF4E1521A80A1
:4001C000192541F61F429D709A8003229D711A81634A182340F65401137051801371614B06221A705222A3F580731A705E4B00241A785E4BD2B21A7040F61802A3F27F4345
:400200001A8041F2512223F8022C594B4FF4F0701B7803F0010343EA440400F061FC013D04F003041BD0032CEFD1524B4FF480721A8007221A70504A0024482114709170C4
:4002400002221C705C7103F8032C93F89E2342F00F0283F89E23012283F8FC2700E0FEE7464B0021234418689A88063401F0DBFF2A2CF5D100231946414C00221859803454
:4002800020F0FF06C0B2450004EB4104AA4208D004EB020CA75C9CF801C0023207F806C0F4E70433802B0144E6D1364B364C1A7842F002021A701A7C42F002021A74334A47
:4002C000137843F040031370314B197841F010011970304B186859681D4603C455F80A0F1989B83424F8B81C696803C429891D4655F8140F21806968283403C429891D4611
:4003000055F81E0F21806968B83C03C429891D4655F8280F21806968083403C429891E48218053F8321FA4F6A854016059681B4B4160197841F008011970194B19491B7847
:40034000DBB203F007001B0908704B70164B442119700FCA07C42380F8BD00BF004800408A400040004300400F010049A146004025420040044000400640004068220000C5
:40038000942200000350014000510040A0430040C24300400C2500006251004022430040CF0100496E58004076580040004710B500232AB1013A4418A45C2344DBB2F8E790
:4003C000184610BD0138092842D8DFE800F0050B11171D232F29353B0902C1F57F3101F570713BE00902C1F57F3101F2C13138E00902C1F57F3101F2C5312AE00902C1F561
:400400007F3101F2C9312CE00902C1F57F3101F5747123E00902C1F57F3101F2D1311DE00902C1F57F3101F2D63112E00902C1F57F3101F2D2310CE00902C1F57F3101F54A
:40044000757106E00902C1F57F3101F5767108E000210B78487843EA002070470878C0B270470B784A788878000440EA02201843CB7840EA0360704710B50B4B1A7802F053
:40048000C002802A0ED100241C7002202146FFF799FF38B121460220FFF794FFBDE81040FFF784BF10BD00BFFA460040F8B5044621460320FFF786FF214607460420FFF72B
:4004C00081FF013700EB072721460320FFF77AFF0025013003022E46BB4209D213F8012B511EC9B2FD29154498BF0126EDB2F3E701202146FFF766FF6D42EDB2854204D127
:40050000002E14BF00200620F8BD0620F8BD000080B5ADF51A7D00F0F7FA10B1002000F0C3FB00F0F9FC62B600273D4604A84FF4967101AAFF2300F01FFD0028F6D1BDF8EC
:400540000420062A40F248819DF81030012B40F043819DF812309DF8134043EA042404F1070E04AB234496455E79197900F232819B79172B40F03081231D9BB233B10DF174
:400580000F02D25C013B104480B2F6E7404241EA062380B2834240F021819DF811309DF81460313B0A2B00F2E780DFE813F00B001B00E500E500E500E500800091003F0011
:4005C000A000D600002F00F00781002C40F004812046FFF76BFFD0F1010038BF00208DF81400B8E0002F00F0F780012C40F0F480032E00F2F1807A4B1B681B68C3F3074268
:40060000964202D1C3F3072303E08CBF00234FF480738DF814301B0A8DF815300024FF238DF816308DF817400421A7E0002F00F0D380022C40F2D080033C4FA828440DF195
:400640001701224601F0E6FDA6F1400325443F2BADB203D800F002FB102301E04FF480739D4240F084809DF816109DF815303F2E43EA01210ED85A4B01EB06221B6892B23E
:400680001B68C3F30F2013F0FF0F1CBF013080B282426ED32B464FAA304600F07DFA00280CBF00240A24002500F024FB65E0002F00F092802E19B6F5967F00F28B804FA84D
:4006C0002844224605A901F0A5FDB5B2002454E0002C40F08180434A02AB92E8030005AA83E8030082E803000127082146E0002F72D0032C70D19DF815309DF8168043EAFE
:400700000828A6F140033F2B07D837484FEA08111022FFF74CFE044619E008EB0621002009024FF48072FFF742FE032E04460ED1B8F1FF0F0BD100210520FFF743FE201A8C
:40074000C4B200210620FFF73DFE201AC4B264428DF814400024012110E00020FFF7A6FE10B9224B80221A7000F0A0FA34E0002530E000250A2400E00524002101238DF811
:40078000103000220B1DADF806108DF811408DF812108DF813209BB20DF10F00C05C013B02449BB292B2002BF6D1524205AB92B25A540DF11503120A5A540DF116031722DE
:4007C0005A54073104A889B20DF10602962300F0B2FBABE60324D0E70424CEE70824CCE70C81FF1F4825000000800040FA46004070B50020FFF75AFE144D00282B684FF05F
:4008000000001C68014622460CBF00260626FFF7CEFD6B681B78181A00F0FF00984200D114B9002000F040FA094B1A7802F0C002402A1A4600D01EB100231370FFF768FE59
:4008400080221A70BDE8704000F030BA0C81FF1FFA46004010B50B4C237803F09F032370237803F0F0032370237843F0100318432070012000F036FA237803F0EF032370DF
:4008800010BD00BF7864004010B50D4C237843F020032370237803F0BF032370237803F0F0032370237843F0100318432070012000F018FA237803F0EF03237010BD00BF69
:4008C0007864004010B504460009FFF7DDFF642000F008FA04F00F00FFF7D6FFBDE81040962000F0FFB938B505460078012428B1FFF7E8FF285D0134E4B2F8E738BD10B5E7
:4009000004460009FFF7A6FF642000F0EBF904F00F00FFF79FFFBDE8104040F6C41000F0E1B908B5282000F0C9F90320FFF792FF052000F0C3F90320FFF78CFF0F2000F05C
:40094000BDF90320FFF786FF012000F0B7F90220FFF780FF052000F0B1F90620FFF7CFFF0E20FFF7CCFF2C20FFF7C9FF0820FFF7C6FF0120FFF7C3FF0C20FFF7C0FF032069
:40098000FFF7BDFFBDE80840052000F097B9000008B50C20FFF7B3FF014B01221A7008BD4481FF1F10B5054C63781BB9FFF7B9FF01236370BDE81040FFF7EABF4481FF1F20
:4009C000032811D8DFE800F00205080B81F0800008E0A1F1400004E0A1F16C0001E0A1F12C00C0B2FFF78BBF70470000064A0423136002F688321268E0219064034A1170A4
:400A0000A2F202321360704780E100E002E400E0014B04221A60704780E200E01E4B1A78A3F65D3342F0020283F85D2B93F85F2B02F08F0242F0300283F85F2B93F8682B5C
:400A400002F0CF0283F8682B93F8682B42F0300283F8682B93F8682B02F0F00283F8682B93F8682B42F00F0283F8682B4FF6FF72A3F8612B0122A3F8632B002283F8602B45
:400A80001A7842F001021A7093F85E2B42F0010283F85E2B704700BF004F0040074B1A7842F001021A701A7C42F001021A7493F85D2B42F0010283F85D2B7047A34300406F
:400AC00010B5054C23781BB9FFF7A8FF01232370BDE81040FFF7E2BF4681FF1F000000000230800800F0058000BF013800467FF4FCAF7047EFF3108072B6704780F310880E
:400B0000704700BFAFF3008038B500F02DF900F0B5F9002838D100F0EBF9072804460FD11B4B1A78900703D4012000F0DBF8F7E71A78910704D51B789B0814BF072400249B
:400B400000F0BCF90CBB00F00FF900F097F9D8B9012000F079F9072805D04FF0FF3410E02B789B07F9D40B48022100F00FF90228074DF5D12B789A0703D4012000F0B2F87D
:400B8000F8E700F09BF900E00424204638BD00BF224700405481FF1F4128F8B505460E4617461C460AD8411F3A298CBF002101213F2804D8B6F5807F29D805E00121812EC9
:400BC00028BF0121102C22D10FB301BB00F056F9F8B92346284631463A4600F0F1F80728044611D11B4B1A781F4612F0020F03D1012000F077F8F5E71A78900702D51B781A
:400C00009B0808D04FF0FF3400F058F91FE001241DE004241BE0104B28461A7831465B7800F0F2F807280446EED13A78094B910703D4012000F056F8F7E71A789207E1D5F8
:400C40001B789B080CBF00246FF00004DCE72046F8BD00BF224700405481FF1F08B5FFF749FF0F4B1A780C3342F0080203F80C2C1A7942F008021A71C82283F855231A7855
:400C800042F010021A701A7C42F010021A74054B1B789B06FBD5BDE80840FFF72FBF00BFA04300400047004001BE7047024B1A7842F001021A707047F646004010B504461A
:400CC000B4F5004F064B05D91868FFF709FFA4F50044F5E758686043BDE81040FFF700BF1481FF1F024B1B7A5843FFF7F9BE00BF1481FF1F08B5FFF7FDFE00BF00BF00BF4F
:400D000000BF00BF00BF00BF00BF00BF00BF00BF00BF00BF00BF00BF00BF064B1A8892B242F004021A801B88BFF36F8FBDE80840FFF7E4BE00480040054B00F01F001B68B5
:400D400000F1100253F8220043F82210704700BF08ED00E000F01F0000F16040490100F56440C9B20170704708B5FFF7C3FE064B1A7842F008021A701A7C42F008021A74A8
:400D8000BDE80840FFF7BABEA043004070B506460D460024E3B2AB420CD2074B1B78DB0703D40120FFF79EFFF7E7044B1B7833550134EFE7284670BD2247004020470040DD
:400DC00030B50F490C78A40716D50E4CB6252570D5252570022525700D7805F0020505F0FF015DB9207088B2984203D2505C01312070F8E7072030BD042030BD092030BDFA
:400E0000224700402047004070B50D4D2C78A60712D50C4CB6262670D8262670052626702D78AD070AD42070080AC9B22070217022702370072070BD042070BD092070BDF7
:400E400022470040204700400A4A137899070CD5094BB6211970E12119700E2119701278920704D4187007207047042070470920704700BF224700402047004038B5FFF7BD
:400E800039FE0C4B197879B901250B4A1D7014682C400AD0146824F00104146000BF00BF00BF5D600C4600E00424FFF727FE204638BD00BF4881FF1F0400084010B5FFF797
:400EC00019FE094B002259681A70012908D107490C6844F001040C6000BF00BF00BF5A60BDE81040FFF70ABE4881FF1F04000840074B1B789B0708D5064BB6221A70E022B8
:400F00001A700D221A70072070470420704700BF224700402047004008B562B60020022100F04EF9014B01221A7008BD5081FF1F012000F0F1B9F8B507460E46154603EB58
:400F400083030220394640225C0000F0A7F9022000F086F930B92CB10120013CFFF7AEFEA4B2F4E7022000F07BF910B12E800020F8BD1020F8BD00002DE9F84303EB830300
:400F80005C00234B16461A7880460F469946AAB1254600F053F930B92DB10120013DFFF78DFEADB2F5E700F049F9A8B100F04CF9FFF7BEFF002389F800300DE000F044F93A
:400FC00050B100F03BF938B1FFF7B2FF04E054B1FFF774FE013CA4B2012000F041F901284FF00100F3D100F03BF901280AD14146402F34BF3A46402200F0A4F93080002090
:40100000BDE8F883002333801020BDE8F88300BF5081FF1FF8B5FFF76DFD394B01251A78022642F001021A701A7C364C42F001021A7403F5E75318331D7003F8946C13F8A1
:401040008D2C074602F07F0203F88D2C0020FFF749FE2378284603F0F90323702A4B1A7802F0DF021A7023782B432370FFF73AFE2820FFF737FE254B30461A7802F07F02CF
:401080001A701A7802F0BF021A70237833432370FFF728FE2378384643F0040323701C4B00241C705C70FFF729FD1A491720FFF743FE17200721FFF74DFE17491520FFF736
:4010C0003BFE15200721FFF745FE14491820FFF733FE18200721FFF73DFE20461049FFF72BFE20460721FFF735FE28460D49FFF723FE28460721BDE8F840FFF72BBE00BF53
:40110000A54300409443004012600040F8510040846000400B180000091800005D160000A1170000D5170000184B012210B51A70174B4FF400041C604FF080741C601A6093
:4011400002221A60134B00241C70134B01B103221A70124B124A187000231370114A01201370114A1370114A1370114A1370114A1370114B03221A70802203F8202CFFF7BC
:40118000AFFC0E4B04221A7010BD00BFE681FF1F00E100E05881FF1F096000406281FF1F6A81FF1F5981FF1F6581FF1F6381FF1F7981FF1F5A81FF1F286000401260004076
:4011C00070B5074C064623780D461BB9FFF722FF0123237030462946BDE87040FFF7A4BF5181FF1F0C4B01221A700C4A002313700B4A13700B4A13700B4A13700B4A1370B8
:401200000B4A13700B4A13700B4B03221A70802203F8202C704700BFE681FF1F5881FF1F6A81FF1F5981FF1F6581FF1F6381FF1F7981FF1F5A81FF1F28600040014B187862
:40124000704700BF6A81FF1F044B1A7802F0FF001AB118780022C0B21A7070476581FF1F024B0C2202FB0030407870477A81FF1F0138C3B2072B0CD8074A1B01DBB2985C07
:4012800001329B5C00F00F0043EA0020023880B270470020704700BF0C600040431EDBB2072BF0B52FD8184E0C2404FB0064E7881B01BFB2154DC7F50077DBB2BA421D4413
:4012C00003D9E288C2F5007292B20C2404FB0064E7780F4C47EA12271F55D7B201341F5549B90C2202FB0060002242704179094AC9B29954F0BD0024A7B29742F1D20F5DD6
:4013000001342F70F8E7F0BD7A81FF1F886000400C6000400E600040431EDBB2072B0BD8064A0C2101FB00200022427041791B01034ADBB2C9B29954704700BF7A81FF1F9B
:401340000E600040F8B5431EDBB2072B07460D46144616D8B9B11B010C4EDBB21E44FFF787FFA04228BF204684B200239AB2A24203D23278EA540133F8E73846FFF7CCFFF8
:4013800002E0002400E00C462046F8BD8860004030B51A4B1A481A8801780A4492B219491A80194BCAB21C88A4B284B1174A91420CD05A681278D2B201F8012B5A68013254
:4013C0005A601A88013A92B21A80EAE7082203780F4C082B0F4B00D042B10F490D7885F080050D700F212170022101E00221217019700A4B02701A7030BD00BF6881FF1FFD
:401400005A81FF1F006000406C81FF1F086000406181FF1F5881FF1F6481FF1F7881FF1F074B02221A70074B80221A70064B0F221A70064A00231370054A01201370704725
:401440005881FF1F6481FF1F6181FF1F5A81FF1F7881FF1F10B5154B1A78154B02F00F021988023AD2B2114489B219801149124B188880B278B172B1586811F8014B013A99
:40148000E4B204705868D2B2013058601888013880B21880EBE7094B1A70094B1A7882F080021A70074B0B221A7010BD296000406881FF1F006000406C81FF1F7881FF1FD6
:4014C0006481FF1F6181FF1F064A06231370064A01201370054B80221A70054B00221A70704700BF5881FF1F6181FF1F6481FF1F7881FF1F054B9A683AB19A6804491070EE
:401500009A680988518000229A6070476C81FF1F6881FF1F08B5124B1A78D2B21A701B78DBB21A0602D50F4A137008BD0220FFF7E1FF0D4B1B7803F06003202B05D0402B2C
:4015400006D043B900F0C4FC04E000F013FE01E000F004FE10B9034B03221A7008BD00BF286000406181FF1F0060004008B50849084B01201A8809780A4492B21A80064B5D
:4015800000221A70FFF7B6FF044B03221A7008BD5A81FF1F6881FF1F5881FF1F6181FF1F08B50C4B1B78DBB2042B07D0062B09D0022B0DD1BDE80840FFF7D8BFBDE8084064
:4015C000FFF748BF0320FFF795FF034B03221A7008BD00BF5881FF1F6181FF1F08B5054B002201201A70FFF785FF034B03221A7008BD00BF5881FF1F6181FF1F08B50A4BEB
:401600001A7832B11978094A41F08001117000221A70074B002201201A70FFF76BFF054B03221A7008BD00BF6381FF1F086000405881FF1F6181FF1F074B1B78DBB2042B2E
:4016400005D0062B05D0022B05D1FFF7A1BEFFF7C5BFFFF7D3BF70475881FF1F10B51D4C2378DBB2DA0633D518060AD503F00F03012B2DD1FFF74EFF174B1B78190609D5E8
:4016800010BD5A0602D5FFF7D7FF03E09B061FD5FFF786FF23781B061AD4104B104A1B78127813430F4A13701278934210D10A4B08491A782078D2B2000605D41A78D2B230
:4016C0000A700A7802F00F021B789A42EFD110BD10BD00BF286000406181FF1F6481FF1F7881FF1F29600040054A00231380054A916819B191680B7092685380704700BFEA
:401700006881FF1F6C81FF1F10B50F4C23889BB213B9FFF785FE14E00C4B02221A700C4B00221A70FFF7E0FF0A4B1A78013B1B7843EA0223228892B29A4288BF2380FFF7B7
:4017400027FE012010BD00BF6C81FF1F5881FF1F6481FF1F0760004008B50C4B04221A700B4B80221A70FFF7BFFF0A4B01201A78013B1B7843EA0222074B198889B29142C8
:4017800088BF1A80054B0B221A7008BD5881FF1F6481FF1F076000406C81FF1F6181FF1F094B1B78094B1A7B02F00302012A03D0DA7B82F08002DA7301225A73044B1A78A4
:4017C00002F0FE021A7070470E6000407A81FF1F0B600040094B1B78094B1A7E02F00302012A03D0DA7E82F08002DA7601225A76044B1A7802F0FD021A7070471E6000401C
:401800007A81FF1F0B6000407047FFF7EBBC000008B50C4B18780138C0B200F07BF90A4B0A491B78DBB200EBC3004269CB5C02EBC3035B685A6A064B1178C9B219805A60B3
:4018400008BD00BF6A81FF1F046000406081FF1F6C81FF1F08B50D4B18780138C0B200F059F90B4B0B491B78DBB200EBC3004269CB5C02EBC3035B68DB69597813F8022B8E
:4018800042EA0121044A1180536008BD6A81FF1F046000406081FF1F6C81FF1F10B5194C00232380184B18780138C0B200F032F9164B174A1B781278DBB2D2B200EBC20086
:4018C0004169EAB9134A127801EBC20251685A1E022A15D8104A03F10053013B127801EBC30011F83330D2B2934209D30C235A4341688B1858688A5A9B6860602280A360DF
:4019000010BD00BF6C81FF1F6A81FF1F03600040046000406081FF1F0260004010B53C4B3C4A1B781178DBB2090634D501321278013A052A6AD8DFE802F010182769690346
:40194000354B1A78212A02D1FFF762FF07E01B78222B5BD1FFF77EFF01E0FFF79FFF2F4B1B889BB2002B51D00AE0002B4ED12C4B1B78002B4AD1294B01221A80294A5A606D
:40198000BDE81040FFF7C0BE002B3FD1234B01221A80254AF3E71278120637D4234A1278D2B20A2A0DD00B2A27D0092A2ED1FFF775FF1A4B1B889BB243B3BDE81040FFF7D8
:4019C000CBBE1BBB164B1B7803F0FF01F3B9124B144A1B78DBB21370154B14781878844201D2197005E01978012902D91278D2B21A70BDE81040FFF767BD3BB9084B1A78FE
:401A0000012A03D81A78084BD2B2F1E7002010BD0460004000600040036000406C81FF1F02600040E781FF1FE681FF1F01600040E881FF1F7FB5144B02466D4603F1100613
:401A4000186859682C4603C40833B3422546F7D1BAB122231370032353700C4B13F8011B04ACC9B204EB111001F00F01214411F8101C10F8100C907002F8041F04498B42BE
:401A8000ECD104B070BD00BF50250000000100490801004930B51C4B01211C4A0C2000FB012483F87200657925B12479240658BF082000E0802018700C2000FB0122108906
:401AC0000131C0F3072003F8020C10890929C0B203F8010CD08803F11003C0B283F86800D088C0F3072083F86900D088C0B283F86600D288C2F3072283F86720CDD1044BF0
:401B0000FF221A7030BD00BF0E6000407A81FF1F0A600040074B1A78074B03EBC2035B6803F108021B7A834286BF02EBC0004068002070476281FF1F64250000F8B5394BAD
:401B40001A78002A6CD018780138C0B2FFF7E2FFC368047A083303EBC404A34260D013F8082C314931488D5C805C854256D0895C13F8070C884251D12D4909788A424DD1F8
:401B800013F8060C13F8056C00F07F02511E10F0800F28484FEA01114FF00C05C9B206F0030605FB020506D00127BE426F7014BF0D26072605E00027012E6F7014BF092665
:401BC00005266E711C4D01266E540C25554333F8046C4219168113F8066C167113F8056C46550020D07015891448C5F30725455415890130EDB24554D5887930EDB24554FC
:401C0000D5880130C5F307254554D5880338EDB24554D2880130C2F30722425408339CE7F8BD00BF6A81FF1F6081FF1F6B81FF1F046000407A81FF1F0E6000400C6000406F
:401C400008B5064B18780138C0B2FFF763FF20B143681B7900EBC300406908BD6A81FF1FF8B500210C254D434C4C0131002362190929635593705370D37053711381937247
:401C8000F0D118B1464A1370464A1370464B1A78002A00F0818018780138C0B2FFF73AFF4368017ADB79C90013F0400F3F4B1A7814BF42F0010202F0FE021A700122C36849
:401CC000083303EB010E73453DD013F8065C05F07F06B24235D10C2606FB0246B6F808C033F8047C1FFA8CFCBC4538BF378113F8086C2B4FBE5D13F8077CB74221D113F881
:401D0000056C15F0800F4FF00C0506F0030605FB024506D00127BE426F7014BF0D26072605E00027012E6F7014BF092605266E710C25554313F8067C6619377113F8056CD9
:401D400066550833BFE70132092AB8D1C36803F10802114408338B420AD013F8062C0C2502F07F0205FB024213F8080C9072F1E7FFF766FF0E4B0022186001230C2101FBBF
:401D80000341CA80098901330A44092B92B2F5D1BDE8F840FFF77EBEF8BD00BF7A81FF1F6081FF1F6B81FF1F6A81FF1F7981FF1F5C81FF1F114B197801F07F014A1ED2B238
:401DC000072A19D80E4B0C2000FB01339978120141F0010199700021D9705978D2B241F0020159701B7913F0800F064B14BF8D218921D154FFF768BB002070470460004096
:401E00007A81FF1F0E60004010B51A4B1B7803F07F035A1ED2B2072A29D817490C2000FB03139978120101F0FE0199700021D9701249D2B2545C04F07F045454597801F0E7
:401E4000FD01597019795B7811F0800F0C4905D0012B01D1505406E00D2303E0012B0CBF082309235354BDE81040FFF72DBB002010BD00BF046000407A81FF1F0C60004004
:401E80000E60004010B50D4B1C780D4BE4B218780138C0B2FFF73EFE43681B79A3420BD954B9084B084A19780120C9B21170074A1278D2B21A7010BD002010BD04600040B9
:401EC0006A81FF1F6081FF1F6B81FF1F0260004038B58D4C002323808C4B1A7812F0800F8B4A127800F08A800A2A00F20A81DFE812F05A00080108010801080108010B0043
:401F000008017A0008017E00824B1A78012A09D1814B1A78814B03EBC2035B685B686360122311E01A78022A13D17D4B1878FFF7F1FD002800F0E580436863606368DA7801
:401F400063689B7843EA02232380BDE83840FFF7DBBB1B78032B22D1724B00227049D0B20D78854202D80A783AB910E0187801320028F8D019780B44F0E7694A6A49127832
:401F8000097C914203D16948FFF754FD674B1A78002A00F0B6801A78D2B2228019E0BDE8384000F0E7B81A7812F0030213D0022A40F0A7805E4B22801B785E4A03F07F0312
:401FC0000C2101FB03239A785B4BD2B21A7000225A706360B9E702232380584B1978564BC9B21970F4E701232380554BF1E7012323804F4B534A1B781344EAE7013A0A2A9A
:402000007FD8DFE802F0367E527E067E7E7E0B7E2200434B1A784C4BD2B260E0404B1B7803F0FF0453B9464B1A78944265D01C70464B01201870FFF713FE5EE0601EC0B21D
:40204000FFF768FD0028EED15BE0FFF71BFF002857D0374B01221C783D4BE4B21C703B4B1A70FFF76BFD374B1A5D3A4BD2B21A5543E01B7803F00303012B32D00CD3022BD9
:402080003FD103F1804303F5C0431B78002B38D1BDE83840FFF7B8BE214B1B78012B30D1264B1A7802F0FD0219E01B7803F00303012B16D00BD3022B23D103F1804303F5A9
:4020C000C0431B78EBB9BDE83840FFF773BE144B1B78012B15D1194B1A7842F002021A700BE0134B1A7862B91B781B4A0C48DBB2D15C007821EA0001D154BDE83840FFF7F0
:40210000E3B9002038BD00BF6C81FF1F0060004001600040036000406281FF1F64250000026000402A260000782600003082FF1F046000407A81FF1F5281FF1F7981FF1F90
:402140006A81FF1F6081FF1F6381FF1F6581FF1F5981FF1F6B81FF1F6681FF1F034B00201B781B0644BF024B1B7870470060004001600040104B1B7803F00303012B0CD05E
:40218000022B0ED10D4B0E4A1B780C2103F07F0301FB032308339B7801E0084B1B78DBB200E00023074A1268D35C032B01D1FFF7B5BB0020704700BF00600040046000402D
:4021C0007A81FF1F5C81FF1F70B50E4B0E4D0024ED1AAD101E46AC4204D056F8242090470134F8E700F052FA084D094B0024ED1AAD101E46AC4204D056F8242090470134D6
:40220000F8E770BD9826000098260000A02600009826000010B50023934203D0CC5CC4540133F9E710BD02440346934202D003F8011BFAE770470000E0260000F100000005
:40224000000000004D6F6E61736820476C6F6D657269646100426F6F746C6F61646572205265616479000000004F00400C001051004030000000014000100014014000080A
:4022800000400140000A004C01400002005001402000000001450040024F0040095200400165004004000140010101400203014001050140040701400808014015090140EA
:4022C000040B0140030D01400215014004170140061901402E1A0140251B0140074001400B4101400E4201400C430140044401400345014001460140044701400D4801402D
:4023000005490140054C01400E4D014002500140015101407E0201200A4B008001C02003210129803110608061847C407B0138083E0458045F011B04AB04E202E609E20195
:40234000E602E804EE045B045F01AE01B401D804DB04DC08DF11100219101A0459506D806E086F8877067A08830487089F02A002A208A540A604A780AA0CC401D60CDE0492
:4023800083028780A002A5408540A002B002E201EC80E408E810EA02EE0A86109D40A208AE04E810EE0A0501070209020B0115022E01330336013920580459045C385F112C
:4023C00080048504860C870888088A048B088C028E019003940195089602970499019B029D019F02A408AD03B203B50CB60CB703B888B980BE04BF40D804D904DB04DC3344
:40240000DF01041505800E601002170819401C011F0420142580270C2E40330435803610370838143C146E407A088001858088028B0499809D40A218B180C0F0C230C42128
:40244000CA10CC72CE66DE04E402EC803381364057085F80CC70D440D6206008642087809F81A280A640A788AA80D8C0E240EE20108050046280800484209C289F01A2807E
:40248000A640A788C410D420D640E6901810814087089F01A640A788A888C610E280E640E820EE2008046080C208D8029C80B004EE019C8008080F409C80C20C21042610D3
:4024C000514086109180AE40AF81B410C860D420E410EA40EE5079808140B104DC80E2809880AC08AF40B480E8080C80608063027404840488808B019880C201D602D8024C
:40250000DE04E001E60110081C08003AC00000C0C000C00000008C00000C8C008C0000000800000808000800C00003000003030003000000200080802000A00000001010DF
:4025400000001000000000006980172E001E01013031323334353637383941424344454600000000010000006C2500000100000078260000010000007C2500000100000087
:402580004F260000020000009E25000001000000B0250000000000009C250000030000000103400003000000820340000300000001000000B825000000000000EC25000049
:4025C00000000000E0250000000000000000000001000000F8250000010000006126000041000000EA81FF1F5282FF1F410000005682FF1F2C82FF1F240005010900A1009D
:402600000900A1000900150025FF7508954091020900150025FF750895408102C0C000000A033000300030003100040309040A03500053006F004300160342006F006F00B5
:4026400074006C006F0061006400650072000009022900010102803209040000020300000209211101000122240007050103400001070582034000011201000200000008AE
:40268000B4041DB70130010280010000F8B500BFF8BC08BC9E4670475100000041010000F8B500BFF8BC08BC9E4670472D000000C02600000881FF1F2000000070010000FD
:4026C00000000000382200003C2200000000007D00FA0000400000000090D00300000000000000000000000000000000000000000000000000000000000000000000000008
:402700000080002011270000055100000551000080B500AF02F022FD10B5054C237833B9044B13B10448AFF300800123237010BDA881FF1F0000000050BC000008B5064B1D
:402740001BB106480649AFF300800648036813B1054B03B1984708BD0000000050BC0000AC81FF1F0881FF1F0000000080B5AEB002AF40F6B83003F077FE03F035FF04F0C6
:4027800051FC01F079FA01F06BFE01F099FA01F02BFC02F0FBFB02F025FC02F09DFC01F0F3FA01F005FC01F04BFA0020002103F02BFFD34803F05EFF00F0A4FE012003F077
:4027C00093FF0020002103F01FFFCE4803F052FF012004F0BBFCCC4A07F110031068186062B64FF47A7003F03FFE01F019FBC74B1A88C74B1A80002001F0FAFD002000219B
:4028000003F002FFC34803F035FF0023C7F8A0300023C7F89C30C04A3B1D07CA83E807000123C7F8983000233B670023C7F894300023C7F890300023C7F88C300023C7F835
:402840008830012004F09EFB04F042FCF866B34B1B78DBB2002B04D001F0E2FAAF4B00221A7002F0F3FA01F029FC01F0F3FB0346002B40F0438301F0F9FB0346002B40F00B
:402880003D83D7F8A0300B2B00F2388301A151F823F000BFC5280000752900005129000089290000FD2E00006D2C0000812C0000912D0000AB2D0000392E0000CF2B0000FA
:4028C000F92B0000012004F05DFB002004F03EFC012000F08FFED7F894309B0007F1B002134453F8AC3CC7F89830D7F89830012B07D10020002103F087FE894803F0BAFEA2
:402900001EE0D7F89830032B07D10020002103F07BFE844803F0AEFE12E0D7F89830022B07D10020002103F06FFE7F4803F0A2FE06E00020002103F067FE7C4803F09AFE8D
:402940004FF4FA7003F090FD0223C7F8A030D5E2032001F0F7FD0320FF2101F09BFD4FF4167003F081FD032001F0B0FD0123C7F8A030C3E2B42001F03BFD0323C7F8A030E6
:40298000FB6EC7F8A830B9E2D7F8A820FB6ED21A674B9A4203D90A23C7F8A030AEE24FF4FA7003F061FD00F007FED7F898001E210C2200F035FDC7F89C00D7F89C3013F1F7
:4029C000030F1ADA642001F023FDC82003F04CFD032001F07BFD642003F046FD01F020FA544B00221A60544B00221A60474B1B881BB2184601F0FCFCE8E0D7F89C30032B77
:402A00001ADD642001F018FDC82003F02DFD032001F05CFD642003F027FD01F001FA454B00221A60444B00221A60384B1B881BB2184601F0DDFCC9E0D7F89C30B3F1FF3F84
:402A400040F08A80D7F890305A1CC7F89020022B10DC032001F058FD0320962101F01AFD4FF4FA7003F000FD02F0F0F9032001F02DFDABE0D7F88C30012B1DD0642001F0EA
:402A8000C7FCC82003F0F0FC032001F01FFD642003F0EAFC01F0C4F9264B00221A60264B00221A60194B1B881BB2184601F0A0FC0123C7F88C3089E0D7F88830012B3DD0B0
:402AC000642001F0B9FC4FF4967003F0CDFC032001F0FCFC642003F0C7FC01F0A1F9154B00221A60144B00221A60084B1B881BB2184601F07DFC0123C7F8883066E000BFB4
:402B000058BC000064BC0000CCBC0000726E0020EA57002074BC0000D0BC0000706E002080BC000088BC000090BC00009CBC0000801A0600A46E0020C86E0020D7F88830EB
:402B4000012B43D10023C7F890300023C7F88C300023C7F88830D1E1032001F0D5FC0320962101F097FC4FF4FA7003F07DFC032001F0ACFC4FF4FA7003F076FCD34B1B889E
:402B80009BB2112B22D8032001F0BEFC0320962101F080FC4FF4487003F066FC032001F095FC4FF4967003F05FFC01F009FA4FF4FA7003F059FC0523C7F8A030012001F03F
:402BC0002FF84FF4FA7003F04FFC97E196E1032001F0B8FC0320962101F05CFC40F2DC5003F042FC002001F003FC0B23C7F8A030FB6EC7F8A43081E1FA6ED7F8A430D21A38
:402C000044F620639A4230D926E0032001F07CFC0320642101F03EFC4FF47A7003F024FC032001F053FCC82003F01EFC0023C7F884300DE001F0F4F802F008F901F03EFA79
:402C4000642003F011FCD7F884300133C7F88430D7F88430092BEDDD9D4B1B889BB2142BD3D80223C7F8A03048E147E1002001F0BFFB0623C7F8A030FB6EC7F8A4303DE1C1
:402C8000FA6ED7F8A430D21A4CF250339A4230D926E0032001F038FC0320642101F0FAFB4FF47A7003F0E0FB032001F00FFCC82003F0DAFB0023C7F880300DE001F0B0F8B9
:402CC00002F0C4F801F0FAF9642003F0CDFBD7F880300133C7F88030D7F88030092BEDDD7B4B1B889BB2182BD3D80723C7F8A0304DE0FA6ED7F8A430D21A47F230539A424B
:402D00001DD9032001F000FC0320642101F0C2FB4FF47A7003F0A8FB0023FB670BE001F07FF802F093F801F0C9F9642003F09CFBFB6F0133FB67FB6F092BF0DD27E0FA6E84
:402D4000D7F8A430D21A46F2A7139A421FD900F033FCD7F898004FF4C8710C2200F060FBC7F89C00D7F89C30002B10D0032001F0CBFB0320642101F08DFB4FF47A7003F067
:402D800073FB0123C7F8A03001F024F9B6E0B5E0002000F045FF5A2001F02AFBFB6EC7F8AC300823C7F8A030A8E0FA6ED7F8AC30D21A42F210739A423DD9032001F0A4FB34
:402DC0000320642101F066FB40F2DC5003F04CFB01F000F9D7F894300133C7F89430D7F89430012B23DC032001F0ACFB0320642101F050FB002001F0FBFA0023BB670BE07A
:402E000001F00EF802F022F801F058F9642003F02BFBBB6F0133BB67BB6F092BF0DD4FF4167003F021FB0223C7F8A03003E00923C7F8A03062E061E05A2001F0D9FA0320F7
:402E400001F080FB0320502101F024FB40F6B83003F00AFB032001F039FB43F6982003F003FB032001F06EFB0320502101F012FB40F6B83003F0F8FA032001F027FB002397
:402E80007B670BE000F0CCFF01F0E0FF01F016F9642003F0E9FA7B6F01337B677B6F092BF0DD42F2107003F0DFFA032001F02CFB0320502101F0EEFA40F6B83003F0D4FA6E
:402EC000032001F003FB00237B670FE0DC6E0020E06E002000F0A4FF01F0B8FF01F0EEF8642003F0C1FA7B6F01337B677B6F092BF0DD42F2107003F0B7FAB2E7364B1B78C0
:402F0000DBB2002B08D0344B00221A700023C7F8A03001F05FF80BE0304B1B78DBB2002B06D02E4B00221A700020002101F0C8F92B4B1B889BB21A4607F12003009218466C
:402F40002849D7F89C20D7F8983008F085FA012003F0CAFB0020002103F056FB07F12003184603F087FB204B1B889BB21F4A10681F4A116807F120020090019110461D49E5
:402F80001A46D7F8A03008F067FA0120002103F03BFB07F12003184603F06CFBFA6E164BA3FB02135B0B42F2107101FB03F3D31A002B0FD1012003F097FBFA6E0E4BA3FBF5
:402FC00002135B0B07F1200210460C491A4608F043FA36E435E400BFE5570020E4570020E06E0020A4BC0000DC6E0020A46E0020C86E0020B4BC00005917B7D1C8BC0000A7
:4030000090B5DFB000AF0023C7F86C31AD4800214FF47F6208F0A1F83B4618464FF0FF314FF4B07208F099F80123C7F87031C0E10123C7F87431B2E1D7F87431DAB2D7F878
:403040007031DBB21046194600F042FB0346002B07D13B46D7F874214FF0FF3143F822103CE1D7F87431DAB2D7F87031DBB21046194600F02DFB03461C46D7F87431DBB2A0
:40308000013BDAB2D7F87031DBB21046194600F01FFB03469C4240F0EE80D7F87431DAB2D7F87031DBB21046194600F011FB03461C46D7F87431DAB2D7F87031DBB2013B35
:4030C000DBB21046194600F003FB03469C4240F0C6803B46D7F8742153F82220D7F87431591E3B4653F821309A4200F0B880D7F874315A1E3B4653F82230C7F864313B46A6
:40310000D7F8742153F82230C7F86031D7F874315A1E3B4653F82230D7F87421511E3A4652F82120674912010A4491883A46D7F8740152F8202063481201024492880A4472
:4031400092B260491B010B449A80D7F874315A1E3B4653F82230D7F87421511E3A4652F82120584912010A44083211683A46D7F8740152F82020534812010244083212684A
:403180000A4450491B010B4408331A60D7F874315A1E3B4653F82230D7F87421511E3A4652F82120474912010A44083251683A46D7F8740152F820204248120102440832D1
:4031C00052680A443F491B010B4408335A603B46D7F8742153F822303A4A1B01134400221A603B46D7F8742153F82230354A1B01134400229A803B46D7F8742153F8223098
:40320000304A1B011344083300221A603B46D7F8742153F822302B4A1B011344083300225A60D7F87431C7F8683114E03B46D7F8682153F82220D7F860319A4206D13B468F
:40324000D7F86821D7F8641143F82210D7F868310133C7F86831D7F86831572BE6DDD7F874315A1E3B4653F822103B46D7F8742143F8221032E0D7F87431DAB2D7F87031E6
:40328000DBB21046194600F023FA03461C46D7F87431DAB2D7F87031DBB2013BDBB21046194600F015FA03469C420DD13B46D7F8742153F822103B46D7F8742143F82210E1
:4032C0000CE000BFF4470020D7F86C315A1CC7F86C213A46D7F8741142F821303B46D7F8742153F82230B3F1FF3F53D03B46D7F8742153F82240D7F87431DAB2D7F87031B2
:40330000DBB21046194600F0E3F903461A46304923010B441A603B46D7F8742153F822302B491A010A449288013292B228491B010B449A803B46D7F8742153F822303A4688
:40334000D7F8741152F82120214912010A4408321168D7F874210A441D491B010B4408331A603B46D7F8702153F822303A46D7F8701152F82120164912010A44083251682C
:40338000D7F8702182F002020A4411491B010B4408335A60D7F874310133C7F87431D7F87431572B7FF748AED7F870310133C7F87031D7F870318F2B7FF73AAE0448FF21C9
:4033C0001022044B07F00BFF07F5BE77BD4690BDF4470020D933000090B48AB000AF786039607B6807F118040FCB84E80F003B6807F108040FCB84E80F00BA8BBB899A4218
:4034000002D94FF0FF3306E0BA89BB8B9A4201D9012300E0002318462837BD4690BC704780B489B000AFF860B9607A600023FB6159E0324AFB691B0113449B881A46BB6819
:403440009A4202DA4FF0FF3352E02C4AFB691B0113441A68FB689A4242D1284AFB691B01134408331A682549FB691B010B449B88B2FBF3F3BB61214AFB691B01134408333E
:403480005A681E49FB691B010B449B88B2FBF3F37B611B4B7A69582101FB02F1BA690A44FF2103F82210164A7B69582101FB03F1BB690B449B001344FF229A70BB69A3F11E
:4034C0002C027B685B429A4207DBBB69A3F12C027B689A4201DC00230AE0BB692C3B07E0FB690133FB61FB69FE2BA2DD4FF0FF3318462437BD465DF8047B7047F44700204C
:40350000F481FF1F80B500AF02F02AF9012003F0EBF80020002103F077F8234803F0AAF81E20002102F0F0F81320E72102F0ECF802F006F90020002103F066F81B4803F042
:4035400099F802F0C7F90020002103F05DF8184803F090F802F0F4F81320E02102F0D4F80020012102F0D0F80120552102F0CCF80220962102F0C8F810201E2102F0C4F8E3
:403580003F202F2102F0C0F83E20032102F0BCF88C20A02102F0B8F80020002103F034F8044803F067F880BDDCBC0000ECBC0000FCBC00000CBD000080B500AF02F0C0F8F1
:4035C00002F088F902F0BCF800F0F6F801200849142200F093FA02200549142200F08EFA03200349142200F089FAFFF709FD80BDCDCC4C3E80B582B000AF78607B68032B1E
:4036000033D0042B3ED0012B22D10020092102F07BF801206C2102F077F80220782102F073F81020302102F06FF8234B7F221A70224B96221A70224B80221A70214B762296
:403640001A70214B87221A70204B78221A702FE00020692102F058F80120A52102F054F81020062102F050F822E00020692102F04BF80120A52102F047F81020012102F0A4
:4036800043F815E00C4BBC221A700C4B81221A700020352102F038F80120A32102F034F80220722102F030F810203C2102F02CF80837BD4680BD00BF0C81FF1F0D81FF1FF5
:4036C0000E81FF1F0F81FF1F1081FF1F1181FF1F80B483B000AF02460B46FA71BB71B979FA792E4B582000FB01F10A4413F822202B4B1B789A420FD2B979FB79274A582057
:4037000000FB01F10B449B0013449A78254B1B789A4201D301233AE0B979FA791F4B582000FB01F10A4413F822201F4B1B789A420FD2B979FB79194A582000FB01F10B44D2
:403740009B0013449A78194B1B789A4201D202231DE0B979FA79114B582000FB01F10A4413F82220124B1B789A420FD3B979FB790A4A582000FB01F10B449B0013449A781C
:403780000C4B1B789A4201D2032300E0002318460C37BD465DF8047B704700BFF481FF1F0C81FF1F0D81FF1F0E81FF1F0F81FF1F1081FF1F1181FF1F80B588B000AF002376
:4037C000FB6192E10023BB6188E1FB69002B08D0FB698F2B05D0BB69002B02D0BB69572B2BD19E4BFA69582101FB02F1BA690A447F2103F82210994AFB69582101FB03F193
:40380000BB690B449B0013447F229A70934AFB69582101FB03F1BB690B449B00134400225A708E4AFB69582101FB03F1BB690B449B0013440022DA704DE1BB69DBB2013BEC
:40384000DAB2FB69DBB2013BDBB210461946FFF73FFF03463B72BB69DBB2013BDAB2FB69DBB210461946FFF733FF03467B72BB69DBB2013BDAB2FB69DBB20133DBB2104625
:403880001946FFF725FF0346BB72BB69DAB2FB69DBB2013BDBB210461946FFF719FF0346FB72BB69DAB2FB69DBB20133DBB210461946FFF70DFF03463B73BB69DBB2013341
:4038C000DAB2FB69DBB2013BDBB210461946FFF7FFFE03467B73BB69DBB20133DAB2FB69DBB210461946FFF7F3FE0346BB73BB69DBB20133DAB2FB69DBB20133DBB21046B5
:403900001946FFF7E5FE0346FB7300237B613AE03A7907F108017B690B441B78002B14BF00230123DBB21344DBB23B717A7907F108017B690B441B78012B14BF00230123A3
:40394000DBB21344DBB27B71BA7907F108017B690B441B78022B14BF00230123DBB21344DBB2BB71FA7907F108017B690B441B78032B14BF00230123DBB21344DBB2FB71AD
:403980007B6901337B617B69072BC1DD334AFB69582101FB03F1BB690B449B0013447F225A702E4AFB69582101FB03F1BB690B449B0013447F22DA707B79032B17D901237A
:4039C000FB74264BFA69582101FB02F1BA690A44002103F82210214AFB69582101FB03F1BB690B449B001344FF229A7065E0BB79032B17D90223FB74184BFA69582101FB2F
:403A000002F1BA690A44002103F82210134AFB69582101FB03F1BB690B449B00134400229A704AE0FB79032B1AD90323FB740B4BFA69582101FB02F1BA690A44FF2103F818
:403A40002210064AFB69582101FB03F1BB690B449B00134400229A702FE000BFF481FF1F0023FB74244BFA69582101FB02F1BA690A447F2103F822101F4AFB69582101FBB9
:403A800003F1BB690B449B0013447F229A701A4AFB69582101FB03F1BB690B449B00134400225A70144AFB69582101FB03F1BB690B449B0013440022DA7000237B6107E09E
:403AC0003A1D7B69134400221A707B6901337B617B69072BF4DDBB690133BB61BB69572B7FF773AEFB690133FB61FB698F2B7FF769AE2037BD4680BDF481FF1F90B589B0B5
:403B000000AFF860B9607A6000233B610023FB612FE000237B610023BB6112E0BB69DAB2FB69DBB210461946FFF7D2FD03461A46FB689A4202D17B6901337B61BB690133EC
:403B4000BB61BB69572BE9DD786907F0B7F80446B868314907F006F903462046194607F0B3FA0346002B01D0FB693B61FB690133FB61FA697B689A42CBDD0023FB6143E005
:403B80000023BB613AE0BB69DAB2FB69DBB210461946FFF79DFD03461A46FB689A422AD11E4BFA69582101FB02F1BA690A447F2103F82210194AFB69582101FB03F1BB691D
:403BC0000B449B0013447F229A70144AFB69582101FB03F1BB690B449B00134400225A700E4AFB69582101FB03F1BB690B449B0013440022DA70BB690133BB61BB69572B4D
:403C0000C1DDFB690133FB61FA693B699A42B7DD2437BD4690BD00BF0000B042F481FF1F80B582B000AF7860044A7B6813441B78184602F029FF0837BD4680BD1481FF1FD9
:403C400080B500AF02F08AFE0020FFF7E9FF80BD80B500AF024B01221A7002F019FE80BDE457002080B500AF024B01221A7002F069FE80BDE557002080B500AF04F09CFAEE
:403C8000064802F0B7FD064802F00EFE054B00221A70054B00221A7080BD00BF513C0000653C0000E5570020E457002080B500AF024B01221A7004F073FA80BD706E002071
:403CC00080B582B000AF00237B6048E0786806F0F3FB02460B46104619464FF00002264B06F09CFA02460B461046194620A3D3E9002306F047FC02460B461046194604F0CD
:403D000061FD02460B461D487968C9000144C1E90023786806F0D0FB02460B46104619464FF00002144B06F079FA02460B46104619460FA3D3E9002306F024FC02460B46E5
:403D40001046194604F0F8FC02460B460C487968C9000144C1E900237B6801337B607B68B3F5B47FB2DB0837BD4680BDAFF30080399D52A246DF913F008066403063002087
:403D8000F0570020AFF3008080B500AF1D4B00221A701D4B00221A801C4B00221A801C4B00221A801B4B00221A801B4B00221A8003F05EFC1E20002103F072FE002003F0B2
:403DC00015FF702003F012FF03F0D6FE1E20002103F066FE012003F009FF202003F006FF03F0CAFE1E20002103F05AFE022003F0FDFE002003F0FAFE03F0BEFE074804F0D8
:403E000081F980BD706E0020746E0020EC570020E8570020726E0020EA570020AD3C0000B0B582B000AF00233B7000237B700023BB700023FB7000233B7100237B711E20A5
:403E4000002103F02DFE032003F0D0FE03F094FE1E20012103F024FE012003F017FF03463B70012003F012FF03467B70012003F00DFF0346BB70012003F008FF0346FB704B
:403E8000012003F003FF03463B71002003F0FEFE03467B7103F070FE3B781B029AB27B7813439AB23C4B1A80BB781B029AB2FB7813439AB2394B1A803B791B029AB27B79A0
:403EC00013439AB2364B1A80354B1B881BB2503B184606F0F1FA04460D462F4B1B881BB20A33184606F0E8FA02460B462046294604F0B2FC02460B461046194624A3D3E970
:403F0000002306F03FFB02460B46104619464FF00002244B06F084F902460B4614461D46214B1B881BB2184606F0C6FA02460B462046294606F072F902460B46104619465A
:403F400006F0BAFD03469AB2184B1A80174B1B881BB2B3F5B47F09DD144B1B889BB2A3F5B4739BB29AB2114B1A800DE00F4B1B881BB2002B08DA0D4B1B889BB203F5B473A7
:403F80009BB29AB2094B1A800837BD46B0BD00BFF8C1631ADCA54C40746E0020E8570020EC57002000806640EA570020726E002080B500AF02F024FF322002F0C3FF80BD42
:403FC00080B500AF1D2002F0BDFF322002F04CFA80BD00BF80B500AF322002F0B3FF322002F042FA80BD00BF80B500AF02F058FE02F0FEFD0020002102F006FB114802F07E
:4040000039FB00F051FB0020002102F0FDFA0E4802F030FB00F072FD00F06CFB00F094FD02F0DEFE02F094FD002002F055FE002002F0FAFD054802F021FE054802F0C6FD1D
:4040400080BD00BF54BD000064BD00003D470000914B000080B400AF034B1B781846BD465DF8047B704700BF7D6E002080B400AF034B1B781846BD465DF8047B704700BFC9
:404080007C6E002080B485B000AFF860B9607A60BA687B689A4202DD7B68DBB208E0BA68FB689A4202DAFB68DBB201E0BB68DBB218461437BD465DF8047B704780B584B01D
:4040C00000AF00F0C3FEFFF7ABFE0023FB60744B1B881AB2734B1B881BB2D31ABB60BB68002BB8BF5B42B42B09DD6E4B1B881BB2C3F5B4726A4B1B881BB2D31ABB60BB6861
:40410000002BB8BF5B42052B30DD674B01221A70BB68002B14DABB68002BB8BF5B425B003C2019469622FFF7ADFF0346184600F06FF9012002F0ECFF002003F025F813E076
:40414000BB68002BB8BF5B425B003C2019469622FFF798FF0346184600F06EF9002002F0D7FF012003F010F8012394E0032000F0ADF94D4B00221A704C4B1B78022B03D0C1
:40418000032B44D0002B85E0494B01221A70494B1A68494B1B68D31A7B607B689BB21BB2184600F0EDF90346642B20DD7B68002B1DDD414B1A683F4B1B68D31A002BB8BF3F
:4041C0005B42DA0F13445B103C201946FF22FFF759FF03460320194600F05CF9032000F093F9314B00221A700223FB6052E00320002100F04FF9032000F068F92B4B00223C
:404200001A700023FB602A4B00221A7042E0284B01221A70274B1A68274B1B68D31A7B607B689BB21BB2184600F0AAF90346642B20DD7B68002B1DDA1F4B1A681D4B1B68C3
:40424000D31A002BB8BF5B42DA0F13445B103C201946FF22FFF716FF03460320194600F019F9032000F06EF90F4B00221A700223FB600EE00320002100F00CF9032000F079
:4042800025F90B4B00221A70084B00221A700023FB6000BFFB6818461037BD4680BD00BF906E0020726E00207D6E0020846E00207C6E0020806E0020D86E002000000000E2
:4042C000B0B586B000AF78603960394B1A68394B1A60374B5A68384B1A60384B7A681A60374B3A681A60354B1A68324B1B68D31A7B61334B1A68304B1B68D31A3B6138694E
:4043000006F0DAF804460D46786906F0D5F802460B462046294604F09FFA02460B46104619464FF00002274B06F02CF902460B46104619461CA3D3E9002306F04DFA0246EC
:404340000B46104619464FF000021E4B05F068FF02460B461046194606F0AEFB03469BB21BB2184600F044F87B697A6902FB03F23B69396901FB03F31344184606F09CF827
:4043800002460B461046194604F068FA02460B461046194606F090FB0346FB60F86800F013F81837BD46B0BD182D4454FB210940CC6E0020886E0020786E00208C6E0020FA
:4043C000946E00200080664080B582B000AF786000F09CFD044B7A681A60044B02221A700837BD4680BD00BF806E0020846E002080B483B000AF0346FB80044BFA881A80B3
:404400000C37BD465DF8047B704700BF906E002080B582B000AF7860022000F075F8012000F090F87B68DBB20320194600F032F80837BD4680BD00BF80B582B000AF786090
:40444000012000F061F8022000F07CF87B68DBB20320194600F01EF80837BD4680BD00BF80B500AF02F0AEFE002002F06DFF002002F088FF002002F047FF02F0A1FF002073
:4044800003F060F8002003F077F8002003F03AF880BD00BF80B582B000AF02460B46FA71BB71FB7903F00103002B03D0BB79184602F02AFFFB7903F00203002B03D0BB79F4
:4044C000184603F01FF80837BD4680BD80B582B000AF0346FB71FB7903F00103002B05D0002002F031FF002002F04CFFFB7903F00203002B05D0002003F024F8002003F052
:404500003BF80837BD4680BD80B582B000AF0346FB71FB7903F00103002B05D0012002F013FF002002F02EFFFB7903F00203002B05D0012003F006F8002003F01DF808374A
:40454000BD4680BD80B582B000AF0346FB71FB7903F00103002B05D0002002F0F5FE012002F010FFFB7903F00203002B05D0002002F0E8FF012002F0FFFF0837BD4680BDA9
:4045800080B483B000AF0346FB80B7F90630002BB8BF5B429BB21BB218460C37BD465DF8047B704780B584B000AF0346FB710023BB73012002F0BAFB012002F0E5FBC820F2
:4045C00001F074FF002002F0DFFBC82001F06EFF002002F0ABFB0A2001F068FF012002F0D3FB002002F0A2FB0A2001F05FFF02E0002002F09BFB02F0E3FB0346012BF7D04C
:404600000023FB732BE0FA79FB7B42FA03F303F00103002B0CBF00230123DBB2184602F085FBFA79FB7B42FA03F303F00103002B0CBF00230123DBB21A46BB7B1344BB733B
:4046400000BF02F0BDFB0346002BFAD000BF02F0B7FB0346012BFAD0FB7B0133FB73FB7B072BD0D9BB7B03F00103DBB2002B14BF00230123DBB2184602F058FB00BF02F0A8
:404680009FFB0346002BFAD000BF02F099FB0346012BFAD0012002F049FB012002F074FB1037BD4680BD00BF80B500AF72B6FF20FFF778FF082001F0D7FEF320FFF772FF7F
:4046C000022001F0D1FE5020FFF76CFF022001F0CBFEEA20FFF766FF022001F0C5FE0220FFF760FFF420FFF75DFF022001F0BCFE62B680BD80B500AF0A4B00221A700A4BB7
:4047000000221A70094B00221A70094B00221A70084B00221A7002F0DBFC0246064B1A6080BD00BFB06E0020A06E0020B26E0020A86E0020A96E0020AC6E002098B500AFA7
:4047400002F03EFB0346012B04D1FFF7D3FF02F047FB3CE19E4B1C6802F0BAFC0346E31A0A2B0BD9FFF7C6FF9A4B1B78DBB20133DAB2984B1A7002F033FB28E102F0F4FA41
:4047800003461A46944B1A70944B1B78DBB2012B4DD0022B00F09380002B40F011818D4B1B78DBB2002B07D18A4B1B78DBB20133DAB2884B1A7039E0864B1B78DBB2082B38
:4047C0001BD8854B1B78DBB21A46824B1B78DBB2013B02FA03F3DAB2814B1B78DBB2DBB21343DBB2DAB27E4B1A707A4B1B78DBB20133DAB2774B1A7018E0764B1B78DBB2CA
:40480000092B07D1734B1B78DBB20133DAB2714B1A700BE06F4B1B78DBB20A2B06D16D4B00221A706D4B01221A70C9E0C8E0694B1B78DBB2002B07D1664B1B78DBB20133C1
:40484000DAB2644B1A7039E0624B1B78DBB2082B1BD8614B1B78DBB21A465E4B1B78DBB2013B02FA03F3DAB25E4B1B78DBB2DBB21343DBB2DAB25B4B1A70564B1B78DBB202
:404880000133DAB2534B1A7018E0524B1B78DBB2092B07D14F4B1B78DBB20133DAB24D4B1A700BE04B4B1B78DBB20A2B06D1494B00221A70494B02221A7081E080E0454B33
:4048C0001B78DBB2002B07D1424B1B78DBB20133DAB2404B1A7072E03E4B1B78DBB2082B1BD83D4B1B78DBB21A463A4B1B78DBB2013B02FA03F3DAB23B4B1B78DBB2DBB258
:404900001343DBB2DAB2384B1A70324B1B78DBB20133DAB22F4B1A7051E02E4B1B78DBB2092B07D12B4B1B78DBB20133DAB2294B1A7044E0274B1B78DBB20A2B3FD1284B02
:404940001B78DBB203F01003002B0AD0254B1B78DBB2A3F1FF02254B1B681A44234B1A6008E0204B1B78DBB21A46204B1B681A441E4B1A601A4B1B78DBB203F02003002BE6
:404980000AD0194B1B78DBB2A3F1FF02184B1B681A44174B1A6008E0134B1B78DBB21A46134B1B681A44124B1A60124B1B78DBB20133DAB20F4B1A70FFF79CFEFFE700BFB2
:4049C00002F086FB0246024B1A6002F009FA98BDAC6E0020A06E0020A16E0020B06E0020A96E0020B26E0020A86E00209C6E0020A46E0020B16E002080B584B000AF03466D
:404A0000FB710023BB73012002F0B2F8012002F073F8C82001F04AFD002002F06DF8C82001F044FD002002F0A3F80A2001F03EFD012002F061F8002002F09AF80A2001F09F
:404A400035FD02E0002002F093F802F071F80346012BF7D00023FB732BE0FA79FB7B42FA03F303F00103002B0CBF00230123DBB2184602F07DF8FA79FB7B42FA03F303F0A3
:404A80000103002B0CBF00230123DBB21A46BB7B1344BB7300BF02F04BF80346002BFAD000BF02F045F80346012BFAD0FB7B0133FB73FB7B072BD0D9BB7B03F00103DBB28B
:404AC000002B14BF00230123DBB2184602F050F800BF02F02DF80346002BFAD000BF02F027F80346012BFAD0012002F041F8012002F002F81037BD4680BD00BF80B500AFA6
:404B000072B6FF20FFF778FF082001F0ADFCF320FFF772FF022001F0A7FC5020FFF76CFF022001F0A1FCEA20FFF766FF022001F09BFC0220FFF760FF022001F095FCF42010
:404B4000FFF75AFF62B680BD80B500AF0A4B00221A700A4B00221A70094B00221A70094B00221A70084B00221A7002F0B1FA0246064B1A6080BD00BFC16E0020B56E00206E
:404B8000B76E0020C06E0020B86E0020C46E002098B500AF01F0CCFF0346012B04D1FFF7D3FF01F0D5FF3CE19E4B1C6802F090FA0346E31A0A2B0BD9FFF7C6FF9A4B1B78A3
:404BC000DBB20133DAB2984B1A7001F0C1FF28E101F0ECFF03461A46944B1A70944B1B78DBB2012B4DD0022B00F09380002B40F011818D4B1B78DBB2002B07D18A4B1B788B
:404C0000DBB20133DAB2884B1A7039E0864B1B78DBB2082B1BD8854B1B78DBB21A46824B1B78DBB2013B02FA03F3DAB2814B1B78DBB2DBB21343DBB2DAB27E4B1A707A4BA3
:404C40001B78DBB20133DAB2774B1A7018E0764B1B78DBB2092B07D1734B1B78DBB20133DAB2714B1A700BE06F4B1B78DBB20A2B06D16D4B00221A706D4B01221A70C9E0FC
:404C8000C8E0694B1B78DBB2002B07D1664B1B78DBB20133DAB2644B1A7039E0624B1B78DBB2082B1BD8614B1B78DBB21A465E4B1B78DBB2013B02FA03F3DAB25E4B1B78B4
:404CC000DBB2DBB21343DBB2DAB25B4B1A70564B1B78DBB20133DAB2534B1A7018E0524B1B78DBB2092B07D14F4B1B78DBB20133DAB24D4B1A700BE04B4B1B78DBB20A2B1F
:404D000006D1494B00221A70494B02221A7081E080E0454B1B78DBB2002B07D1424B1B78DBB20133DAB2404B1A7072E03E4B1B78DBB2082B1BD83D4B1B78DBB21A463A4B76
:404D40001B78DBB2013B02FA03F3DAB23B4B1B78DBB2DBB21343DBB2DAB2384B1A70324B1B78DBB20133DAB22F4B1A7051E02E4B1B78DBB2092B07D12B4B1B78DBB20133A9
:404D8000DAB2294B1A7044E0274B1B78DBB20A2B3FD1284B1B78DBB203F01003002B0AD0254B1B78DBB2A3F1FF02254B1B681A44234B1A6008E0204B1B78DBB21A46204B34
:404DC0001B681A441E4B1A601A4B1B78DBB203F02003002B0AD0194B1B78DBB2A3F1FF02184B1B681A44174B1A6008E0134B1B78DBB21A46134B1B681A44124B1A60124BDD
:404E00001B78DBB20133DAB20F4B1A70FFF79CFEFFE700BF02F05CF90246024B1A6001F097FE98BDC46E0020B56E0020B46E0020C16E0020B86E0020B76E0020C06E002049
:404E4000BC6E0020C86E0020B66E0020F8B500AFFFF700F90346002B3DD1264B1E68264B1B881BB2254ADB001344D3E90045244B1B68184605F020FB02460B462046294639
:404E800005F080FB02460B461046194605F014FE0346F218174B1A60164B5E68164B1B881BB2184ADB001344D3E90045144B1B68184605F001FB02460B462046294605F0DD
:404EC00061FB02460B461046194605F0F5FD0346F218084B5A60084B1A88064B1A810A4B1A68074B1B681A44074B1A60044B00221A60F8BDCC6E0020726E0020F0570020A9
:404F0000A46E002030630020D86E002080B400AF034B00221A60BD465DF8047B704700BFD86E002080B400AF104B00221A60104B00221A600F4B00221A700F4B00221A60D9
:404F40000E4B00221A600E4B00221A700D4B00221A600D4B00221A600B4B00225A600A4B00221A81BD465DF8047B70479C6E0020A46E0020B16E0020BC6E0020C86E002042
:404F8000B66E0020D86E0020CC6E002080B500AFFFF7C8FF80BD00BF80B500AF03F03AF80346C3F543435033184605F075FA02460B46104619464FF00002084B05F00CFC9C
:404FC00002460B461046194605F09EFD03469AB2034B1A8003F08AF880BD00BF00004D40DC6E002080B500AF054B00221A8002F0B9FF02F0A5FE034803F02AF880BD00BF63
:40500000DC6E0020994F000080B582B000AF03F0FFFA0346C3F543435033184605F03CFA02460B46104619464FF00002244B05F0D3FB02460B461046194605F065FD0346DA
:405040009AB2204B1A80204B1A681E4B1B8899B21E4B23F812101C4B1B68591C1C4B83FB01235A10CB17D21A13469B001344CA1A154B1A6000237B600FE0134B1A68134B21
:4050800033F812309AB20F4B1B889BB213449AB20C4B1A807B6801337B607B68042BECDD084B1B889AB20B4BA3FB02139B089AB2044B1A8003F018FB0837BD4680BD00BF25
:4050C00000004D40E06E0020C481FF1FE46E002067666666CDCCCCCC80B500AF064B00221A60064B00221A8003F03AFA03F026F9034803F0ABFA80BDC481FF1FE06E00200E
:405100000950000080B400AFFEE700BF80B584B000AF78600F4B1A687B6813441A460E4BD31A002B09DC0B4B1B68FB60094B1A687B681A44074B1A6007E005F0D9FF0346BF
:405140000C221A604FF0FF33FB60FB6818461037BD4680BD2081FF1F186F002080B586B000AF224B7B61224B3B61204B7B6135E03B691B68FB603B695B68BB603B699B689A
:405180003B6000237B600CE0FB681A68BB681A60BB680433BB60FB680433FB607B6804337B607A683B689A42EED13B69DB683B6000237B6008E0BB6800221A60BB680433E8
:4051C000BB607B6804337B607A683B689A42F2D13B6910333B617B69013B7B617B69002BC6D105F08BFFFDF7C1FAFEE7010000000CD0000080B582B000AF184B184A1A6011
:40520000184B184A126842F400721A6000237B600FE07B68032B04D8134B7A6853F8223000E0124B124A796842F821307B6801337B607B682F2BECD90E4B1B78DAB20E4B8C
:405240001A700E4B0A4A1A6000F068F900F0F4FE0B4B00221A600837BD4680BD0CED00E00004FA0514ED00E000270000055100000080FF1FBC7600400481FF1F08ED00E017
:405280000081FF1F80B582B000AF78603960786800213A6805F061FF0837BD4680BD00BF80B584B000AFF860B9607A60F868B9687A6805F049FF1037BD4680BD80B584B09F
:4052C00000AFF860B9607A60F868B9687A6805F03BFF1037BD4680BD80B483B000AF0346FB71FEE780B487B000AF7860396000233B6100237B6126E07B699B007A681344E4
:405300001B68BB60BB68FB73BB6823F0FF03BB6013E03B695B003A6813441B781A46BB6813443A69520039680A4452781A703B6901333B61FB7B013BFB73FB7B002BE8D16D
:405340007B6901337B617B69292BD5D91C37BD465DF8047B704700BF80B582B000AF434B00221A80424B19221A70424B01221A80414B19221A70414B09221A80404B182250
:405380001A70404B41221A803F4B18221A703F4B41221A803E4B18221A703E4B40F271621A803D4B18221A703C4B41F6C7121A803B4B18221A703B4B06221A703A4B522299
:4053C0001A703A4B3A4A1278D2B21A70394B40F621321A80384B41F251221A800023FB7019237B6014E0FB785B00DAB2334B1B78DBB203F00103DBB21343DBB203F0030327
:40540000FB704FF4F07000F003FE7B68013B7B607B68002B02D0FB78032BE4D17B68002B02D10320FFF758FF254B4FF480721A80234B07221A70234B00221A70224B48229B
:405440001A701F4B00221A70204B00221A70204B02221A701F4B1F4A1278D2B242F07F02D2B21A700837BD4680BD00BF804000408240004084400040864000408840004068
:405480008A4000408C4000408E40004090400040924000409440004096400040984000409A4000400043004000420040A14600400F010049224200402042004025420040D8
:4054C0000440004006400040084000400940004001400040A243004080B483B000AF0B4B1B78FB710A4BFA7902F00702D2B21A70084BFA791209D2B21A70074B44221A707E
:405500000C37BD465DF8047B704700BFCF0100496E5800406F5800407658004080B586B000AF72B6584B61221A70FFF715FF564B01221A700023FB7513E0FA7D13465B00AC
:4055400013445B00514A13443B613B691A683B699B889BB210461946FFF794FEFB7D0133FB75FB7D062BE8D90023FB751CE0FA7D13469B0013445B00454A1344FB60FB689E
:405580001B68BB60FB685B687B60FB681A7A5B7A1B0213437B807B88B86879681A46FFF78DFEFB7D0133FB75FB7D012BDFD939483949FFF797FE39480421FFF763FE384BA7
:4055C000374A1278D2B242F00202D2B21A70354B344A1278D2B242F00202D2B21A70324B314A1278D2B242F04002D2B21A702F4B2E4A1278D2B242F01002D2B21A702C483A
:405600002C490A22FFF75AFE2B482C490A22FFF755FE2B482B490A22FFF750FE2A482B490A22FFF74BFE2A482A490A22FFF746FE29482A490A22FFF741FE294829490822D9
:40564000FFF73CFE284829490822FFF737FE284828490822FFF732FE274B44221A70274BC4221A70264B264A1278D2B242F00802D2B21A70FFF730FF22480B490E22FFF70C
:405680000FFE1837BD4680BD0048004074BD0000A0BD0000B4BD00005CBE0000007600400350014013500140A0430040C24300400051004068CC0000C051004074CC000001
:4056C000F051004080CC0000105100408CCC00002051004098CC000030510040A4CC000042510040B0CC000052510040B8CC000062510040C0CC00005B0A0140DB14014093
:4057000022430040B043004080B582B000AF02460B46FA71BB7100BF3020002100F0AEFB0346002BF8D1FB79184600F02FFCBB79184600F02BFC00F0FDFB0837BD4680BD48
:4057400080B500AF00BF00F005F90346002BFAD100BF00F0FFF80346002BFAD080BD00BF90B583B000AF042000F004F9042000F01DF900F099F912208021FFF7C5FF0120E7
:4057800000F072FE0023FB800FE0FA88394B13F81220FB8837495B000B445B7810461946FFF7B2FFFB880133FB80FA88314B13F81230FF2BE9D10023FB800CE0FB882E4AF7
:4057C000D25CFB882D49CB5C10461946FFF79CFFFB880133FB80FB88274AD35CFF2BEDD1274B3B60012001214FF4804241F6FF7300F080F803461A46224B1A700023FB8034
:405800002BE0FC8800F090FD03461A461E4B1A55FB881D4AD25CFB884FF4466101FB03F339680B449BB2104646F24E411A4600F0E1FDFB88002B0DD0FB88013B124AD25C08
:40584000FB881149CB5C10464FF446611A46022300F098FDFB880133FB80FB880F2BD0D9084B1B781846002100F08CFC0C37BD4690BD00BFD8CC000044CD000084CD00000D
:40588000F481FF1FC881FF1FCC81FF1F80B500AF0D4B1B780C4B1B780B4B1B780A4B1B780A4B1B78184600F03BFC084B1A78084B1B781046194600F0D1FC044B1B7818460F
:4058C000012100F0E7FB80BD4E640040C881FF1FCC81FF1F80B500AF054BDB7B18464FF44661FE22022300F04DFDFFF7CFFF80BDCC81FF1F80B584B002AFF871B971BA800F
:405900007B80134B00221A70114B1978FA79BB790020009000200190084611461A46002300F0BAFC0A4B1978BA887B88084611461A4600F055FC064B1B781846022100F0D9
:4059400021FC034B1B7818460837BD4680BD00BF2481FF1F80B400AF054B1B78DBB203F004039B08DBB21846BD465DF8047B70472151004080B483B000AF0346FB710A4B8F
:40598000094A1278D2B2D2B222F00E02D1B2FA7902F00E02D2B20A43D2B2D2B21A700C37BD465DF8047B70471550004080B483B000AF0346FB710A4B094A1278D2B2D2B20A
:4059C00022F00E02D1B2FA7902F00E02D2B20A43D2B2D2B21A700C37BD465DF8047B70471450004080B500AF134B02221A70134B81221A70124B08221A70124B0B221A7015
:405A0000114B00221A70114B4FF400421A600F20072100F085FD0F200D4900F059FD0D4B10221A700C4B00221A700C4B00221A700B4B00221A7080BDD6490040C849004066
:405A4000CA490040DB490040DC49004080E100E0D55A0000EE6E0020006F0020F16E0020F86E002080B582B000AF00F0DBFA0346FB710B4B0A4A1278D2B242F00402D2B286
:405A80001A70084B074A1278D2B242F00402D2B21A70FB79184600F0C9FA0837BD4680BDA5430040B543004080B500AF074B1B78002B04D1FFF796FF044B01221A70FFF7BA
:405AC000D1FF034B4FF400421A6080BDDC81FF1F00E100E080B582B000AFA84B1B78FB71A74B1B78DBB203F04003DBB2002B00F0AB81FB7903F00103002B00F08381A04B77
:405B00001B78DBB2453B052B00F2788101A252F823F000BF2D5B0000535C0000FD5D0000FD5D00002D5B0000415D0000FB7923F02003FB71FB7903F00A03DBB2082B46D179
:405B40008F4B1B78DBB2452B3AD18E4B1B78DBB2002B0FD08C4B8D4A12681278D2B21A70864B04221A708A4B01221A70844B46221A706DE0874B1B78DBB203F00203002BC7
:405B80000FD0854B1B78DBB243F00A03DAB2824B1A707B4B60221A70804B4FF400421A6056E07F4B7E4A1278D2B242F01002D2B21A707C4B10221A70704B04221A7047E01A
:405BC0006E4B00221A706E4B4A221A701AE1FB7903F00A03DBB20A2B36D16F4B1B78DBB263F05F03DAB26C4B1A706A4B1B78DBB203F00203002B18D0614B1B78DBB203F05E
:405C00000803002B01D0092300E00A23624A1278D2B21343DAB2604B1A70594B60221A705E4B4FF400421A6012E05D4B5C4A1278D2B242F01002D2B21A705A4B10221A70FA
:405C40004E4B04221A70DDE0002000F001FCD9E0D8E0FB7903F00203002B42D14C4B1B78DAB2484B1B78DBB29A4214D2464B474A1168474A1278D2B20A441278D2B21A70AB
:405C80003E4B04221A70424B1B78DBB20133DAB23F4B1A7053E03F4B1B78DBB203F00203002B0FD03C4B1B78DBB243F00A03DAB2394B1A70324B60221A70384B4FF4004239
:405CC0001A603CE0364B364A1278D2B242F01002D2B21A70334B10221A70284B04221A7090E02C4B1B78DBB203F00203002B0FD0294B1B78DBB263F06503DAB2264B1A7071
:405D00001F4B60221A70254B4FF400421A6016E0234B234A1278D2B242F01002D2B21A70204B10221A70154B04221A701A4B1B78DBB263F06F03DAB2174B1A7062E061E0D1
:405D4000194B1A68194B1B78DBB213440E4A1278D2B21A70154B1B78DBB20133DAB2134B1A70124B1B78DAB2114B1B78DBB29A4220D2024B10221A703FE000BFD74900403D
:405D8000EE6E0020F06E0020D8490040F46E0020F86E0020F36E0020006F002080E100E0D6490040D9490040FC6E0020F16E0020F26E00202B4B1B78DBB203F00203002B2C
:405DC0000FD0294B1B78DBB243F00903DAB2264B1A70264B60221A70254B4FF400421A600BE0244B234A1278D2B242F01002D2B21A70214B00221A7004E003E0002000F068
:405E000027FB00BFFB7903F02003002B27D0174B1B78DBB203F00803002B01D0012300E00223114A1278D2B21343DAB20E4B1A70104B104A1278D2B222F01002D2B21A700D
:405E40000A4B10221A700AE0084B1B78DBB203F01003DBB2002B02D1044B10221A700837BD4680BDF36E0020006F0020EE6E002080E100E0D6490040D749004080B485B0A4
:405E800000AF02460B46FA71BB710223FB73244B1B78DBB2102B3CD1224B1B78DBB203F00803002B33D1204B4FF400421A60FB795B00FB71BB79002B07D0FB7943F0010359
:405EC000FB71174B49221A7002E0154B45221A70164BFA791A70134B01221A7000BF144B1B78DBB203F00103002BF8D0104B1B78DBB203F00A03DBB20A2B05D1084B102283
:405F00001A700323FB7304E00023FB7301E00123FB73FB7B18461437BD465DF8047B7047EE6E0020D949004080E100E0D8490040D749004080B483B000AF0223FB71104BCC
:405F40001B78DBB203F00403002B12D00C4B10221A700C4B04221A700B4B10221A7000BF084B1B78DBB203F02103002BF8D00023FB71FB7918460C37BD465DF8047B704760
:405F8000D9490040D7490040EE6E002080B485B000AF0346FB710223FB73184B1B78DBB203F00403002B22D0154BFA791A70154B04221A70144B46221A7000BF114B1B783D
:405FC000DBB203F00103002BF8D00E4B1B78DBB203F00203002B05D10B4B60221A700023FB7304E0084B60221A700323FB73FB7B18461437BD465DF8047B7047D9490040DF
:40600000D8490040D7490040EE6E0020000000000230800800F0058000BF013800467FF4FCAF7047EFF3108072B6704780F31088704700BFAFF3008080B483B000AF134B79
:406040007F221A70124B80221A707F23FB710CE0FB79DB0003F1804303F5F043FA79013AD2B21A70FB79013BFB71FB79002BEFD1FB79DB0003F1804303F5F04300221A702D
:406080000C37BD465DF8047B704700BF2981FF1F2881FF1F80B485B000AF02460B46FA71BB710123FB60FB79172B2FD8BB79002B0ED0FB791A01194B1344FA791101174AD0
:4060C0000A441278D2B242F02002D2B21A700DE0FB791A01114B1344FA7911010F4A0A441278D2B222F02002D2B21A70FB791A010A4B1344FA791101084A0A441278D2B2C9
:4061000042F00102D2B21A700023FB60FB6818461437BD465DF8047B704700BF1070004080B485B000AF0346FB710123FB60FB79172B1DD8FB791A01114B1344FA791101C7
:406140000F4A0A441279D2B242F00402D2B21A71FB791A010A4B1344FA791101084A0A441278D2B242F00102D2B21A700023FB60FB6818461437BD465DF8047B704700BF9A
:406180001070004080B485B000AF02460B46FA71BB710123FB60FB79172B18D8FB791A010E4B13441B78DBB223F00E03FB72FB791A010A4B1344BA7902F00702D2B2520083
:4061C000D1B2FA7A0A43D2B21A700023FB60FB6818461437BD465DF8047B70471070004080B485B000AF13460246FA710A46BA807B800123FB60BA8841F6FF739A4202D1B3
:406200004FF40053BB807A8841F6FF739A4202D14FF400537B80FB79172B17D8FB79DB0003F1804303F5EC430433BB60BB68BA881A80FB79DB0003F1804303F5EC43063319
:40624000BB60BB687A881A800023FB60FB6818461437BD465DF8047B704700BF80B485B000AF02460B46FA71BB710123FB60FB79172B07D8FB791A01064B1344BA795A72DB
:406280000023FB60FB6818461437BD465DF8047B704700BF1070004080B485B000AFF871B9717A713B710123FB60FB79172B34D8FB79DB0003F1804303F5EC43BA7902F072
:4062C0007F02D1B27A79D201D2B20A43D2B21A70FB79DB0003F1804303F5EC433A7E1201D1B23A7902F00F02D2B20A43D2B25A70FB79DB0003F1804303F5EC433A7F02F0CD
:406300000F02D2B29A70FB79DB0003F1804303F5EC430022DA700023FB60FB6818461437BD465DF8047B704780B582B000AFFF23FB71FFF777FE0346BB71104B1B78182B58
:4063400012D90F4B1B78FB710C4B1B78013BDAB20A4B1A70FB79DB0003F1804303F5F0431B78DAB2064B1A70BB791846FFF75EFEFB7918460837BD4680BD00BF2881FF1F62
:406380002981FF1F80B485B000AFF871B980BA71FB700123FB60FB795BB2002B23DBBB8823F47F6323F00F039BB2002B1BD1FB79DB0003F1804303F5F043BB60BB68BA8826
:4063C0001A80FB79DB0003F1804303F5F043BA799A70FB79DB0003F1804303F5F043FA78DA700023FB60FB6818461437BD465DF8047B704780B485B000AF13460246FA716C
:406400000A46BA807B800123FB60FB795BB2002B17DBFB79DB0003F1804303F5F0430433BB60BB68BA881A80FB79DB0003F1804303F5F0430633BB60BB687A881A800023D1
:40644000FB60FB6818461437BD465DF8047B704780B483B000AF0346FB7101BE0C37BD465DF8047B704700BF80B582B000AF786008E00C4B1B681846FFF7CAFD7B68A3F5C7
:4064800000437B607B68B3F5004FF2D8064B1B687A6802FB03F31846FFF7BAFD0837BD4680BD00BF3C81FF1F3481FF1F80B582B000AF0346FB80FB88044A127802FB03F352
:4064C0001846FFF7A5FD0837BD4680BD3881FF1F80B584B000AF03463960FB710F4B1B68FB60FB791F2B02D90020FFF7B1FFFB7903F01F0310339B00FA6813441B68BB6095
:40650000FB7903F01F0310339B00FA6813443A681A60BB6818461037BD4680BD08ED00E080B582B000AF02460B46FA71BB71BB79072B02D90020FFF78BFFFB791F2B02D982
:406540000020FFF785FFFB7903F01F0303F1604303F56443BA795201D2B21A700837BD4680BD00BF80B500AF2820FFF77DFF032000F010F90520FFF777FF032000F00AF98F
:406580000F20FFF771FF032000F004F90120FFF76BFF022000F0FEF80520FFF765FF062000F0A2F80E2000F09FF82C2000F09CF8082000F099F8012000F096F80C2000F095
:4065C00093F8032000F090F80520FFF74DFF80BD80B500AF0C2000F087F8024B01221A7080BD00BFDD81FF1F80B500AF054B1B78002B04D1FFF7B6FF024B01221A70FFF77E
:40660000E7FF80BDDE81FF1F80B582B000AF02460B46FA71BB71FB79032B27D801A252F823F000BF3566000043660000516600005F660000BB79803BDBB2184600F054F83E
:4066400015E0BB79403BDBB2184600F04DF80EE0BB796C3BDBB2184600F046F807E0BB792C3BDBB2184600F03FF800E000BF0837BD4680BD80B584B000AF78600123FB7340
:406680007B681B78BB730BE0BB7B184600F00EF8FB7B7A6813441B78BB73FB7B0133FB73BB7B002BF0D11037BD4680BD80B584B000AF0346FB71FB791B09FB73FB7B1846E9
:4066C00000F030F86420FFF7F1FEFB7903F00F03FB73FB7B184600F025F89620FFF7E6FE1037BD4680BD00BF80B584B000AF0346FB71FB791B09FB73FB7B184600F04AF8A2
:406700006420FFF7D3FEFB7903F00F03FB73FB7B184600F03FF840F6C410FFF7C7FE1037BD4680BD80B582B000AF0346FB71184B174A1278D2B242F02002D2B21A70144B82
:40674000134A1278D2B222F04002D2B21A70104B0F4A1278D2B222F00F02D2B21A700C4B0B4A1278D1B2FA790A43D2B242F01002D2B21A700120FFF799FE054B044A127834
:40678000D2B222F01002D2B21A700837BD4680BD7264004080B582B000AF0346FB71144B134A1278D2B222F06002D2B21A70104B0F4A1278D2B222F00F02D2B21A700C4B2D
:4067C0000B4A1278D1B2FA790A43D2B242F01002D2B21A700120FFF769FE054B044A1278D2B222F01002D2B21A700837BD4680BD7264004080B582B000AF786000F03CF89E
:40680000786800F009F8072000F018F800F028F80837BD4680BD00BF80B485B000AF7860054B1B68FB60FB6860337A681A601437BD465DF8047B704708ED00E080B483B08D
:4068400000AF0346FB71054BFA795201D2B21A700C37BD465DF8047B704700BF08E400E080B400AF034B4FF480721A60BD465DF8047B704700E100E080B400AF034B4FF491
:4068800080721A60BD465DF8047B704780E100E080B400AF034B4FF480721A60BD465DF8047B704780E200E080B582B000AF786000F03CF8786800F009F8072000F018F8E3
:4068C00000F028F80837BD4680BD00BF80B485B000AF7860054B1B68FB60FB6864337A681A601437BD465DF8047B704708ED00E080B483B000AF0346FB71054BFA79520147
:40690000D2B21A700C37BD465DF8047B704700BF09E400E080B400AF034B4FF400721A60BD465DF8047B704700E100E080B400AF034B4FF400721A60BD465DF8047B70474F
:4069400080E100E080B400AF034B4FF400721A60BD465DF8047B704780E200E080B500AF054B1B78002B04D100F008F8024B01221A7000F04BF880BDDF81FF1F80B582B0A0
:4069800000AF1F4B1B78DBB223F03F03FB711C4BFA7942F00902D2B21A701A4B194A1278D2B242F00102D2B21A70174B164A1278D2B242F00102D2B21A7040F21F3000F01B
:4069C00035F840F21F3000F04FF8322000F05CF8002000F069F8FFF725FB0346BB710A4B094A1278D2B242F01002D2B21A70BB791846FFF71BFB00F029F80837BD4680BDEA
:406A000073640040926400409364004080B400AF054B054A1278D2B262F07F02D2B21A70BD465DF8047B70477364004080B483B000AF0346FB80044BFA881A800C37BD4631
:406A40005DF8047B704700BF0468004080B500AF01E000F045F800F037F8034603F01003002BF6D180BD00BF80B483B000AF0346FB80044BFA881A800C37BD465DF8047B73
:406A8000704700BF8468004080B483B000AF0346FB80044BFA881A800C37BD465DF8047B704700BF4468004080B483B000AF0346FB71044BFA791A700C37BD465DF8047B42
:406AC000704700BF8364004080B400AF034B1B78DBB21846BD465DF8047B70476364004080B400AF034B1B889BB21846BD465DF8047B7047A468004080B485B000AF0346FB
:406B0000FB710A4B1B78DBB223F00103FB73074BFA7902F00102D1B2FA7B0A43D2B21A701437BD465DF8047B704700BFC051004080B400AF054B1B78DBB203F00103DBB222
:406B40001846BD465DF8047B704700BFC151004080B400AF054B1B78DBB203F00103DBB21846BD465DF8047B704700BF8C45004080B485B000AF0346FB710B4B1B78DBB242
:406B800023F00203FB73084BFA795200D2B202F00202D1B2FA7B0A43D2B21A701437BD465DF8047B704700BFC051004080B400AF054B1B78DBB203F002035B08DBB21846E8
:406BC000BD465DF8047B7047C151004080B582B000AF786000F046F8786800F013F8072000F022F800F032F80837BD4680BD00BF80B500AF00F036F8014800F003F880BDC2
:406C00000551000080B485B000AF7860054B1B68FB60FB686C337A681A601437BD465DF8047B704708ED00E080B483B000AF0346FB71054BFA795201D2B21A700C37BD469F
:406C40005DF8047B704700BF0BE400E080B400AF034B4FF400621A60BD465DF8047B704700E100E080B400AF034B4FF400621A60BD465DF8047B704780E100E080B582B0D6
:406C800000AF786000F046F8786800F013F8072000F022F800F032F80837BD4680BD00BF80B500AF00F036F8014800F003F880BD0551000080B485B000AF7860054B1B682F
:406CC000FB60FB6850337A681A601437BD465DF8047B704708ED00E080B483B000AF0346FB71054BFA795201D2B21A700C37BD465DF8047B704700BF04E400E080B400AF1F
:406D0000034B10221A60BD465DF8047B704700BF00E100E080B400AF034B10221A60BD465DF8047B704700BF80E100E080B485B000AF0346FB710B4B1B78DBB223F0020385
:406D4000FB73084BFA795200D2B202F00202D1B2FA7B0A43D2B21A701437BD465DF8047B704700BF0051004080B400AF054B1B78DBB203F002035B08DBB21846BD465DF8A6
:406D8000047B70470151004080B485B000AF0346FB710A4B1B78DBB223F00103FB73074BFA7902F00102D1B2FA7B0A43D2B21A701437BD465DF8047B704700BF005100400E
:406DC00080B400AF054B1B78DBB203F00103DBB21846BD465DF8047B704700BF0151004080B400AF054B1B78DBB203F00103DBB21846BD465DF8047B704700BF80450040F8
:406E000080B500AF054B1B78002B04D100F008F8024B01221A7000F061F880BDE081FF1F80B582B000AF284B274A1278D2B242F00202D2B21A70254B1B78DBB223F070033A
:406E4000FB71224BFA7942F01002D2B21A70204B1F4A1278D2B222F03002D2B21A701C4B1B4A1278D2B242F03002D2B21A70184B174A1278D2B222F00F02D2B21A70144B92
:406E8000134A1278D2B242F00F02D2B21A7040F21F3000F047F8122000F054F8002000F061F80C4B0B4A1278D2B242F00202D2B21A70094B084A1278D2B242F00102D2B224
:406EC0001A700837BD4680BD0C4F00400E4F0040174F0040A34300400D4F004080B400AF0D4B0D4A1278D2B242F00202D2B21A700A4B0A4A1278D2B242F00202D2B21A700A
:406F0000074B074A1278D2B242F00102D2B21A70BD465DF8047B7047A3430040B34300400C4F004080B483B000AF0346FB80044BFA881A800C37BD465DF8047B704700BF03
:406F4000104F004080B483B000AF0346FB80044BFA881A800C37BD465DF8047B704700BF124F004080B483B000AF0346FB71044BFA791A700C37BD465DF8047B704700BF55
:406F80000F4F004080B485B000AF0346FB71094B1B78DBB203F07F03FB73064BFA79D201D1B2FA7B0A43D2B21A701437BD465DF8047B7047C051004080B582B000AF6FF086
:406FC0007F4000F05BF86FF07F4000F073F8FFF729F80346FB710A4B094A1278D2B242F01002D2B21A70FB791846FFF71FF800F081F8002000F026F80837BD4680BD00BF8E
:407000009564004080B400AF054B054A1278D2B262F07F02D2B21A70BD465DF8047B70477464004080B500AF054B1B78002B04D1FFF7C2FF024B01221A70FFF7E3FF80BD73
:40704000E181FF1F80B483B000AF0346FB71044BFA791A700C37BD465DF8047B704700BF8564004080B400AF034B1B78DBB21846BD465DF8047B70476564004080B582B013
:4070800000AF78600348796801F03AFB0837BD4680BD00BF2464004080B400AF044B1B6823F07F431846BD465DF8047B704700BF4464004080B582B000AF786003487968BA
:4070C00001F01EFB0837BD4680BD00BF0464004080B400AF054B1B78054B1B6823F07F431846BD465DF8047B704700BF046400404464004080B500AF01E0FFF7CDFFFFF77A
:40710000B1FF034603F00803002BF6D180BD00BF80B485B000AF0346FB710B4B1B78DBB223F01003FB73084BFA791201D2B202F01002D1B2FA7B0A43D2B21A701437BD4691
:407140005DF8047B704700BF5051004080B485B000AF0346FB710B4B1B78DBB223F02003FB73084BFA795201D2B202F02002D1B2FA7B0A43D2B21A701437BD465DF8047BD7
:40718000704700BF5051004080B485B000AF0346FB710B4B1B78DBB223F04003FB73084BFA799201D2B202F04002D1B2FA7B0A43D2B21A701437BD465DF8047B704700BF75
:4071C0005051004080B500AF054B1B78002B04D100F008F8024B01221A7000F061F880BDE281FF1F80B582B000AF284B274A1278D2B242F00202D2B21A70254B1B78DBB21A
:4072000023F07003FB71224BFA7942F01002D2B21A70204B1F4A1278D2B222F03002D2B21A701C4B1B4A1278D2B242F03002D2B21A70184B174A1278D2B222F00F02D2B231
