:400000000080002011000000E9000000E900000008B5054B1A6803F53F5302331A6000F02BFA00F063F800BFFA46004010B5054C237833B9044B13B10448AFF30080012394
:40004000237010BD2881FF1F000000004022000008B5064B1BB106480649AFF300800648036813B1054B03B1984708BD00000000402200002C81FF1F0881FF1F0000000065
:4000800008B500F01DFD0A2000F018FE00F0C0FC0F4800F0ABFC62B60E4B0F4C1B7813F0010F10D00D4B00251D7000F07BFC0C4800F019FC0120294600F082FC094800F054
:4000C00012FC402300E08023237000F091FBFEE7AD0C000069640040FA4600407B6500404422000055220000FEE7000008B51249124B4A1C1AD053F8106C53F80C0C53F8B6
:40010000085C0022AA4200EB020403D0B45884500432F7E753F8040C0022824203D00025A5500432F9E710330139E2E702F04CF8FFF7A6FFFEE700BF00000000C0260000B0
:4001400008B5114A114B1A609A6842F400729A600023032B98BF0E4A4FEA830094BF52F823100C490C4A0133302B1150F1D10B4B19780B4B19700B4B1A6000F017F80A4B1A
:4001800000221A6008BD00BF0004FA050CED00E000000000E90000000080FF1FBC7600400481FF1F08ED00E00081FF1FF8B572B66A4B61221A70A3F5F0634FF4E1521A80A1
:4001C000192541F61F429D709A8003229D711A81634A182340F65401137051801371614B06221A705222A3F580731A705E4B00241A785E4BD2B21A7040F61802A3F27F4345
:400200001A8041F2512223F8022C594B4FF4F0701B7803F0010343EA440400F061FC013D04F003041BD0032CEFD1524B4FF480721A8007221A70504A0024482114709170C4
:4002400002221C705C7103F8032C93F89E2342F00F0283F89E23012283F8FC2700E0FEE7464B0021234418689A88063401F0DBFF2A2CF5D100231946414C00221859803454
:4002800020F0FF06C0B2450004EB4104AA4208D004EB020CA75C9CF801C0023207F806C0F4E70433802B0144E6D1364B364C1A7842F002021A701A7C42F002021A74334A47
:4002C000137843F040031370314B197841F010011970304B186859681D4603C455F80A0F1989B83424F8B81C696803C429891D4655F8140F21806968283403C429891D4611
:4003000055F81E0F21806968B83C03C429891D4655F8280F21806968083403C429891E48218053F8321FA4F6A854016059681B4B4160197841F008011970194B19491B7847
:40034000DBB203F007001B0908704B70164B442119700FCA07C42380F8BD00BF004800408A400040004300400F010049A146004025420040044000400640004068220000C5
:40038000942200000350014000510040A0430040C24300400C2500006251004022430040CF0100496E58004076580040004710B500232AB1013A4418A45C2344DBB2F8E790
:4003C000184610BD0138092842D8DFE800F0050B11171D232F29353B0902C1F57F3101F570713BE00902C1F57F3101F2C13138E00902C1F57F3101F2C5312AE00902C1F561
:400400007F3101F2C9312CE00902C1F57F3101F5747123E00902C1F57F3101F2D1311DE00902C1F57F3101F2D63112E00902C1F57F3101F2D2310CE00902C1F57F3101F54A
:40044000757106E00902C1F57F3101F5767108E000210B78487843EA002070470878C0B270470B784A788878000440EA02201843CB7840EA0360704710B50B4B1A7802F053
:40048000C002802A0ED100241C7002202146FFF799FF38B121460220FFF794FFBDE81040FFF784BF10BD00BFFA460040F8B5044621460320FFF786FF214607460420FFF72B
:4004C00081FF013700EB072721460320FFF77AFF0025013003022E46BB4209D213F8012B511EC9B2FD29154498BF0126EDB2F3E701202146FFF766FF6D42EDB2854204D127
:40050000002E14BF00200620F8BD0620F8BD000080B5ADF51A7D00F0F7FA10B1002000F0C3FB00F0F9FC62B600273D4604A84FF4967101AAFF2300F01FFD0028F6D1BDF8EC
:400540000420062A40F248819DF81030012B40F043819DF812309DF8134043EA042404F1070E04AB234496455E79197900F232819B79172B40F03081231D9BB233B10DF174
:400580000F02D25C013B104480B2F6E7404241EA062380B2834240F021819DF811309DF81460313B0A2B00F2E780DFE813F00B001B00E500E500E500E500800091003F0011
:4005C000A000D600002F00F00781002C40F004812046FFF76BFFD0F1010038BF00208DF81400B8E0002F00F0F780012C40F0F480032E00F2F1807A4B1B681B68C3F3074268
:40060000964202D1C3F3072303E08CBF00234FF480738DF814301B0A8DF815300024FF238DF816308DF817400421A7E0002F00F0D380022C40F2D080033C4FA828440DF195
:400640001701224601F0E6FDA6F1400325443F2BADB203D800F002FB102301E04FF480739D4240F084809DF816109DF815303F2E43EA01210ED85A4B01EB06221B6892B23E
:400680001B68C3F30F2013F0FF0F1CBF013080B282426ED32B464FAA304600F07DFA00280CBF00240A24002500F024FB65E0002F00F092802E19B6F5967F00F28B804FA84D
:4006C0002844224605A901F0A5FDB5B2002454E0002C40F08180434A02AB92E8030005AA83E8030082E803000127082146E0002F72D0032C70D19DF815309DF8168043EAFE
:400700000828A6F140033F2B07D837484FEA08111022FFF74CFE044619E008EB0621002009024FF48072FFF742FE032E04460ED1B8F1FF0F0BD100210520FFF743FE201A8C
:40074000C4B200210620FFF73DFE201AC4B264428DF814400024012110E00020FFF7A6FE10B9224B80221A7000F0A0FA34E0002530E000250A2400E00524002101238DF811
:40078000103000220B1DADF806108DF811408DF812108DF813209BB20DF10F00C05C013B02449BB292B2002BF6D1524205AB92B25A540DF11503120A5A540DF116031722DE
:4007C0005A54073104A889B20DF10602962300F0B2FBABE60324D0E70424CEE70824CCE70C81FF1F4825000000800040FA46004070B50020FFF75AFE144D00282B684FF05F
:4008000000001C68014622460CBF00260626FFF7CEFD6B681B78181A00F0FF00984200D114B9002000F040FA094B1A7802F0C002402A1A4600D01EB100231370FFF768FE59
:4008400080221A70BDE8704000F030BA0C81FF1FFA46004010B50B4C237803F09F032370237803F0F0032370237843F0100318432070012000F036FA237803F0EF032370DF
:4008800010BD00BF7864004010B50D4C237843F020032370237803F0BF032370237803F0F0032370237843F0100318432070012000F018FA237803F0EF03237010BD00BF69
:4008C0007864004010B504460009FFF7DDFF642000F008FA04F00F00FFF7D6FFBDE81040962000F0FFB938B505460078012428B1FFF7E8FF285D0134E4B2F8E738BD10B5E7
:4009000004460009FFF7A6FF642000F0EBF904F00F00FFF79FFFBDE8104040F6C41000F0E1B908B5282000F0C9F90320FFF792FF052000F0C3F90320FFF78CFF0F2000F05C
:40094000BDF90320FFF786FF012000F0B7F90220FFF780FF052000F0B1F90620FFF7CFFF0E20FFF7CCFF2C20FFF7C9FF0820FFF7C6FF0120FFF7C3FF0C20FFF7C0FF032069
:40098000FFF7BDFFBDE80840052000F097B9000008B50C20FFF7B3FF014B01221A7008BD4481FF1F10B5054C63781BB9FFF7B9FF01236370BDE81040FFF7EABF4481FF1F20
:4009C000032811D8DFE800F00205080B81F0800008E0A1F1400004E0A1F16C0001E0A1F12C00C0B2FFF78BBF70470000064A0423136002F688321268E0219064034A1170A4
:400A0000A2F202321360704780E100E002E400E0014B04221A60704780E200E01E4B1A78A3F65D3342F0020283F85D2B93F85F2B02F08F0242F0300283F85F2B93F8682B5C
:400A400002F0CF0283F8682B93F8682B42F0300283F8682B93F8682B02F0F00283F8682B93F8682B42F00F0283F8682B4FF6FF72A3F8612B0122A3F8632B002283F8602B45
:400A80001A7842F001021A7093F85E2B42F0010283F85E2B704700BF004F0040074B1A7842F001021A701A7C42F001021A7493F85D2B42F0010283F85D2B7047A34300406F
:400AC00010B5054C23781BB9FFF7A8FF01232370BDE81040FFF7E2BF4681FF1F000000000230800800F0058000BF013800467FF4FCAF7047EFF3108072B6704780F310880E
:400B0000704700BFAFF3008038B500F02DF900F0B5F9002838D100F0EBF9072804460FD11B4B1A78900703D4012000F0DBF8F7E71A78910704D51B789B0814BF072400249B
:400B400000F0BCF90CBB00F00FF900F097F9D8B9012000F079F9072805D04FF0FF3410E02B789B07F9D40B48022100F00FF90228074DF5D12B789A0703D4012000F0B2F87D
:400B8000F8E700F09BF900E00424204638BD00BF224700405481FF1F4128F8B505460E4617461C460AD8411F3A298CBF002101213F2804D8B6F5807F29D805E00121812EC9
:400BC00028BF0121102C22D10FB301BB00F056F9F8B92346284631463A4600F0F1F80728044611D11B4B1A781F4612F0020F03D1012000F077F8F5E71A78900702D51B781A
:400C00009B0808D04FF0FF3400F058F91FE001241DE004241BE0104B28461A7831465B7800F0F2F807280446EED13A78094B910703D4012000F056F8F7E71A789207E1D5F8
:400C40001B789B080CBF00246FF00004DCE72046F8BD00BF224700405481FF1F08B5FFF749FF0F4B1A780C3342F0080203F80C2C1A7942F008021A71C82283F855231A7855
:400C800042F010021A701A7C42F010021A74054B1B789B06FBD5BDE80840FFF72FBF00BFA04300400047004001BE7047024B1A7842F001021A707047F646004010B504461A
:400CC000B4F5004F064B05D91868FFF709FFA4F50044F5E758686043BDE81040FFF700BF1481FF1F024B1B7A5843FFF7F9BE00BF1481FF1F08B5FFF7FDFE00BF00BF00BF4F
:400D000000BF00BF00BF00BF00BF00BF00BF00BF00BF00BF00BF00BF00BF064B1A8892B242F004021A801B88BFF36F8FBDE80840FFF7E4BE00480040054B00F01F001B68B5
:400D400000F1100253F8220043F82210704700BF08ED00E000F01F0000F16040490100F56440C9B20170704708B5FFF7C3FE064B1A7842F008021A701A7C42F008021A74A8
:400D8000BDE80840FFF7BABEA043004070B506460D460024E3B2AB420CD2074B1B78DB0703D40120FFF79EFFF7E7044B1B7833550134EFE7284670BD2247004020470040DD
:400DC00030B50F490C78A40716D50E4CB6252570D5252570022525700D7805F0020505F0FF015DB9207088B2984203D2505C01312070F8E7072030BD042030BD092030BDFA
:400E0000224700402047004070B50D4D2C78A60712D50C4CB6262670D8262670052626702D78AD070AD42070080AC9B22070217022702370072070BD042070BD092070BDF7
:400E400022470040204700400A4A137899070CD5094BB6211970E12119700E2119701278920704D4187007207047042070470920704700BF224700402047004038B5FFF7BD
:400E800039FE0C4B197879B901250B4A1D7014682C400AD0146824F00104146000BF00BF00BF5D600C4600E00424FFF727FE204638BD00BF4881FF1F0400084010B5FFF797
:400EC00019FE094B002259681A70012908D107490C6844F001040C6000BF00BF00BF5A60BDE81040FFF70ABE4881FF1F04000840074B1B789B0708D5064BB6221A70E022B8
:400F00001A700D221A70072070470420704700BF224700402047004008B562B60020022100F04EF9014B01221A7008BD5081FF1F012000F0F1B9F8B507460E46154603EB58
:400F400083030220394640225C0000F0A7F9022000F086F930B92CB10120013CFFF7AEFEA4B2F4E7022000F07BF910B12E800020F8BD1020F8BD00002DE9F84303EB830300
:400F80005C00234B16461A7880460F469946AAB1254600F053F930B92DB10120013DFFF78DFEADB2F5E700F049F9A8B100F04CF9FFF7BEFF002389F800300DE000F044F93A
:400FC00050B100F03BF938B1FFF7B2FF04E054B1FFF774FE013CA4B2012000F041F901284FF00100F3D100F03BF901280AD14146402F34BF3A46402200F0A4F93080002090
:40100000BDE8F883002333801020BDE8F88300BF5081FF1FF8B5FFF76DFD394B01251A78022642F001021A701A7C364C42F001021A7403F5E75318331D7003F8946C13F8A1
:401040008D2C074602F07F0203F88D2C0020FFF749FE2378284603F0F90323702A4B1A7802F0DF021A7023782B432370FFF73AFE2820FFF737FE254B30461A7802F07F02CF
:401080001A701A7802F0BF021A70237833432370FFF728FE2378384643F0040323701C4B00241C705C70FFF729FD1A491720FFF743FE17200721FFF74DFE17491520FFF736
:4010C0003BFE15200721FFF745FE14491820FFF733FE18200721FFF73DFE20461049FFF72BFE20460721FFF735FE28460D49FFF723FE28460721BDE8F840FFF72BBE00BF53
:40110000A54300409443004012600040F8510040846000400B180000091800005D160000A1170000D5170000184B012210B51A70174B4FF400041C604FF080741C601A6093
:4011400002221A60134B00241C70134B01B103221A70124B124A187000231370114A01201370114A1370114A1370114A1370114A1370114B03221A70802203F8202CFFF7BC
:40118000AFFC0E4B04221A7010BD00BFE681FF1F00E100E05881FF1F096000406281FF1F6A81FF1F5981FF1F6581FF1F6381FF1F7981FF1F5A81FF1F286000401260004076
:4011C00070B5074C064623780D461BB9FFF722FF0123237030462946BDE87040FFF7A4BF5181FF1F0C4B01221A700C4A002313700B4A13700B4A13700B4A13700B4A1370B8
:401200000B4A13700B4A13700B4B03221A70802203F8202C704700BFE681FF1F5881FF1F6A81FF1F5981FF1F6581FF1F6381FF1F7981FF1F5A81FF1F28600040014B187862
:40124000704700BF6A81FF1F044B1A7802F0FF001AB118780022C0B21A7070476581FF1F024B0C2202FB0030407870477A81FF1F0138C3B2072B0CD8074A1B01DBB2985C07
:4012800001329B5C00F00F0043EA0020023880B270470020704700BF0C600040431EDBB2072BF0B52FD8184E0C2404FB0064E7881B01BFB2154DC7F50077DBB2BA421D4413
:4012C00003D9E288C2F5007292B20C2404FB0064E7780F4C47EA12271F55D7B201341F5549B90C2202FB0060002242704179094AC9B29954F0BD0024A7B29742F1D20F5DD6
:4013000001342F70F8E7F0BD7A81FF1F886000400C6000400E600040431EDBB2072B0BD8064A0C2101FB00200022427041791B01034ADBB2C9B29954704700BF7A81FF1F9B
:401340000E600040F8B5431EDBB2072B07460D46144616D8B9B11B010C4EDBB21E44FFF787FFA04228BF204684B200239AB2A24203D23278EA540133F8E73846FFF7CCFFF8
:4013800002E0002400E00C462046F8BD8860004030B51A4B1A481A8801780A4492B219491A80194BCAB21C88A4B284B1174A91420CD05A681278D2B201F8012B5A68013254
:4013C0005A601A88013A92B21A80EAE7082203780F4C082B0F4B00D042B10F490D7885F080050D700F212170022101E00221217019700A4B02701A7030BD00BF6881FF1FFD
:401400005A81FF1F006000406C81FF1F086000406181FF1F5881FF1F6481FF1F7881FF1F074B02221A70074B80221A70064B0F221A70064A00231370054A01201370704725
:401440005881FF1F6481FF1F6181FF1F5A81FF1F7881FF1F10B5154B1A78154B02F00F021988023AD2B2114489B219801149124B188880B278B172B1586811F8014B013A99
:40148000E4B204705868D2B2013058601888013880B21880EBE7094B1A70094B1A7882F080021A70074B0B221A7010BD296000406881FF1F006000406C81FF1F7881FF1FD6
:4014C0006481FF1F6181FF1F064A06231370064A01201370054B80221A70054B00221A70704700BF5881FF1F6181FF1F6481FF1F7881FF1F054B9A683AB19A6804491070EE
:401500009A680988518000229A6070476C81FF1F6881FF1F08B5124B1A78D2B21A701B78DBB21A0602D50F4A137008BD0220FFF7E1FF0D4B1B7803F06003202B05D0402B2C
:4015400006D043B900F0C4FC04E000F013FE01E000F004FE10B9034B03221A7008BD00BF286000406181FF1F0060004008B50849084B01201A8809780A4492B21A80064B5D
:4015800000221A70FFF7B6FF044B03221A7008BD5A81FF1F6881FF1F5881FF1F6181FF1F08B50C4B1B78DBB2042B07D0062B09D0022B0DD1BDE80840FFF7D8BFBDE8084064
:4015C000FFF748BF0320FFF795FF034B03221A7008BD00BF5881FF1F6181FF1F08B5054B002201201A70FFF785FF034B03221A7008BD00BF5881FF1F6181FF1F08B50A4BEB
:401600001A7832B11978094A41F08001117000221A70074B002201201A70FFF76BFF054B03221A7008BD00BF6381FF1F086000405881FF1F6181FF1F074B1B78DBB2042B2E
:4016400005D0062B05D0022B05D1FFF7A1BEFFF7C5BFFFF7D3BF70475881FF1F10B51D4C2378DBB2DA0633D518060AD503F00F03012B2DD1FFF74EFF174B1B78190609D5E8
:4016800010BD5A0602D5FFF7D7FF03E09B061FD5FFF786FF23781B061AD4104B104A1B78127813430F4A13701278934210D10A4B08491A782078D2B2000605D41A78D2B230
:4016C0000A700A7802F00F021B789A42EFD110BD10BD00BF286000406181FF1F6481FF1F7881FF1F29600040054A00231380054A916819B191680B7092685380704700BFEA
:401700006881FF1F6C81FF1F10B50F4C23889BB213B9FFF785FE14E00C4B02221A700C4B00221A70FFF7E0FF0A4B1A78013B1B7843EA0223228892B29A4288BF2380FFF7B7
:4017400027FE012010BD00BF6C81FF1F5881FF1F6481FF1F0760004008B50C4B04221A700B4B80221A70FFF7BFFF0A4B01201A78013B1B7843EA0222074B198889B29142C8
:4017800088BF1A80054B0B221A7008BD5881FF1F6481FF1F076000406C81FF1F6181FF1F094B1B78094B1A7B02F00302012A03D0DA7B82F08002DA7301225A73044B1A78A4
:4017C00002F0FE021A7070470E6000407A81FF1F0B600040094B1B78094B1A7E02F00302012A03D0DA7E82F08002DA7601225A76044B1A7802F0FD021A7070471E6000401C
:401800007A81FF1F0B6000407047FFF7EBBC000008B50C4B18780138C0B200F07BF90A4B0A491B78DBB200EBC3004269CB5C02EBC3035B685A6A064B1178C9B219805A60B3
:4018400008BD00BF6A81FF1F046000406081FF1F6C81FF1F08B50D4B18780138C0B200F059F90B4B0B491B78DBB200EBC3004269CB5C02EBC3035B68DB69597813F8022B8E
:4018800042EA0121044A1180536008BD6A81FF1F046000406081FF1F6C81FF1F10B5194C00232380184B18780138C0B200F032F9164B174A1B781278DBB2D2B200EBC20086
:4018C0004169EAB9134A127801EBC20251685A1E022A15D8104A03F10053013B127801EBC30011F83330D2B2934209D30C235A4341688B1858688A5A9B6860602280A360DF
:4019000010BD00BF6C81FF1F6A81FF1F03600040046000406081FF1F0260004010B53C4B3C4A1B781178DBB2090634D501321278013A052A6AD8DFE802F010182769690346
:40194000354B1A78212A02D1FFF762FF07E01B78222B5BD1FFF77EFF01E0FFF79FFF2F4B1B889BB2002B51D00AE0002B4ED12C4B1B78002B4AD1294B01221A80294A5A606D
:40198000BDE81040FFF7C0BE002B3FD1234B01221A80254AF3E71278120637D4234A1278D2B20A2A0DD00B2A27D0092A2ED1FFF775FF1A4B1B889BB243B3BDE81040FFF7D8
:4019C000CBBE1BBB164B1B7803F0FF01F3B9124B144A1B78DBB21370154B14781878844201D2197005E01978012902D91278D2B21A70BDE81040FFF767BD3BB9084B1A78FE
:401A0000012A03D81A78084BD2B2F1E7002010BD0460004000600040036000406C81FF1F02600040E781FF1FE681FF1F01600040E881FF1F7FB5144B02466D4603F1100613
:401A4000186859682C4603C40833B3422546F7D1BAB122231370032353700C4B13F8011B04ACC9B204EB111001F00F01214411F8101C10F8100C907002F8041F04498B42BE
:401A8000ECD104B070BD00BF50250000000100490801004930B51C4B01211C4A0C2000FB012483F87200657925B12479240658BF082000E0802018700C2000FB0122108906
:401AC0000131C0F3072003F8020C10890929C0B203F8010CD08803F11003C0B283F86800D088C0F3072083F86900D088C0B283F86600D288C2F3072283F86720CDD1044BF0
:401B0000FF221A7030BD00BF0E6000407A81FF1F0A600040074B1A78074B03EBC2035B6803F108021B7A834286BF02EBC0004068002070476281FF1F64250000F8B5394BAD
:401B40001A78002A6CD018780138C0B2FFF7E2FFC368047A083303EBC404A34260D013F8082C314931488D5C805C854256D0895C13F8070C884251D12D4909788A424DD1F8
:401B800013F8060C13F8056C00F07F02511E10F0800F28484FEA01114FF00C05C9B206F0030605FB020506D00127BE426F7014BF0D26072605E00027012E6F7014BF092665
:401BC00005266E711C4D01266E540C25554333F8046C4219168113F8066C167113F8056C46550020D07015891448C5F30725455415890130EDB24554D5887930EDB24554FC
:401C0000D5880130C5F307254554D5880338EDB24554D2880130C2F30722425408339CE7F8BD00BF6A81FF1F6081FF1F6B81FF1F046000407A81FF1F0E6000400C6000406F
:401C400008B5064B18780138C0B2FFF763FF20B143681B7900EBC300406908BD6A81FF1FF8B500210C254D434C4C0131002362190929635593705370D37053711381937247
:401C8000F0D118B1464A1370464A1370464B1A78002A00F0818018780138C0B2FFF73AFF4368017ADB79C90013F0400F3F4B1A7814BF42F0010202F0FE021A700122C36849
:401CC000083303EB010E73453DD013F8065C05F07F06B24235D10C2606FB0246B6F808C033F8047C1FFA8CFCBC4538BF378113F8086C2B4FBE5D13F8077CB74221D113F881
:401D0000056C15F0800F4FF00C0506F0030605FB024506D00127BE426F7014BF0D26072605E00027012E6F7014BF092605266E710C25554313F8067C6619377113F8056CD9
:401D400066550833BFE70132092AB8D1C36803F10802114408338B420AD013F8062C0C2502F07F0205FB024213F8080C9072F1E7FFF766FF0E4B0022186001230C2101FBBF
:401D80000341CA80098901330A44092B92B2F5D1BDE8F840FFF77EBEF8BD00BF7A81FF1F6081FF1F6B81FF1F6A81FF1F7981FF1F5C81FF1F114B197801F07F014A1ED2B238
:401DC000072A19D80E4B0C2000FB01339978120141F0010199700021D9705978D2B241F0020159701B7913F0800F064B14BF8D218921D154FFF768BB002070470460004096
:401E00007A81FF1F0E60004010B51A4B1B7803F07F035A1ED2B2072A29D817490C2000FB03139978120101F0FE0199700021D9701249D2B2545C04F07F045454597801F0E7
:401E4000FD01597019795B7811F0800F0C4905D0012B01D1505406E00D2303E0012B0CBF082309235354BDE81040FFF72DBB002010BD00BF046000407A81FF1F0C60004004
:401E80000E60004010B50D4B1C780D4BE4B218780138C0B2FFF73EFE43681B79A3420BD954B9084B084A19780120C9B21170074A1278D2B21A7010BD002010BD04600040B9
:401EC0006A81FF1F6081FF1F6B81FF1F0260004038B58D4C002323808C4B1A7812F0800F8B4A127800F08A800A2A00F20A81DFE812F05A00080108010801080108010B0043
:401F000008017A0008017E00824B1A78012A09D1814B1A78814B03EBC2035B685B686360122311E01A78022A13D17D4B1878FFF7F1FD002800F0E580436863606368DA7801
:401F400063689B7843EA02232380BDE83840FFF7DBBB1B78032B22D1724B00227049D0B20D78854202D80A783AB910E0187801320028F8D019780B44F0E7694A6A49127832
:401F8000097C914203D16948FFF754FD674B1A78002A00F0B6801A78D2B2228019E0BDE8384000F0E7B81A7812F0030213D0022A40F0A7805E4B22801B785E4A03F07F0312
:401FC0000C2101FB03239A785B4BD2B21A7000225A706360B9E702232380584B1978564BC9B21970F4E701232380554BF1E7012323804F4B534A1B781344EAE7013A0A2A9A
:402000007FD8DFE802F0367E527E067E7E7E0B7E2200434B1A784C4BD2B260E0404B1B7803F0FF0453B9464B1A78944265D01C70464B01201870FFF713FE5EE0601EC0B21D
:40204000FFF768FD0028EED15BE0FFF71BFF002857D0374B01221C783D4BE4B21C703B4B1A70FFF76BFD374B1A5D3A4BD2B21A5543E01B7803F00303012B32D00CD3022BD9
:402080003FD103F1804303F5C0431B78002B38D1BDE83840FFF7B8BE214B1B78012B30D1264B1A7802F0FD0219E01B7803F00303012B16D00BD3022B23D103F1804303F5A9
:4020C000C0431B78EBB9BDE83840FFF773BE144B1B78012B15D1194B1A7842F002021A700BE0134B1A7862B91B781B4A0C48DBB2D15C007821EA0001D154BDE83840FFF7F0
:40210000E3B9002038BD00BF6C81FF1F0060004001600040036000406281FF1F64250000026000402A260000782600003082FF1F046000407A81FF1F5281FF1F7981FF1F90
:402140006A81FF1F6081FF1F6381FF1F6581FF1F5981FF1F6B81FF1F6681FF1F034B00201B781B0644BF024B1B7870470060004001600040104B1B7803F00303012B0CD05E
:40218000022B0ED10D4B0E4A1B780C2103F07F0301FB032308339B7801E0084B1B78DBB200E00023074A1268D35C032B01D1FFF7B5BB0020704700BF00600040046000402D
:4021C0007A81FF1F5C81FF1F70B50E4B0E4D0024ED1AAD101E46AC4204D056F8242090470134F8E700F052FA084D094B0024ED1AAD101E46AC4204D056F8242090470134D6
:40220000F8E770BD9826000098260000A02600009826000010B50023934203D0CC5CC4540133F9E710BD02440346934202D003F8011BFAE770470000E0260000F100000005
:40224000000000004D6F6E61736820476C6F6D657269646100426F6F746C6F61646572205265616479000000004F00400C001051004030000000014000100014014000080A
:4022800000400140000A004C01400002005001402000000001450040024F0040095200400165004004000140010101400203014001050140040701400808014015090140EA
:4022C000040B0140030D01400215014004170140061901402E1A0140251B0140074001400B4101400E4201400C430140044401400345014001460140044701400D4801402D
:4023000005490140054C01400E4D014002500140015101407E0201200A4B008001C02003210129803110608061847C407B0138083E0458045F011B04AB04E202E609E20195
:40234000E602E804EE045B045F01AE01B401D804DB04DC08DF11100219101A0459506D806E086F8877067A08830487089F02A002A208A540A604A780AA0CC401D60CDE0492
:4023800083028780A002A5408540A002B002E201EC80E408E810EA02EE0A86109D40A208AE04E810EE0A0501070209020B0115022E01330336013920580459045C385F112C
:4023C00080048504860C870888088A048B088C028E019003940195089602970499019B029D019F02A408AD03B203B50CB60CB703B888B980BE04BF40D804D904DB04DC3344
:40240000DF01041505800E601002170819401C011F0420142580270C2E40330435803610370838143C146E407A088001858088028B0499809D40A218B180C0F0C230C42128
:40244000CA10CC72CE66DE04E402EC803381364057085F80CC70D440D6206008642087809F81A280A640A788AA80D8C0E240EE20108050046280800484209C289F01A2807E
:40248000A640A788C410D420D640E6901810814087089F01A640A788A888C610E280E640E820EE2008046080C208D8029C80B004EE019C8008080F409C80C20C21042610D3
:4024C000514086109180AE40AF81B410C860D420E410EA40EE5079808140B104DC80E2809880AC08AF40B480E8080C80608063027404840488808B019880C201D602D8024C
:40250000DE04E001E60110081C08003AC00000C0C000C00000008C00000C8C008C0000000800000808000800C00003000003030003000000200080802000A00000001010DF
:4025400000001000000000006980172E001E01013031323334353637383941424344454600000000010000006C2500000100000078260000010000007C2500000100000087
:402580004F260000020000009E25000001000000B0250000000000009C250000030000000103400003000000820340000300000001000000B825000000000000EC25000049
:4025C00000000000E0250000000000000000000001000000F8250000010000006126000041000000EA81FF1F5282FF1F410000005682FF1F2C82FF1F240005010900A1009D
:402600000900A1000900150025FF7508954091020900150025FF750895408102C0C000000A033000300030003100040309040A03500053006F004300160342006F006F00B5
:4026400074006C006F0061006400650072000009022900010102803209040000020300000209211101000122240007050103400001070582034000011201000200000008AE
:40268000B4041DB70130010280010000F8B500BFF8BC08BC9E4670475100000041010000F8B500BFF8BC08BC9E4670472D000000C02600000881FF1F2000000070010000FD
:4026C00000000000382200003C2200000000007D00FA0000400000000090D00300000000000000000000000000000000000000000000000000000000000000000000000008
:402700000080002011270000B52A0000B52A000008B500F0E9F900BF10B5054C237833B9044B13B10448AFF300800123237010BD9881FF1F000000001C65000008B5064B4D
:402740001BB106480649AFF300800648036813B1054B03B1984708BD000000001C6500009C81FF1F0881FF1F000000000FB400B593B000F0A5FC68B115AB019302A8402182
:40278000149A03F0B1FD00F08BFD0028FBD002A800F03CFD13B05DF804EB04B0704700BF2DE9F04F85B001F0F5FE01F09FFD0020022100F04DFC00F0BFF800F0DFF862B65E
:4027C000454FDFF84091DFF840810024434D0FF2001BDBE900AB01F059FD06463B7813F0FF0F0FD000233B7000F00EF93C483D4BB3F900103C4BB3F900203C4BB3F900304D
:40280000FFF7B4FFA9FB0623DB0A40F6C41202FB136340F2E142934206D8002001F080FD002001F071FD05E0002001F079FD002001F06AFDA8FB06239B094FF47A7202FB29
:402840001363002B2FD168462949264BB3F90020254BB3F9003003F02BFA012001F048FE0020014601F0A4FE684601F033FE214BD3E9000122462B4602F01AFF52465B468E
:4028800003F040F803F0AEF903B268461A49174AB2F9002003F00CFA0120002101F088FE684601F017FE154B1B7813F0FF0F03D00022124B1A708EE7114B1B7813F0FF0FA6
:4028C00089D000220E4B1A7085E700BFAFF30080182D4454FB210940D481FF1F0080664020650000E081FF1FD281FF1FD081FF1F2C650000D881FF1F34650000CD81FF1F61
:40290000CC81FF1F5917B7D1D34D6210AFF3008008B50122024B1A7001F0C4FE08BD00BFCC81FF1F08B50122024B1A7001F08AFE08BD00BFCD81FF1F08B501F017FF0648F5
:4029400001F0A2FE054801F06FFE0023044A1370044A137008BD00BF1129000025290000CD81FF1FCC81FF1F08B50122024B1A7002F00AFA08BD00BFD481FF1F10B50024E6
:402980001B4B1C701B4B1C801B4B1C801B4B1C80002200231A49C1E9002301F03BFF1E20214602F0DDF8204602F04CF9702002F049F902F01FF91E20214602F0D1F8012027
:4029C00002F040F9202002F03DF902F013F91E20214602F0C5F8022002F034F9204602F031F902F007F9074802F0C0F910BD00BFD481FF1FE081FF1FD281FF1FD081FF1FE5
:402A0000D881FF1F692900002DE9F8431E20002102F0A6F8032002F015F902F0EBF81E20012102F09DF8012002F042F98146012002F03EF98046012002F03AF90746012095
:402A400002F036F90646012002F032F90546002002F02EF9044602F0CDF848EA09239BB2104A138046EA07260F4A168044EA052080B20E4A108000B21BB2A3F11906323041
:402A800002F0B0FD04460D46304602F0ABFD02460B462046294602F0ABF9054BC3E90001BDE8F883E081FF1FD081FF1FD281FF1FD881FF1FFEE700BF08B5094B1B6818443F
:402AC000084A821A802A02DC054A106005E003F0B1F80C2303604FF0FF33184608BD00BF0C81FF1FC082FF1F80B5104F104E002415E031687368B568224604E051F8040BF0
:402B000043F8040B0432AA42F8D1F168224602E043F8044B04328A42FAD11036013F002FE7D103F08DF8FFF73BFEFEE7010000000474000010B5134A134B1A6008331A683D
:402B400042F400721A6000231048114C114908E0032B02D854F8232000E0024641F8232001332F2BF4D90C4B1A780C4B1A70094A0B4B1A6000F0D0F801F0F2FB0022094B8A
:402B80001A6010BD0004FA050CED00E0B52A0000002700000080FF1FBC7600400481FF1F08ED00E00081FF1FFEE700BFF0B400231F4611E050F82760F2B226F0FF0608E08E
:402BC00001EB430511F813406D78A5550133013AD2B2002AF4D10137272FEBD9F0BC7047064B1B78DBB203F00701054A11701B09013213704422034B1A707047CF010049AB
:402C00006E5800407658004008B50A46002103F046F808BD08B503F039F808BD08B503F035F808BDF8B50025324B1D80582202331A70012202331A8018232F4A13700321A2
:402C400002321180023213701721023211800232137040F25721023211800232137040F65F1102321180023213700622234B1A705222A3F580731A70214B1A78D2B2214B45
:402C80001A704FF4E162A3F27F431A8041F25122023B1A8019241C4F4FF4F0760AE03B7803F0010343EA450505F00305304601F043FB013C0CB1032DF1D114B90320FFF7C6
:402CC00073FF124A4FF4807313800723137000230F490B7048200231087013700532137002220C4B1A7003F2A1331A7842F03F021A70F8BD804000408640004000430040AF
:402D00000F010049A14600402542004004400040064000400140004038B572B60024464D09E004EB44035B002B4418689988FFF76BFF0134E4B2062CF3D900243F4D0AE0C8
:402D400004EB84035B002B44186859681A89FFF761FF0134E4B2012CF2D9374C04F1400004F1E001FFF722FF35480421FFF74CFF344B1A7842F002021A7010331A7842F0B6
:402D800002021A70304D2B7843F040032B702F4B1A7842F010021A702D4804F618410A22FFF738FF2B4804F624410A22FFF732FF294804F543610A22FFF72CFF274804F670
:402DC0003C410A22FFF726FF254804F648410A22FFF720FF234804F654410A22FFF71AFF214804F546610822FFF714FF1F4804F668410822FFF70EFF1D4804F54761082206
:402E0000FFF708FF84221B4B1A70A3F55143393B1A7842F008021A70174C61232370FFF701FF81232370FFF7DBFE144829460E22FFF7F4FE38BD00BF3C650000686500008C
:402E40000076004003500140A0430040C243004000510040C0510040F05100401051004020510040305100404251004052510040625100405B14014000480040B043004016
:402E8000F8B501F063FA07463C4B1A7842F001021A7010331A7842F001021A70012603F5E75308331E700225943B1D7007331A7802F07F021A70002001F084FA304C23784A
:402EC00003F0F90323702F4B1A7802F0DF021A70237833432370304601F074FA282001F071FA294B1A7802F07F021A701A7802F0BF021A7023782B432370284601F062FAA1
:402F0000237843F0040323700023204A137001321370384601F01EFA17201D4901F05CFA1720072101F06CFA15201A4901F054FA1520072101F064FA1820174901F04CFAF0
:402F40001820072101F05CFA0320144901F044FA0320072101F054FA0520114901F03CFA0520072101F04CFA06200E4901F034FA0620072101F044FAF8BD00BFA543004092
:402F80009443004012600040F851004084600040D9370000D5370000B1350000253700005D3700009537000008B51D4B4FF400021A604FF080721A6008221A6020221A60EE
:402FC00040221A600022174B1A7011B1012904D007E00222144B1A7006E00322124B1A7002E00322104B1A70104B18700023104A1370104A1370104A1370104A1370104A81
:403000001370104A137003220F4B1A708022203B1A70012001F090F904220C4B1A7008BD00E100E0E881FF1F09600040F381FF1FFC81FF1FE981FF1FF681FF1FF481FF1F6B
:403040001182FF1FEA81FF1F286000401260004038B505460C46064B1B7823B9FFF710FF0122034B1A7028462146FFF79DFF38BDB481FF1F00230A4A13700A4A13700A4A7E
:4030800013700A4A13700A4A13700A4A13700A4A13700322094B1A708022203B1A707047E881FF1FFC81FF1FE981FF1FF681FF1FF481FF1F1182FF1FEA81FF1F286000401C
:4030C000014B1878704700BFFC81FF1F70B4461EF6B2072E38D83601F6B21C4D354400EB40039B001A4C2344DB889BB2C3F500739A4207D900EB40039B002344DA88C2F537
:40310000007292B200EB40039B00114C2344DC7844EA12240F4BF454D4B20133F45429B907E0CC5C2C7001339BB200E000239342F7D3074A41000B189B00134400245C70A9
:403140005A79D2B2044BF25470BC7047886000401482FF1F0C6000400E6000400246002001E0013080B2135C002BFAD1704700BF08B51F4B1B7813F0800F0CD01D4B1B78A0
:40318000DBB2212B2ED11C4B07221A801B4A5A6000F078FA08BD164B1B7813F0800F23D1144B1B78DBB2202B02D0222B0DD01DE0114B07221A80114A5A60114B1A7842F036
:4031C00001021A7000F088FA08BD0E4B1A78D2B20D4B1A800A4B1A7842F002021A7000F015F908BD002008BD002008BD002008BD00600040016000400482FF1F1081FF1FFD
:40320000E581FF1F02600040E281FF1F2DE9F8438046FFF7A3FF064600271F4C1F4D237803EB43039B002B441B899BB2B34209D2237803EB43039B002B44B3F808901FFA1F
:4032400089F900E0B146207808EB07014A46FFF73DFFC9EB0606B6B246B9237803EB43039B002B441B899BB2994510D14F44BFB2237803EB43039B002B445B7813F0FF0F2F
:40328000F6D026B9207800210A46FFF71FFF002EC5D1BDE8F88300BFE681FF1F1482FF1F044B1B7803EB43039B00034A13445878704700BFE681FF1F1482FF1F1D4B1978A3
:4032C0001D4B1A880A4492B21A8000221B4B10E002F1804101F5C04158680078C0B208705968013159600132D2B21988013989B21980198889B209B1072AE9D90D4B1B78CD
:40330000DBB2082B00D05AB10D4B197881F0800119700F210B4B197002210B4B197004E0022308490B7008490B70024B1A70074B1A707047EA81FF1FFA81FF1F0482FF1FAC
:40334000F581FF1FF281FF1FE881FF1F1082FF1F0222074B1A708022064B1A700F22064B1A700023054A1370054A137001207047E881FF1FF581FF1FF281FF1FEA81FF1F94
:403380001082FF1F08B5FFF799FF08BD10B4194B197801F00F010239C9B2174B1A880A4492B21A800020154B12E05C6800F1804202F5C0421278D2B222705A6801325A607C
:4033C0000130C0B20139C9B21A88013A92B21A801A8892B20AB10029E7D1094B1970094B1A7882F080021A700B22074B1A705DF8044B704729600040FA81FF1F0482FF1F8D
:403400001082FF1FF581FF1FF281FF1F0623064A1370064A13708022054B1A700022054B1A700120704700BFE881FF1FF281FF1FF581FF1F1082FF1F064B9B6843B1054BE5
:403440009A6810709A6804490988518000229A60704700BF0482FF1FFA81FF1F08B5134B1A78D2B21A701B78DBB213F0800F02D00F4A137008BD0220FFF7DEFF0D4B1B788A
:4034800003F06003202B05D0402B06D043B900F0E7FC06E001F07EFC03E000F0ABFE00E0002010B90322024B1A7008BD28600040F281FF1F0060004008B5084B1978084B42
:4034C0001A880A4492B21A800022064B1A700120FFF7B2FF0322044B1A7008BDEA81FF1FFA81FF1FE881FF1FF281FF1F08B50B4B1B78DBB2042B06D0062B07D0022B0BD1F3
:40350000FFF7DAFF08BDFFF741FF08BD0320FFF793FF0322024B1A7008BD00BFE881FF1FF281FF1F08B50022044B1A700120FFF783FF0322024B1A7008BD00BFE881FF1F61
:40354000F281FF1F08B50B4B1B7813F0FF0F07D0084B197841F08001074A117000221A700022064B1A700120FFF766FF0322044B1A7008BDF481FF1F08600040E881FF1F1A
:40358000F281FF1F08B5094B1B78DBB2042B06D0062B07D0022B07D1FFF7F4FE08BDFFF7C1FF08BDFFF7CEFF08BD00BFE881FF1F08B5264B1B78DBB213F0100F45D013F0B9
:4035C000800F0CD003F00F03012B16D1FFF746FF1F4B1B7813F0800F11D1012312E013F0400F03D0FFF7CEFF01230BE013F0200F07D0FFF77BFF012304E0002302E00023E6
:4036000000E000230BB3114B1B7813F0800F1CD1104B1B78104A12781343104A13701278D2B29A4211D10A4B08491A78D2B2087810F0800F05D11A78D2B20A700A7802F0E5
:403640000F021878C0B28242EFD108BD28600040F281FF1FF581FF1F1082FF1F296000400022064B1A80064B9B682BB1044A916800230B7092685380704700BFFA81FF1F8A
:403680000482FF1F08B5104B1B889BB213B9FFF75FFE16E002220D4B1A7000220C4B1A70FFF7DEFF0B4B1A78013B1B7843EA0223054A128892B29A4201D9034A1380FFF7AB
:4036C000FDFD012008BD00BF0482FF1FE881FF1FF581FF1F0760004008B504220C4B1A7080220C4B1A70FFF7BBFF0B4B1A78013B1B7843EA0223094A128892B29A4201D9DE
:40370000064A13800B22064B1A70012008BD00BFE881FF1FF581FF1F076000400482FF1FF281FF1F0A4B1B780A4B1B7B03F00303012B04D0074BDA7B82F08002DA7301222B
:40374000044B5A73044B1A7802F0FE021A7070470E6000401482FF1F0B6000400A4B1B780A4B1B7E03F00303012B04D0074BDA7E82F08002DA760122044B5A76044B1A782C
:4037800002F0FD021A7070471E6000401482FF1F0B6000400C4B1B780C4B93F8243003F00303012B06D0094B93F8272082F0800283F827200122054B83F82520044B1A78AF
:4037C00002F0FB021A7070472E6000401482FF1F0B600040704700BF08B5FFF74BFC08BD30B484B00446144B0FCB04AD05E90F00F4B122232370032363700022022315E03C
:4038000002F1924191F80011C9B20132D2B204AD05EB111010F8100CE054981C01F00F01294411F8101C21540433DBB2212BE7D904B030BC704700BFC47100002DE9F00FE0
:40384000002001224FF00C0C2F4DDFF8C8B0DFF8C8A0DFF8C8904DE0034600F1804101F5C14181F800C0144602EB420189002944497911F0FF0F0ED002EB420189002944C7
:40388000097911F0800F02D000F80BC006E0082100F80B1002E0802100F80B1066003119890029440F89C7F3072703F80A700F89FFB203F80970CF88FFB2DFF8648003F893
:4038C0000870CF88C7F3072708F1010803F80870C988C9B20D4FD955311989002944C988C1F30721A8F1020803F808100132D2B21030C0B210F0800FAED0FF22044B1A70B3
:40390000BDE8F00F704700BF1482FF1F846000400A6000400E6000400C6000400D60004086600040084B1A78084B03EBC2035B6803F108021B7A834203D902EBC000406887
:4039400070470020704700BFF381FF1F147200002DE9F84F5D4B1B7813F0FF0F00F0B3805A4B18780138C0B2FFF7DCFF047AC36800225749574FDFF868A1A1E018780E5CF9
:40398000554D2D5CF6B2AE4200F097800E5CF6B25D78AE4240F091803D78EDB2A84240F08C80987800F07F056E1E3601F6B293F803C00CF0030C10F0800F19D005EB4500B6
:4039C0008000DFF8208140444FF0010880F80180C44502D14FF0070C01E04FF00D0C05EB45008000DFF8FC80404480F805C019E005EB45008000DFF8EC8040444FF000081E
:403A000080F80180BCF1010F02D14FF0050C01E04FF0090C05EB45008000DFF8C880404480F805C0012006F80A00B3F804B0DFF8B48005FA00F909EB050C4FEA8C0C08EB8F
:403A40000C00A0F808B093F802B080F804B093F803B008F80CB04FF0000C80F803C0B0F808C0CCF3072CDFF880B006F80BC0B0F808C05FFA8CFC0BF1010B06F80BC0B0F805
:403A800006C05FFA8CFC0BF1790B06F80BC0B0F806C0CCF3072C0BF1010B06F80BC0C088C0B2DFF848C006F80C004D44AD004544E888C0F30720094D705508330132D2B224
:403AC000A242FFF45BAFBDE8F88F00BFFC81FF1FF081FF1F046000400082FF1F856000400E6000401482FF1F0C60004084600040034B1A78034B03EBC2035868704700BF1E
:403B0000F381FF1F1472000008B5074B18780138C0B2FFF707FF28B14268127900EBC203586908BD002008BDFC81FF1F2DE9F84F00226D4D13460EE05600B418A4002919DB
:403B40002B558B704B70CB704B710B81214629448B720132D2B2082AEED928B90AE0C254CA540133DBB203E0002360481A466049012BF4D95F4B1B7813F0FF0F00F0B1802C
:403B80005C4B18780138C0B2FFF7CCFE4368DB7913F0400F05D0584B1A7842F001021A7004E0554B1A7802F0FE021A70047A01214FF000084C4EDFF834C14FF009098A4649
:403BC00065E0C368424601EB4107BF0001EB410E06EB8E0E57E09D7805F07F05A9424FD1F519B5F808B01FFA8BFB9D88AB4503D206EB070BABF808501D781CF805B05FFA91
:403C00008BFB5D78AB453BD1DD7805F0030593F902B0BBF1000F17DA8EF801A0012D02D14FF0070B01E04FF00D0B8EF805B093F806B0BBF10A0F02D0BBF1020F1AD1032D55
:403C400018D02E4D297015E08EF80180012D02D14FF0050B00E0CB468EF805B093F806B0BBF10A0F02D0BBF1020F03D1032D01D0234D29709D788EF80450DD788EF8005043
:403C800008330132D2B2A242A5D30131C9B2082997D9C1680022144D0BE08B7803F07F0311F8080B03EB43039B002B4498720132D2B2A242F1D3FFF727FF124B1860002085
:403CC0000123094C09E05A00D11889002144C8800A89104480B20133DBB2082BF3D9FFF7ADFDBDE8F88F00BF1482FF1FF081FF1F0082FF1FFC81FF1F1182FF1FE681FF1FD1
:403D0000E481FF1FEC81FF1F38B5144B1B7803F07F035A1ED2B21101C9B2072A1CD810485C00E21892000244957845F0010595700025D570557845F002055570137913F0D9
:403D4000800F03D08D22074BCA5402E08922054BCA54FFF75BFB38BD002038BD046000401482FF1F0E60004010B5244B1B7803F07F035A1ED2B21101C9B2072A3BD85A0008
:403D80001A4492001E480244907800F0FE0090700020D0701B480C5C04F07F040C54507800F0FD005070127912F0800F10D003EB43039B00124A13445B78DBB2012B03D11C
:403DC0000C22114BCA5413E00D220F4BCA540FE003EB43039B000A4A13445B78DBB2012B03D10822084BCA5402E00922064BCA54FFF70CFB10BD002010BD00BF0460004087
:403E00001482FF1F0C6000400E60004010B50F4B1C78E4B20E4B18780138C0B2FFF782FD43681B799C420CD2012C0CD8094B195DC9B2094A1155094A1278D2B21A55012027
:403E400010BD002010BD002010BD00BF04600040FC81FF1FF081FF1F0082FF1F0260004010B50022994B1A80994B1B7813F0800F00F0B980974B1B78DBB20A2B00F29181FA
:403E8000DFE813F073008F018F018F018F018F010B008F019E008F01A6008F4B1B78DBB2012B09D1FFF724FE4268884B5A6012221A80FFF7E7FB10BD874B1B78DBB2022BA5
:403EC00016D103F1804303F5C0431878FFF72AFD002800F0688142687C4B5A605A68D1785A68927842EA01221A80FFF7CBFB10BD794B1B78DBB2032B05D033E019780B442D
:403F00000132D2B202E00022744B75480178C9B2914203D9197811F0FF0FEFD1704A1278D2B2EE2A00D16F4B6D4A127812F0FF0F0BD06B4A1178C9B26B4A127C914204D10C
:403F40006A4C2046FFF74CFC23461A7812F0FF0F00F02B811978C9B25C4A11805360FFF791FB10BD00F016FF10BD594B1B7813F0030317D0022B40F01A81544A13805C4B32
:403F80001B7803F07F0303EB43039B0059490B449978C9B2584B1970002159705360FFF771FB10BD494A02231380544B1978C9B2514B1970002159705360FFF763FB10BDDC
:403FC000424B01221A804E4A5A60FFF75BFB10BD3E4B01221A80464A12784A490A445A60FFF750FB10BD3B4B1B78013B0A2B00F2E080DFE813F04700DE00A300DE000B00AC
:40400000DE00DE00DE001300DE003000344B1A78D2B23D4B1A70FFF7F9F910BD304B1B7803F0FF041BB1601EC0B2FFF77BFC04B110B9002C40F0BF80314B1B78DBB29C42A9
:4040400006D02F4B1C700120304B1870FFF76EFDFFF7DCF910BDFFF7D9FE002800F0AD80234B1C78E4B22A4B1C700122274B1A70FFF76EFC234B1A5DD2B2264B1A55FFF7DE
:40408000C5F910BD124B1B7803F00303012B43D073B1022B40F0938003F1804303F5C0431B7813F0FF0F40F08C80FFF75DFE10BD0B4B1B78DBB2012B40F085800F4B1A7846
:4040C00002F0FD021A70FFF7A1F910BD0482FF1F006000400160004003600040747200000260004000720000507300009482FF1F046000401482FF1FB881FF1F1182FF1F0F
:40410000FC81FF1FF081FF1FF481FF1FF681FF1FE981FF1F0082FF1F314B1B78DBB2012B53D82F4B1B78DBB22E4AD15C2E48007821EA0001D154FFF769F910BD2B4B1B7886
:4041400003F00303012B1AD063B1022B3FD103F1804303F5C0431B7813F0FF0F39D1FFF7D3FD10BD204B1B78DBB2012B33D1204B1A7842F002021A70FFF748F910BD184B0D
:404180001B78DBB2012B28D8154B1B78DBB2154AD15C1548007821EA0001D154FFF736F910BD002010BD002010BD002010BD002010BD002010BD002010BD002010BD002014
:4041C00010BD002010BD002010BD002010BD002010BD002010BD002010BD002010BD00BF04600040F881FF1F02600040006000401182FF1F08B50B4B1B7813F0800F0CD076
:40420000094B1B78DBB2012B09D1084B084A5A6012781A80FFF736FA08BD002008BD002008BD00BF00600040016000400482FF1FD8710000024B1A7842F080021A7070470B
:4042400076640040014B1870704700BF86640040014B1878704700BF6664004008B50146014800F0E5F808BD24640040024B186820F07F40704700BF4464004008B50146AF
:40428000014800F0D5F808BD04640040034B1B78034B186820F07F40704700BF046400404464004008B501E0FFF7E0FFFFF7D0FF10F0080FF8D108BD08B56FF07F40FFF759
:4042C000CDFF6FF07F40FFF7D9FF00F03FF8064B1A7842F010021A7000F03CF8FFF7E2FF0020FFF7AFFF08BD9664004008B5054B1B7823B9FFF7E0FF0122024B1A70FFF72F
:4043000099FF08BDBC81FF1F044B1A7802F07F02C001C0B202431A70704700BFC0510040044B1A7802F0DF02400100F0200002431A707047505100400230800800F005800D
:4043400000BF013800467FF4FCAF7047EFF3108072B6704780F31088704700BFAFF300800B4A7F2313708021517007E0DA0002F1804202F5F042013BDBB21370002BF5D17E
:40438000DB0003F1804303F5F04300221A7070471881FF1F01BE704738B50446084D04E02868FFF7C9FFA4F50044B4F5004FF7D8034B586800FB04F0FFF7BEFF38BD00BFEA
:4043C0002081FF1F08B5034B1B7A03FB00F0FFF7B3FF08BD2081FF1F70B505460E46074B1C681F2802D90020FFF7D4FF05F01F05103554F8250044F8256070BD08ED00E00D
:4044000038B505460C46072902D90020FFF7C2FF1F2D02D90020FFF7BDFF05F01F0000F1604000F564406401E4B2047038BD00BFCBB20370C1F307234370C1F30741817048
:40444000704700BF10B50B4C237803F09F032370237803F0F00323702378184340F0100323700120FFF7AEFF237803F0EF03237010BD00BF7564004010B50D4C237843F09F
:4044800020032370237803F0BF032370237803F0F00323702378184340F0100323700120FFF790FF237803F0EF03237010BD00BF7564004010B504460009FFF7DDFF6420B7
:4044C000FFF780FF04F00F00FFF7D6FF9620FFF779FF10BD38B505460078012404E0FFF7E9FF285D0134E4B20028F8D138BD00BF10B504460009FFF7A5FF6420FFF762FF6F
:4045000004F00F00FFF79EFF40F6C410FFF75AFF10BD00BF08B52820FFF73EFF0320FFF791FF0520FFF738FF0320FFF78BFF0F20FFF732FF0320FFF785FF0120FFF72CFFF5
:404540000220FFF77FFF0520FFF726FF0620FFF7CFFF0E20FFF7CCFF2C20FFF7C9FF0820FFF7C6FF0120FFF7C3FF0C20FFF7C0FF0320FFF7BDFF0520FFF70EFF08BD00BF64
:4045800008B50C20FFF7B4FF0122014B1A7008BDBD81FF1F08B5054B5B7823B9FFF7BAFF0122024B5A70FFF7EBFF08BDBD81FF1F08B5032819D8DFE800F002070D1381F07F
:4045C0008000FFF795FF08BDA1F14000C0B2FFF78FFF08BDA1F16C00C0B2FFF789FF08BDA1F12C00C0B2FFF783FF08BD014B1B681866704708ED00E04001C0B2014B1870DF
:40460000704700BF08E400E04FF48072014B1A60704700BF00E100E04FF48072014B1A60704700BF80E100E010B50446FFF7F4FF2046FFF7DBFF0720FFF7DEFFFFF7E4FF53
:4046400010BD00BF4FF48072014B1A60704700BF80E200E0014B1B68D865704708ED00E04001C0B2014B1870704700BF07E400E08022014B1A60704700E100E08022014BCD
:404680001A60704780E100E010B50446FFF7F6FF2046FFF7DFFF0720FFF7E2FFFFF7E8FF10BD00BF8022014B1A60704780E200E0084B1A7842F001021A7010331A7842F0E1
:4046C00001021A7003F64D331A7842F001021A70704700BFA3430040014B1880704700BF044F0040014B1880704700BF064F0040014B1870704700BF034F004008B5194BEE
:404700001A7842F002021A7002331A7802F08F0242F030021A7009331A7802F0CF021A701A7842F030021A701A7802F0F0021A701A7842F00F021A704FF6FF70FFF7CCFF80
:404740000120FFF7CFFF0020FFF7D2FF064B1A7842F001021A7003F65E331A7842F001021A7008BD004F0040A343004008B5054B1B7823B9FFF7C2FF0122024B1A70FFF753
:4047800097FF08BDBF81FF1F10B50024144B1C70012210331A70FFF7D9FD124B1A7842F010021A70FFF7D6FD0F220F4B1A70082210331A7004220D4B1A6002200721FFF7E6
:4047C0001FFE02200A49FFF707FE1022094B1A70094B1C70094B1C70094B1C7010BD00BF7B6400409B6400402A64004080E100E03D4800008082FF1F8682FF1F8E82FF1F8A
:404800008482FF1F024B1A7842F002021A7070477B64004008B5074B1B7823B9FFF7B4FF0122044B1A70FFF7EDFF0422024B1A6008BD00BFC081FF1F00E100E038B5AB4B66
:404840001C78E4B2AA4B1B7813F0400F00F0788114F0010F00F04081A54B1B78453B052B00F23781DFE813F006009200350135010600F80004F0DF0504F00A04082C50D1AE
:404880009B4B1B78DBB2452B3DD19A4B1B7813F0FF0F16D0984B1B681A78D2B2974B1A7006226E331A70FF225E3B1A70002240331A700122924B1A7046228D4B1A702C46A1
:4048C0000AE1904B1B7813F0020F0CD08E4B1A7842F00A021A706022854B1A7004228B4B1A602C46F8E08A4B1A7842F020021A705222103B1A70FF225E3B1A700022403339
:404900001A702C46E8E00222824B1A70FF225E3B1A70002240331A704A22754B1A702C46DAE00A2C2DD1784B1A7842F0A0021A70744B1B7813F0020F13D06D4B1B7813F075
:40494000080F01D0092100E00A216F4B1A780A431A706022664B1A7004226C4B1A602C46BAE06B4B1A7842F020021A705222103B1A70FF225E3B1A70002240331A702C4693
:40498000AAE00020FFF706FD2C46A5E014F0020F3DD15B4B1A78574B1B78D2B29A4216D2574B1A78D2B254490968895CC9B2534A117006216E321170FF215E3A117000219F
:4049C000403211701A780132D2B21A7084E04D4B1B7813F0020F0BD04B4B1A7842F00A021A706022424B1A700422484B1A6073E0474B1A7842F020021A705222103B1A7019
:404A0000FF225E3B1A70002240331A7064E03D4B1B7813F0020F0BD03B4B1A7842F09A021A706022324B1A700422384B1A6053E0374B1A7842F020021A705222103B1A703B
:404A4000FF225E3B1A70002240331A702E4B1A7842F090021A703FE02F4B1A78D2B22F49096826480078C0B288541A780132D2B21A701A782A4B1B78D2B29A4209D20222E2
:404A8000244B1A70FF225E3B1A70002240331A7022E01C4B1B7813F0020F0BD01A4B1A7842F009021A706022114B1A700422174B1A6011E0164B1A7842F020021A70122291
:404AC000103B1A70FF225E3B1A70002240331A7002E00020FFF75EFC14F0200F38D0044B1B7813F0080F1DD001221CE06B6400408082FF1F8582FF1F9082FF1F0D640040B4
:404B00008482FF1F8C82FF1F8682FF1F80E100E08B6400407B6400408E82FF1F8882FF1F8D82FF1F02220B4B19780A431A700A4B1A7802F0DF021A701022084B1A7038BDC3
:404B4000064B1B7813F0100F02D11022034B1A7038BD00BF8682FF1F8B6400408082FF1F1F4B1B78DBB2102B33D11E4B1B7813F0100F30D104221C4B1A604000C0B229B1AE
:404B800040F001004922164B1A7002E04522144B1A70164B187082226E331A70FF225E3B1A70002240331A70114A137813F0FF0FFBD10C4A137813F0010FFBD0094B1B78B8
:404BC00003F00A030A2B08D11022054B1A700320704702207047012070470020704700BF8082FF1F6B64004080E100E00D6400401D6400400F4B1B7813F0040F17D052223A
:404C00000D4B1A70FF225E3B1A70002240331A700A4A137813F0FF0FFBD11022084B1A70044A137813F0210FFBD0002070470220704700BF6B6400407B6400401D6400402F
:404C40008082FF1F164B1B7813F0040F26D0154B187006226E331A70FF225E3B1A70002240331A70104A137813F0FF0FFBD146220E4B1A700A4A137813F0010FFBD0084B59
:404C80001B7813F0020F04D16022084B1A70002070476022054B1A7003207047022070476B6400400D6400401D6400408082FF1F01461C4B1B7813F0040F31D01A4B1B7842
:404CC000DBB2492B10D10222184B1A70FF225E3B1A70002240331A70154A137813F0FF0FFBD14A22104B1A700E4A137813F0010FFBD0104B1878C0B271B102226E331A70B7
:404D0000FF225E3B1A70002240331A70084A137813F0FF0FFBD170476022034B1A707047002070476B6400408082FF1F7B6400401D6400400D640040014B1B6818647047F5
:404D400008ED00E04001C0B2014B1870704700BF00E400E00122014B1A60704700E100E00122014B1A60704780E100E010B50446FFF7F6FF2046FFF7DFFF0720FFF7E2FF29
:404D8000FFF7E8FF10BD00BF0122014B1A60704780E200E008B5124B1B7803F00303012B02D0022B04D00FE00E4B1B78DBB20CE00C4B1B7803F07F0303EB43039B000A4A2D
:404DC00013449B78DBB200E00023084A1268D35C022B02D1FEF7CCF908BD002008BD00BF00600040046000401C82FF1FEC81FF1F00F002B8000000002DE9F047C2F100095D
:404E000049EA020923F00048DFF8D4C148EAD97982B0E14514461D46CDE900010F4647D8C0F1000A4AEA000A21F0004949EADA7AE2453DD803F1404C0CF5801C5CEA020C22
:404E40004CD04FEAA37A0AF0020A4AEAD17A59EA000136D058EA04013AD06149884551D05F49894534D0C8EB09084FEA2858B8F13C0F43DC002D70DBDDE9000100F042FD90
:404E800000F05AFA00F0B0F8BAF1010F62D0BAF1020F52D0BAF1000F10D03FA3D3E9002300F052FA3EA3D3E9002300F04DFA05E010461946DDE9002300F048FA02B0BDE8B1
:404EC000F087BAF1030FC5D8DFE80AF00D0D1410002F2EDB34A1D1E90001EFE702B0BDE8F04700F081B8DDE90001E7E730A1D1E90001E3E72AA1D1E90001DFE72AA1D1E9D1
:404F00000001C1E7C1452ED0BAF1030FA8D801A151F82AF02D4F0000254F0000F54E0000ED4E000000204FF00041C7E700200021C4E721A1D1E90001C0E717A3D3E900231D
:404F400000F002FA02460B4615A1D1E9000100F0FBF9B3E701F10041B0E718F13C0F8BDA0020002190E7BAF1030FB1D8DFE80AF006020E0A12A1D1E900019FE712A1D1E9FA
:404F800000019BE712A1D1E9000197E712A1D1E9000193E7AFF30080075C143326A6A13C182D4454FB210940182D4454FB21F93F182D4454FB2109C0182D4454FB21F9BF3F
:404FC000182D4454FB21E9BF182D4454FB21E93FD221337F7CD902C0D221337F7CD902400000F07FAFF300802DE9F04FB64B21F000469E4283B004460D4689460FDDB34952
:405000008E4200F3B38000F0AE80B9F1000F40F3EF8091A1D1E9000103B0BDE8F08FAC4B9E4200F3BD80A3F1DE739E4240F3A7804FF0FF3C22462B4620462946CDF804C066
:4050400000F036FB02460B4682468B4600F030FB83A3D3E9002306460F4600F029FB82A3D3E9002300F072F932463B4600F020FB7FA3D3E9002300F069F932463B4600F069
:4050800017FB7DA3D3E9002300F060F932463B4600F00EFB7AA3D3E9002300F057F932463B4600F005FB78A3D3E9002300F04EF952465B4600F0FCFA75A3D3E90023824670
:4050C0008B463046394600F0F3FA73A3D3E9002300F03AF932463B4600F0EAFA70A3D3E9002300F031F932463B4600F0E1FA6EA3D3E9002300F028F932463B4600F0D8FA9C
:405100006BA3D3E9002300F01FF932463B4600F0CFFADDF804C00246BCF1FF3F0B466BD0504659464FEACC0600F010F922462B4600F0BEFA674F684B37441E44D6E900238E
:4051400000F002F922462B4600F0FEF802460B46D7E9000100F0F8F8B9F1000F0CDA01F10045294608E000283FF44FAF2046294622462B4600F0EAF803B0BDE8F08F4EA37D
:40518000D3E9002300F0E2F80022544B00F020FD00283FF44DAF2046294603B0BDE8F08F00F0CAF84E4B04469E420D4633DCA3F550239E4200F3A58002460B4600F0C6F854
:4051C0000022464B00F0C0F8002206460F46204629464FF0804300F0B9F802460B463046394600F08FFB4FF0000C04460D4621E733A1D1E90001BFE75046594600F0A6F829
:4052000022462B4600F054FA02460B462046294600F09AF8B0E7334B9E4267DC0022324B00F092F8002206460F46204629462E4B00F03EFA0022294B00F088F802460B463E
:405240003046394600F05EFB4FF0020C04460D46F0E600BFAFF30080182D4454FB21F93F11DA22E33AAD903FEB0D76244B7BA93F513DD0A0660DB13F6E204CC5CD45B73F30
:40528000FF8300922449C23F0D5555555555D53F2F6C6A2C44B4A2BF9AFDDE522DDEAD3F6D9A74AFF2B0B33F711623FEC671BC3FC4EB98999999C93F9C7500883CE4377E3A
:4052C000182D4454FB21F9BFFFFF0F440000F07FFFFFDB3F88730000687300000000F03FFFFFF23FFF7F03400000F83F02460B4600200F4900F006FB4FF0030C04460D460C
:4053000098E600220B4B00F01FF8002206460F4620462946074B00F019F802460B463046394600F0EFFA4FF0010C04460D4681E60000F0BF0000F03F21F00041704700BF28
:4053400081F0004102E000BF83F0004330B54FEA41044FEA430594EA050F08BF90EA020F1FBF54EA000C55EA020C7FEA645C7FEA655C00F0E2804FEA5454D4EB5555B8BF81
:405380006D420CDD2C4480EA020281EA030382EA000083EA010180EA020281EA0303362D88BF30BD11F0004F4FEA01314FF4801C4CEA113102D0404261EB410113F0004F6F
:4053C0004FEA03334CEA133302D0524263EB430394EA050F00F0A780A4F10104D5F1200E0DDB02FA0EFC22FA05F2801841F1000103FA0EF2801843FA05F359410EE0A5F1DD
:4054000020050EF1200E012A03FA0EFC28BF4CF0020C43FA05F3C01851EBE37101F0004507D54FF0000EDCF1000C7EEB00006EEB0101B1F5801F1BD3B1F5001F0CD34908F6
:405440005FEA30004FEA3C0C04F101044FEA445212F5800F80F09A80BCF1004F08BF5FEA500C50F1000041EB045141EA050130BD5FEA4C0C404141EB010111F4801FA4F178
:405480000104E9D191F0000F04BF01460020B1FA81F308BF2033A3F10B03B3F120020CDA0C3208DD02F1140CC2F10C0201FA0CF021FA02F10CE002F11402D8BFC2F1200C85
:4054C00001FA02F120FA0CFCDCBF41EA0C019040E41AA2BF01EB0451294330BD6FEA04041F3C1CDA0C340EDC04F11404C4F1200220FA04F001FA02F340EA030021FA04F303
:4055000045EA030130BDC4F10C04C4F1200220FA02F001FA04F340EA0300294630BD21FA04F0294630BD94F0000F83F4801306BF81F480110134013D4EE77FEA645C18BFAD
:405540007FEA655C29D094EA050F08BF90EA020F05D054EA000C04BF1946104630BD91EA030F1EBF0021002030BD5FEA545C05D14000494128BF41F0004130BD14F580049C
:405580003CBF01F5801130BD01F0004545F0FE4141F470014FF0000030BD7FEA645C1ABF194610467FEA655C1CBF0B46024650EA013406BF52EA033591EA030F41F4002120
:4055C00030BD00BF90F0000F04BF0021704730B54FF4806404F132044FF000054FF0000150E700BF90F0000F04BF0021704730B54FF4806404F1320410F0004548BF4042F5
:405600004FF000013EE700BF42004FEAE2014FEA31014FEA02701FBF12F07F4393F07F4F81F06051704792F0000F14BF93F07F4F704730B54FF4607401F0004521F0004116
:4056400020E700BF50EA010208BF704730B54FF000050AE050EA010208BF704730B511F0004502D5404261EB41014FF4806404F132045FEA915C3FF4DCAE4FF003025FEAF7
:40568000DC0C18BF03325FEADC0C18BF033202EBDC02C2F1200300FA03FC20FA02F001FA03FE40EA0E0021FA02F11444C1E600BF70B54FF0FF0C4CF4E06C1CEA11541DBFD1
:4056C0001CEA135594EA0C0F95EA0C0F00F0DEF82C4481EA030621EA4C5123EA4C5350EA013518BF52EA033541F4801143F4801338D0A0FB02CE4FF00005E1FB02E506F050
:405700000042E0FB03E54FF00006E1FB03569CF0000F18BF4EF0010EA4F1FF04B6F5007F64F5407404D25FEA4E0E6D4146EB060642EAC62141EA55514FEAC52040EA5E501C
:405740004FEACE2EB4F1FD0C88BFBCF5E06F1ED8BEF1004F08BF5FEA500E50F1000041EB045170BD06F0004646EA010140EA020081EA0301B4EB5C04C2BFD4EB0C0541EA2A
:40578000045170BD41F480114FF0000E013C00F3AB8014F1360FDEBF002001F0004170BDC4F10004203C35DA0C341BDC04F11404C4F1200500FA05F320FA04F001FA05F25F
:4057C00040EA020001F0004221F0004110EBD37021FA04F642EB06015EEA430E08BF20EAD37070BDC4F10C04C4F1200500FA04F320FA05F001FA04F240EA020001F00041A9
:4058000010EBD37041F100015EEA430E08BF20EAD37070BDC4F1200500FA05F24EEA020E20FA04F301FA05F243EA020321FA04F001F0004121FA04F220EA020000EBD37049
:405840005EEA430E08BF20EAD37070BD94F0000F0FD101F00046400041EB010111F4801F08BF013CF7D041EA060195F0000F18BF704703F00046520043EB030313F4801F0E
:4058800008BF013DF7D043EA0603704794EA0C0F0CEA135518BF95EA0C0F0CD050EA410618BF52EA4306D1D181EA030101F000414FF0000070BD50EA410606BF1046194664
:4058C00052EA430619D094EA0C0F02D150EA013613D195EA0C0F05D152EA03361CBF104619460AD181EA030101F0004141F0FE4141F470014FF0000070BD41F0FE4141F461
:40590000780170BD70B54FF0FF0C4CF4E06C1CEA11541DBF1CEA135594EA0C0F95EA0C0F00F0A7F8A4EB050481EA030E52EA03354FEA013100F088804FEA03334FF08055E1
:4059400045EA131343EA12634FEA022245EA111545EA10654FEA00260EF000419D4208BF964244F1FD0404F5407402D25B084FEA3202B61A65EB03055B084FEA32024FF4FC
:4059800080104FF4002CB6EB020E75EB030E22BFB61A754640EA0C005B084FEA3202B6EB020E75EB030E22BFB61A754640EA5C005B084FEA3202B6EB020E75EB030E22BF6D
:4059C000B61A754640EA9C005B084FEA3202B6EB020E75EB030E22BFB61A754640EADC0055EA060E18D04FEA051545EA16754FEA06164FEAC30343EA52734FEAC2025FEA1E
:405A00001C1CC0D111F4801F0BD141EA00014FF000004FF0004CB6E711F4801F04BF01430020B4F1FD0C88BFBCF5E06F3FF6AFAEB5EB030C04BFB6EB020C5FEA500C50F131
:405A4000000041EB045170BD0EF0004E4EEA113114EB5C04C2BFD4EB0C0541EA045170BD41F480114FF0000E013C90E645EA060E8DE60CEA135594EA0C0F08BF95EA0C0F81
:405A80003FF43BAF94EA0C0F0AD150EA01347FF434AF95EA0C0F7FF425AF104619462CE795EA0C0F06D152EA03353FF4FDAE1046194622E750EA410618BF52EA43067FF416
:405AC000C5AE50EA41047FF40DAF52EA43057FF4EBAE12E74FF0FF3C06E000BF4FF0010C02E000BF4FF0010C4DF804CD4FEA410C7FEA6C5C4FEA430C18BF7FEA6C5C1BD05C
:405B000001B050EA410C0CBF52EA430C91EA030F02BF90EA020F0020704710F1000F91EA030F58BF994208BF90422CBFD8176FEAE37040F0010070474FEA410C7FEA6C5CDA
:405B400002D150EA013C07D14FEA430C7FEA6C5CD6D152EA033CD3D05DF8040B704700BF8446104662468C461946634600E000BF01B5FFF7B7FF002848BF10F1000F01BD0B
:405B80004DF808EDFFF7F4FF0CBF012000205DF808FB00BF4DF808EDFFF7EAFF34BF012000205DF808FB00BF4DF808EDFFF7E0FF94BF012000205DF808FB00BF4DF808ED47
:405BC000FFF7CEFF94BF012000205DF808FB00BF4DF808EDFFF7C4FF34BF012000205DF808FB00BF4FEA410212F5001215D211D56FF47873B3EB625212D94FEAC12343F0BC
:405C0000004343EA505311F0004F23FA02F018BF404270474FF00000704750EA013005D111F0004008BF6FF0004070474FF00000704700BF014B1868704700BF9081FF1F27
:405C400070B50E4B0E4D0024ED1AAD101E46AC4204D056F8242090470134F8E701F0C0FB084D094B0024ED1AAD101E46AC4204D056F8242090470134F8E770BDEC73000054
:405C8000EC730000F4730000EC73000010B50023934203D0CC5CC4540133F9E710BD02440346934202D003F8011BFAE7704700000EB400B54FF402719CB0ADF814106FF088
:405CC0000041049107914FF6FF711DABADF81610084953F8042B02900690086802A9019300F066F8029B00221A701CB05DF804EB03B070479081FF1F2DE9F0478D68814603
:405D0000AB420C4692461F4643D38B8913F4906F3DD0266809690222C1EB0608666906EB460696FBF2F608F101023A44964238BF16465B050FD5314600F054FB054698B114
:405D400021694246FFF7A2FFA38923F4906343F08003A38113E0324600F098FB054670B94846216900F0FAFA0C23C9F80030A3894FF0FF3043F04003A381BDE8F087256116
:405D800066614544C8EB06062560A6603D46AF4200D23D462A462068514600F0C3FAA36800205B1BA36023681D442560BDE8F0872DE9F0439DB003938B8907461C060D4611
:405DC00016460CD50B6953B9402100F00BFB2860286110B90C233B60C7E040236B610023099320238DF8293030238DF82A3033461C4613F8012B1AB9B4EB06090FD002E0AF
:405E0000252AF5D1F8E73846294632464B46FFF773FF013000F0A480099B4B4409932378002B00F09D8000234FF0FF3204930793059206938DF853301A9304F101094D4EE6
:405E40004C4630462178052200F05EFA09F10109049B28B1861B0120B04003430493EEE7D90644BF20228DF853201A0744BF2B228DF8532022782A2A02D0079B21460EE0F6
:405E8000039A111D12680391002A01DB079204E0524243F002030792049301340AE00C4622780131303A092A03D80A2000FB0323F5E7079323782E2B19D163782A2B09D12C
:405EC000039B02341A1D1B680392002BB8BF4FF0FF330BE0611C00230C4622780131303A092A03D80A2000FB0323F5E70593224E21783046032200F007FA30B1861B402015
:405F0000B040049B01340343049321781B480622661C8DF8281000F0F7F988B1184B33B9039B073323F007030833039314E003AB0093384604A92A46124BAFF3008007E0F9
:405F400003AB0093384604A92A460E4B00F08EF8B0F1FF3F804603D0099B4344099346E7AB895B0601D4099801E04FF0FF301DB0BDE8F083AA730000B0730000B473000064
:405F800000000000F95C00002DE9F84315461F468A680B6906469A42A8BF13462B6091F843200C46DDF820800AB101332B602368990602D52B6802332B60236813F0060984
:405FC0001DD094F843302268003318BF012392061FD5E118302081F843005A1C94F845102244023382F8431013E03046394604F119020123C047013007D009F10109E26834
:406000002B68D31A9945F0DBDBE74FF0FF30BDE8F8833046394604F14302C0470130F4D023682A6803F00603E168042B08BFC2EB01052369A2680CBF25EAE57500259A42E6
:40604000C4BFC3EB0203ED184FF00009A9450ADA3046394604F11A020123C0470130D4D009F10109F2E70020BDE8F8832DE9FF470E7E80466E2E0C4691469A460C9D01F1BA
:40608000430000F0A58011D8632E22D009D8002E00F0AF80582E40F0BF8081F845607B4A4FE0642E1ED0692E1CD0B5E0732E00F0A48009D86F2E2BD0702E40F0AD800B68B3
:4060C00043F020030B6038E0752E21D0782E34D0A2E02B6801F142071A1D1B682A6081F842309DE022682B6812F0800F03D01A1D2A601D6805E05106F9D51A1D2A60B3F94F
:406100000050002D39DA2D236D4284F8433034E022682B6812F0800F03D01A1D2A601D6804E05206F9D51A1D2A601D88237E574A6F2B14BF0A2308231BE07823544A84F8DF
:4061400045302368296813F0800F01F104062E6001D00D6802E05F06FBD50D88DE0744BF43F0200323601DB9236823F0200323601023002184F8431001E0444A0A23666818
:40618000002EA66003DB216821F00401216005B96EB104F14201B5FBF3F603FB1655555D0F4601F801593546002EF4D100E00746082B0AD12368DD0707D5626823699A4216
:4061C00003DC302307F8013C013FC01B20612CE009682B6811F0800F626904D0191D29601B681A6005E04906F8D5191D29601B681A8000232361074617E02B681A1D2A607E
:406200001F68384600F078F963682061984288BF23612369636005E004F1420784F8426001232361002384F84330CDF800A04046214603AA4B46FFF7A7FE013002D14FF04F
:40624000FF301FE0404649463A462369D0470130F5D023689B0705D4E068039B9842B8BF18460FE00025E268039BD31A9D42F3DA4046494604F119020123D0470130DED053
:406280000135F0E704B0BDE8F08700BFBB730000CC73000030B5141E9BB0054604DA8B2303604FF0FF301CE04FF4027200910491ADF80C2014BF04F1FF3121464FF6FF720C
:4062C00002910591ADF80E2069461A461E9BFFF76FFD431CBCBF8B232B6014B1009B00221A701BB030BD000073B50093054B06460D461446186831462A462346FFF7CAFF0E
:4063000002B070BD9081FF1F10B5C9B202449042034605D01C7801308C42F8D1184610BD002010BD814270B501D300230EE08C18A042FAD28518134613F1FF3305D35142AF
:406340006618F65C2944CE54F6E770BD934203D0CC5CC4540133F9E770BD000030B500293CD051F8042C0B1F1D49002AB8BF9B180A680C4612B95A600B6030BD93420DD2BF
:4063800019685818904203D15A581144426819605A60236030BD994203D80A4651680029F9D1146815199D420AD11B682344D0188842136012D10868034413604B680CE021
:4063C00002D90C23036030BD18681C188C4203D10C684968204418605960536030BD00BFC881FF1F70B5CD1C25F0030508350C2D38BF0C25002D06463FDB8D423DD3214BC6
:406400001C6818462146A1B10B685B1B0ED40B2B03D90B60CC18CD501FE08C4202D1626802601AE04B6863600C4616E00C464968E9E7154C23681BB9304600F04DF8206036
:406440002946304600F048F8431C014615D0C41C24F0030484420AD1256004F10B00231D20F00700C31A0BD05A42E25070BD3046611A00F031F80130EED10C233360002075
:4064800070BD00BFC881FF1FC481FF1FF8B5064614460D4621B91146BDE8F840FFF7A2BF1AB9FFF75BFF2046F8BD00F02DF8A0420ED230462146FFF795FF074650B12946E2
:4064C0002246FFF7E3FB30462946FFF747FF01E02846F8BD3846F8BD38B5064C0023054608462360FCF7E8FA431C02D1236803B12B6038BDB882FF1F034613F8012B002AC2
:40650000FBD1181A0138704751F8040C002802DA04390B5818440438704700000000000025642025642025640A00000078256420792564007A25642068256400C8490040B4
:406540001900004F0040300000000140001000140140000800400140000A004C01400002005001402000000060520040B4710000060000510140BC7100000800034500405E
:40658000084F004012520040046400400365004003010140090301402D040140160501402A0601402307014011090140570A01404A0B01405F0C0140420D01404A0E0140AC
:4065C0003C0F0140421401402B1501404D1601402C1701405318014041190140551A0140501B014016400140154101400D420140144301400C440140114501400D4601401A
:4066000010470140154801400F4901401D4C0140144D01400750014001510140000260027E0201100A360D4016361940223625402E36008001C00403088009400CC01028AF
:40664000142818081C0420032102280229803010311079187C402A0F2D043A08860D840D850D870F8210E092E20481028D208F4090019610B401E210E640EC0203012B02B3
:4066800031023501404149FF4AFF4BFF4F01501859045A045C805D055F016040624064406540668068806A806C806E80C045C9FFCAFFCBFFCD83CE03CF01D018DA04DB04F1
:4066C000DD05DF01E040E240E440E540E680E880EA80EC80EE802112280438014280438046804F806C106E106F4275507A02900196109F40A522CA04CE01D089D210DE0802
:40670000EA040201120130013E01404545EC4602480749FF4AFF4BFF4D834E034F0150185280540158045A045B045D555F016040624064406540668068806A806C806E8075
:4067400083018601B001B701D280D804D904DB04DC43DD40DF01010806800F8018401E802001380246804D054F8057C05D055E807001768099109C049E80A520A7C0A81040
:40678000AD50B302B602C014C210CE01D080D210D6D0E401E602EA08EC10EE84908092049394966097089A389B089D82A040A290A409A620AC48E401E602EA08EE040008CD
:4067C000050108010C08120814011503180A19031A04200A2204241028083018330234073501382239283E113F04403445024650480949FF4AFF4BFF4C424DA04E705008D6
:406800005110580459045A045C205D025F016148624063486480654866806748800681058201850589108C038D018E048F0E9402950196059708980799019B029C019E0E06
:40684000A007A104A301A401A608A904AB01AD05B510B60FB70FBA80BB80D2F6D420D604D804D904DB04DC22DD20DF010020018205820A240B800C400E060F101004110174
:4068800012A013101501170819101B021E022010230424042540270A2C042D82310432103610370838043D913E04401043024810490452105C085E405F226601670A6D10B8
:4068C0006F2074C075207628774090809204939297049B209DB29E219F48A290A489A720AA01AB21B008B112B404B508B602C09BC2EEC43ECAB0CC66CEF2D003D6F0D8B0F6
:406900000103020105900602070B080409010C4D0D4F0E9210A911401254130B14A5151F164A19421AB51B091D401E041F14201A21032260232024FF270128CC29012A1392
:406940002C022D482F0230FF35E0371F39203E013F10580459045C205F01812083C08508876589058A018B6A8D018F0291609302954097209D019F64A106A360A52FA7804B
:40698000A961AA02AB02AF10B001B202B31FB7E0BB80C026C403C6BDC80CC9FFCA7FCBFFCC42CDA0CE70D00CD804D904DA04DC22DD02DF01E109E240E309E430E5090010DA
:4069C00005A0062007400CC00E800F141008149015101682170818901F0221082311252026D028982B022C022DA02E402F60300A328034213502368037083B953C023EA2CF
:406A00003F0440104120491053505C205F108A848F40900492049302964097B49C419DA29E209F08A401A682A760AC10B140B480C0F2C2F0C4F2CAFFCCFBCEFFD006D20465
:406A4000EE1000180206040105010C0A0E10100614041501181C1A021C011E1E2002241F28022A182C122E083101341F38203902420147E0482049FF4AFF4BFF4F83580494
:406A800059045A045B045C225D085F01800581038540870789018D088F079005912293059405957F980499059A019B789D3A9E029F04A001A103A401A501A901AC04AD1032
:406AC000AF07B004B17FB403B802BE01BF01D804D904DC02DF01000401800280050209010A060B200E460F10104113181440178818041D101E041F01220126012C012D2011
:406B00002F60300434043510368237883B043C023D023E603F044202520158105A085B4160086140620463807880820787018A048C088F40C01DC2FFC4BFCAF0CCF2CEF25F
:406B4000D008D60FD80FDE08E090E201E6040701130137013F404010410449FF4AFF4BFF4DA04F045018540159045A045B045D345F05604062C06440654066C068C06AC07C
:406B80006CC06EC082028B0192029601A101B101B402B601BE10C010C105C5D0C610C720C82AC9FFCAFFCBFFCDAFCE0FCF04D018D405D804D904DA04DB04DC44DD44DF01F8
:406BC000E040E2C0E440E540E6C0E8C0EAC0ECC0EEC004010C020F201E081F80224027802F8030013A083F2040014202430246024C024D01540257125A855D015E085F80B8
:406C00007A10861D880590019C04A210AF20B610C010C230CA80CC01CE22D019D210D6DBDE02E20AE402EA010F0118012E01310132014010410649FF4AFF4BFF4DA04F04D1
:406C400050185280580459045A045B045C335D335F01604062C06440654066C068C06AC06CC06EC0820486018C01900299029F01A402A701AA04B102B204B401B501B60219
:406C8000B908BE04BF04C010C106C5D5C610C702C81BC9FFCAFFCBFFCDAFCE0FCF04D018D407D804D904DA04DB04DC33DD33DF01E040E2C0E440E540E6C0E8C0EAC0ECC06D
:406CC000EEC000400108034009020C2010201208174019541E302122232027402908302033403E804340474049094A084E08502052085955768090419C049D08A520A91022
:406D0000C00DC248C486CA02CC0CCE10D018D224D60FE0C0E601E810EC100308050109010A010F0213FF140215E219921B601D5D1E021FA2210D2402253D27C229042BE0C4
:406D40002D402F1D340135FF36023F10580459045C025F0182108510861E8701881E8B088E088F149140921E9380953F9A029B189D109F02A140A204A380A41EA720A90F3E
:406D8000AA10AD04AE01AF08B13FB21EB401B5C0B902BE04C032C104C9FFCAFFCBFFCF01D018D804D904DA04DC22DD03DF01E040E240E440E540E680E880EA80EC80EE80DF
:406DC000000801E20301052009020A040E221040111012811314170819241A201C0A1E02210222202510280129042A112D942E042F4031123280330435103682370C3944B9
:406E00003B103C823E284110428043088240850288018A028B04908092049394966097089A389B089D82A040A290A409A620C04FC2AAC42FCAFFCCFFCEFED007E0C2E810DE
:406E4000EC100033020C08FF09011201142A1654180E1A301C401E13248026562C462EA930FF37013F4040324104450C462E480D49FF4AFF4BFF4D834E034F0150185804DC
:406E800059045A045C025D035F016040624064406540668068806A806C806E80820283038601871088018B408E018F30910192019306940695019724980499029B019C04F6
:406EC0009F10A204A310A406A70BAA01AB03AD01AE04AF82B006B107B201B380B508B770BB82BE04D804D904DC22DF010280030404A80581082009400A040B900C400D0147
:406F00000E24120113041609170519021D011E401F042240242825402601271129022A012C402DA02E0835403601371438103DA23F044110428043084820508051108010E1
:406F400084A08708882489508A088C048D019080910292049394952096C09708984099209A809B049D029F01A004A110A290A708A912B008B121B681C0FAC2FFC4F5CAF0F6
:406F8000CCF0CEF4D007E6A1EA01EC1008080A040E020F4030023240340435803F8056205F208360860488088E01C2F0CCF0CE20D440D620E040E2A03010320234013510CA
:406FC00059016208660882028D808E0896809C049D809E20A402AF40CCF0D640D8C0E280EC4013013E10528096809C159D119E20A608A802C410CE20D420EA201811190455
:407000001D011F208104841096909C109D01A910AA08AC05AE80B220B701C6F0E480E640EA70EE3001420504070409086520828083048D40C00FC208D801E202028005803E
:407040000D0254205D018C049D20A680B102B50CC009C204D402D601E602EA09EE0804049108940495019A019D20A110A420B184B512B601C004EC0208200B800D018120D8
:4070800085019108950197809A019C209D20A110A420A820AF40C20E26805A20661068206C20702082408B208E8092209690A320AA10B411C820D480D880DAC0DC20E68095
:4070C000EE2003082140572079808728AA10AC20AE10C040C810D440DC80E440E610EAC009400C801020132015016201640179487D2084018B808D409108950198809A01F4
:40710000A008A110A420B488C203C40ED601D802DC01DE03E003E808EC080C801102578060807408810188809880A008A380AB20B140B480C201C408D402D802DE04E601F2
:40714000EE06003C0A380C040E04101C1A181C0C10010000030000F0F300E000000000000300C02CAF002C00000000000000201818001800C0000000C0000000C000C000EC
:4071800000000000280005002800280000000000080004080800080000000000F003030003000001D0A37300820000001FF0E000100000002324000043000000BFE803C0D9
:4071C0000000000030313233343536373839414243444546000000002800000000010400010000000000000000014359555342000000303030303100000000000000000047
:4072000012034D0053004600540031003000300001000000010000001C7200000100000050730000010000002C720000010000000C7300000300000058720000000000002E
