:400000000080002011000000E9000000E900000008B5054B1A6803F53F5302331A6000F02BFA00F063F800BFFA46004010B5054C237833B9044B13B10448AFF30080012394
:40004000237010BD2881FF1F000000004022000008B5064B1BB106480649AFF300800648036813B1054B03B1984708BD00000000402200002C81FF1F0881FF1F0000000065
:4000800008B500F01DFD0A2000F018FE00F0C0FC0F4800F0ABFC62B60E4B0F4C1B7813F0010F10D00D4B00251D7000F07BFC0C4800F019FC0120294600F082FC094800F054
:4000C00012FC402300E08023237000F091FBFEE7AD0C000069640040FA4600407B6500404422000055220000FEE7000008B51249124B4A1C1AD053F8106C53F80C0C53F8B6
:40010000085C0022AA4200EB020403D0B45884500432F7E753F8040C0022824203D00025A5500432F9E710330139E2E702F04CF8FFF7A6FFFEE700BF00000000C0260000B0
:4001400008B5114A114B1A609A6842F400729A600023032B98BF0E4A4FEA830094BF52F823100C490C4A0133302B1150F1D10B4B19780B4B19700B4B1A6000F017F80A4B1A
:4001800000221A6008BD00BF0004FA050CED00E000000000E90000000080FF1FBC7600400481FF1F08ED00E00081FF1FF8B572B66A4B61221A70A3F5F0634FF4E1521A80A1
:4001C000192541F61F429D709A8003229D711A81634A182340F65401137051801371614B06221A705222A3F580731A705E4B00241A785E4BD2B21A7040F61802A3F27F4345
:400200001A8041F2512223F8022C594B4FF4F0701B7803F0010343EA440400F061FC013D04F003041BD0032CEFD1524B4FF480721A8007221A70504A0024482114709170C4
:4002400002221C705C7103F8032C93F89E2342F00F0283F89E23012283F8FC2700E0FEE7464B0021234418689A88063401F0DBFF2A2CF5D100231946414C00221859803454
:4002800020F0FF06C0B2450004EB4104AA4208D004EB020CA75C9CF801C0023207F806C0F4E70433802B0144E6D1364B364C1A7842F002021A701A7C42F002021A74334A47
:4002C000137843F040031370314B197841F010011970304B186859681D4603C455F80A0F1989B83424F8B81C696803C429891D4655F8140F21806968283403C429891D4611
:4003000055F81E0F21806968B83C03C429891D4655F8280F21806968083403C429891E48218053F8321FA4F6A854016059681B4B4160197841F008011970194B19491B7847
:40034000DBB203F007001B0908704B70164B442119700FCA07C42380F8BD00BF004800408A400040004300400F010049A146004025420040044000400640004068220000C5
:40038000942200000350014000510040A0430040C24300400C2500006251004022430040CF0100496E58004076580040004710B500232AB1013A4418A45C2344DBB2F8E790
:4003C000184610BD0138092842D8DFE800F0050B11171D232F29353B0902C1F57F3101F570713BE00902C1F57F3101F2C13138E00902C1F57F3101F2C5312AE00902C1F561
:400400007F3101F2C9312CE00902C1F57F3101F5747123E00902C1F57F3101F2D1311DE00902C1F57F3101F2D63112E00902C1F57F3101F2D2310CE00902C1F57F3101F54A
:40044000757106E00902C1F57F3101F5767108E000210B78487843EA002070470878C0B270470B784A788878000440EA02201843CB7840EA0360704710B50B4B1A7802F053
:40048000C002802A0ED100241C7002202146FFF799FF38B121460220FFF794FFBDE81040FFF784BF10BD00BFFA460040F8B5044621460320FFF786FF214607460420FFF72B
:4004C00081FF013700EB072721460320FFF77AFF0025013003022E46BB4209D213F8012B511EC9B2FD29154498BF0126EDB2F3E701202146FFF766FF6D42EDB2854204D127
:40050000002E14BF00200620F8BD0620F8BD000080B5ADF51A7D00F0F7FA10B1002000F0C3FB00F0F9FC62B600273D4604A84FF4967101AAFF2300F01FFD0028F6D1BDF8EC
:400540000420062A40F248819DF81030012B40F043819DF812309DF8134043EA042404F1070E04AB234496455E79197900F232819B79172B40F03081231D9BB233B10DF174
:400580000F02D25C013B104480B2F6E7404241EA062380B2834240F021819DF811309DF81460313B0A2B00F2E780DFE813F00B001B00E500E500E500E500800091003F0011
:4005C000A000D600002F00F00781002C40F004812046FFF76BFFD0F1010038BF00208DF81400B8E0002F00F0F780012C40F0F480032E00F2F1807A4B1B681B68C3F3074268
:40060000964202D1C3F3072303E08CBF00234FF480738DF814301B0A8DF815300024FF238DF816308DF817400421A7E0002F00F0D380022C40F2D080033C4FA828440DF195
:400640001701224601F0E6FDA6F1400325443F2BADB203D800F002FB102301E04FF480739D4240F084809DF816109DF815303F2E43EA01210ED85A4B01EB06221B6892B23E
:400680001B68C3F30F2013F0FF0F1CBF013080B282426ED32B464FAA304600F07DFA00280CBF00240A24002500F024FB65E0002F00F092802E19B6F5967F00F28B804FA84D
:4006C0002844224605A901F0A5FDB5B2002454E0002C40F08180434A02AB92E8030005AA83E8030082E803000127082146E0002F72D0032C70D19DF815309DF8168043EAFE
:400700000828A6F140033F2B07D837484FEA08111022FFF74CFE044619E008EB0621002009024FF48072FFF742FE032E04460ED1B8F1FF0F0BD100210520FFF743FE201A8C
:40074000C4B200210620FFF73DFE201AC4B264428DF814400024012110E00020FFF7A6FE10B9224B80221A7000F0A0FA34E0002530E000250A2400E00524002101238DF811
:40078000103000220B1DADF806108DF811408DF812108DF813209BB20DF10F00C05C013B02449BB292B2002BF6D1524205AB92B25A540DF11503120A5A540DF116031722DE
:4007C0005A54073104A889B20DF10602962300F0B2FBABE60324D0E70424CEE70824CCE70C81FF1F4825000000800040FA46004070B50020FFF75AFE144D00282B684FF05F
:4008000000001C68014622460CBF00260626FFF7CEFD6B681B78181A00F0FF00984200D114B9002000F040FA094B1A7802F0C002402A1A4600D01EB100231370FFF768FE59
:4008400080221A70BDE8704000F030BA0C81FF1FFA46004010B50B4C237803F09F032370237803F0F0032370237843F0100318432070012000F036FA237803F0EF032370DF
:4008800010BD00BF7864004010B50D4C237843F020032370237803F0BF032370237803F0F0032370237843F0100318432070012000F018FA237803F0EF03237010BD00BF69
:4008C0007864004010B504460009FFF7DDFF642000F008FA04F00F00FFF7D6FFBDE81040962000F0FFB938B505460078012428B1FFF7E8FF285D0134E4B2F8E738BD10B5E7
:4009000004460009FFF7A6FF642000F0EBF904F00F00FFF79FFFBDE8104040F6C41000F0E1B908B5282000F0C9F90320FFF792FF052000F0C3F90320FFF78CFF0F2000F05C
:40094000BDF90320FFF786FF012000F0B7F90220FFF780FF052000F0B1F90620FFF7CFFF0E20FFF7CCFF2C20FFF7C9FF0820FFF7C6FF0120FFF7C3FF0C20FFF7C0FF032069
:40098000FFF7BDFFBDE80840052000F097B9000008B50C20FFF7B3FF014B01221A7008BD4481FF1F10B5054C63781BB9FFF7B9FF01236370BDE81040FFF7EABF4481FF1F20
:4009C000032811D8DFE800F00205080B81F0800008E0A1F1400004E0A1F16C0001E0A1F12C00C0B2FFF78BBF70470000064A0423136002F688321268E0219064034A1170A4
:400A0000A2F202321360704780E100E002E400E0014B04221A60704780E200E01E4B1A78A3F65D3342F0020283F85D2B93F85F2B02F08F0242F0300283F85F2B93F8682B5C
:400A400002F0CF0283F8682B93F8682B42F0300283F8682B93F8682B02F0F00283F8682B93F8682B42F00F0283F8682B4FF6FF72A3F8612B0122A3F8632B002283F8602B45
:400A80001A7842F001021A7093F85E2B42F0010283F85E2B704700BF004F0040074B1A7842F001021A701A7C42F001021A7493F85D2B42F0010283F85D2B7047A34300406F
:400AC00010B5054C23781BB9FFF7A8FF01232370BDE81040FFF7E2BF4681FF1F000000000230800800F0058000BF013800467FF4FCAF7047EFF3108072B6704780F310880E
:400B0000704700BFAFF3008038B500F02DF900F0B5F9002838D100F0EBF9072804460FD11B4B1A78900703D4012000F0DBF8F7E71A78910704D51B789B0814BF072400249B
:400B400000F0BCF90CBB00F00FF900F097F9D8B9012000F079F9072805D04FF0FF3410E02B789B07F9D40B48022100F00FF90228074DF5D12B789A0703D4012000F0B2F87D
:400B8000F8E700F09BF900E00424204638BD00BF224700405481FF1F4128F8B505460E4617461C460AD8411F3A298CBF002101213F2804D8B6F5807F29D805E00121812EC9
:400BC00028BF0121102C22D10FB301BB00F056F9F8B92346284631463A4600F0F1F80728044611D11B4B1A781F4612F0020F03D1012000F077F8F5E71A78900702D51B781A
:400C00009B0808D04FF0FF3400F058F91FE001241DE004241BE0104B28461A7831465B7800F0F2F807280446EED13A78094B910703D4012000F056F8F7E71A789207E1D5F8
:400C40001B789B080CBF00246FF00004DCE72046F8BD00BF224700405481FF1F08B5FFF749FF0F4B1A780C3342F0080203F80C2C1A7942F008021A71C82283F855231A7855
:400C800042F010021A701A7C42F010021A74054B1B789B06FBD5BDE80840FFF72FBF00BFA04300400047004001BE7047024B1A7842F001021A707047F646004010B504461A
:400CC000B4F5004F064B05D91868FFF709FFA4F50044F5E758686043BDE81040FFF700BF1481FF1F024B1B7A5843FFF7F9BE00BF1481FF1F08B5FFF7FDFE00BF00BF00BF4F
:400D000000BF00BF00BF00BF00BF00BF00BF00BF00BF00BF00BF00BF00BF064B1A8892B242F004021A801B88BFF36F8FBDE80840FFF7E4BE00480040054B00F01F001B68B5
:400D400000F1100253F8220043F82210704700BF08ED00E000F01F0000F16040490100F56440C9B20170704708B5FFF7C3FE064B1A7842F008021A701A7C42F008021A74A8
:400D8000BDE80840FFF7BABEA043004070B506460D460024E3B2AB420CD2074B1B78DB0703D40120FFF79EFFF7E7044B1B7833550134EFE7284670BD2247004020470040DD
:400DC00030B50F490C78A40716D50E4CB6252570D5252570022525700D7805F0020505F0FF015DB9207088B2984203D2505C01312070F8E7072030BD042030BD092030BDFA
:400E0000224700402047004070B50D4D2C78A60712D50C4CB6262670D8262670052626702D78AD070AD42070080AC9B22070217022702370072070BD042070BD092070BDF7
:400E400022470040204700400A4A137899070CD5094BB6211970E12119700E2119701278920704D4187007207047042070470920704700BF224700402047004038B5FFF7BD
:400E800039FE0C4B197879B901250B4A1D7014682C400AD0146824F00104146000BF00BF00BF5D600C4600E00424FFF727FE204638BD00BF4881FF1F0400084010B5FFF797
:400EC00019FE094B002259681A70012908D107490C6844F001040C6000BF00BF00BF5A60BDE81040FFF70ABE4881FF1F04000840074B1B789B0708D5064BB6221A70E022B8
:400F00001A700D221A70072070470420704700BF224700402047004008B562B60020022100F04EF9014B01221A7008BD5081FF1F012000F0F1B9F8B507460E46154603EB58
:400F400083030220394640225C0000F0A7F9022000F086F930B92CB10120013CFFF7AEFEA4B2F4E7022000F07BF910B12E800020F8BD1020F8BD00002DE9F84303EB830300
:400F80005C00234B16461A7880460F469946AAB1254600F053F930B92DB10120013DFFF78DFEADB2F5E700F049F9A8B100F04CF9FFF7BEFF002389F800300DE000F044F93A
:400FC00050B100F03BF938B1FFF7B2FF04E054B1FFF774FE013CA4B2012000F041F901284FF00100F3D100F03BF901280AD14146402F34BF3A46402200F0A4F93080002090
:40100000BDE8F883002333801020BDE8F88300BF5081FF1FF8B5FFF76DFD394B01251A78022642F001021A701A7C364C42F001021A7403F5E75318331D7003F8946C13F8A1
:401040008D2C074602F07F0203F88D2C0020FFF749FE2378284603F0F90323702A4B1A7802F0DF021A7023782B432370FFF73AFE2820FFF737FE254B30461A7802F07F02CF
:401080001A701A7802F0BF021A70237833432370FFF728FE2378384643F0040323701C4B00241C705C70FFF729FD1A491720FFF743FE17200721FFF74DFE17491520FFF736
:4010C0003BFE15200721FFF745FE14491820FFF733FE18200721FFF73DFE20461049FFF72BFE20460721FFF735FE28460D49FFF723FE28460721BDE8F840FFF72BBE00BF53
:40110000A54300409443004012600040F8510040846000400B180000091800005D160000A1170000D5170000184B012210B51A70174B4FF400041C604FF080741C601A6093
:4011400002221A60134B00241C70134B01B103221A70124B124A187000231370114A01201370114A1370114A1370114A1370114A1370114B03221A70802203F8202CFFF7BC
:40118000AFFC0E4B04221A7010BD00BFE681FF1F00E100E05881FF1F096000406281FF1F6A81FF1F5981FF1F6581FF1F6381FF1F7981FF1F5A81FF1F286000401260004076
:4011C00070B5074C064623780D461BB9FFF722FF0123237030462946BDE87040FFF7A4BF5181FF1F0C4B01221A700C4A002313700B4A13700B4A13700B4A13700B4A1370B8
:401200000B4A13700B4A13700B4B03221A70802203F8202C704700BFE681FF1F5881FF1F6A81FF1F5981FF1F6581FF1F6381FF1F7981FF1F5A81FF1F28600040014B187862
:40124000704700BF6A81FF1F044B1A7802F0FF001AB118780022C0B21A7070476581FF1F024B0C2202FB0030407870477A81FF1F0138C3B2072B0CD8074A1B01DBB2985C07
:4012800001329B5C00F00F0043EA0020023880B270470020704700BF0C600040431EDBB2072BF0B52FD8184E0C2404FB0064E7881B01BFB2154DC7F50077DBB2BA421D4413
:4012C00003D9E288C2F5007292B20C2404FB0064E7780F4C47EA12271F55D7B201341F5549B90C2202FB0060002242704179094AC9B29954F0BD0024A7B29742F1D20F5DD6
:4013000001342F70F8E7F0BD7A81FF1F886000400C6000400E600040431EDBB2072B0BD8064A0C2101FB00200022427041791B01034ADBB2C9B29954704700BF7A81FF1F9B
:401340000E600040F8B5431EDBB2072B07460D46144616D8B9B11B010C4EDBB21E44FFF787FFA04228BF204684B200239AB2A24203D23278EA540133F8E73846FFF7CCFFF8
:4013800002E0002400E00C462046F8BD8860004030B51A4B1A481A8801780A4492B219491A80194BCAB21C88A4B284B1174A91420CD05A681278D2B201F8012B5A68013254
:4013C0005A601A88013A92B21A80EAE7082203780F4C082B0F4B00D042B10F490D7885F080050D700F212170022101E00221217019700A4B02701A7030BD00BF6881FF1FFD
:401400005A81FF1F006000406C81FF1F086000406181FF1F5881FF1F6481FF1F7881FF1F074B02221A70074B80221A70064B0F221A70064A00231370054A01201370704725
:401440005881FF1F6481FF1F6181FF1F5A81FF1F7881FF1F10B5154B1A78154B02F00F021988023AD2B2114489B219801149124B188880B278B172B1586811F8014B013A99
:40148000E4B204705868D2B2013058601888013880B21880EBE7094B1A70094B1A7882F080021A70074B0B221A7010BD296000406881FF1F006000406C81FF1F7881FF1FD6
:4014C0006481FF1F6181FF1F064A06231370064A01201370054B80221A70054B00221A70704700BF5881FF1F6181FF1F6481FF1F7881FF1F054B9A683AB19A6804491070EE
:401500009A680988518000229A6070476C81FF1F6881FF1F08B5124B1A78D2B21A701B78DBB21A0602D50F4A137008BD0220FFF7E1FF0D4B1B7803F06003202B05D0402B2C
:4015400006D043B900F0C4FC04E000F013FE01E000F004FE10B9034B03221A7008BD00BF286000406181FF1F0060004008B50849084B01201A8809780A4492B21A80064B5D
:4015800000221A70FFF7B6FF044B03221A7008BD5A81FF1F6881FF1F5881FF1F6181FF1F08B50C4B1B78DBB2042B07D0062B09D0022B0DD1BDE80840FFF7D8BFBDE8084064
:4015C000FFF748BF0320FFF795FF034B03221A7008BD00BF5881FF1F6181FF1F08B5054B002201201A70FFF785FF034B03221A7008BD00BF5881FF1F6181FF1F08B50A4BEB
:401600001A7832B11978094A41F08001117000221A70074B002201201A70FFF76BFF054B03221A7008BD00BF6381FF1F086000405881FF1F6181FF1F074B1B78DBB2042B2E
:4016400005D0062B05D0022B05D1FFF7A1BEFFF7C5BFFFF7D3BF70475881FF1F10B51D4C2378DBB2DA0633D518060AD503F00F03012B2DD1FFF74EFF174B1B78190609D5E8
:4016800010BD5A0602D5FFF7D7FF03E09B061FD5FFF786FF23781B061AD4104B104A1B78127813430F4A13701278934210D10A4B08491A782078D2B2000605D41A78D2B230
:4016C0000A700A7802F00F021B789A42EFD110BD10BD00BF286000406181FF1F6481FF1F7881FF1F29600040054A00231380054A916819B191680B7092685380704700BFEA
:401700006881FF1F6C81FF1F10B50F4C23889BB213B9FFF785FE14E00C4B02221A700C4B00221A70FFF7E0FF0A4B1A78013B1B7843EA0223228892B29A4288BF2380FFF7B7
:4017400027FE012010BD00BF6C81FF1F5881FF1F6481FF1F0760004008B50C4B04221A700B4B80221A70FFF7BFFF0A4B01201A78013B1B7843EA0222074B198889B29142C8
:4017800088BF1A80054B0B221A7008BD5881FF1F6481FF1F076000406C81FF1F6181FF1F094B1B78094B1A7B02F00302012A03D0DA7B82F08002DA7301225A73044B1A78A4
:4017C00002F0FE021A7070470E6000407A81FF1F0B600040094B1B78094B1A7E02F00302012A03D0DA7E82F08002DA7601225A76044B1A7802F0FD021A7070471E6000401C
:401800007A81FF1F0B6000407047FFF7EBBC000008B50C4B18780138C0B200F07BF90A4B0A491B78DBB200EBC3004269CB5C02EBC3035B685A6A064B1178C9B219805A60B3
:4018400008BD00BF6A81FF1F046000406081FF1F6C81FF1F08B50D4B18780138C0B200F059F90B4B0B491B78DBB200EBC3004269CB5C02EBC3035B68DB69597813F8022B8E
:4018800042EA0121044A1180536008BD6A81FF1F046000406081FF1F6C81FF1F10B5194C00232380184B18780138C0B200F032F9164B174A1B781278DBB2D2B200EBC20086
:4018C0004169EAB9134A127801EBC20251685A1E022A15D8104A03F10053013B127801EBC30011F83330D2B2934209D30C235A4341688B1858688A5A9B6860602280A360DF
:4019000010BD00BF6C81FF1F6A81FF1F03600040046000406081FF1F0260004010B53C4B3C4A1B781178DBB2090634D501321278013A052A6AD8DFE802F010182769690346
:40194000354B1A78212A02D1FFF762FF07E01B78222B5BD1FFF77EFF01E0FFF79FFF2F4B1B889BB2002B51D00AE0002B4ED12C4B1B78002B4AD1294B01221A80294A5A606D
:40198000BDE81040FFF7C0BE002B3FD1234B01221A80254AF3E71278120637D4234A1278D2B20A2A0DD00B2A27D0092A2ED1FFF775FF1A4B1B889BB243B3BDE81040FFF7D8
:4019C000CBBE1BBB164B1B7803F0FF01F3B9124B144A1B78DBB21370154B14781878844201D2197005E01978012902D91278D2B21A70BDE81040FFF767BD3BB9084B1A78FE
:401A0000012A03D81A78084BD2B2F1E7002010BD0460004000600040036000406C81FF1F02600040E781FF1FE681FF1F01600040E881FF1F7FB5144B02466D4603F1100613
:401A4000186859682C4603C40833B3422546F7D1BAB122231370032353700C4B13F8011B04ACC9B204EB111001F00F01214411F8101C10F8100C907002F8041F04498B42BE
:401A8000ECD104B070BD00BF50250000000100490801004930B51C4B01211C4A0C2000FB012483F87200657925B12479240658BF082000E0802018700C2000FB0122108906
:401AC0000131C0F3072003F8020C10890929C0B203F8010CD08803F11003C0B283F86800D088C0F3072083F86900D088C0B283F86600D288C2F3072283F86720CDD1044BF0
:401B0000FF221A7030BD00BF0E6000407A81FF1F0A600040074B1A78074B03EBC2035B6803F108021B7A834286BF02EBC0004068002070476281FF1F64250000F8B5394BAD
:401B40001A78002A6CD018780138C0B2FFF7E2FFC368047A083303EBC404A34260D013F8082C314931488D5C805C854256D0895C13F8070C884251D12D4909788A424DD1F8
:401B800013F8060C13F8056C00F07F02511E10F0800F28484FEA01114FF00C05C9B206F0030605FB020506D00127BE426F7014BF0D26072605E00027012E6F7014BF092665
:401BC00005266E711C4D01266E540C25554333F8046C4219168113F8066C167113F8056C46550020D07015891448C5F30725455415890130EDB24554D5887930EDB24554FC
:401C0000D5880130C5F307254554D5880338EDB24554D2880130C2F30722425408339CE7F8BD00BF6A81FF1F6081FF1F6B81FF1F046000407A81FF1F0E6000400C6000406F
:401C400008B5064B18780138C0B2FFF763FF20B143681B7900EBC300406908BD6A81FF1FF8B500210C254D434C4C0131002362190929635593705370D37053711381937247
:401C8000F0D118B1464A1370464A1370464B1A78002A00F0818018780138C0B2FFF73AFF4368017ADB79C90013F0400F3F4B1A7814BF42F0010202F0FE021A700122C36849
:401CC000083303EB010E73453DD013F8065C05F07F06B24235D10C2606FB0246B6F808C033F8047C1FFA8CFCBC4538BF378113F8086C2B4FBE5D13F8077CB74221D113F881
:401D0000056C15F0800F4FF00C0506F0030605FB024506D00127BE426F7014BF0D26072605E00027012E6F7014BF092605266E710C25554313F8067C6619377113F8056CD9
:401D400066550833BFE70132092AB8D1C36803F10802114408338B420AD013F8062C0C2502F07F0205FB024213F8080C9072F1E7FFF766FF0E4B0022186001230C2101FBBF
:401D80000341CA80098901330A44092B92B2F5D1BDE8F840FFF77EBEF8BD00BF7A81FF1F6081FF1F6B81FF1F6A81FF1F7981FF1F5C81FF1F114B197801F07F014A1ED2B238
:401DC000072A19D80E4B0C2000FB01339978120141F0010199700021D9705978D2B241F0020159701B7913F0800F064B14BF8D218921D154FFF768BB002070470460004096
:401E00007A81FF1F0E60004010B51A4B1B7803F07F035A1ED2B2072A29D817490C2000FB03139978120101F0FE0199700021D9701249D2B2545C04F07F045454597801F0E7
:401E4000FD01597019795B7811F0800F0C4905D0012B01D1505406E00D2303E0012B0CBF082309235354BDE81040FFF72DBB002010BD00BF046000407A81FF1F0C60004004
:401E80000E60004010B50D4B1C780D4BE4B218780138C0B2FFF73EFE43681B79A3420BD954B9084B084A19780120C9B21170074A1278D2B21A7010BD002010BD04600040B9
:401EC0006A81FF1F6081FF1F6B81FF1F0260004038B58D4C002323808C4B1A7812F0800F8B4A127800F08A800A2A00F20A81DFE812F05A00080108010801080108010B0043
:401F000008017A0008017E00824B1A78012A09D1814B1A78814B03EBC2035B685B686360122311E01A78022A13D17D4B1878FFF7F1FD002800F0E580436863606368DA7801
:401F400063689B7843EA02232380BDE83840FFF7DBBB1B78032B22D1724B00227049D0B20D78854202D80A783AB910E0187801320028F8D019780B44F0E7694A6A49127832
:401F8000097C914203D16948FFF754FD674B1A78002A00F0B6801A78D2B2228019E0BDE8384000F0E7B81A7812F0030213D0022A40F0A7805E4B22801B785E4A03F07F0312
:401FC0000C2101FB03239A785B4BD2B21A7000225A706360B9E702232380584B1978564BC9B21970F4E701232380554BF1E7012323804F4B534A1B781344EAE7013A0A2A9A
:402000007FD8DFE802F0367E527E067E7E7E0B7E2200434B1A784C4BD2B260E0404B1B7803F0FF0453B9464B1A78944265D01C70464B01201870FFF713FE5EE0601EC0B21D
:40204000FFF768FD0028EED15BE0FFF71BFF002857D0374B01221C783D4BE4B21C703B4B1A70FFF76BFD374B1A5D3A4BD2B21A5543E01B7803F00303012B32D00CD3022BD9
:402080003FD103F1804303F5C0431B78002B38D1BDE83840FFF7B8BE214B1B78012B30D1264B1A7802F0FD0219E01B7803F00303012B16D00BD3022B23D103F1804303F5A9
:4020C000C0431B78EBB9BDE83840FFF773BE144B1B78012B15D1194B1A7842F002021A700BE0134B1A7862B91B781B4A0C48DBB2D15C007821EA0001D154BDE83840FFF7F0
:40210000E3B9002038BD00BF6C81FF1F0060004001600040036000406281FF1F64250000026000402A260000782600003082FF1F046000407A81FF1F5281FF1F7981FF1F90
:402140006A81FF1F6081FF1F6381FF1F6581FF1F5981FF1F6B81FF1F6681FF1F034B00201B781B0644BF024B1B7870470060004001600040104B1B7803F00303012B0CD05E
:40218000022B0ED10D4B0E4A1B780C2103F07F0301FB032308339B7801E0084B1B78DBB200E00023074A1268D35C032B01D1FFF7B5BB0020704700BF00600040046000402D
:4021C0007A81FF1F5C81FF1F70B50E4B0E4D0024ED1AAD101E46AC4204D056F8242090470134F8E700F052FA084D094B0024ED1AAD101E46AC4204D056F8242090470134D6
:40220000F8E770BD9826000098260000A02600009826000010B50023934203D0CC5CC4540133F9E710BD02440346934202D003F8011BFAE770470000E0260000F100000005
:40224000000000004D6F6E61736820476C6F6D657269646100426F6F746C6F61646572205265616479000000004F00400C001051004030000000014000100014014000080A
:4022800000400140000A004C01400002005001402000000001450040024F0040095200400165004004000140010101400203014001050140040701400808014015090140EA
:4022C000040B0140030D01400215014004170140061901402E1A0140251B0140074001400B4101400E4201400C430140044401400345014001460140044701400D4801402D
:4023000005490140054C01400E4D014002500140015101407E0201200A4B008001C02003210129803110608061847C407B0138083E0458045F011B04AB04E202E609E20195
:40234000E602E804EE045B045F01AE01B401D804DB04DC08DF11100219101A0459506D806E086F8877067A08830487089F02A002A208A540A604A780AA0CC401D60CDE0492
:4023800083028780A002A5408540A002B002E201EC80E408E810EA02EE0A86109D40A208AE04E810EE0A0501070209020B0115022E01330336013920580459045C385F112C
:4023C00080048504860C870888088A048B088C028E019003940195089602970499019B029D019F02A408AD03B203B50CB60CB703B888B980BE04BF40D804D904DB04DC3344
:40240000DF01041505800E601002170819401C011F0420142580270C2E40330435803610370838143C146E407A088001858088028B0499809D40A218B180C0F0C230C42128
:40244000CA10CC72CE66DE04E402EC803381364057085F80CC70D440D6206008642087809F81A280A640A788AA80D8C0E240EE20108050046280800484209C289F01A2807E
:40248000A640A788C410D420D640E6901810814087089F01A640A788A888C610E280E640E820EE2008046080C208D8029C80B004EE019C8008080F409C80C20C21042610D3
:4024C000514086109180AE40AF81B410C860D420E410EA40EE5079808140B104DC80E2809880AC08AF40B480E8080C80608063027404840488808B019880C201D602D8024C
:40250000DE04E001E60110081C08003AC00000C0C000C00000008C00000C8C008C0000000800000808000800C00003000003030003000000200080802000A00000001010DF
:4025400000001000000000006980172E001E01013031323334353637383941424344454600000000010000006C2500000100000078260000010000007C2500000100000087
:402580004F260000020000009E25000001000000B0250000000000009C250000030000000103400003000000820340000300000001000000B825000000000000EC25000049
:4025C00000000000E0250000000000000000000001000000F8250000010000006126000041000000EA81FF1F5282FF1F410000005682FF1F2C82FF1F240005010900A1009D
:402600000900A1000900150025FF7508954091020900150025FF750895408102C0C000000A033000300030003100040309040A03500053006F004300160342006F006F00B5
:4026400074006C006F0061006400650072000009022900010102803209040000020300000209211101000122240007050103400001070582034000011201000200000008AE
:40268000B4041DB70130010280010000F8B500BFF8BC08BC9E4670475100000041010000F8B500BFF8BC08BC9E4670472D000000C02600000881FF1F2000000070010000FD
:4026C00000000000382200003C2200000000007D00FA0000400000000090D00300000000000000000000000000000000000000000000000000000000000000000000000008
:402700000080002011270000593600005936000008B500F0BBFF00BF10B5054C237833B9044B13B10448AFF300800123237010BD9881FF1F000000000477000008B5064B1B
:402740001BB106480649AFF300800648036813B1054B03B1984708BD00000000047700009C81FF1F0881FF1F00000000F0B587B001F0DCFB01F07AFA00F026FE00F03CFC07
:4027800000F046FE00F0EAFD00F0D2FD00F07CFE00F0DCFD00F0D0FD00F04EFF012001F07FFA62B60020014601F0CEFB2F4801F05DFB2F4E2F4D304F01F028FA044633781E
:4027C00013F0FF0F03D000F0A7FE0023337000F03FFD00F099FC2B7813F0FF0F09D000232B70264A13604FF47A60014600F0C4FB0CE0234B1B7813F0FF0F07D00021204B47
:4028000019701E4B1960084600F0B6FBA7FB04239B094FF47A7202FB1343002BCCD1012001F032FB174B1A68144B1B6802A8164904F06CFB0020014601F086FB02A801F0AA
:4028400015FB124B1B88124AB2F900201221009102A810499BB204F059FB0120002101F073FB02A801F002FBA6E700BF08770000B898FF1F2D82FF1FD34D6210F481FF1F61
:402880002C82FF1FD081FF1F14770000BE98FF1FBA98FF1F20770000F8B50746012001F0C1F8012001F0D2F8C82001F057FA002001F0CCF8C82001F051FA002001F0B2F858
:4028C0000A2001F04BFA012001F0C0F8002001F0A9F80A2001F042FA002402E0204601F0A1F801F0BFF80128F8D00026344613E047FA04F505F00105EDB2284601F092F8C6
:402900002E44F6B201F0AEF80028FBD001F0AAF80128FBD00134E4B2072CE9D986F0010000F0010001F07EF801F09CF80028FBD001F098F80128FBD0012001F073F8012052
:4029400001F084F8F8BD00BF08B572B6FF20FFF7A3FF082001F0ECF9F320FFF79DFF022001F0E6F95020FFF797FF022001F0E0F9EA20FFF791FF022001F0DAF90220FFF7CF
:402980008BFFF420FFF788FF022001F0D1F962B608BD00BF08B50023074A1370074A1370074A1370074A1370074A137001F02EF9064B186008BD00BFDC81FF1FCC81FF1F34
:4029C000DE81FF1FD481FF1FD581FF1FD881FF1F10B501F047F8012804D1FFF7DBFF01F049F810BD794B1C6801F010F9201A0A2809D9FFF7CFFF764B1A780132D2B21A7052
:402A000001F038F810BD01F019F8724B1870724B1B78DBB2012B3CD013B1022B71D0CEE06B4B1B7813F0FF0F05D1694B1A780132D2B21A70C3E0664B1B78DBB2082B10D826
:402A4000644B1978C9B2624B1A78013A9140634A10780143C9B211701A780132D2B21A70ADE05B4B1B78DBB2092B05D1584B1A780132D2B21A70A2E0554B1B78DBB20A2BBE
:402A800040F09D800022524B1A700122524B1A7095E04F4B1B7813F0FF0F05D14C4B1A780132D2B21A708AE0494B1B78DBB2082B10D8484B1978C9B2454B1A78013A91403D
:402AC000474A10780143C9B211701A780132D2B21A7074E03E4B1B78DBB2092B05D13C4B1A780132D2B21A7069E0394B1B78DBB20A2B64D10022364B1A700222364B1A7096
:402B00005DE0334B1B7813F0FF0F05D1304B1A780132D2B21A7052E02D4B1B78DBB2082B10D82C4B1978C9B2294B1A78013A91402C4A10780143C9B211701A780132D2B211
:402B40001A703CE0224B1B78DBB2092B05D1204B1A780132D2B21A7031E01D4B1B78DBB20A2B2CD11D4B1B7813F0100F07D01C4B1978FF391C4B1A680A441A6005E0184BF2
:402B80001978194B1A680A441A60144B1B7813F0200F07D0134B1978FF39144B1A680A441A6005E00F4B1978104B1A680A441A600F4B1A780132D2B21A70FFF7EBFE01F099
:402BC00025F8024B186000F055FF10BDD881FF1FCC81FF1FCD81FF1FDC81FF1FD581FF1FDE81FF1FD481FF1FC881FF1FD081FF1FDD81FF1FF8B50746012000F091FF0120A7
:402C000000F072FFC82001F0A9F8002000F06CFFC82001F0A3F8002000F082FF0A2001F09DF8012000F060FF002000F079FF0A2001F094F8002402E0204600F071FF00F02E
:402C40005FFF0128F8D00026344613E047FA04F505F00105EDB2284600F062FF2E44F6B200F04EFF0028FBD000F04AFF0128FBD00134E4B2072CE9D986F0010000F0010040
:402C800000F04EFF00F03CFF0028FBD000F038FF0128FBD0012000F043FF012000F024FFF8BD00BF08B572B6FF20FFF7A3FF082001F03EF8F320FFF79DFF022001F038F8D0
:402CC0005020FFF797FF022001F032F8EA20FFF791FF022001F02CF80220FFF78BFF022001F026F8F420FFF785FF62B608BD00BF08B50023074A1370074A1370074A13707B
:402D0000074A1370074A137000F080FF064B186008BD00BFED81FF1FE181FF1FE381FF1FEC81FF1FE481FF1FF081FF1F10B500F0E7FE012804D1FFF7DBFF00F0E9FE10BDF8
:402D4000794B1C6800F062FF201A0A2809D9FFF7CFFF764B1A780132D2B21A7000F0D8FE10BD00F0E9FE724B1870724B1B78DBB2012B3CD013B1022B71D0CEE06B4B1B7827
:402D800013F0FF0F05D1694B1A780132D2B21A70C3E0664B1B78DBB2082B10D8644B1978C9B2624B1A78013A9140634A10780143C9B211701A780132D2B21A70ADE05B4B95
:402DC0001B78DBB2092B05D1584B1A780132D2B21A70A2E0554B1B78DBB20A2B40F09D800022524B1A700122524B1A7095E04F4B1B7813F0FF0F05D14C4B1A780132D2B273
:402E00001A708AE0494B1B78DBB2082B10D8484B1978C9B2454B1A78013A9140474A10780143C9B211701A780132D2B21A7074E03E4B1B78DBB2092B05D13C4B1A78013283
:402E4000D2B21A7069E0394B1B78DBB20A2B64D10022364B1A700222364B1A705DE0334B1B7813F0FF0F05D1304B1A780132D2B21A7052E02D4B1B78DBB2082B10D82C4BB2
:402E80001978C9B2294B1A78013A91402C4A10780143C9B211701A780132D2B21A703CE0224B1B78DBB2092B05D1204B1A780132D2B21A7031E01D4B1B78DBB20A2B2CD127
:402EC0001D4B1B7813F0100F07D01C4B1978FF391C4B1A680A441A6005E0184B1978194B1A680A441A60144B1B7813F0200F07D0134B1978FF39144B1A680A441A6005E0C6
:402F00000F4B1978104B1A680A441A600F4B1A780132D2B21A70FFF7EBFE00F077FE024B186000F0F5FD10BDF081FF1FE181FF1FE081FF1FED81FF1FE481FF1FE381FF1FFD
:402F4000EC81FF1FE881FF1FF481FF1FE281FF1F014B1878704700BFFC81FF1F884201DDC8B27047C0B27047014B1880704700BF1082FF1F0000000070B5194B1A68194CC2
:402F800022605B68184C2360184C2060184C2160861AC81A03F034FC04460D46304603F02FFC02460B462046294601F039FF0022104B03F08BFC08A3D3E9002303F0B0FD8E
:402FC00000220C4B03F0D0FA03F01AFF00B2FFF7CBFF70BDAFF30080182D4454FB2109401C82FF1F0882FF1FF881FF1F0C82FF1F1482FF1F0080664008B501F05BF90020E9
:4030000001F066F9002001F06FF9002001F00EF901F0E4F8002001F073F9002001F07CF9002001F097F808BD38B504460D4610F0010F04D0A1F11E00C0B201F0F7F814F006
:40304000020F02D0284601F085F838BD10B5044610F0010F05D0002001F03AF9002001F043F914F0020F05D0002001F049F9002001F052F910BD00BF10B5044610F0010FD3
:4030800005D0012001F024F9002001F02DF914F0020F05D0012001F033F9002001F03CF910BD00BF10B5044610F0010F05D0002001F00EF9012001F017F914F0020F05D0C3
:4030C000002001F01DF9012001F026F910BD00BF10B504460220FFF7CFFF0120FFF7E2FF0320E1B2FFF7A0FF10BD00BF10B504460120FFF7C1FF0220FFF7D4FF0320E1B2A1
:40310000FFF792FF10BD00BF08B54B4BB3F900204A4BB3F90010531A83EAE370A0EBE370B42802DDC1F5B4739B1A83EAE370A0EBE370042822DD0121414A1170002B0EDAAA
:40314000C0EB00103230FF21FFF708FFFFF7C0FF012000F099FD002000F0AEFD08BDC0EB00103230FF21FFF7F9FEFFF7BFFF002000F08AFD012000F09FFD08BD314B1B7843
:40318000022B02D0032B2BD008BD2F4B1B682F4A1268991A0029B8BF4942B1F5FA7F14DDD31A002BB8BF5B4203EBD3704010FF21FFF7D4FE01460320FFF736FF0320FFF701
:4031C0005BFF00221E4B1A7008BD03200021FFF72BFF0320FFF73AFF00221A4B1A7008BD194B1B68194A1268991A0029B8BF4942B1F5FA7F14DDD31A002BB8BF5B4203EB43
:40320000D3704010FF21FFF7A9FE01460320FFF70BFF0320FFF746FF0022094B1A7008BD03200021FFF700FF0320FFF70FFF0022044B1A7008BD00BF1082FF1FBA98FF1FB2
:40324000FC81FF1F0482FF1F0082FF1F2882FF1F2DE9F041FFF77CFE00282AD11C4BB3F900804FEAC8081B4B4344D3E900451A4F386803F0C5FA02460B462046294603F027
:4032800025FB03F0BDFD154E336818443060144B9844D8E90045386803F0B2FA02460B462046294603F012FB03F0AAFD736818447060074B1A88094B1A81074B1868094AC0
:4032C00011680144116000221A60BDE8F08100BFBA98FF1F3882FF1FF481FF1F1C82FF1F788DFF1F2882FF1F0023094A1360094A1360094A1370094A1360094A1360094A48
:403300001370094A1360094A1360536013817047C881FF1FD081FF1FDD81FF1FE881FF1FF481FF1FE281FF1F2882FF1F1C82FF1F08B5FFF7D9FF08BD08B501F0A5FC024B23
:40334000187801F051FC08BD0C81FF1F08B501F04DF8322001F006F808BD00BF08B500F0B9FB00F01DFCFFF7EFFAFFF79BFCFFF711FBFFF7BDFC00F07DFB00F0C9FB002094
:4033800000F086FB002000F0E5FB034800F094FB024800F0F7FB08BDD12900002D2D000008B50122024B1A7000F048FE08BD00BF2C82FF1F08B50122024B1A7000F00EFEAD
:4033C00008BD00BF2D82FF1F08B500F09BFE064800F026FE054800F0F3FD0023044A1370044A137008BD00BFA1330000B53300002D82FF1F2C82FF1F08B50122024B1A7052
:4034000001F078FC08BD00BFB898FF1F000000002DE9F84F4FF0000A0026174F0FF25009D9E900891EE0504603F0EAF932463B4603F098F842464B4603F048FA04460D468D
:4034400001F0A4FC4FEACA0B0C4B5B44C3E900012046294601F054FC094B9B44CBE900010AF1010ABAF5B47FDDDBBDE8F88F00BF399D52A246DF913F00806640788DFF1F79
:403480003882FF1FAFF3008010B500241A4B1C701A4B1C801A4B1C801A4B1C801A4B1C801A4B1C8000F0F6FF1E20214601F098F9204601F007FA702001F004FA01F0DAF98C
:4034C0001E20214601F08CF9012001F0FBF9202001F0F8F901F0CEF91E20214601F080F9022001F0EFF9204601F0ECF901F0C2F9074801F0F1FB10BDB898FF1FBC98FF1F06
:403500003482FF1F3082FF1FBA98FF1F3282FF1FF9330000000000002DE9F8431E20002101F05EF9032001F0CDF901F0A3F91E20012101F055F9012001F0FAF9814601208E
:4035400001F0F6F98046012001F0F2F90746012001F0EEF90646012001F0EAF90546002001F0E6F9044601F085F948EA09239BB21F4A138046EA07261E4A168044EA0520D8
:4035800080B21D4A108000B21BB203F11906193803F036F904460D46304603F031F902460B462046294601F03BFC0FA3D3E9002303F08CF90022114B02F0D6FF04460D462C
:4035C0000F4BB3F9000003F01BF902460B462046294602F0C7FF03F013FC0A4B1880BDE8F88300BFAFF30080F8C1631ADCA54C40BC98FF1F3082FF1F3482FF1F0080664029
:403600003282FF1FBA98FF1F08B501F09FFAC0F54340503003F0E4F80022054B03F080FA03F016FC80B2034B188001F06BFA08BD00004D40BE98FF1F08B50022044B1A809A
:4036400001F0B2FA01F028FA024801F04DFA08BDBE98FF1F09360000FEE700BF08B5094B1B681844084A821A802A02DC054A106005E003F00DFC0C2303604FF0FF33184695
:4036800008BD00BF1881FF1FD898FF1F80B5104F104E002415E031687368B568224604E051F8040B43F8040B0432AA42F8D1F168224602E043F8044B04328A42FAD110368C
:4036C000013F002FE7D103F0E9FBFFF74FF8FEE701000000D486000010B5134A134B1A6008331A6842F400721A6000231048114C114908E0032B02D854F8232000E002469D
:4037000041F8232001332F2BF4D90C4B1A780C4B1A70094A0B4B1A6000F0D0F800F0ECFA0022094B1A6010BD0004FA050CED00E059360000002700000080FF1FBC760040D8
:403740000481FF1F08ED00E00081FF1FFEE700BFF0B400231F4611E050F82760F2B226F0FF0608E001EB430511F813406D78A5550133013AD2B2002AF4D10137272FEBD958
:40378000F0BC7047064B1B78DBB203F00701054A11701B09013213704422034B1A707047CF0100496E5800407658004008B50A46002103F0A2FB08BD08B503F095FB08BDE6
:4037C00008B503F091FB08BDF8B50025324B1D80582202331A70012202331A8018232F4A1370032102321180023213701721023211800232137040F2572102321180023283
:40380000137040F65F1102321180023213700622234B1A705222A3F580731A70214B1A78D2B2214B1A704FF4E162A3F27F431A8041F25122023B1A8019241C4F4FF4F0767D
:403840000AE03B7803F0010343EA450505F00305304600F03DFA013C0CB1032DF1D114B90320FFF773FF124A4FF4807313800723137000230F490B70482002310870137001
:403880000532137002220C4B1A7003F2A1331A7842F03F021A70F8BD8040004086400040004300400F010049A14600402542004004400040064000400140004038B572B6EC
:4038C0000024464D09E004EB44035B002B4418689988FFF76BFF0134E4B2062CF3D900243F4D0AE004EB84035B002B44186859681A89FFF761FF0134E4B2012CF2D9374C04
:4039000004F1400004F1E001FFF722FF35480421FFF74CFF344B1A7842F002021A7010331A7842F002021A70304D2B7843F040032B702F4B1A7842F010021A702D4804F6A2
:40394000C4410A22FFF738FF2B4804F54D610A22FFF732FF294804F6DC410A22FFF72CFF274804F6E8410A22FFF726FF254804F6F4410A22FFF720FF234804F550610A22B0
:40398000FFF71AFF214804F60C510822FFF714FF1F4804F614510822FFF70EFF1D4804F61C510822FFF708FF84221B4B1A70A3F55343393B1A7842F008021A70174C6123A8
:4039C0002370FFF701FF81232370FFF7DBFE144829460E22FFF7F4FE38BD00BF2C770000587700000076004003500140A0430040C243004000510040C0510040F05100401A
:403A00001051004020510040305100404251004052510040625100405B16014000480040B0430040044B1A7802F0FD02400000F0020002431A70704700510040024B187865
:403A4000C0F34000704700BF01510040044B1A7802F0FE0200F0010002431A70704700BF00510040024B187800F00100704700BF01510040024B187800F00100704700BF97
:403A800080450040014B1B681865704708ED00E04001C0B2014B1870704700BF04E400E01022014B1A60704700E100E01022014B1A60704780E100E010B50446FFF7F6FF0A
:403AC0002046FFF7DFFF0720FFF7E2FFFFF7E8FF10BD00BF08B5FFF7E9FF0248FFF7D2FF08BD00BF59360000044B1A7802F0FE0200F0010002431A70704700BFC05100400C
:403B0000024B187800F00100704700BFC1510040024B187800F00100704700BF8C450040044B1A7802F0FD02400000F0020002431A707047C0510040024B1878C0F34000EF
:403B4000704700BFC1510040014B1B68D866704708ED00E04001C0B2014B1870704700BF0BE400E04FF40062014B1A60704700BF00E100E04FF40062014B1A60704700BF95
:403B800080E100E010B50446FFF7F4FF2046FFF7DBFF0720FFF7DEFFFFF7E4FF10BD00BF08B5FFF7E7FF0248FFF7CEFF08BD00BF59360000024B1A7842F080021A707047AA
:403BC00076640040014B1870704700BF86640040014B1878704700BF6664004008B50146014800F0F1F808BD24640040024B186820F07F40704700BF4464004008B501462A
:403C0000014800F0E1F808BD04640040034B1B78034B186820F07F40704700BF046400404464004008B501E0FFF7E0FFFFF7D0FF10F0080FF8D108BD08B56FF07F40FFF7D3
:403C4000CDFF6FF07F40FFF7D9FF00F04BF8064B1A7842F010021A7000F048F8FFF7E2FF0020FFF7AFFF08BD9664004008B5054B1B7823B9FFF7E0FF0122024B1A70FFF79D
:403C800099FF08BDB481FF1F044B1A7802F0EF02000100F0100002431A70704750510040044B1A7802F0DF02400100F0200002431A70704750510040044B1A7802F0BF0228
:403CC000800100F0400002431A707047505100400230800800F0058000BF013800467FF4FCAF7047EFF3108072B6704780F31088704700BFAFF300800B4A7F23137080215B
:403D0000517007E0DA0002F1804202F5F042013BDBB21370002BF5D1DB0003F1804303F5F04300221A7070471C81FF1F01BE704738B50446084D04E02868FFF7C9FFA4F53E
:403D40000044B4F5004FF7D8034B586800FB04F0FFF7BEFF38BD00BF2481FF1F08B5034B1B7A03FB00F0FFF7B3FF08BD2481FF1F70B505460E46074B1C681F2802D9002077
:403D8000FFF7D4FF05F01F05103554F8250044F8256070BD08ED00E038B505460C46072902D90020FFF7C2FF1F2D02D90020FFF7BDFF05F01F0000F1604000F564406401A0
:403DC000E4B2047038BD00BFCBB20370C1F307234370C1F307418170704700BF10B50B4C237803F09F032370237803F0F00323702378184340F0100323700120FFF7AEFF9E
:403E0000237803F0EF03237010BD00BF7264004010B50D4C237843F020032370237803F0BF032370237803F0F00323702378184340F0100323700120FFF790FF237803F034
:403E4000EF03237010BD00BF7264004010B504460009FFF7DDFF6420FFF780FF04F00F00FFF7D6FF9620FFF779FF10BD38B505460078012404E0FFF7E9FF285D0134E4B292
:403E80000028F8D138BD00BF10B504460009FFF7A5FF6420FFF762FF04F00F00FFF79EFF40F6C410FFF75AFF10BD00BF08B52820FFF73EFF0320FFF791FF0520FFF738FF22
:403EC0000320FFF78BFF0F20FFF732FF0320FFF785FF0120FFF72CFF0220FFF77FFF0520FFF726FF0620FFF7CFFF0E20FFF7CCFF2C20FFF7C9FF0820FFF7C6FF0120FFF737
:403F0000C3FF0C20FFF7C0FF0320FFF7BDFF0520FFF70EFF08BD00BF08B50C20FFF7B4FF0122014B1A7008BDB581FF1F08B5054B5B7823B9FFF7BAFF0122024B5A70FFF71E
:403F4000EBFF08BDB581FF1F08B5032819D8DFE800F002070D1381F08000FFF795FF08BDA1F14000C0B2FFF78FFF08BDA1F16C00C0B2FFF789FF08BDA1F12C00C0B2FFF7DF
:403F800083FF08BD014B1B681866704708ED00E04001C0B2014B1870704700BF08E400E04FF48072014B1A60704700BF00E100E04FF48072014B1A60704700BF80E100E034
:403FC00010B50446FFF7F4FF2046FFF7DBFF0720FFF7DEFFFFF7E4FF10BD00BF4FF48072014B1A60704700BF80E200E0014B1B68D865704708ED00E04001C0B2014B187062
:40400000704700BF07E400E08022014B1A60704700E100E08022014B1A60704780E100E010B50446FFF7F6FF2046FFF7DFFF0720FFF7E2FFFFF7E8FF10BD00BF8022014B76
:404040001A60704780E200E0084B1A7842F001021A7010331A7842F001021A7003F64D331A7842F001021A70704700BFA3430040014B1880704700BF044F0040014B18805E
:40408000704700BF064F0040014B1870704700BF034F004008B5194B1A7842F002021A7002331A7802F08F0242F030021A7009331A7802F0CF021A701A7842F030021A70D3
:4040C0001A7802F0F0021A701A7842F00F021A704FF6FF70FFF7CCFF0120FFF7CFFF0020FFF7D2FF064B1A7842F001021A7003F65E331A7842F001021A7008BD004F00404F
:40410000A343004008B5054B1B7823B9FFF7C2FF0122024B1A70FFF797FF08BDB781FF1F084B1A7842F008021A7010331A7842F008021A7003F671331A7842F001021A7051
:40414000704700BFA3430040014B1880704700BF284F0040014B1880704700BF2A4F0040014B1870704700BF274F004008B5194B1A7842F002021A7002331A7802F08F02C2
:4041800042F010021A7009331A7802F0CF021A701A7842F030021A701A7802F0F0021A701A7842F00F021A70FF20FFF7CDFF7F20FFF7D0FF0020FFF7D3FF074B1A7842F0F4
:4041C00008021A7003F682331A7842F001021A7008BD00BF244F0040A343004008B5054B1B7823B9FFF7C2FF0122024B1A70FFF797FF08BDB881FF1F084B1A7842F00402DD
:404200001A7010331A7842F004021A7003F665331A7842F001021A70704700BFA3430040014B1880704700BF1C4F0040014B1880704700BF1E4F0040014B1870704700BF89
:404240001B4F004008B5194B1A7842F002021A7002331A7802F08F0242F010021A7009331A7802F0CF021A701A7842F030021A701A7802F0F0021A701A7842F00F021A700F
:40428000FF20FFF7CDFF7F20FFF7D0FF0020FFF7D3FF074B1A7842F004021A7003F676331A7842F001021A7008BD00BF184F0040A343004008B5054B1B7823B9FFF7C2FFB4
:4042C0000122024B1A70FFF797FF08BDB981FF1F044B1A7802F0DF02400100F0200002431A70704760510040044B1A7802F0BF02800100F0400002431A70704760510040E3
:40430000044B1A7802F07F02C001C0B202431A70704700BF60510040044B1A7802F0FE0200F0010002431A70704700BF50510040084B1A7842F002021A7010331A7842F02A
:4043400002021A7003F659331A7842F001021A70704700BFA3430040014B1880704700BF104F0040014B1880704700BF124F0040014B1870704700BF0F4F004008B5194B40
:404380001A7842F002021A7002331A7802F08F0242F010021A7009331A7802F0CF021A701A7842F030021A701A7802F0F0021A701A7842F00F021A7040F21F30FFF7CCFF57
:4043C0002720FFF7CFFF0020FFF7D2FF064B1A7842F002021A7003F66A331A7842F001021A7008BD0C4F0040A343004008B5054B1B7823B9FFF7C2FF0122024B1A70FFF798
:4044000097FF08BDBA81FF1F10B50024144B1C70012218331A70FFF765FC124B1A7842F010021A70FFF762FC0F220F4B1A70082210331A7004220D4B1A6002200721FFF750
:40444000ABFC02200A49FFF793FC1022094B1A70094B1C70094B1C70094B1C7010BD00BF746400409C6400402A64004080E100E0BD440000C098FF1FC698FF1FCE98FF1F81
:40448000C498FF1F024B1A7842F002021A7070477464004008B5074B1B7823B9FFF7B4FF0122044B1A70FFF7EDFF0422024B1A6008BD00BFBB81FF1F00E100E038B5AB4BA0
:4044C0001C78E4B2AA4B1B7813F0400F00F0788114F0010F00F04081A54B1B78453B052B00F23781DFE813F006009200350135010600F80004F0DF0504F00A04082C50D132
:404500009B4B1B78DBB2452B3DD19A4B1B7813F0FF0F16D0984B1B681A78D2B2974B1A7006226C331A70FF225C3B1A70002240331A700122924B1A7046228D4B1A702C4628
:404540000AE1904B1B7813F0020F0CD08E4B1A7842F00A021A706022854B1A7004228B4B1A602C46F8E08A4B1A7842F020021A705222183B1A70FF225C3B1A7000224033B6
:404580001A702C46E8E00222824B1A70FF225C3B1A70002240331A704A22754B1A702C46DAE00A2C2DD1784B1A7842F0A0021A70744B1B7813F0020F13D06D4B1B7813F0FB
:4045C000080F01D0092100E00A216F4B1A780A431A706022664B1A7004226C4B1A602C46BAE06B4B1A7842F020021A705222183B1A70FF225C3B1A70002240331A702C4611
:40460000AAE00020FFF792FB2C46A5E014F0020F3DD15B4B1A78574B1B78D2B29A4216D2574B1A78D2B254490968895CC9B2534A117006216C321170FF215C3A117000219C
:40464000403211701A780132D2B21A7084E04D4B1B7813F0020F0BD04B4B1A7842F00A021A706022424B1A700422484B1A6073E0474B1A7842F020021A705222183B1A7094
:40468000FF225C3B1A70002240331A7064E03D4B1B7813F0020F0BD03B4B1A7842F09A021A706022324B1A700422384B1A6053E0374B1A7842F020021A705222183B1A70B9
:4046C000FF225C3B1A70002240331A702E4B1A7842F090021A703FE02F4B1A78D2B22F49096826480078C0B288541A780132D2B21A701A782A4B1B78D2B29A4209D2022268
:40470000244B1A70FF225C3B1A70002240331A7022E01C4B1B7813F0020F0BD01A4B1A7842F009021A706022114B1A700422174B1A6011E0164B1A7842F020021A70122216
:40474000183B1A70FF225C3B1A70002240331A7002E00020FFF7EAFA14F0200F38D0044B1B7813F0080F1DD001221CE06C640040C098FF1FC598FF1FD098FF1F08640040A9
:40478000C498FF1FCC98FF1FC698FF1F80E100E08C64004074640040CE98FF1FC898FF1FCD98FF1F02220B4B19780A431A700A4B1A7802F0DF021A701022084B1A7038BD49
:4047C000064B1B7813F0100F02D11022034B1A7038BD00BFC698FF1F8C640040C098FF1F1F4B1B78DBB2102B33D11E4B1B7813F0100F30D104221C4B1A604000C0B229B185
:4048000040F001004922164B1A7002E04522144B1A70164B187082226C331A70FF225C3B1A70002240331A70114A137813F0FF0FFBD10C4A137813F0010FFBD0094B1B783F
:4048400003F00A030A2B08D11022054B1A700320704702207047012070470020704700BFC098FF1F6C64004080E100E008640040186400400F4B1B7813F0040F17D0522270
:404880000D4B1A70FF225C3B1A70002240331A700A4A137813F0FF0FFBD11022084B1A70044A137813F0210FFBD0002070470220704700BF6C6400407464004018640040C0
:4048C000C098FF1F164B1B7813F0040F26D0154B187006226C331A70FF225C3B1A70002240331A70104A137813F0FF0FFBD146220E4B1A700A4A137813F0010FFBD0084B8B
:404900001B7813F0020F04D16022084B1A70002070476022054B1A7003207047022070476C6400400864004018640040C098FF1F01461C4B1B7813F0040F31D01A4B1B7878
:40494000DBB2492B10D10222184B1A70FF225C3B1A70002240331A70154A137813F0FF0FFBD14A22104B1A700E4A137813F0010FFBD0104B1878C0B271B102226C331A703E
:40498000FF225C3B1A70002240331A70084A137813F0FF0FFBD170476022034B1A707047002070476C640040C098FF1F746400401864004008640040024B1A7842F08002A4
:4049C0001A70704774650040014B1880704700BF0C6A0040014B1880704700BF8C6A0040014B1880704700BF4C6A0040014B1880704700BF6C6A0040014B1870704700BFB3
:404A000087650040014B1878704700BF67650040014B188880B27047AC6A004008B501E0FFF7F6FFFFF7EEFF10F0100FF8D108BD10B5174B1A7802F0C00242F00C021A7071
:404A400022331A7842F001021A70124C237843F0010323704CF24F30FFF7B6FF4CF24F30FFF7B8FF4AF6B370FFF7BAFF42F21070FFF7BCFF0020FFF7BFFFFFF733F92378F3
:404A800043F010032370FFF731F9FFF7C7FF10BD746500409765004008B5054B1B7823B9FFF7C6FF0122024B1A70FFF785FF08BDBC81FF1F014B1B685864704708ED00E03D
:404AC0004001C0B2014B1870704700BF01E400E00222014B1A60704700E100E00222014B1A60704780E100E010B50446FFF7F6FF2046FFF7DFFF0720FFF7E2FFFFF7E8FFA1
:404B000010BD00BF0222014B1A60704780E200E0014B1870704700BF86650040014B1878704700BF66650040014B1880704700BF486A0040014B188880B27047886A0040E1
:404B4000014B1880704700BF086A0040024B1B78024B188880B2704704650040886A004008B501E0FFF7E6FFFFF7D8FF10F0080FF8D108BD08B54CF24F30FFF7D5FF4CF22B
:404B80004F30FFF7DDFFFFF7ADF8064B1A7842F010021A70FFF7AAF8FFF7E2FF0020FFF7B7FF08BD9665004008B5044B1B7823B9FFF7E0FF0122014B1A7008BDBD81FF1FB3
:404BC000024B1A7842F080021A70704773640040014B1880704700BF04680040014B1880704700BF84680040014B1880704700BF44680040014B1870704700BF8364004087
:404C0000014B1878704700BF63640040014B188880B27047A468004008B501E0FFF7F6FFFFF7EEFF10F0100FF8D108BD10B5144B1A7802F0C00242F009021A701F331A78CC
:404C400042F001021A700F4C237843F001032370FF20FFF7BDFFFF20FFF7C0FF7F20FFF7C3FF0020FFF7C6FFFFF73CF8237843F010032370FFF73AF8FFF7CEFF10BD00BFC9
:404C8000736400409364004008B5054B1B7823B9FFF7CCFF0122024B1A70FFF791FF08BDBE81FF1F014B1B681864704708ED00E04001C0B2014B1870704700BF00E400E02F
:404CC0000122014B1A60704700E100E00122014B1A60704780E100E010B50446FFF7F6FF2046FFF7DFFF0720FFF7E2FFFFF7E8FF10BD00BF0122014B1A60704780E200E0F5
:404D000070B5204E21F00044B44286B002460B4619DD1D4DAC4203DD01F024FC06B070BD02AA00F079F900F0030001281BD002280FD000B301230093DDE90201DDE9042366
:404D400001F08EF8EAE70022002300F085FB06B070BDDDE90201DDE9042300F07DFB01F1004106B070BD0090DDE90423DDE9020101F076F8F3E7DDE90201DDE9042300F0FA
:404D80006BFBCBE7FB21E93FFFFFEF7F70B5224E21F00044B44286B002460B461ADD1F4DAC4203DD01F0DEFB06B070BD02AA00F033F900F0030001281DD0022812D008B306
:404DC000DDE90201DDE9042300F046FB01F1004106B070BD002300930022002301F040F806B070BD01230093DDE90201DDE9042301F036F8EAE7DDE90201DDE9042300F0AC
:404E00002BFBD1E701230093DDE90201DDE9042301F026F8C8E700BFFB21E93FFFFFEF7F00F002B8000000002DE9F047C2F1000949EA020923F00048DFF8D4C148EAD979BE
:404E400082B0E14514461D46CDE900010F4647D8C0F1000A4AEA000A21F0004949EADA7AE2453DD803F1404C0CF5801C5CEA020C4CD04FEAA37A0AF0020A4AEAD17A59EA31
:404E8000000136D058EA04013AD06149884551D05F49894534D0C8EB09084FEA2858B8F13C0F43DC002D70DBDDE9000101F038FE01F036FA01F08CF8BAF1010F62D0BAF164
:404EC000020F52D0BAF1000F10D03FA3D3E9002301F048FB3EA3D3E9002301F043FB05E010461946DDE9002301F03EFB02B0BDE8F087BAF1030FC5D8DFE80AF00D0D14102D
:404F0000002F2EDB34A1D1E90001EFE702B0BDE8F04701F05DB8DDE90001E7E730A1D1E90001E3E72AA1D1E90001DFE72AA1D1E90001C1E7C1452ED0BAF1030FA8D801A1F7
:404F400051F82AF05D4F0000554F0000254F00001D4F000000204FF00041C7E700200021C4E721A1D1E90001C0E717A3D3E9002301F0F8FA02460B4615A1D1E9000101F0C9
:404F8000F1FAB3E701F10041B0E718F13C0F8BDA0020002190E7BAF1030FB1D8DFE80AF006020E0A12A1D1E900019FE712A1D1E900019BE712A1D1E9000197E712A1D1E9CD
:404FC000000193E7AFF30080075C143326A6A13C182D4454FB210940182D4454FB21F93F182D4454FB2109C0182D4454FB21F9BF182D4454FB21E9BF182D4454FB21E93F19
:40500000D221337F7CD902C0D221337F7CD902400000F07FAFF300802DE9F04F964B21F000469E4291B004460D468B46904640F38180924B9E4226DC85A3D3E900230029D2
:4050400040F3A08101F08EFA8D4B04469E420D4600F0858080A3D3E9002301F083FA02460B46C8E900232046294601F07BFA7AA3D3E9002301F076FA0127C8E9020138464A
:4050800011B0BDE8F08F7F4B9E4240F385807E4B9E425ADC4FEA2659A9F21649A6EB09552946044601F0ACFE01F0AAFB06460F4602460B4620462946CDE90A6701F052FA4C
:4050C0000022724B01F002FC0F46064601F098FE01F096FB02460B4604460D4630463946CDE90C4501F03EFA0022684B01F0EEFB00220023CDE90E0101F050FE002800F0CD
:405100006D81002320462946002201F047FE002814BF012302235E480221019000914A460AA8414600F0BCFABBF1000FC0F24881074606E000220023C8E90045C8E9022319
:405140000027384611B0BDE8F08F02460B4601F009FA0027C8E90201C8E90001F1E740A3D3E9002301F0FEF93FA3D3E9002304460D4601F0F7F902460B46C8E900232046F7
:40518000294601F0EFF938A3D3E9002301F0EAF90127C8E90201D4E701F0C2F834A3D3E9002304460D4601F091FB0022394B01F0DBF901F025FE074601F022FB24A3D3E9AA
:4051C0000023CDE9060101F081FB02460B462046294601F0C7F920A3D3E90023CDE90201DDE9060101F072FB1F2FCDE90401DDE9020153DC284B7A1E53F82230B3424DD002
:40520000DDE9042301F0AEF904460D46C8E90045DDE9020122462B4601F0A4F9DDE9042301F0A0F9BBF1000FC8E9020189DA264601F1004305F100447F42C8F80060C8F861
:405240000440C8F80800C8F80C307AE7AFF3008000004054FB21F93F3163621A61B4D03D0000601A61B4D03D7370032E8A19A33B83C8C96D305FE43FFB21E93F7BD902404B
:40528000FB21F93FFB213941FFFFEF7F00007041E08400000000E03F60840000DDE9042301F060F93615C1F30A53F31A04460D46102BC8E90045ABDD5BA3D3E90023DDE9E7
:4052C000060101F003FB04460D4622462B46DDE9020101F047F9CDE90801DDE90823DDE9020101F03FF922462B4601F03BF950A3D3E9002304460D46DDE9060101F0E6FA9B
:4053000022462B4601F02EF9CDE90401DDE90423DDE9080101F026F9C1F30A53F61A04460D46312EC8E9004578DD43A3D3E90023DDE9060101F0CAFA04460D4622462B46D0
:40534000DDE9080101F00EF9CDE90201DDE90223DDE9080101F006F922462B4601F002F937A3D3E9002304460D46DDE9060101F0ADFA22462B4601F0F5F8CDE90401DDE94B
:4053800002013DE701F0F0F8314B04469E420D4626D02DA3D3E9002301F0E6F802460B46C8E900232046294601F0DCF826A3D3E9002301F0D9F84FF0FF37C8E90201C0E640
:4053C000D8F80420D8F80C3002F1004203F100434742C8F80420C8F80C30B2E603239AE611A3D3E9002301F0BFF811A3D3E9002304460D4601F0B8F802460B46C8E9002321
:405400002046294601F0AEF809A3D3E9002301F0ABF84FF0FF37C8E9020192E6DDE90823CDE90223F4E600BF0000601A61B4D03D7370032E8A19A33B0000002E8A19A33BFB
:40544000C14920259A837B393163621A61B4D03DFB21F93FAFF300802DE9F04F21F00049B9F1795F85B006460F4692469B466BDA01F0C6FC002800F0EA8032463B463046BB
:40548000394601F023FA74A3D3E9002304460D4601F01CFA72A3D3E9002301F065F822462B4601F013FA70A3D3E9002301F05AF822462B4601F00AFA6DA3D3E9002301F0C9
:4054C00053F822462B4601F001FA6BA3D3E9002301F048F822462B4601F0F8F968A3D3E9002301F041F822462B4601F0EFF9CDE90001204629460022634B01F0E7F9DDE90A
:405500000023804689462046294601F0DFF9524604460D465B463046394601F0D7F902460B462046294601F01DF802460B464046494601F017F802460B460020534901F021
:4055400011F805B0BDE8F08F02460B4601F0BEF941A3D3E9002304460D4601F0B7F940A3D3E9002301F000F822462B4601F0AEF93DA3D3E9002300F0F5FF22462B4601F07E
:40558000A5F93BA3D3E9002300F0EEFF22462B4601F09CF938A3D3E9002300F0E3FF22462B4601F093F936A3D3E9002300F0DCFF2B46224601F08AF9354BCDE9000199458D
:4055C00097DD344B0022994539DCA9F50013002200202E499046994600F0C4FFCDE90201204629460022284B01F070F942464B4600F0B8FFDDE90023804689462046294641
:4056000001F064F9524604460D465B463046394601F05CF902460B462046294600F0A2FF02460B464046494600F09CFF02460B46DDE9020100F096FF05B0BDE8F08F164BB2
:405640004FF00008CDE90223DFF85090C8E70F49002005B0BDE8F08FD43888BEE9FAA8BDC4B1B4BD9EEE213EAD529C804F7E923E9015CB19A001FA3E7751C1166CC1563F6B
:405680004C5555555555A53F0000E03F0000F03F3233D33F0000E93F0000E73F0000D23F2DE9F04F7B4DD41E85FB0465E417C4EBA505ADF51D7D25EAE5750E959946764CB8
:4056C000EB43A69D09F1FF3654F8254004960C9407900E9C049D0C9803EB430302EBC303A61B2C180B910A9317D4A798344401340DF1880800EB8605002709E0E85901F057
:405700007FF80136A642E8E9020107F1040704D0002EF3DA00200021F3E70C9C002C2DDB0C9D74AE06EBC50B24A800EBC90A0DF5E478CDF80CB0049C002CC0F29581079D09
:405740005746A5F1080B00240025002677E90223FBE9020101F0BAF802460B462046294600F002FF01364E4504460D46EED1E8E90245039C0AF1080AA045DCD10C9D10AC25
:4057800004EB850602940F960395039E9CABF60033440696039E53E92845002E2EDD069E0DF5E87AB244039E0DF13C0B0BEB860B0DF13C080022394B2046294601F086F891
:4057C00001F01EFB01F01CF80022354B06460F4601F07CF802460B462046294600F0C2FE01F00EFB324648F8040F3B467AE9020100F0BAFED84504460D46DBD12046294645
:405800000A9A00F021FE00224FF07F5304460D4601F05CF800F088FD0022224B01F056F802460B462046294600F09CFE04460D4601F0E6FA824600F0E3FF02460B4620465E
:40584000294600F08FFE0A9C0646002C0F4640F3F280039D10A8691E50F82130C4F1180043FA00F202FA00F0C4F117051B1A43FA05F510AC44F821309244002D3EDD039C81
:405880000AF1010A002C40F3F98010AB03EB8401002411E0ABAAAA2AE88500000000703E0000704100002040C2F1807012B143F8040C01248B420DD053F8042B002CF3D089
:4058C000C2F1FF1202F57F428B4243F8042C4FF00104F1D10A9800280DDD012800F0B380022808D1039910A84B1E50F82320C2F3150240F82320022D00F084803046394644
:405900000022002301F04AFA002800F0B980039C0C9E04F1FF3846450DDC10A800EB84030F98002253F8041D834242EA0102F9D1002A40F044820C9C10AD621E55F82230F2
:40594000002B40F0548205EB8202012352F8041D01330029FAD0039E039C1E44631CB3420D9649DC049D0E9E2B44214622460D9D3244494424AE03F1FF3B2B1B06EBC104BA
:405980000994A79D069C06EBCB0B74AE05EB8202DB0026440392089306964FF00008039D08F1080855F8040F039500F029FF049EEBE90201002E22DB079C099FA4F1080A60
:4059C000474400240025002677E90223FAE9020100F07CFF02460B462046294600F0C4FD01364E4504460D46EED1069EE6E90245089C0696A045D2D10D9D0395C5E60024FF
:405A00000025F2E732463B460020924900F0AAFD06460F46002C3FF471AF0A9A00208D4900F012FD02460B463046394600F09AFD06460F4662E710D1039D10A86B1E50F81B
:405A40002350ED1519E7039910A84B1E50F82320C2F3160240F823204DE700227E4B01F0BBF920B9054649E7002400257FE6039C0225002C0AF1010A3FF707AF002429E743
:405A80000A9C3046624239460695CDF81CA000F0DBFC0022714B04460D4601F09DF9002800F0BB8100226E4B2046294600F00EFF01F0A6F9064600F0A3FE0022674B00F090
:405AC00005FF02460B462046294600F04BFD01F097F9039C0A9D10A904F10108183541F824000A9541F828600A9A0020594900F0ABFCB8F1000F04460D465ADB08F10106ED
:405B000010A874A9039600EB860701EBC60657F8040D00F075FE22462B4600F0D7FE002266E902014E4B2046294600F0CFFE029A044697420D46EAD108F1005B0BF1FF3B70
:405B400074AB0DF5987ACDF82080DDF8308003EBCB0B4FF00009CDF810A0B8F1000FC0F22881DFF800A15F4600240025002601E04E4510DCF7E90223FAE9020100F0A6FE09
:405B800002460B462046294600F0EEFC0136B04504460D46ECDA049EABF1080B06EBC903C3E90045039C09F10109A145D5D1DDF82080A69D032D00F29780DFE815F0DA0049
:405BC0009C009C000400B8F1000F40F312810DF5987A08F101030AEBC3034FEAC80B039399460AEB0B030DF59C7CD3E9006701E026462F4659E9044532463B462046294643
:405C0000CDF804C0CDE9044500F0AEFC04460D4622462B46DDE9040100F0A4FC32463B4600F0A2FC69E90201DDF804C049E90245E145DDD1B8F1010F40F30D81DDF80CC094
:405C40000AEB0B03CDF810A00AF1100BD3E90045E2460BE00000F03F0000E03F000070410000703EF085000034463D465AE9048922462B464046494600F076FC06460F46A2
:405C800032463B464046494600F06CFC22462B4600F06AFC6AE90201DA454AE90267E3D1DDF810A0039C0020002174E9022300F05BFCA345F9D1069D002D00F0A280DAF8F6
:405CC0000450DAF80C400B9EDAF80020DAF8083005F1004504F1004401F100417560F4603260B36030617161079C04F007000DF51D7DBDE8F08FB8F1000FC0F2A7800DF5C4
:405D0000987A08F10104002200230AEBC4041046194674E9022300F027FC5445F9D102460B46069E002E47D0104603F100410B9CC4E90001DAE9000100F014FCB8F1000FC6
:405D400007DD0AEBC808FAE9022300F00DFCC245F9D1069D002D6AD00B9E024601F10043C6E90223079C04F007000DF51D7DBDE8F08FB8F1000F66DB08F101044CAD05EB66
:405D8000C4040020002174E9022300F0EDFBAC42F9D1069C002C50D00B9D024601F10043C5E90023079C04F007000DF51D7DBDE8F08F00240025EEE610461946B7E70A9E6E
:405DC000069510AD55F82830183ECDF81CA00A96002B7FF489AE05EB8803324653F8041D08F1FF38183A0029F8D00A927CE60123B1E5069D002000210DF5987A002D7FF438
:405E00005EAF0B9EDAE90023C6E90401DAE90201C6E90023C6E9020166E72046294600F0EFFFDDF80C8010AA42F828005CE60B9E02460B46C6E9022394E70B9D02460B4637
:405E4000C5E90023AEE700200021A2E7002200230DF5987A65E7002000212CE7000000002DE9F04F21F00046B6F1795F85B004460D469046994604DA00F0C2FF002800F0A0
:405E8000848022462B462046294600F01FFD22462B4606460F4600F019FD3FA3D3E9002382468B463046394600F010FD3CA3D3E9002300F057FB32463B4600F007FD3AA38E
:405EC000D3E9002300F050FB32463B4600F0FEFC37A3D3E9002300F045FB32463B4600F0F5FC35A3D3E9002300F03EFB0E9BCDE90201002B33D0404649460022324B00F0CE
:405F0000E5FCDDE90223CDE900015046594600F0DDFC02460B46DDE9000100F023FB32463B4600F0D3FC42464B4600F01BFB24A3D3E9002306460F465046594600F0C6FC6D
:405F400002460B463046394600F00EFB02460B462046294600F006FB05B0BDE8F08FDDE902233046394600F0B1FC15A3D3E9002300F0F8FA52465B4600F0A8FC22462B46C6
:405F800000F0F2FA05B0BDE8F08F2046294605B0BDE8F08FAFF300807CD5CF5A3AD9E53DEB9C2B8AE6E55A3E7DFEB157E31DC73ED561C119A0012A3FA6F810111111813FCB
:405FC000495555555555C53F0000E03FAFF300802DE9F04FB64B21F000469E4283B004460D4689460FDDB3498E4200F3B38000F0AE80B9F1000F40F3EF8091A1D1E90001FA
:4060000003B0BDE8F08FAC4B9E4200F3BD80A3F1DE739E4240F3A7804FF0FF3C22462B4620462946CDF804C000F050FC02460B4682468B4600F04AFC83A3D3E900230646BD
:406040000F4600F043FC82A3D3E9002300F08CFA32463B4600F03AFC7FA3D3E9002300F083FA32463B4600F031FC7DA3D3E9002300F07AFA32463B4600F028FC7AA3D3E936
:40608000002300F071FA32463B4600F01FFC78A3D3E9002300F068FA52465B4600F016FC75A3D3E9002382468B463046394600F00DFC73A3D3E9002300F054FA32463B462D
:4060C00000F004FC70A3D3E9002300F04BFA32463B4600F0FBFB6EA3D3E9002300F042FA32463B4600F0F2FB6BA3D3E9002300F039FA32463B4600F0E9FBDDF804C00246FA
:40610000BCF1FF3F0B466BD0504659464FEACC0600F02AFA22462B4600F0D8FB674F684B37441E44D6E9002300F01CFA22462B4600F018FA02460B46D7E9000100F012FA99
:40614000B9F1000F0CDA01F10045294608E000283FF44FAF2046294622462B4600F004FA03B0BDE8F08F4EA3D3E9002300F0FCF90022544B00F03AFE00283FF44DAF2046CB
:40618000294603B0BDE8F08F00F0CAF84E4B04469E420D4633DCA3F550239E4200F3A58002460B4600F0E0F90022464B00F0DAF9002206460F46204629464FF0804300F05D
:4061C000D3F902460B463046394600F0A9FC4FF0000C04460D4621E733A1D1E90001BFE75046594600F0C0F922462B4600F06EFB02460B462046294600F0B4F9B0E7334B5B
:406200009E4267DC0022324B00F0ACF9002206460F46204629462E4B00F058FB0022294B00F0A2F902460B463046394600F078FC4FF0020C04460D46F0E600BFAFF30080FF
:40624000182D4454FB21F93F11DA22E33AAD903FEB0D76244B7BA93F513DD0A0660DB13F6E204CC5CD45B73FFF8300922449C23F0D5555555555D53F2F6C6A2C44B4A2BF29
:406280009AFDDE522DDEAD3F6D9A74AFF2B0B33F711623FEC671BC3FC4EB98999999C93F9C7500883CE4377E182D4454FB21F9BFFFFF0F440000F07FFFFFDB3F5886000099
:4062C000388600000000F03FFFFFF23FFF7F03400000F83F02460B4600200F4900F020FC4FF0030C04460D4698E600220B4B00F039F9002206460F4620462946074B00F090
:4063000033F902460B463046394600F009FC4FF0010C04460D4681E60000F0BF0000F03F21F00041704700BF2DE9F84FC1F30A57A7F2FF36132E02460B4604460D46894632
:406340008A4680461CDC002E40DB3D4F374107EA010C5CEA000C18D037A3D3E9002300F003F90022002300F041FD28B1002D42DB2AEA07094FF0000840464946BDE8F88F23
:40638000332E06DDB6F5806F31D010461946BDE8F88FA7F2134C4FF0FF3B2BFA0CFB1BEA000FF2D024A3D3E9002300F0DDF80022002300F01BFD0028DED0002D22DB28EAE0
:4063C0000B08D14640464946BDE8F88F1AA3D3E9002300F0C9F80022002300F007FD0028CAD0002D1CDB4FF00008C146C4E700F0BBF8BDE8F88F4FF4801A4AFA06F606EBF0
:40640000050AB5E7142E14D0C7F586670123033703FA07F717EB040828BF05EB030ACEE725F00042074B224318BF99464FF00008A2E705F1010AC2E79C7500883CE4377E36
:40644000FFFF0F000000F0BFC1F30A532DE9F041904606460F460A461BBB21F00043034334D0354B002200F031FA344B064698450F463BDBC1F30A53363B0A46434440F272
:40648000FE718B4216DD28A1D1E9000132463B4600F05AF824A3D3E9002300F017FABDE8F08140F2FF74A34227D0434440F2FE718B42E8DC002B0BDD22F0FF4222F4E00299
:4064C00042EA035730463946BDE8F081BDE8F08113F1350F17DA4CF250339845D3DC14A1D1E9000132463B4600F02EF810A3D3E9002300F0EBF9BDE8F08102460B4600F0EB
:4065000033F8BDE8F08122F0FF4222F4E002363342EA0357304639460022094B00F0D6F9BDE8F081AFF300809C7500883CE4377E59F3F8C21F6EA50100005043B03CFFFF5A
:406540000000903CAFF3008030B403F0004321F0004243EA020130BC704700BF81F0004102E000BF83F0004330B54FEA41044FEA430594EA050F08BF90EA020F1FBF54EA41
:40658000000C55EA020C7FEA645C7FEA655C00F0E2804FEA5454D4EB5555B8BF6D420CDD2C4480EA020281EA030382EA000083EA010180EA020281EA0303362D88BF30BDE4
:4065C00011F0004F4FEA01314FF4801C4CEA113102D0404261EB410113F0004F4FEA03334CEA133302D0524263EB430394EA050F00F0A780A4F10104D5F1200E0DDB02FA55
:406600000EFC22FA05F2801841F1000103FA0EF2801843FA05F359410EE0A5F120050EF1200E012A03FA0EFC28BF4CF0020C43FA05F3C01851EBE37101F0004507D54FF0E7
:40664000000EDCF1000C7EEB00006EEB0101B1F5801F1BD3B1F5001F0CD349085FEA30004FEA3C0C04F101044FEA445212F5800F80F09A80BCF1004F08BF5FEA500C50F1BB
:40668000000041EB045141EA050130BD5FEA4C0C404141EB010111F4801FA4F10104E9D191F0000F04BF01460020B1FA81F308BF2033A3F10B03B3F120020CDA0C3208DD8F
:4066C00002F1140CC2F10C0201FA0CF021FA02F10CE002F11402D8BFC2F1200C01FA02F120FA0CFCDCBF41EA0C019040E41AA2BF01EB0451294330BD6FEA04041F3C1CDAF8
:406700000C340EDC04F11404C4F1200220FA04F001FA02F340EA030021FA04F345EA030130BDC4F10C04C4F1200220FA02F001FA04F340EA0300294630BD21FA04F029464D
:4067400030BD94F0000F83F4801306BF81F480110134013D4EE77FEA645C18BF7FEA655C29D094EA050F08BF90EA020F05D054EA000C04BF1946104630BD91EA030F1EBF27
:406780000021002030BD5FEA545C05D14000494128BF41F0004130BD14F580043CBF01F5801130BD01F0004545F0FE4141F470014FF0000030BD7FEA645C1ABF194610469D
:4067C0007FEA655C1CBF0B46024650EA013406BF52EA033591EA030F41F4002130BD00BF90F0000F04BF0021704730B54FF4806404F132044FF000054FF0000150E700BFE9
:4068000090F0000F04BF0021704730B54FF4806404F1320410F0004548BF40424FF000013EE700BF42004FEAE2014FEA31014FEA02701FBF12F07F4393F07F4F81F060517C
:40684000704792F0000F14BF93F07F4F704730B54FF4607401F0004521F0004120E700BF50EA010208BF704730B54FF000050AE050EA010208BF704730B511F0004502D520
:40688000404261EB41014FF4806404F132045FEA915C3FF4DCAE4FF003025FEADC0C18BF03325FEADC0C18BF033202EBDC02C2F1200300FA03FC20FA02F001FA03FE40EAF9
:4068C0000E0021FA02F11444C1E600BF70B54FF0FF0C4CF4E06C1CEA11541DBF1CEA135594EA0C0F95EA0C0F00F0DEF82C4481EA030621EA4C5123EA4C5350EA013518BF96
:4069000052EA033541F4801143F4801338D0A0FB02CE4FF00005E1FB02E506F00042E0FB03E54FF00006E1FB03569CF0000F18BF4EF0010EA4F1FF04B6F5007F64F54074D6
:4069400004D25FEA4E0E6D4146EB060642EAC62141EA55514FEAC52040EA5E504FEACE2EB4F1FD0C88BFBCF5E06F1ED8BEF1004F08BF5FEA500E50F1000041EB045170BD5C
:4069800006F0004646EA010140EA020081EA0301B4EB5C04C2BFD4EB0C0541EA045170BD41F480114FF0000E013C00F3AB8014F1360FDEBF002001F0004170BDC4F1000444
:4069C000203C35DA0C341BDC04F11404C4F1200500FA05F320FA04F001FA05F240EA020001F0004221F0004110EBD37021FA04F642EB06015EEA430E08BF20EAD37070BD0A
:406A0000C4F10C04C4F1200500FA04F320FA05F001FA04F240EA020001F0004110EBD37041F100015EEA430E08BF20EAD37070BDC4F1200500FA05F24EEA020E20FA04F3F9
:406A400001FA05F243EA020321FA04F001F0004121FA04F220EA020000EBD3705EEA430E08BF20EAD37070BD94F0000F0FD101F00046400041EB010111F4801F08BF013CCC
:406A8000F7D041EA060195F0000F18BF704703F00046520043EB030313F4801F08BF013DF7D043EA0603704794EA0C0F0CEA135518BF95EA0C0F0CD050EA410618BF52EAC5
:406AC0004306D1D181EA030101F000414FF0000070BD50EA410606BF1046194652EA430619D094EA0C0F02D150EA013613D195EA0C0F05D152EA03361CBF104619460AD124
:406B000081EA030101F0004141F0FE4141F470014FF0000070BD41F0FE4141F4780170BD70B54FF0FF0C4CF4E06C1CEA11541DBF1CEA135594EA0C0F95EA0C0F00F0A7F875
:406B4000A4EB050481EA030E52EA03354FEA013100F088804FEA03334FF0805545EA131343EA12634FEA022245EA111545EA10654FEA00260EF000419D4208BF964244F109
:406B8000FD0404F5407402D25B084FEA3202B61A65EB03055B084FEA32024FF480104FF4002CB6EB020E75EB030E22BFB61A754640EA0C005B084FEA3202B6EB020E75EBA4
:406BC000030E22BFB61A754640EA5C005B084FEA3202B6EB020E75EB030E22BFB61A754640EA9C005B084FEA3202B6EB020E75EB030E22BFB61A754640EADC0055EA060EB7
:406C000018D04FEA051545EA16754FEA06164FEAC30343EA52734FEAC2025FEA1C1CC0D111F4801F0BD141EA00014FF000004FF0004CB6E711F4801F04BF01430020B4F187
:406C4000FD0C88BFBCF5E06F3FF6AFAEB5EB030C04BFB6EB020C5FEA500C50F1000041EB045170BD0EF0004E4EEA113114EB5C04C2BFD4EB0C0541EA045170BD41F4801194
:406C80004FF0000E013C90E645EA060E8DE60CEA135594EA0C0F08BF95EA0C0F3FF43BAF94EA0C0F0AD150EA01347FF434AF95EA0C0F7FF425AF104619462CE795EA0C0F2D
:406CC00006D152EA03353FF4FDAE1046194622E750EA410618BF52EA43067FF4C5AE50EA41047FF40DAF52EA43057FF4EBAE12E74FF0FF3C06E000BF4FF0010C02E000BFA7
:406D00004FF0010C4DF804CD4FEA410C7FEA6C5C4FEA430C18BF7FEA6C5C1BD001B050EA410C0CBF52EA430C91EA030F02BF90EA020F0020704710F1000F91EA030F58BFCD
:406D4000994208BF90422CBFD8176FEAE37040F0010070474FEA410C7FEA6C5C02D150EA013C07D14FEA430C7FEA6C5CD6D152EA033CD3D05DF8040B704700BF84461046E0
:406D800062468C461946634600E000BF01B5FFF7B7FF002848BF10F1000F01BD4DF808EDFFF7F4FF0CBF012000205DF808FB00BF4DF808EDFFF7EAFF34BF012000205DF86B
:406DC00008FB00BF4DF808EDFFF7E0FF94BF012000205DF808FB00BF4DF808EDFFF7CEFF94BF012000205DF808FB00BF4DF808EDFFF7C4FF34BF012000205DF808FB00BF31
:406E00004FEA410212F5001215D211D56FF47873B3EB625212D94FEAC12343F0004343EA505311F0004F23FA02F018BF404270474FF00000704750EA013005D111F000401B
:406E400008BF6FF0004070474FF00000704700BF4A0011D212F5001211D20DD56FF47873B3EB62520ED44FEAC12343F0004343EA505323FA02F070474FF00000704750EA5A
:406E8000013002D14FF0FF3070474FF000007047014B1868704700BF9481FF1F70B50E4B0E4D0024ED1AAD101E46AC4204D056F8242090470134F8E701F0FAFB084D094B4B
:406EC0000024ED1AAD101E46AC4204D056F8242090470134F8E770BDBC860000BC860000C4860000BC86000010B50023934203D0CC5CC4540133F9E710BD024403469342B5
:406F000002D003F8011BFAE7704700000EB400B54FF402719CB0ADF814106FF00041049107914FF6FF711DABADF81610084953F8042B02900690086802A9019300F066F889
:406F4000029B00221A701CB05DF804EB03B070479481FF1F2DE9F0478D688146AB420C4692461F4643D38B8913F4906F3DD0266809690222C1EB0608666906EB460696FBDE
:406F8000F2F608F101023A44964238BF16465B050FD5314600F01AFB054698B121694246FFF7A2FFA38923F4906343F08003A38113E0324600F05EFB054670B948462169F7
:406FC00000F0C0FA0C23C9F80030A3894FF0FF3043F04003A381BDE8F087256166614544C8EB06062560A6603D46AF4200D23D462A462068514600F089FAA36800205B1BEB
:40700000A36023681D442560BDE8F0872DE9F0439DB003938B8907461C060D4616460CD50B6953B9402100F0D1FA2860286110B90C233B60C7E040236B6100230993202369
:407040008DF8293030238DF82A3033461C4613F8012B1AB9B4EB06090FD002E0252AF5D1F8E73846294632464B46FFF773FF013000F0A480099B4B4409932378002B00F090
:407080009D8000234FF0FF3204930793059206938DF853301A9304F101094D4E4C4630462178052200F024FA09F10109049B28B1861B0120B04003430493EEE7D90644BFD8
:4070C00020228DF853201A0744BF2B228DF8532022782A2A02D0079B21460EE0039A111D12680391002A01DB079204E0524243F002030792049301340AE00C4622780131A1
:40710000303A092A03D80A2000FB0323F5E7079323782E2B19D163782A2B09D1039B02341A1D1B680392002BB8BF4FF0FF330BE0611C00230C4622780131303A092A03D8D7
:407140000A2000FB0323F5E70593224E21783046032200F0CDF930B1861B4020B040049B01340343049321781B480622661C8DF8281000F0BDF988B1184B33B9039B07330A
:4071800023F007030833039314E003AB0093384604A92A46124BAFF3008007E003AB0093384604A92A460E4B00F08EF8B0F1FF3F804603D0099B4344099346E7AB895B06FF
:4071C00001D4099801E04FF0FF301DB0BDE8F0837A860000808600008486000000000000556F00002DE9F84315461F468A680B6906469A42A8BF13462B6091F843200C46E9
:40720000DDF820800AB101332B602368990602D52B6802332B60236813F006091DD094F843302268003318BF012392061FD5E118302081F843005A1C94F845102244023347
